0029029170999991906010106004+62900+027667FM-12+009099999V0209991C000019999999N0000001N9-00781+99999100831ADDGF108991999999999999999999
0029029170999991906010113004+62900+027667FM-12+009099999V0209991C000019999999N0000001N9-00391+99999100981ADDGF108991999999999999999999
0029029170999991906010120004+62900+027667FM-12+009099999V0209991C000019999999N0000001N9-00501+99999101021ADDGF108991999999999999999999
0029029170999991906010206004+62900+027667FM-12+009099999V0202301N001019999999N0000001N9-00221+99999101101ADDGF108991999999999999999999
0029029170999991906010213004+62900+027667FM-12+009099999V0202301N001019999999N0000001N9-00281+99999101141ADDGF108991999999999999999999
0029029170999991906010220004+62900+027667FM-12+009099999V0202301N001019999999N0000001N9-00281+99999100991ADDGF108991999999999999999999
0029029170999991906010306004+62900+027667FM-12+009099999V0202701N001019999999N0000001N9-00331+99999101021ADDGF108991999999999999999999
0029029170999991906010313004+62900+027667FM-12+009099999V0209991C000019999999N0000001N9-00781+99999100941ADDGF100991999999999999999999
0029029170999991906010320004+62900+027667FM-12+009099999V0209991C000019999999N0000001N9-01061+99999101021ADDGF100991999999999999999999
0029029170999991906010406004+62900+027667FM-12+009099999V0202301N001019999999N0000001N9-00671+99999100831ADDGF108991999999999999999999
0029029170999991906010413004+62900+027667FM-12+009099999V0209991C000019999999N0000001N9-01061+99999100861ADDGF100991999999999999999999
0029029170999991906010420004+62900+027667FM-12+009099999V0202501N002619999999N0000001N9-00891+99999100701ADDGF108991999999999999999999
0029029170999991906010506004+62900+027667FM-12+009099999V0209991C000019999999N0000001N9-00781+99999100591ADDGF108991999999999999999999
0029029170999991906010513004+62900+027667FM-12+009099999V0209991C000019999999N0000001N9-00501+99999100161ADDGF108991999999999999999999
0029029170999991906010520004+62900+027667FM-12+009099999V0209991C000019999999N0000001N9-00391+99999100021ADDGF108991999999999999999999
0029029170999991906010606004+62900+027667FM-12+009099999V0209991C000019999999N0000001N9-00221+99999099681ADDGF108991999999999999999999
0029029170999991906010613004+62900+027667FM-12+009099999V0201801N001019999999N0000001N9-00171+99999099591ADDGF108991999999999999999999
0029029170999991906010620004+62900+027667FM-12+009099999V0209991C000019999999N0000001N9-00441+99999099481ADDGF108991999999999999999999
0029029170999991906010706004+62900+027667FM-12+009099999V0201601N001019999999N0000001N9-00561+99999099391ADDGF108991999999999999999999
0035029170999991906010713004+62900+027667FM-12+009099999V0209991C000019999999N0000001N9-00061+99999099391ADDGF108991999999999999999999MW1721
0029029170999991906010720004+62900+027667FM-12+009099999V0209991C000019999999N0000001N9-00221+99999099391ADDGF108991999999999999999999
0029029170999991906010806004+62900+027667FM-12+009099999V0209991C000019999999N0000001N9-00281+99999099151ADDGF108991999999999999999999
0035029170999991906010813004+62900+027667FM-12+009099999V0209991C000019999999N0000001N9-00111+99999099551ADDGF108991999999999999999999MW1721
0029029170999991906010820004+62900+027667FM-12+009099999V0201801N002619999999N0000001N9-00111+99999100031ADDGF108991999999999999999999
0029029170999991906010906004+62900+027667FM-12+009099999V0209991C000019999999N0000001N9-00171+99999100031ADDGF108991999999999999999999
0029029170999991906010913004+62900+027667FM-12+009099999V0201601N001019999999N0000001N9-00281+99999100401ADDGF108991999999999999999999
0029029170999991906010920004+62900+027667FM-12+009099999V0209991C000019999999N0000001N9-00391+99999100231ADDGF108991999999999999999999
0029029170999991906011006004+62900+027667FM-12+009099999V0201401N002619999999N0000001N9-00441+99999099701ADDGF108991999999999999999999
0035029170999991906011013004+62900+027667FM-12+009099999V0209991C000019999999N0000001N9-00611+99999099591ADDGF108991999999999999999999MW1721
0029029170999991906011020004+62900+027667FM-12+009099999V0209991C000019999999N0000001N9-00721+99999099681ADDGF108991999999999999999999
0029029170999991906011106004+62900+027667FM-12+009099999V0209991C000019999999N0000001N9-00671+99999099921ADDGF108991999999999999999999
0029029170999991906011113004+62900+027667FM-12+009099999V0201401N001019999999N0000001N9-00391+99999100031ADDGF108991999999999999999999
0029029170999991906011120004+62900+027667FM-12+009099999V0209991C000019999999N0000001N9-00391+99999100161ADDGF108991999999999999999999
0029029170999991906011206004+62900+027667FM-12+009099999V0209991C000019999999N0000001N9-00441+99999100071ADDGF108991999999999999999999
0029029170999991906011213004+62900+027667FM-12+009099999V0209991C000019999999N0000001N9-00391+99999099901ADDGF108991999999999999999999
0029029170999991906011220004+62900+027667FM-12+009099999V0209991C000019999999N0000001N9-00561+99999099831ADDGF108991999999999999999999
0029029170999991906011306004+62900+027667FM-12+009099999V0209991C000019999999N0000001N9-00671+99999099601ADDGF108991999999999999999999
0029029170999991906011313004+62900+027667FM-12+009099999V0201101N002619999999N0000001N9-00721+99999099481ADDGF108991999999999999999999
0029029170999991906011320004+62900+027667FM-12+009099999V0201101N004619999999N0000001N9-00831+99999099301ADDGF108991999999999999999999
0035029170999991906011406004+62900+027667FM-12+009099999V0209991C000019999999N0000001N9-00671+99999098581ADDGF108991999999999999999999MW1721
0035029170999991906011413004+62900+027667FM-12+009099999V0209991C000019999999N0000001N9-00501+99999098671ADDGF108991999999999999999999MW1721
0035029170999991906011420004+62900+027667FM-12+009099999V0209991C000019999999N0000001N9-00501+99999098831ADDGF108991999999999999999999MW1721
0029029170999991906011506004+62900+027667FM-12+009099999V0209991C000019999999N0000001N9-00781+99999099671ADDGF100991999999999999999999
0029029170999991906011513004+62900+027667FM-12+009099999V0209991C000019999999N0000001N9-00781+99999100181ADDGF108991999999999999999999
0035029170999991906011520004+62900+027667FM-12+009099999V0202301N002619999999N0000001N9-00721+99999100401ADDGF108991999999999999999999MW1721
0029029170999991906011606004+62900+027667FM-12+009099999V0201801N001019999999N0000001N9-00331+99999100071ADDGF108991999999999999999999
0029029170999991906011613004+62900+027667FM-12+009099999V0201801N001019999999N0000001N9-00171+99999100031ADDGF108991999999999999999999
0029029170999991906011620004+62900+027667FM-12+009099999V0201801N001019999999N0000001N9+00061+99999099751ADDGF108991999999999999999999
0029029170999991906011706004+62900+027667FM-12+009099999V0202301N001019999999N0000001N9+00061+99999099401ADDGF108991999999999999999999
0029029170999991906011713004+62900+027667FM-12+009099999V0201801N001019999999N0000001N9+00111+99999099201ADDGF108991999999999999999999
0035029170999991906011720004+62900+027667FM-12+009099999V0201601N004619999999N0000001N9+00061+99999098461ADDGF108991999999999999999999MW1721
0029029170999991906011806004+62900+027667FM-12+009099999V0209991C000019999999N0000001N9+00001+99999097591ADDGF108991999999999999999999
0035029170999991906011813004+62900+027667FM-12+009099999V0201801N001019999999N0000001N9+00061+99999097381ADDGF108991999999999999999999MW1721
0029029170999991906011820004+62900+027667FM-12+009099999V0202301N002619999999N0000001N9-00061+99999097711ADDGF108991999999999999999999
0029029170999991906011906004+62900+027667FM-12+009099999V0202301N002619999999N0000001N9-00171+99999098381ADDGF108991999999999999999999
0029029170999991906011913004+62900+027667FM-12+009099999V0209991C000019999999N0000001N9-00221+99999098761ADDGF108991999999999999999999
0029029170999991906011920004+62900+027667FM-12+009099999V0209991C000019999999N0000001N9-00331+99999098951ADDGF108991999999999999999999
0029029170999991906012006004+62900+027667FM-12+009099999V0203601N001019999999N0000001N9-00441+99999098761ADDGF108991999999999999999999
0029029170999991906012013004+62900+027667FM-12+009099999V0203601N002619999999N0000001N9-01171+99999098911ADDGF100991999999999999999999
0029029170999991906012020004+62900+027667FM-12+009099999V0203201N002619999999N0000001N9-00941+99999099141ADDGF108991999999999999999999
0029029170999991906012106004+62900+027667FM-12+009099999V0203201N001019999999N0000001N9-00721+99999099221ADDGF108991999999999999999999
0035029170999991906012113004+62900+027667FM-12+009099999V0203201N001019999999N0000001N9-00781+99999099481ADDGF108991999999999999999999MW1721
0029029170999991906012120004+62900+027667FM-12+009099999V0203201N001019999999N0000001N9-00891+99999099711ADDGF108991999999999999999999
0029029170999991906012206004+62900+027667FM-12+009099999V0209991C000019999999N0000001N9-00891+99999100281ADDGF108991999999999999999999
0029029170999991906012213004+62900+027667FM-12+009099999V0203601N002619999999N0000001N9-00941+99999100631ADDGF108991999999999999999999
0029029170999991906012220004+62900+027667FM-12+009099999V0200501N001019999999N0000001N9-01171+99999101081ADDGF108991999999999999999999
0029029170999991906012306004+62900+027667FM-12+009099999V0202301N001019999999N0000001N9-01831+99999101521ADDGF102991999999999999999999
0029029170999991906012313004+62900+027667FM-12+009099999V0202301N001019999999N0000001N9-01611+99999101701ADDGF108991999999999999999999
0029029170999991906012320004+62900+027667FM-12+009099999V0209991C000019999999N0000001N9-01941+99999101751ADDGF100991999999999999999999
0035029170999991906012406004+62900+027667FM-12+009099999V0201401N001019999999N0000001N9-01501+99999101261ADDGF108991999999999999999999MW1721
0029029170999991906012413004+62900+027667FM-12+009099999V0201401N001019999999N0000001N9-00891+99999100641ADDGF108991999999999999999999
0029029170999991906012420004+62900+027667FM-12+009099999V0202001N001019999999N0000001N9-00281+99999100081ADDGF108991999999999999999999
0029029170999991906012506004+62900+027667FM-12+009099999V0209991C000019999999N0000001N9+00061+99999099501ADDGF108991999999999999999999
0029029170999991906012513004+62900+027667FM-12+009099999V0202301N004619999999N0000001N9+00111+99999099301ADDGF108991999999999999999999
0029029170999991906012520004+62900+027667FM-12+009099999V0202301N004619999999N0000001N9+00061+99999099261ADDGF108991999999999999999999
0029029170999991906012606004+62900+027667FM-12+009099999V0201801N002619999999N0000001N9-00501+99999099101ADDGF108991999999999999999999
0035029170999991906012613004+62900+027667FM-12+009099999V0201801N002619999999N0000001N9-00721+99999098831ADDGF108991999999999999999999MW1721
0029029170999991906012620004+62900+027667FM-12+009099999V0201801N001019999999N0000001N9-00941+99999098111ADDGF108991999999999999999999
0029029170999991906012706004+62900+027667FM-12+009099999V0201801N002619999999N0000001N9+00001+99999096721ADDGF108991999999999999999999
0035029170999991906012713004+62900+027667FM-12+009099999V0201801N002619999999N0000001N9+00111+99999095561ADDGF108991999999999999999999MW1721
0029029170999991906012720004+62900+027667FM-12+009099999V0202301N001019999999N0000001N9+00001+99999095901ADDGF108991999999999999999999
0029029170999991906012806004+62900+027667FM-12+009099999V0202701N002619999999N0000001N9-00061+99999096751ADDGF108991999999999999999999
0029029170999991906012813004+62900+027667FM-12+009099999V0202301N002619999999N0000001N9-00171+99999097001ADDGF100991999999999999999999
0029029170999991906012820004+62900+027667FM-12+009099999V0209991C000019999999N0000001N9-00561+99999096471ADDGF108991999999999999999999
0029029170999991906012906004+62900+027667FM-12+009099999V0202701N001019999999N0000001N9-00501+99999097101ADDGF108991999999999999999999
0029029170999991906012913004+62900+027667FM-12+009099999V0202701N002619999999N0000001N9-00441+99999097751ADDGF100991999999999999999999
0029029170999991906012920004+62900+027667FM-12+009099999V0202701N001019999999N0000001N9-00721+99999098071ADDGF100991999999999999999999
0029029170999991906013006004+62900+027667FM-12+009099999V0202701N001019999999N0000001N9-01221+99999098401ADDGF100991999999999999999999
0029029170999991906013013004+62900+027667FM-12+009099999V0202701N001019999999N0000001N9-01061+99999098711ADDGF100991999999999999999999
0029029170999991906013020004+62900+027667FM-12+009099999V0203201N001019999999N0000001N9-01331+99999099061ADDGF100991999999999999999999
0029029170999991906013106004+62900+027667FM-12+009099999V0209991C000019999999N0000001N9-01941+99999099601ADDGF100991999999999999999999
0029029170999991906013113004+62900+027667FM-12+009099999V0209991C000019999999N0000001N9-01331+99999099511ADDGF108991999999999999999999
0029029170999991906013120004+62900+027667FM-12+009099999V0203201N001019999999N0000001N9-01331+99999099641ADDGF108991999999999999999999
0029029170999991906020106004+62900+027667FM-12+009099999V0209991C000019999999N0000001N9-02221+99999099421ADDGF108991999999999999999999
0035029170999991906020113004+62900+027667FM-12+009099999V0209991C000019999999N0000001N9-01441+99999098781ADDGF108991999999999999999999MW1721
0029029170999991906020120004+62900+027667FM-12+009099999V0209991C000019999999N0000001N9-01221+99999098341ADDGF108991999999999999999999
0029029170999991906020206004+62900+027667FM-12+009099999V0209991C000019999999N0000001N9-01001+99999097961ADDGF108991999999999999999999
0035029170999991906020213004+62900+027667FM-12+009099999V0209991C000019999999N0000001N9-00781+99999097861ADDGF108991999999999999999999MW1721
0035029170999991906020220004+62900+027667FM-12+009099999V0209991C000019999999N0000001N9-00831+99999097821ADDGF108991999999999999999999MW1721
0029029170999991906020306004+62900+027667FM-12+009099999V0201401N001019999999N0000001N9-00891+99999097911ADDGF108991999999999999999999
0035029170999991906020313004+62900+027667FM-12+009099999V0209991C000019999999N0000001N9-00721+99999098261ADDGF108991999999999999999999MW1721
0035029170999991906020320004+62900+027667FM-12+009099999V0209991C000019999999N0000001N9-00721+99999098621ADDGF108991999999999999999999MW1721
0035029170999991906020406004+62900+027667FM-12+009099999V0200901N001019999999N0000001N9-00721+99999099111ADDGF108991999999999999999999MW1721
0035029170999991906020413004+62900+027667FM-12+009099999V0209991C000019999999N0000001N9-00561+99999099541ADDGF108991999999999999999999MW1721
0029029170999991906020420004+62900+027667FM-12+009099999V0209991C000019999999N0000001N9-00441+99999099901ADDGF108991999999999999999999
0029029170999991906020506004+62900+027667FM-12+009099999V0209991C000019999999N0000001N9-00441+99999100521ADDGF108991999999999999999999
0029029170999991906020513004+62900+027667FM-12+009099999V0209991C000019999999N0000001N9-00221+99999100901ADDGF108991999999999999999999
0029029170999991906020520004+62900+027667FM-12+009099999V0200901N002619999999N0000001N9-00171+99999100991ADDGF108991999999999999999999
0029029170999991906020606004+62900+027667FM-12+009099999V0202001N002619999999N0000001N9-00331+99999100721ADDGF108991999999999999999999
0029029170999991906020613004+62900+027667FM-12+009099999V0202301N002619999999N0000001N9-00221+99999100661ADDGF108991999999999999999999
0035029170999991906020620004+62900+027667FM-12+009099999V0201801N002619999999N0000001N9-00281+99999100381ADDGF108991999999999999999999MW1721
0029029170999991906020706004+62900+027667FM-12+009099999V0202301N002619999999N0000001N9-00331+99999100111ADDGF108991999999999999999999
0029029170999991906020713004+62900+027667FM-12+009099999V0202301N002619999999N0000001N9-00501+99999099981ADDGF108991999999999999999999
0035029170999991906020720004+62900+027667FM-12+009099999V0201801N002619999999N0000001N9-00831+99999099711ADDGF108991999999999999999999MW1721
0035029170999991906020806004+62900+027667FM-12+009099999V0201801N001019999999N0000001N9-00561+99999098911ADDGF108991999999999999999999MW1721
0029029170999991906020813004+62900+027667FM-12+009099999V0209991C000019999999N0000001N9-00221+99999098621ADDGF108991999999999999999999
0029029170999991906020820004+62900+027667FM-12+009099999V0201801N002619999999N0000001N9-00561+99999098621ADDGF106991999999999999999999
0029029170999991906020906004+62900+027667FM-12+009099999V0201801N001019999999N0000001N9-00501+99999098661ADDGF108991999999999999999999
0035029170999991906020913004+62900+027667FM-12+009099999V0201801N002619999999N0000001N9-00721+99999099031ADDGF108991999999999999999999MW1721
0035029170999991906020920004+62900+027667FM-12+009099999V0201801N004619999999N0000001N9-00441+99999098801ADDGF108991999999999999999999MW1721
0029029170999991906021006004+62900+027667FM-12+009099999V0201801N001019999999N0000001N9-00281+99999098721ADDGF108991999999999999999999
0035029170999991906021013004+62900+027667FM-12+009099999V0201801N001019999999N0000001N9-00221+99999098761ADDGF108991999999999999999999MW1721
0035029170999991906021020004+62900+027667FM-12+009099999V0209991C000019999999N0000001N9-00391+99999098901ADDGF108991999999999999999999MW1721
0029029170999991906021106004+62900+027667FM-12+009099999V0201801N001019999999N0000001N9-00331+99999099191ADDGF108991999999999999999999
0035029170999991906021113004+62900+027667FM-12+009099999V0209991C000019999999N0000001N9-00171+99999099661ADDGF108991999999999999999999MW1721
0029029170999991906021120004+62900+027667FM-12+009099999V0201801N001019999999N0000001N9-00781+99999999999ADDGF108991999999999999999999
0029029170999991906021206004+62900+027667FM-12+009099999V0201801N001019999999N0000001N9-00561+99999100111ADDGF108991999999999999999999
0029029170999991906021213004+62900+027667FM-12+009099999V0201801N001019999999N0000001N9-00501+99999100341ADDGF108991999999999999999999
0029029170999991906021220004+62900+027667FM-12+009099999V0201801N001019999999N0000001N9-00441+99999100521ADDGF108991999999999999999999
0029029170999991906021306004+62900+027667FM-12+009099999V0201801N001019999999N0000001N9-00941+99999100861ADDGF107991999999999999999999
0035029170999991906021313004+62900+027667FM-12+009099999V0201801N001019999999N0000001N9-00781+99999100911ADDGF108991999999999999999999MW1721
0029029170999991906021320004+62900+027667FM-12+009099999V0201801N001019999999N0000001N9-00721+99999100781ADDGF108991999999999999999999
0029029170999991906021406004+62900+027667FM-12+009099999V0209991C000019999999N0000001N9-00561+99999100681ADDGF108991999999999999999999
0029029170999991906021413004+62900+027667FM-12+009099999V0201801N001019999999N0000001N9-00501+99999100711ADDGF108991999999999999999999
0029029170999991906021420004+62900+027667FM-12+009099999V0209991C000019999999N0000001N9-00501+99999100761ADDGF108991999999999999999999
0035029170999991906021506004+62900+027667FM-12+009099999V0209991C000019999999N0000001N9-00561+99999100791ADDGF108991999999999999999999MW1721
0035029170999991906021513004+62900+027667FM-12+009099999V0209991C000019999999N0000001N9-00281+99999100921ADDGF108991999999999999999999MW1721
0035029170999991906021520004+62900+027667FM-12+009099999V0201801N001019999999N0000001N9-00221+99999101041ADDGF108991999999999999999999MW1721
0029029170999991906021606004+62900+027667FM-12+009099999V0201601N001019999999N0000001N9-00331+99999100991ADDGF108991999999999999999999
0029029170999991906021613004+62900+027667FM-12+009099999V0201801N001019999999N0000001N9-00171+99999100881ADDGF108991999999999999999999
0035029170999991906021620004+62900+027667FM-12+009099999V0201801N001019999999N0000001N9+00221+99999100831ADDGF108991999999999999999999MW1721
0029029170999991906021706004+62900+027667FM-12+009099999V0201801N001019999999N0000001N9+00001+99999100861ADDGF108991999999999999999999
0029029170999991906021713004+62900+027667FM-12+009099999V0201801N006719999999N0000001N9-00281+99999100661ADDGF108991999999999999999999
0029029170999991906021720004+62900+027667FM-12+009099999V0201801N001019999999N0000001N9-00391+99999100461ADDGF108991999999999999999999
0035029170999991906021806004+62900+027667FM-12+009099999V0201801N001019999999N0000001N9-00391+99999999999ADDGF108991999999999999999999MW1721
0035029170999991906021813004+62900+027667FM-12+009099999V0201801N001019999999N0000001N9-00331+99999099861ADDGF108991999999999999999999MW1721
0029029170999991906021820004+62900+027667FM-12+009099999V0201801N001019999999N0000001N9-00331+99999099661ADDGF108991999999999999999999
0035029170999991906021906004+62900+027667FM-12+009099999V0209991C000019999999N0000001N9-00111+99999099381ADDGF108991999999999999999999MW1721
0029029170999991906021913004+62900+027667FM-12+009099999V0201801N001019999999N0000001N9+00001+99999099721ADDGF108991999999999999999999
0029029170999991906021920004+62900+027667FM-12+009099999V0209991C000019999999N0000001N9-00501+99999100141ADDGF108991999999999999999999
0029029170999991906022006004+62900+027667FM-12+009099999V0202701N001019999999N0000001N9-01001+99999100361ADDGF108991999999999999999999
0029029170999991906022013004+62900+027667FM-12+009099999V0202301N001019999999N0000001N9-00501+99999100341ADDGF100991999999999999999999
0029029170999991906022020004+62900+027667FM-12+009099999V0209991C000019999999N0000001N9-00941+99999100421ADDGF100991999999999999999999
0029029170999991906022106004+62900+027667FM-12+009099999V0209991C000019999999N0000001N9-01221+99999100441ADDGF100991999999999999999999
0029029170999991906022113004+62900+027667FM-12+009099999V0202701N001019999999N0000001N9-00721+99999100561ADDGF100991999999999999999999
0029029170999991906022120004+62900+027667FM-12+009099999V0209991C000019999999N0000001N9-01671+99999100541ADDGF100991999999999999999999
0035029170999991906022206004+62900+027667FM-12+009099999V0201601N001019999999N0000001N9-01281+99999100151ADDGF108991999999999999999999MW1721
0035029170999991906022213004+62900+027667FM-12+009099999V0201401N001019999999N0000001N9-00671+99999099871ADDGF108991999999999999999999MW1721
0035029170999991906022220004+62900+027667FM-12+009099999V0200501N001019999999N0000001N9-00781+99999099741ADDGF108991999999999999999999MW1721
0029029170999991906022306004+62900+027667FM-12+009099999V0201401N002619999999N0000001N9-00781+99999100061ADDGF108991999999999999999999
0029029170999991906022313004+62900+027667FM-12+009099999V0200901N002619999999N0000001N9-00891+99999100641ADDGF108991999999999999999999
0029029170999991906022320004+62900+027667FM-12+009099999V0200901N004619999999N0000001N9-01671+99999101181ADDGF100991999999999999999999
0029029170999991906022406004+62900+027667FM-12+009099999V0200901N001019999999N0000001N9-02221+99999101501ADDGF100991999999999999999999
0029029170999991906022413004+62900+027667FM-12+009099999V0201801N002619999999N0000001N9-01611+99999101661ADDGF100991999999999999999999
0029029170999991906022420004+62900+027667FM-12+009099999V0201401N004619999999N0000001N9-01831+99999101761ADDGF100991999999999999999999
0029029170999991906022506004+62900+027667FM-12+009099999V0201401N001019999999N0000001N9-02061+99999101541ADDGF108991999999999999999999
0029029170999991906022513004+62900+027667FM-12+009099999V0201401N001019999999N0000001N9-01611+99999101221ADDGF108991999999999999999999
0035029170999991906022520004+62900+027667FM-12+009099999V0201401N001019999999N0000001N9-01391+99999100481ADDGF108991999999999999999999MW1721
0035029170999991906022606004+62900+027667FM-12+009099999V0201401N001019999999N0000001N9-00721+99999099461ADDGF108991999999999999999999MW1381
0035029170999991906022613004+62900+027667FM-12+009099999V0201401N002619999999N0000001N9-00721+99999099111ADDGF108991999999999999999999MW1381
0035029170999991906022620004+62900+027667FM-12+009099999V0201401N001019999999N0000001N9-00781+99999098981ADDGF108991999999999999999999MW1381
0035029170999991906022706004+62900+027667FM-12+009099999V0209991C000019999999N0000001N9-00891+99999098621ADDGF108991999999999999999999MW1721
0035029170999991906022713004+62900+027667FM-12+009099999V0201401N001019999999N0000001N9-00671+99999098381ADDGF108991999999999999999999MW1721
0029029170999991906022720004+62900+027667FM-12+009099999V0201401N001019999999N0000001N9-00561+99999098201ADDGF108991999999999999999999
0029029170999991906022806004+62900+027667FM-12+009099999V0201801N001019999999N0000001N9-00111+99999098031ADDGF108991999999999999999999
0035029170999991906022813004+62900+027667FM-12+009099999V0209991C000019999999N0000001N9+00061+99999098061ADDGF108991999999999999999999MW1721
0035029170999991906022820004+62900+027667FM-12+009099999V0201801N002619999999N0000001N9-00061+99999097761ADDGF108991999999999999999999MW1721
0029029170999991906030106004+62900+027667FM-12+009099999V0209991C000019999999N0000001N9-01501+99999097881ADDGF100991999999999999999999
0029029170999991906030113004+62900+027667FM-12+009099999V0209991C000019999999N0000001N9-00721+99999097911ADDGF100991999999999999999999
0029029170999991906030120004+62900+027667FM-12+009099999V0209991C000019999999N0000001N9-01441+99999097841ADDGF100991999999999999999999
0029029170999991906030206004+62900+027667FM-12+009099999V0200501N001019999999N0000001N9-00781+99999097481ADDGF108991999999999999999999
0029029170999991906030213004+62900+027667FM-12+009099999V0209991C000019999999N0000001N9-00611+99999097431ADDGF108991999999999999999999
0029029170999991906030220004+62900+027667FM-12+009099999V0209991C000019999999N0000001N9-01061+99999097391ADDGF103991999999999999999999
0029029170999991906030306004+62900+027667FM-12+009099999V0202701N002619999999N0000001N9-01501+99999097621ADDGF108991999999999999999999
0029029170999991906030313004+62900+027667FM-12+009099999V0203201N001019999999N0000001N9-00671+99999098101ADDGF108991999999999999999999
0029029170999991906030320004+62900+027667FM-12+009099999V0203201N002619999999N0000001N9-00781+99999098741ADDGF108991999999999999999999
0029029170999991906030406004+62900+027667FM-12+009099999V0203201N001019999999N0000001N9-01281+99999099181ADDGF101991999999999999999999
0029029170999991906030413004+62900+027667FM-12+009099999V0202301N001019999999N0000001N9-00831+99999099281ADDGF108991999999999999999999
0035029170999991906030420004+62900+027667FM-12+009099999V0201401N002619999999N0000001N9-01001+99999098401ADDGF108991999999999999999999MW1721
0035029170999991906030506004+62900+027667FM-12+009099999V0203201N009319999999N0000001N9-00331+99999096841ADDGF108991999999999999999999MW1721
0029029170999991906030513004+62900+027667FM-12+009099999V0203201N004619999999N0000001N9-00671+99999098161ADDGF100991999999999999999999
0029029170999991906030520004+62900+027667FM-12+009099999V0200501N002619999999N0000001N9-01281+99999098981ADDGF108991999999999999999999
0029029170999991906030606004+62900+027667FM-12+009099999V0201401N001019999999N0000001N9-01001+99999098861ADDGF108991999999999999999999
0035029170999991906030613004+62900+027667FM-12+009099999V0201401N001019999999N0000001N9-00611+99999098121ADDGF108991999999999999999999MW1721
0029029170999991906030620004+62900+027667FM-12+009099999V0201801N001019999999N0000001N9-00561+99999097581ADDGF108991999999999999999999
0029029170999991906030706004+62900+027667FM-12+009099999V0202701N006719999999N0000001N9-00171+99999096951ADDGF107991999999999999999999
0029029170999991906030713004+62900+027667FM-12+009099999V0203201N019019999999N0000001N9-00281+99999097431ADDGF102991999999999999999999
0029029170999991906030720004+62900+027667FM-12+009099999V0203201N002619999999N0000001N9-01061+99999098041ADDGF108991999999999999999999
0035029170999991906030806004+62900+027667FM-12+009099999V0201401N002619999999N0000001N9-01171+99999096781ADDGF108991999999999999999999MW1721
0029029170999991906030813004+62900+027667FM-12+009099999V0201401N001019999999N0000001N9-00941+99999096641ADDGF100991999999999999999999
0029029170999991906030820004+62900+027667FM-12+009099999V0209991C000019999999N0000001N9-01171+99999096281ADDGF107991999999999999999999
0035029170999991906030906004+62900+027667FM-12+009099999V0209991C000019999999N0000001N9-00831+99999095341ADDGF108991999999999999999999MW1721
0035029170999991906030913004+62900+027667FM-12+009099999V0203201N001019999999N0000001N9-00331+99999095281ADDGF108991999999999999999999MW1721
0035029170999991906030920004+62900+027667FM-12+009099999V0203601N001019999999N0000001N9-00721+99999095541ADDGF108991999999999999999999MW1721
0035029170999991906031006004+62900+027667FM-12+009099999V0203601N002619999999N0000001N9-01221+99999096321ADDGF108991999999999999999999MW1721
0035029170999991906031013004+62900+027667FM-12+009099999V0203401N006719999999N0000001N9-01221+99999097281ADDGF108991999999999999999999MW1721
0029029170999991906031020004+62900+027667FM-12+009099999V0203601N004619999999N0000001N9-01331+99999097991ADDGF100991999999999999999999
0029029170999991906031106004+62900+027667FM-12+009099999V0203401N001019999999N0000001N9-01721+99999098881ADDGF100991999999999999999999
0029029170999991906031113004+62900+027667FM-12+009099999V0209991C000019999999N0000001N9-00941+99999099271ADDGF100991999999999999999999
0029029170999991906031120004+62900+027667FM-12+009099999V0209991C000019999999N0000001N9-01671+99999099321ADDGF108991999999999999999999
0029029170999991906031206004+62900+027667FM-12+009099999V0201801N001019999999N0000001N9-01221+99999099041ADDGF108991999999999999999999
0035029170999991906031213004+62900+027667FM-12+009099999V0201801N004619999999N0000001N9-00721+99999098631ADDGF108991999999999999999999MW1721
0029029170999991906031220004+62900+027667FM-12+009099999V0201601N004619999999N0000001N9-00891+99999097881ADDGF108991999999999999999999
0035029170999991906031306004+62900+027667FM-12+009099999V0201801N004619999999N0000001N9-00721+99999097071ADDGF108991999999999999999999MW1721
0029029170999991906031313004+62900+027667FM-12+009099999V0201801N002619999999N0000001N9-00331+99999097221ADDGF108991999999999999999999
0035029170999991906031320004+62900+027667FM-12+009099999V0201401N002619999999N0000001N9-00501+99999097061ADDGF108991999999999999999999MW1721
0035029170999991906031406004+62900+027667FM-12+009099999V0201801N001019999999N0000001N9-00281+99999097021ADDGF108991999999999999999999MW1721
0029029170999991906031413004+62900+027667FM-12+009099999V0201801N001019999999N0000001N9-00221+99999097761ADDGF100991999999999999999999
0029029170999991906031420004+62900+027667FM-12+009099999V0209991C000019999999N0000001N9-00781+99999097991ADDGF108991999999999999999999
0029029170999991906031506004+62900+027667FM-12+009099999V0209991C000019999999N0000001N9-01061+99999098781ADDGF108991999999999999999999
0029029170999991906031513004+62900+027667FM-12+009099999V0209991C000019999999N0000001N9-00671+99999099111ADDGF100991999999999999999999
0029029170999991906031520004+62900+027667FM-12+009099999V0209991C000019999999N0000001N9-01281+99999099261ADDGF100991999999999999999999
0029029170999991906031606004+62900+027667FM-12+009099999V0209991C000019999999N0000001N9-01941+99999099311ADDGF108991999999999999999999
0029029170999991906031613004+62900+027667FM-12+009099999V0200501N001019999999N0000001N9-00441+99999099261ADDGF100991999999999999999999
0029029170999991906031620004+62900+027667FM-12+009099999V0209991C000019999999N0000001N9+00781+99999099361ADDGF108991999999999999999999
0029029170999991906031706004+62900+027667FM-12+009099999V0209991C000019999999N0000001N9-00611+99999099701ADDGF108991999999999999999999
0029029170999991906031713004+62900+027667FM-12+009099999V0209991C000019999999N0000001N9-00281+99999099661ADDGF107991999999999999999999
0029029170999991906031720004+62900+027667FM-12+009099999V0209991C000019999999N0000001N9-00891+99999099381ADDGF108991999999999999999999
0029029170999991906031806004+62900+027667FM-12+009099999V0201401N001019999999N0000001N9-01001+99999098791ADDGF108991999999999999999999
0029029170999991906031813004+62900+027667FM-12+009099999V0201401N001019999999N0000001N9-00501+99999098561ADDGF108991999999999999999999
0035029170999991906031820004+62900+027667FM-12+009099999V0200501N001019999999N0000001N9-00721+99999098581ADDGF108991999999999999999999MW1721
0035029170999991906031906004+62900+027667FM-12+009099999V0203601N001019999999N0000001N9-00831+99999098321ADDGF108991999999999999999999MW1721
0035029170999991906031913004+62900+027667FM-12+009099999V0203601N001019999999N0000001N9-00391+99999098391ADDGF108991999999999999999999MW1721
0029029170999991906031920004+62900+027667FM-12+009099999V0203601N001019999999N0000001N9-00391+99999098631ADDGF107991999999999999999999
0035029170999991906032006004+62900+027667FM-12+009099999V0201401N002619999999N0000001N9-00561+99999099121ADDGF108991999999999999999999MW1721
0035029170999991906032013004+62900+027667FM-12+009099999V0200501N002619999999N0000001N9-00221+99999099421ADDGF108991999999999999999999MW1721
0035029170999991906032020004+62900+027667FM-12+009099999V0200501N001019999999N0000001N9-00391+99999099801ADDGF108991999999999999999999MW1721
0035029170999991906032106004+62900+027667FM-12+009099999V0209991C000019999999N0000001N9-00561+99999100181ADDGF108991999999999999999999MW1721
0035029170999991906032113004+62900+027667FM-12+009099999V0209991C000019999999N0000001N9-00221+99999100511ADDGF108991999999999999999999MW1721
0029029170999991906032120004+62900+027667FM-12+009099999V0209991C000019999999N0000001N9-00831+99999100681ADDGF100991999999999999999999
0029029170999991906032206004+62900+027667FM-12+009099999V0203601N001019999999N0000001N9-00611+99999100631ADDGF108991999999999999999999
0029029170999991906032213004+62900+027667FM-12+009099999V0203601N001019999999N0000001N9-00171+99999100441ADDGF100991999999999999999999
0029029170999991906032220004+62900+027667FM-12+009099999V0209991C000019999999N0000001N9-00721+99999100351ADDGF100991999999999999999999
0029029170999991906032306004+62900+027667FM-12+009099999V0209991C000019999999N0000001N9-01561+99999100181ADDGF108991999999999999999999
0029029170999991906032313004+62900+027667FM-12+009099999V0202301N002619999999N0000001N9-00221+99999100031ADDGF108991999999999999999999
0035029170999991906032320004+62900+027667FM-12+009099999V0202301N002619999999N0000001N9-00221+99999099551ADDGF108991999999999999999999MW1721
0029029170999991906032406004+62900+027667FM-12+009099999V0203601N001019999999N0000001N9-00441+99999100021ADDGF108991999999999999999999
0029029170999991906032413004+62900+027667FM-12+009099999V0200501N001019999999N0000001N9-00331+99999100081ADDGF100991999999999999999999
0029029170999991906032420004+62900+027667FM-12+009099999V0200501N001019999999N0000001N9-00501+99999100031ADDGF108991999999999999999999
0035029170999991906032506004+62900+027667FM-12+009099999V0200901N001019999999N0000001N9-00561+99999099761ADDGF108991999999999999999999MW1721
0029029170999991906032513004+62900+027667FM-12+009099999V0200901N001019999999N0000001N9-00111+99999099641ADDGF108991999999999999999999
0029029170999991906032520004+62900+027667FM-12+009099999V0200501N002619999999N0000001N9-00441+99999099461ADDGF108991999999999999999999
0029029170999991906032606004+62900+027667FM-12+009099999V0203601N002619999999N0000001N9-00941+99999099321ADDGF108991999999999999999999
0029029170999991906032613004+62900+027667FM-12+009099999V0203601N001019999999N0000001N9-00441+99999099281ADDGF100991999999999999999999
0029029170999991906032620004+62900+027667FM-12+009099999V0209991C000019999999N0000001N9-01111+99999098831ADDGF100991999999999999999999
0029029170999991906032706004+62900+027667FM-12+009099999V0209991C000019999999N0000001N9-01781+99999098501ADDGF100991999999999999999999
0029029170999991906032713004+62900+027667FM-12+009099999V0203201N001019999999N0000001N9-00561+99999098601ADDGF100991999999999999999999
0029029170999991906032720004+62900+027667FM-12+009099999V0209991C000019999999N0000001N9-00721+99999098761ADDGF100991999999999999999999
0029029170999991906032806004+62900+027667FM-12+009099999V0209991C000019999999N0000001N9-01391+99999098511ADDGF100991999999999999999999
0029029170999991906032813004+62900+027667FM-12+009099999V0201401N001019999999N0000001N9-00561+99999097951ADDGF108991999999999999999999
0035029170999991906032820004+62900+027667FM-12+009099999V0201401N001019999999N0000001N9-00781+99999097521ADDGF108991999999999999999999MW1721
0035029170999991906032906004+62900+027667FM-12+009099999V0200501N001019999999N0000001N9-00891+99999097551ADDGF108991999999999999999999MW1721
0029029170999991906032913004+62900+027667FM-12+009099999V0200501N002619999999N0000001N9-00611+99999098261ADDGF108991999999999999999999
0029029170999991906032920004+62900+027667FM-12+009099999V0209991C000019999999N0000001N9-01111+99999098741ADDGF100991999999999999999999
0035029170999991906033006004+62900+027667FM-12+009099999V0203601N001019999999N0000001N9-01221+99999099381ADDGF108991999999999999999999MW1721
0029029170999991906033013004+62900+027667FM-12+009099999V0203601N002619999999N0000001N9-00721+99999099541ADDGF100991999999999999999999
0029029170999991906033020004+62900+027667FM-12+009099999V0203601N001019999999N0000001N9-01001+99999099661ADDGF106991999999999999999999
0029029170999991906033106004+62900+027667FM-12+009099999V0209991C000019999999N0000001N9-02111+99999099301ADDGF100991999999999999999999
0035029170999991906033113004+62900+027667FM-12+009099999V0201401N001019999999N0000001N9-00561+99999098871ADDGF108991999999999999999999MW1721
0029029170999991906033120004+62900+027667FM-12+009099999V0201401N001019999999N0000001N9-00721+99999099001ADDGF108991999999999999999999
0029029170999991906040106004+62900+027667FM-12+009099999V0200501N002619999999N0000001N9-00831+99999099821ADDGF108991999999999999999999
0029029170999991906040113004+62900+027667FM-12+009099999V0203601N001019999999N0000001N9-00221+99999100461ADDGF100991999999999999999999
0029029170999991906040120004+62900+027667FM-12+009099999V0209991C000019999999N0000001N9-00781+99999100821ADDGF100991999999999999999999
0029029170999991906040206004+62900+027667FM-12+009099999V0202301N001019999999N0000001N9-00281+99999100741ADDGF100991999999999999999999
0029029170999991906040213004+62900+027667FM-12+009099999V0202701N001019999999N0000001N9+00721+99999100821ADDGF105991999999999999999999
0029029170999991906040220004+62900+027667FM-12+009099999V0202701N001019999999N0000001N9+00281+99999101031ADDGF105991999999999999999999
0029029170999991906040306004+62900+027667FM-12+009099999V0202701N001019999999N0000001N9-00111+99999101111ADDGF108991999999999999999999
0029029170999991906040313004+62900+027667FM-12+009099999V0202701N001019999999N0000001N9+00671+99999100911ADDGF101991999999999999999999
0029029170999991906040320004+62900+027667FM-12+009099999V0202701N001019999999N0000001N9+00391+99999100801ADDGF100991999999999999999999
0029029170999991906040406004+62900+027667FM-12+009099999V0202701N001019999999N0000001N9+00221+99999100741ADDGF100991999999999999999999
0029029170999991906040413004+62900+027667FM-12+009099999V0202701N001019999999N0000001N9+00831+99999100841ADDGF108991999999999999999999
0029029170999991906040420004+62900+027667FM-12+009099999V0202701N001019999999N0000001N9+00391+99999101001ADDGF100991999999999999999999
0029029170999991906040506004+62900+027667FM-12+009099999V0203201N001019999999N0000001N9+00221+99999100911ADDGF100991999999999999999999
0029029170999991906040513004+62900+027667FM-12+009099999V0202701N001019999999N0000001N9+01171+99999101221ADDGF100991999999999999999999
0029029170999991906040520004+62900+027667FM-12+009099999V0209991C000019999999N0000001N9+00171+99999101221ADDGF106991999999999999999999
0029029170999991906040606004+62900+027667FM-12+009099999V0209991C000019999999N0000001N9-00221+99999101111ADDGF100991999999999999999999
0029029170999991906040613004+62900+027667FM-12+009099999V0209991C000019999999N0000001N9+00941+99999101041ADDGF100991999999999999999999
0029029170999991906040620004+62900+027667FM-12+009099999V0202701N001019999999N0000001N9+00391+99999101301ADDGF100991999999999999999999
0029029170999991906040706004+62900+027667FM-12+009099999V0209991C000019999999N0000001N9+00171+99999101861ADDGF100991999999999999999999
0029029170999991906040713004+62900+027667FM-12+009099999V0202701N002619999999N0000001N9+00781+99999101791ADDGF106991999999999999999999
0029029170999991906040720004+62900+027667FM-12+009099999V0202301N001019999999N0000001N9+00441+99999101431ADDGF100991999999999999999999
0029029170999991906040806004+62900+027667FM-12+009099999V0209991C000019999999N0000001N9+00331+99999100831ADDGF100991999999999999999999
0029029170999991906040813004+62900+027667FM-12+009099999V0202301N004619999999N0000001N9+01001+99999100381ADDGF100991999999999999999999
0029029170999991906040820004+62900+027667FM-12+009099999V0202301N002619999999N0000001N9+00281+99999100391ADDGF102991999999999999999999
0029029170999991906040906004+62900+027667FM-12+009099999V0203201N001019999999N0000001N9+00001+99999100901ADDGF100991999999999999999999
0029029170999991906040913004+62900+027667FM-12+009099999V0202301N001019999999N0000001N9+00611+99999100441ADDGF108991999999999999999999
0029029170999991906040920004+62900+027667FM-12+009099999V0202301N001019999999N0000001N9+00501+99999100081ADDGF100991999999999999999999
0029029170999991906041006004+62900+027667FM-12+009099999V0202301N002619999999N0000001N9+00561+99999100201ADDGF100991999999999999999999
0029029170999991906041013004+62900+027667FM-12+009099999V0203201N002619999999N0000001N9+00831+99999100341ADDGF107991999999999999999999
0029029170999991906041020004+62900+027667FM-12+009099999V0202301N001019999999N0000001N9+00441+99999100281ADDGF100991999999999999999999
0029029170999991906041106004+62900+027667FM-12+009099999V0202301N002619999999N0000001N9+00501+99999100021ADDGF100991999999999999999999
0029029170999991906041113004+62900+027667FM-12+009099999V0202301N012319999999N0000001N9+01061+99999099601ADDGF101991999999999999999999
0029029170999991906041120004+62900+027667FM-12+009099999V0203201N019019999999N0000001N9+00331+99999099981ADDGF100991999999999999999999
0029029170999991906041206004+62900+027667FM-12+009099999V0203201N001019999999N0000001N9+00001+99999101161ADDGF100991999999999999999999
0029029170999991906041213004+62900+027667FM-12+009099999V0203201N002619999999N0000001N9+00391+99999101561ADDGF100991999999999999999999
0029029170999991906041220004+62900+027667FM-12+009099999V0209991C000019999999N0000001N9+00001+99999101541ADDGF108991999999999999999999
0029029170999991906041306004+62900+027667FM-12+009099999V0202301N001019999999N0000001N9+00171+99999100981ADDGF107991999999999999999999
0029029170999991906041313004+62900+027667FM-12+009099999V0209991C000019999999N0000001N9+00891+99999100671ADDGF100991999999999999999999
0029029170999991906041320004+62900+027667FM-12+009099999V0209991C000019999999N0000001N9+00331+99999100511ADDGF100991999999999999999999
0029029170999991906041406004+62900+027667FM-12+009099999V0209991C000019999999N0000001N9+00441+99999100061ADDGF107991999999999999999999
0029029170999991906041413004+62900+027667FM-12+009099999V0201801N001019999999N0000001N9+01221+99999100021ADDGF107991999999999999999999
0029029170999991906041420004+62900+027667FM-12+009099999V0201401N002619999999N0000001N9+00891+99999100141ADDGF108991999999999999999999
0029029170999991906041506004+62900+027667FM-12+009099999V0209991C000019999999N0000001N9+00331+99999100471ADDGF100991999999999999999999
0029029170999991906041513004+62900+027667FM-12+009099999V0202301N002619999999N0000001N9+01001+99999099941ADDGF106991999999999999999999
0029029170999991906041520004+62900+027667FM-12+009099999V0201801N001019999999N0000001N9+00501+99999099261ADDGF108991999999999999999999
0035029170999991906041606004+62900+027667FM-12+009099999V0202301N002619999999N0000001N9+00331+99999098401ADDGF108991999999999999999999MW1621
0029029170999991906041613004+62900+027667FM-12+009099999V0202701N019019999999N0000001N9+00501+99999098791ADDGF100991999999999999999999
0029029170999991906041620004+62900+027667FM-12+009099999V0202701N002619999999N0000001N9+00001+99999099521ADDGF101991999999999999999999
0029029170999991906041706004+62900+027667FM-12+009099999V0202701N001019999999N0000001N9+00001+99999100361ADDGF100991999999999999999999
0029029170999991906041713004+62900+027667FM-12+009099999V0202301N001019999999N0000001N9+00501+99999100391ADDGF108991999999999999999999
0035029170999991906041720004+62900+027667FM-12+009099999V0201801N001019999999N0000001N9-00061+99999100141ADDGF108991999999999999999999MW1721
0029029170999991906041806004+62900+027667FM-12+009099999V0200501N001019999999N0000001N9-00061+99999099541ADDGF108991999999999999999999
0029029170999991906041813004+62900+027667FM-12+009099999V0200901N001019999999N0000001N9+00281+99999099831ADDGF108991999999999999999999
0029029170999991906041820004+62900+027667FM-12+009099999V0203601N001019999999N0000001N9-00171+99999099991ADDGF103991999999999999999999
0029029170999991906041906004+62900+027667FM-12+009099999V0203601N001019999999N0000001N9+00001+99999099951ADDGF108991999999999999999999
0029029170999991906041913004+62900+027667FM-12+009099999V0203601N001019999999N0000001N9+00501+99999100191ADDGF106991999999999999999999
0029029170999991906041920004+62900+027667FM-12+009099999V0203601N001019999999N0000001N9+00061+99999100581ADDGF106991999999999999999999
0029029170999991906042006004+62900+027667FM-12+009099999V0201401N002619999999N0000001N9+00001+99999100401ADDGF108991999999999999999999
0035029170999991906042013004+62900+027667FM-12+009099999V0201401N006719999999N0000001N9-00171+99999099761ADDGF108991999999999999999999MW1721
0029029170999991906042020004+62900+027667FM-12+009099999V0209991C000019999999N0000001N9+00221+99999098951ADDGF108991999999999999999999
0035029170999991906042106004+62900+027667FM-12+009099999V0201801N001019999999N0000001N9+00611+99999098341ADDGF108991999999999999999999MW1621
0029029170999991906042113004+62900+027667FM-12+009099999V0202301N001019999999N0000001N9+00501+99999099181ADDGF100991999999999999999999
0029029170999991906042120004+62900+027667FM-12+009099999V0202301N002619999999N0000001N9+00441+99999099271ADDGF108991999999999999999999
0029029170999991906042206004+62900+027667FM-12+009099999V0201801N001019999999N0000001N9+00391+99999099181ADDGF108991999999999999999999
0029029170999991906042213004+62900+027667FM-12+009099999V0201801N002619999999N0000001N9+00721+99999099241ADDGF108991999999999999999999
0029029170999991906042220004+62900+027667FM-12+009099999V0209991C000019999999N0000001N9+00671+99999099261ADDGF108991999999999999999999
0029029170999991906042306004+62900+027667FM-12+009099999V0209991C000019999999N0000001N9+00501+99999099461ADDGF108991999999999999999999
0029029170999991906042313004+62900+027667FM-12+009099999V0209991C000019999999N0000001N9+00721+99999099441ADDGF108991999999999999999999
0029029170999991906042320004+62900+027667FM-12+009099999V0209991C000019999999N0000001N9+00441+99999099191ADDGF108991999999999999999999
0029029170999991906042406004+62900+027667FM-12+009099999V0202301N001019999999N0000001N9+00171+99999099061ADDGF108991999999999999999999
0029029170999991906042413004+62900+027667FM-12+009099999V0209991C000019999999N0000001N9+00561+99999099481ADDGF108991999999999999999999
0029029170999991906042420004+62900+027667FM-12+009099999V0209991C000019999999N0000001N9+00111+99999100021ADDGF102991999999999999999999
0029029170999991906042506004+62900+027667FM-12+009099999V0209991C000019999999N0000001N9+00111+99999100641ADDGF100991999999999999999999
0029029170999991906042513004+62900+027667FM-12+009099999V0201801N001019999999N0000001N9+00611+99999100741ADDGF108991999999999999999999
0029029170999991906042520004+62900+027667FM-12+009099999V0209991C000019999999N0000001N9+00281+99999100791ADDGF108991999999999999999999
0029029170999991906042606004+62900+027667FM-12+009099999V0200901N001019999999N0000001N9+00391+99999100751ADDGF106991999999999999999999
0029029170999991906042613004+62900+027667FM-12+009099999V0203201N001019999999N0000001N9+00671+99999100361ADDGF108991999999999999999999
0029029170999991906042620004+62900+027667FM-12+009099999V0200501N001019999999N0000001N9+00561+99999099821ADDGF108991999999999999999999
0029029170999991906042706004+62900+027667FM-12+009099999V0209991C000019999999N0000001N9+00721+99999099341ADDGF108991999999999999999999
0029029170999991906042713004+62900+027667FM-12+009099999V0201801N001019999999N0000001N9+01221+99999099191ADDGF100991999999999999999999
0029029170999991906042720004+62900+027667FM-12+009099999V0209991C000019999999N0000001N9+00891+99999099041ADDGF108991999999999999999999
0029029170999991906042806004+62900+027667FM-12+009099999V0209991C000019999999N0000001N9+00781+99999098781ADDGF108991999999999999999999
0035029170999991906042813004+62900+027667FM-12+009099999V0209991C000019999999N0000001N9+01221+99999098601ADDGF108991999999999999999999MW1621
0035029170999991906042820004+62900+027667FM-12+009099999V0209991C000019999999N0000001N9+00671+99999098261ADDGF108991999999999999999999MW1621
0029029170999991906042906004+62900+027667FM-12+009099999V0202701N001019999999N0000001N9+00281+99999099151ADDGF108991999999999999999999
0029029170999991906042913004+62900+027667FM-12+009099999V0201801N001019999999N0000001N9+01061+99999099751ADDGF108991999999999999999999
0029029170999991906042920004+62900+027667FM-12+009099999V0209991C000019999999N0000001N9+00611+99999100081ADDGF108991999999999999999999
0029029170999991906043006004+62900+027667FM-12+009099999V0209991C000019999999N0000001N9+00441+99999100551ADDGF100991999999999999999999
0029029170999991906043013004+62900+027667FM-12+009099999V0209991C000019999999N0000001N9+01441+99999100631ADDGF100991999999999999999999
0029029170999991906043020004+62900+027667FM-12+009099999V0209991C000019999999N0000001N9+00781+99999100541ADDGF100991999999999999999999
0029029170999991906050106004+62900+027667FM-12+009099999V0201401N002619999999N0000001N9+00941+99999100271ADDGF108991999999999999999999
0029029170999991906050113004+62900+027667FM-12+009099999V0201401N004619999999N0000001N9+01061+99999100041ADDGF108991999999999999999999
0029029170999991906050120004+62900+027667FM-12+009099999V0209991C000019999999N0000001N9+00721+99999100181ADDGF108991999999999999999999
0029029170999991906050206004+62900+027667FM-12+009099999V0209991C000019999999N0000001N9+00831+99999100591ADDGF102991999999999999999999
0029029170999991906050213004+62900+027667FM-12+009099999V0209991C000019999999N0000001N9+01331+99999100561ADDGF108991999999999999999999
0029029170999991906050220004+62900+027667FM-12+009099999V0209991C000019999999N0000001N9+00441+99999101021ADDGF100991999999999999999999
0029029170999991906050306004+62900+027667FM-12+009099999V0209991C000019999999N0000001N9+00221+99999101391ADDGF108991999999999999999999
0035029170999991906050313004+62900+027667FM-12+009099999V0209991C000019999999N0000001N9+01171+99999101271ADDGF108991999999999999999999MW1621
0029029170999991906050320004+62900+027667FM-12+009099999V0209991C000019999999N0000001N9+01061+99999101071ADDGF108991999999999999999999
0029029170999991906050406004+62900+027667FM-12+009099999V0209991C000019999999N0000001N9+01061+99999101201ADDGF107991999999999999999999
0029029170999991906050413004+62900+027667FM-12+009099999V0209991C000019999999N0000001N9+01721+99999101541ADDGF108991999999999999999999
0029029170999991906050420004+62900+027667FM-12+009099999V0209991C000019999999N0000001N9+01111+99999101681ADDGF108991999999999999999999
0029029170999991906050506004+62900+027667FM-12+009099999V0209991C000019999999N0000001N9+01281+99999101981ADDGF108991999999999999999999
0029029170999991906050513004+62900+027667FM-12+009099999V0209991C000019999999N0000001N9+02221+99999101641ADDGF108991999999999999999999
0029029170999991906050520004+62900+027667FM-12+009099999V0209991C000019999999N0000001N9+01221+99999101641ADDGF102991999999999999999999
0029029170999991906050606004+62900+027667FM-12+009099999V0209991C000019999999N0000001N9+01171+99999101521ADDGF108991999999999999999999
0029029170999991906050613004+62900+027667FM-12+009099999V0209991C000019999999N0000001N9+02171+99999101431ADDGF103991999999999999999999
0029029170999991906050620004+62900+027667FM-12+009099999V0209991C000019999999N0000001N9+01391+99999101501ADDGF108991999999999999999999
0029029170999991906050706004+62900+027667FM-12+009099999V0209991C000019999999N0000001N9+01281+99999101401ADDGF103991999999999999999999
0029029170999991906050713004+62900+027667FM-12+009099999V0202301N004619999999N0000001N9+02391+99999100961ADDGF108991999999999999999999
0029029170999991906050720004+62900+027667FM-12+009099999V0209991C000019999999N0000001N9+01561+99999100721ADDGF108991999999999999999999
0029029170999991906050806004+62900+027667FM-12+009099999V0202301N004619999999N0000001N9+01561+99999100501ADDGF108991999999999999999999
0029029170999991906050813004+62900+027667FM-12+009099999V0202301N004619999999N0000001N9+02001+99999100421ADDGF105991999999999999999999
0029029170999991906050820004+62900+027667FM-12+009099999V0209991C000019999999N0000001N9+01611+99999100241ADDGF103991999999999999999999
0029029170999991906050906004+62900+027667FM-12+009099999V0202301N001019999999N0000001N9+01281+99999100281ADDGF100991999999999999999999
0029029170999991906050913004+62900+027667FM-12+009099999V0209991C000019999999N0000001N9+01781+99999100301ADDGF103991999999999999999999
0029029170999991906050920004+62900+027667FM-12+009099999V0209991C000019999999N0000001N9+01171+99999100341ADDGF103991999999999999999999
0029029170999991906051006004+62900+027667FM-12+009099999V0209991C000019999999N0000001N9+01171+99999100071ADDGF108991999999999999999999
0029029170999991906051013004+62900+027667FM-12+009099999V0202301N004619999999N0000001N9+02441+99999099681ADDGF102991999999999999999999
0029029170999991906051020004+62900+027667FM-12+009099999V0209991C000019999999N0000001N9+01391+99999099861ADDGF108991999999999999999999
0029029170999991906051106004+62900+027667FM-12+009099999V0209991C000019999999N0000001N9+01281+99999099621ADDGF100991999999999999999999
0035029170999991906051113004+62900+027667FM-12+009099999V0209991C000019999999N0000001N9+01831+99999099581ADDGF106991999999999999999999MW1621
0035029170999991906051120004+62900+027667FM-12+009099999V0201801N002619999999N0000001N9+01221+99999099581ADDGF108991999999999999999999MW1621
0029029170999991906051206004+62900+027667FM-12+009099999V0202301N002619999999N0000001N9+01111+99999099481ADDGF108991999999999999999999
0029029170999991906051213004+62900+027667FM-12+009099999V0202301N006719999999N0000001N9+01171+99999099711ADDGF106991999999999999999999
0029029170999991906051220004+62900+027667FM-12+009099999V0203201N004619999999N0000001N9+00501+99999099961ADDGF105991999999999999999999
0029029170999991906051306004+62900+027667FM-12+009099999V0203601N004619999999N0000001N9+00111+99999100831ADDGF108991999999999999999999
0029029170999991906051313004+62900+027667FM-12+009099999V0203601N002619999999N0000001N9+00611+99999101121ADDGF102991999999999999999999
0029029170999991906051320004+62900+027667FM-12+009099999V0209991C000019999999N0000001N9+00171+99999101301ADDGF100991999999999999999999
0029029170999991906051406004+62900+027667FM-12+009099999V0209991C000019999999N0000001N9+00441+99999101541ADDGF100991999999999999999999
0029029170999991906051413004+62900+027667FM-12+009099999V0202701N001019999999N0000001N9+00721+99999101281ADDGF100991999999999999999999
0029029170999991906051420004+62900+027667FM-12+009099999V0201401N001019999999N0000001N9+00611+99999100991ADDGF100991999999999999999999
0029029170999991906051506004+62900+027667FM-12+009099999V0201801N001019999999N0000001N9+00781+99999100601ADDGF108991999999999999999999
0029029170999991906051513004+62900+027667FM-12+009099999V0201801N001019999999N0000001N9+01441+99999100191ADDGF108991999999999999999999
0029029170999991906051520004+62900+027667FM-12+009099999V0209991C000019999999N0000001N9+00941+99999099941ADDGF101991999999999999999999
0029029170999991906051606004+62900+027667FM-12+009099999V0209991C000019999999N0000001N9+01061+99999099911ADDGF100991999999999999999999
0029029170999991906051613004+62900+027667FM-12+009099999V0209991C000019999999N0000001N9+01891+99999099861ADDGF105991999999999999999999
0029029170999991906051620004+62900+027667FM-12+009099999V0209991C000019999999N0000001N9+01281+99999099901ADDGF105991999999999999999999
0029029170999991906051706004+62900+027667FM-12+009099999V0202301N001019999999N0000001N9+01441+99999099841ADDGF108991999999999999999999
0029029170999991906051713004+62900+027667FM-12+009099999V0202301N001019999999N0000001N9+02111+99999099781ADDGF108991999999999999999999
0029029170999991906051720004+62900+027667FM-12+009099999V0209991C000019999999N0000001N9+01561+99999099701ADDGF108991999999999999999999
0029029170999991906051806004+62900+027667FM-12+009099999V0209991C000019999999N0000001N9+01721+99999099831ADDGF100991999999999999999999
0029029170999991906051813004+62900+027667FM-12+009099999V0201801N001019999999N0000001N9+02721+99999099711ADDGF102991999999999999999999
0029029170999991906051820004+62900+027667FM-12+009099999V0209991C000019999999N0000001N9+01831+99999099761ADDGF108991999999999999999999
0029029170999991906051906004+62900+027667FM-12+009099999V0203201N002619999999N0000001N9+00941+99999099941ADDGF108991999999999999999999
0029029170999991906051913004+62900+027667FM-12+009099999V0200501N002619999999N0000001N9+00941+99999099941ADDGF108991999999999999999999
0029029170999991906051920004+62900+027667FM-12+009099999V0200501N002619999999N0000001N9+00721+99999099671ADDGF108991999999999999999999
0029029170999991906052006004+62900+027667FM-12+009099999V0200901N002619999999N0000001N9+00561+99999099271ADDGF108991999999999999999999
0029029170999991906052013004+62900+027667FM-12+009099999V0209991C000019999999N0000001N9+01391+99999098801ADDGF108991999999999999999999
0029029170999991906052020004+62900+027667FM-12+009099999V0209991C000019999999N0000001N9+01221+99999098641ADDGF108991999999999999999999
0029029170999991906052106004+62900+027667FM-12+009099999V0209991C000019999999N0000001N9+01501+99999098501ADDGF108991999999999999999999
0029029170999991906052113004+62900+027667FM-12+009099999V0209991C000019999999N0000001N9+00781+99999099541ADDGF108991999999999999999999
0029029170999991906052120004+62900+027667FM-12+009099999V0209991C000019999999N0000001N9+00611+99999100081ADDGF100991999999999999999999
0029029170999991906052206004+62900+027667FM-12+009099999V0203601N001019999999N0000001N9+00781+99999100401ADDGF106991999999999999999999
0029029170999991906052213004+62900+027667FM-12+009099999V0203601N001019999999N0000001N9+01001+99999100511ADDGF108991999999999999999999
0029029170999991906052220004+62900+027667FM-12+009099999V0209991C000019999999N0000001N9+00891+99999100361ADDGF108991999999999999999999
0029029170999991906052306004+62900+027667FM-12+009099999V0203601N001019999999N0000001N9+01001+99999100261ADDGF108991999999999999999999
0029029170999991906052313004+62900+027667FM-12+009099999V0209991C000019999999N0000001N9+01221+99999100341ADDGF108991999999999999999999
0029029170999991906052320004+62900+027667FM-12+009099999V0209991C000019999999N0000001N9+00941+99999100481ADDGF108991999999999999999999
0029029170999991906052406004+62900+027667FM-12+009099999V0209991C000019999999N0000001N9+01281+99999100681ADDGF107991999999999999999999
0029029170999991906052413004+62900+027667FM-12+009099999V0203201N001019999999N0000001N9+01781+99999100821ADDGF102991999999999999999999
0029029170999991906052420004+62900+027667FM-12+009099999V0209991C000019999999N0000001N9+01171+99999100981ADDGF100991999999999999999999
0029029170999991906052506004+62900+027667FM-12+009099999V0203601N001019999999N0000001N9+01111+99999101121ADDGF100991999999999999999999
0029029170999991906052513004+62900+027667FM-12+009099999V0209991C000019999999N0000001N9+01831+99999100871ADDGF100991999999999999999999
0029029170999991906052520004+62900+027667FM-12+009099999V0200501N001019999999N0000001N9+01221+99999100681ADDGF108991999999999999999999
0029029170999991906052606004+62900+027667FM-12+009099999V0203601N001019999999N0000001N9+00831+99999100711ADDGF107991999999999999999999
0029029170999991906052613004+62900+027667FM-12+009099999V0203201N002619999999N0000001N9+00941+99999100861ADDGF106991999999999999999999
0029029170999991906052620004+62900+027667FM-12+009099999V0203601N001019999999N0000001N9+00671+99999101061ADDGF108991999999999999999999
0029029170999991906052706004+62900+027667FM-12+009099999V0209991C000019999999N0000001N9+00831+99999101321ADDGF102991999999999999999999
0029029170999991906052713004+62900+027667FM-12+009099999V0209991C000019999999N0000001N9+01221+99999101351ADDGF103991999999999999999999
0029029170999991906052720004+62900+027667FM-12+009099999V0209991C000019999999N0000001N9+00941+99999101441ADDGF102991999999999999999999
0029029170999991906052806004+62900+027667FM-12+009099999V0201801N001019999999N0000001N9+00941+99999101481ADDGF101991999999999999999999
0029029170999991906052813004+62900+027667FM-12+009099999V0201401N002619999999N0000001N9+01391+99999101121ADDGF102991999999999999999999
0029029170999991906052820004+62900+027667FM-12+009099999V0209991C000019999999N0000001N9+01061+99999100781ADDGF100991999999999999999999
0029029170999991906052906004+62900+027667FM-12+009099999V0209991C000019999999N0000001N9+01221+99999100461ADDGF102991999999999999999999
0029029170999991906052913004+62900+027667FM-12+009099999V0209991C000019999999N0000001N9+01611+99999100111ADDGF103991999999999999999999
0029029170999991906052920004+62900+027667FM-12+009099999V0209991C000019999999N0000001N9+01001+99999099981ADDGF100991999999999999999999
0029029170999991906053006004+62900+027667FM-12+009099999V0209991C000019999999N0000001N9+01001+99999099831ADDGF108991999999999999999999
0029029170999991906053013004+62900+027667FM-12+009099999V0209991C000019999999N0000001N9+01721+99999099761ADDGF108991999999999999999999
0029029170999991906053020004+62900+027667FM-12+009099999V0209991C000019999999N0000001N9+01391+99999099711ADDGF108991999999999999999999
0029029170999991906053106004+62900+027667FM-12+009099999V0200901N001019999999N0000001N9+01391+99999099671ADDGF106991999999999999999999
0029029170999991906053113004+62900+027667FM-12+009099999V0201401N001019999999N0000001N9+01781+99999099481ADDGF108991999999999999999999
0029029170999991906053120004+62900+027667FM-12+009099999V0201401N002619999999N0000001N9+01671+99999099391ADDGF108991999999999999999999
0029029170999991906060106004+62900+027667FM-12+009099999V0200501N002619999999N0000001N9+01281+99999099281ADDGF108991999999999999999999
0035029170999991906060113004+62900+027667FM-12+009099999V0201401N004619999999N0000001N9+01281+99999099161ADDGF108991999999999999999999MW1621
0035029170999991906060120004+62900+027667FM-12+009099999V0201401N001019999999N0000001N9+01221+99999098881ADDGF108991999999999999999999MW1621
0035029170999991906060206004+62900+027667FM-12+009099999V0201401N004619999999N0000001N9+01111+99999098321ADDGF108991999999999999999999MW1621
0035029170999991906060213004+62900+027667FM-12+009099999V0201401N002619999999N0000001N9+01611+99999098141ADDGF108991999999999999999999MW1621
0035029170999991906060220004+62900+027667FM-12+009099999V0201401N002619999999N0000001N9+01111+99999098271ADDGF108991999999999999999999MW1621
0029029170999991906060306004+62900+027667FM-12+009099999V0201801N001019999999N0000001N9+01061+99999098631ADDGF108991999999999999999999
0029029170999991906060313004+62900+027667FM-12+009099999V0201801N001019999999N0000001N9+01561+99999098761ADDGF106991999999999999999999
0029029170999991906060320004+62900+027667FM-12+009099999V0209991C000019999999N0000001N9+01221+99999098761ADDGF106991999999999999999999
0029029170999991906060406004+62900+027667FM-12+009099999V0209991C000019999999N0000001N9+01221+99999098711ADDGF108991999999999999999999
0029029170999991906060413004+62900+027667FM-12+009099999V0201401N001019999999N0000001N9+01561+99999098841ADDGF106991999999999999999999
0029029170999991906060420004+62900+027667FM-12+009099999V0209991C000019999999N0000001N9+01391+99999098881ADDGF108991999999999999999999
0029029170999991906060506004+62900+027667FM-12+009099999V0203201N001019999999N0000001N9+01281+99999099021ADDGF108991999999999999999999
0029029170999991906060513004+62900+027667FM-12+009099999V0203201N002619999999N0000001N9+01501+99999099501ADDGF100991999999999999999999
0029029170999991906060520004+62900+027667FM-12+009099999V0209991C000019999999N0000001N9+01061+99999999999ADDGF102991999999999999999999
0029029170999991906060606004+62900+027667FM-12+009099999V0209991C000019999999N0000001N9+01221+99999100321ADDGF100991999999999999999999
0029029170999991906060613004+62900+027667FM-12+009099999V0209991C000019999999N0000001N9+01391+99999100391ADDGF100991999999999999999999
0029029170999991906060620004+62900+027667FM-12+009099999V0209991C000019999999N0000001N9+01001+99999100481ADDGF100991999999999999999999
0029029170999991906060706004+62900+027667FM-12+009099999V0203201N001019999999N0000001N9+00941+99999100551ADDGF106991999999999999999999
0029029170999991906060713004+62900+027667FM-12+009099999V0209991C000019999999N0000001N9+01281+99999100841ADDGF100991999999999999999999
0029029170999991906060720004+62900+027667FM-12+009099999V0209991C000019999999N0000001N9+00891+99999101111ADDGF100991999999999999999999
0029029170999991906060806004+62900+027667FM-12+009099999V0209991C000019999999N0000001N9+01171+99999101401ADDGF100991999999999999999999
0029029170999991906060813004+62900+027667FM-12+009099999V0209991C000019999999N0000001N9+01561+99999101351ADDGF105991999999999999999999
0029029170999991906060820004+62900+027667FM-12+009099999V0209991C000019999999N0000001N9+01281+99999101381ADDGF100991999999999999999999
0029029170999991906060906004+62900+027667FM-12+009099999V0202301N001019999999N0000001N9+01391+99999101431ADDGF100991999999999999999999
0029029170999991906060913004+62900+027667FM-12+009099999V0209991C000019999999N0000001N9+01941+99999101221ADDGF100991999999999999999999
0029029170999991906060920004+62900+027667FM-12+009099999V0209991C000019999999N0000001N9+01501+99999101041ADDGF100991999999999999999999
0029029170999991906061006004+62900+027667FM-12+009099999V0209991C000019999999N0000001N9+01611+99999100921ADDGF100991999999999999999999
0029029170999991906061013004+62900+027667FM-12+009099999V0201801N001019999999N0000001N9+02171+99999100701ADDGF105991999999999999999999
0029029170999991906061020004+62900+027667FM-12+009099999V0203601N001019999999N0000001N9+01561+99999100591ADDGF107991999999999999999999
0029029170999991906061106004+62900+027667FM-12+009099999V0200501N002619999999N0000001N9+01441+99999100501ADDGF108991999999999999999999
0029029170999991906061113004+62900+027667FM-12+009099999V0200501N001019999999N0000001N9+02061+99999100501ADDGF106991999999999999999999
0029029170999991906061120004+62900+027667FM-12+009099999V0209991C000019999999N0000001N9+01611+99999100461ADDGF101991999999999999999999
0029029170999991906061206004+62900+027667FM-12+009099999V0201801N001019999999N0000001N9+01721+99999100361ADDGF107991999999999999999999
0029029170999991906061213004+62900+027667FM-12+009099999V0209991C000019999999N0000001N9+02281+99999100151ADDGF100991999999999999999999
0029029170999991906061220004+62900+027667FM-12+009099999V0209991C000019999999N0000001N9+01781+99999099881ADDGF100991999999999999999999
0029029170999991906061306004+62900+027667FM-12+009099999V0202301N002619999999N0000001N9+01831+99999099601ADDGF100991999999999999999999
0029029170999991906061313004+62900+027667FM-12+009099999V0202301N002619999999N0000001N9+02441+99999099421ADDGF103991999999999999999999
0029029170999991906061320004+62900+027667FM-12+009099999V0209991C000019999999N0000001N9+01501+99999099471ADDGF108991999999999999999999
0029029170999991906061406004+62900+027667FM-12+009099999V0200501N001019999999N0000001N9+01391+99999099641ADDGF108991999999999999999999
0035029170999991906061413004+62900+027667FM-12+009099999V0209991C000019999999N0000001N9+01561+99999099881ADDGF108991999999999999999999MW1621
0029029170999991906061420004+62900+027667FM-12+009099999V0209991C000019999999N0000001N9+01501+99999100141ADDGF103991999999999999999999
0029029170999991906061506004+62900+027667FM-12+009099999V0200701N001019999999N0000001N9+01611+99999100431ADDGF108991999999999999999999
0029029170999991906061513004+62900+027667FM-12+009099999V0201101N001019999999N0000001N9+02001+99999100521ADDGF102991999999999999999999
0029029170999991906061520004+62900+027667FM-12+009099999V0209991C000019999999N0000001N9+01831+99999100481ADDGF102991999999999999999999
0029029170999991906061606004+62900+027667FM-12+009099999V0209991C000019999999N0000001N9+01561+99999100641ADDGF100991999999999999999999
0029029170999991906061613004+62900+027667FM-12+009099999V0203201N002619999999N0000001N9+02061+99999100721ADDGF100991999999999999999999
0029029170999991906061620004+62900+027667FM-12+009099999V0203601N001019999999N0000001N9+01671+99999100801ADDGF100991999999999999999999
0029029170999991906061706004+62900+027667FM-12+009099999V0209991C000019999999N0000001N9+01721+99999100751ADDGF100991999999999999999999
0029029170999991906061713004+62900+027667FM-12+009099999V0202501N006719999999N0000001N9+02281+99999100271ADDGF101991999999999999999999
0029029170999991906061720004+62900+027667FM-12+009099999V0209991C000019999999N0000001N9+01831+99999999999ADDGF101991999999999999999999
0029029170999991906061806004+62900+027667FM-12+009099999V0203601N002619999999N0000001N9+01391+99999100261ADDGF102991999999999999999999
0029029170999991906061813004+62900+027667FM-12+009099999V0203601N002619999999N0000001N9+01501+99999100431ADDGF101991999999999999999999
0029029170999991906061820004+62900+027667FM-12+009099999V0203601N001019999999N0000001N9+01061+99999100581ADDGF100991999999999999999999
0029029170999991906061906004+62900+027667FM-12+009099999V0202301N002619999999N0000001N9+01171+99999100441ADDGF108991999999999999999999
0029029170999991906061913004+62900+027667FM-12+009099999V0203201N004619999999N0000001N9+01781+99999100301ADDGF106991999999999999999999
0029029170999991906061920004+62900+027667FM-12+009099999V0209991C000019999999N0000001N9+01391+99999100521ADDGF105991999999999999999999
0029029170999991906062006004+62900+027667FM-12+009099999V0209991C000019999999N0000001N9+01391+99999100621ADDGF100991999999999999999999
0029029170999991906062013004+62900+027667FM-12+009099999V0202301N002619999999N0000001N9+02111+99999100201ADDGF101991999999999999999999
0029029170999991906062020004+62900+027667FM-12+009099999V0209991C000019999999N0000001N9+01831+99999099991ADDGF100991999999999999999999
0029029170999991906062106004+62900+027667FM-12+009099999V0209991C000019999999N0000001N9+01671+99999100101ADDGF100991999999999999999999
0029029170999991906062113004+62900+027667FM-12+009099999V0209991C000019999999N0000001N9+01941+99999099951ADDGF101991999999999999999999
0029029170999991906062120004+62900+027667FM-12+009099999V0209991C000019999999N0000001N9+01671+99999099721ADDGF106991999999999999999999
0029029170999991906062206004+62900+027667FM-12+009099999V0201401N001019999999N0000001N9+01721+99999099621ADDGF106991999999999999999999
0029029170999991906062213004+62900+027667FM-12+009099999V0201401N002619999999N0000001N9+02171+99999099521ADDGF103991999999999999999999
0029029170999991906062220004+62900+027667FM-12+009099999V0209991C000019999999N0000001N9+01671+99999099541ADDGF106991999999999999999999
0029029170999991906062306004+62900+027667FM-12+009099999V0209991C000019999999N0000001N9+01721+99999099681ADDGF102991999999999999999999
0029029170999991906062313004+62900+027667FM-12+009099999V0203601N001019999999N0000001N9+02061+99999099711ADDGF102991999999999999999999
0029029170999991906062320004+62900+027667FM-12+009099999V0209991C000019999999N0000001N9+01781+99999099741ADDGF106991999999999999999999
0029029170999991906062406004+62900+027667FM-12+009099999V0209991C000019999999N0000001N9+01941+99999099901ADDGF102991999999999999999999
0029029170999991906062413004+62900+027667FM-12+009099999V0200901N004619999999N0000001N9+02061+99999099821ADDGF106991999999999999999999
0029029170999991906062420004+62900+027667FM-12+009099999V0209991C000019999999N0000001N9+01781+99999099791ADDGF107991999999999999999999
0029029170999991906062506004+62900+027667FM-12+009099999V0209991C000019999999N0000001N9+01781+99999099791ADDGF106991999999999999999999
0029029170999991906062513004+62900+027667FM-12+009099999V0209991C000019999999N0000001N9+02331+99999099661ADDGF104991999999999999999999
0029029170999991906062520004+62900+027667FM-12+009099999V0209991C000019999999N0000001N9+01831+99999099631ADDGF102991999999999999999999
0029029170999991906062606004+62900+027667FM-12+009099999V0209991C000019999999N0000001N9+02061+99999099591ADDGF100991999999999999999999
0029029170999991906062613004+62900+027667FM-12+009099999V0201601N001019999999N0000001N9+02391+99999099391ADDGF104991999999999999999999
0029029170999991906062620004+62900+027667FM-12+009099999V0209991C000019999999N0000001N9+02001+99999099191ADDGF104991999999999999999999
0029029170999991906062706004+62900+027667FM-12+009099999V0202301N001019999999N0000001N9+01671+99999099121ADDGF107991999999999999999999
0029029170999991906062713004+62900+027667FM-12+009099999V0202501N004619999999N0000001N9+02061+99999099161ADDGF102991999999999999999999
0029029170999991906062720004+62900+027667FM-12+009099999V0209991C000019999999N0000001N9+01831+99999099271ADDGF102991999999999999999999
0035029170999991906062806004+62900+027667FM-12+009099999V0201801N001019999999N0000001N9+01441+99999098941ADDGF108991999999999999999999MW1621
0029029170999991906062813004+62900+027667FM-12+009099999V0202301N004619999999N0000001N9+02001+99999098671ADDGF105991999999999999999999
0029029170999991906062820004+62900+027667FM-12+009099999V0202301N001019999999N0000001N9+01561+99999098801ADDGF101991999999999999999999
0029029170999991906062906004+62900+027667FM-12+009099999V0202301N002619999999N0000001N9+01501+99999098871ADDGF104991999999999999999999
0029029170999991906062913004+62900+027667FM-12+009099999V0202301N012319999999N0000001N9+01831+99999098721ADDGF106991999999999999999999
0029029170999991906062920004+62900+027667FM-12+009099999V0202701N002619999999N0000001N9+01221+99999099161ADDGF101991999999999999999999
0029029170999991906063006004+62900+027667FM-12+009099999V0202701N001019999999N0000001N9+01061+99999099631ADDGF100991999999999999999999
0029029170999991906063013004+62900+027667FM-12+009099999V0200901N001019999999N0000001N9+01391+99999099541ADDGF106991999999999999999999
0029029170999991906063020004+62900+027667FM-12+009099999V0201401N004619999999N0000001N9+01221+99999099351ADDGF108991999999999999999999
0029029170999991906070106004+62900+027667FM-12+009099999V0200901N001019999999N0000001N9+01001+99999099061ADDGF108991999999999999999999
0029029170999991906070113004+62900+027667FM-12+009099999V0202301N004619999999N0000001N9+01331+99999099441ADDGF107991999999999999999999
0029029170999991906070120004+62900+027667FM-12+009099999V0202301N002619999999N0000001N9+01111+99999099881ADDGF106991999999999999999999
0029029170999991906070206004+62900+027667FM-12+009099999V0202301N002619999999N0000001N9+01221+99999100221ADDGF107991999999999999999999
0029029170999991906070213004+62900+027667FM-12+009099999V0209991C000019999999N0000001N9+01391+99999100431ADDGF103991999999999999999999
0029029170999991906070220004+62900+027667FM-12+009099999V0209991C000019999999N0000001N9+01281+99999100901ADDGF106991999999999999999999
0029029170999991906070306004+62900+027667FM-12+009099999V0209991C000019999999N0000001N9+01391+99999101431ADDGF100991999999999999999999
0029029170999991906070313004+62900+027667FM-12+009099999V0201801N001019999999N0000001N9+02001+99999101311ADDGF102991999999999999999999
0029029170999991906070320004+62900+027667FM-12+009099999V0209991C000019999999N0000001N9+01781+99999101201ADDGF103991999999999999999999
0029029170999991906070406004+62900+027667FM-12+009099999V0209991C000019999999N0000001N9+01611+99999101101ADDGF100991999999999999999999
0029029170999991906070413004+62900+027667FM-12+009099999V0209991C000019999999N0000001N9+02001+99999100941ADDGF105991999999999999999999
0029029170999991906070420004+62900+027667FM-12+009099999V0209991C000019999999N0000001N9+01671+99999100921ADDGF102991999999999999999999
0029029170999991906070506004+62900+027667FM-12+009099999V0209991C000019999999N0000001N9+01721+99999100941ADDGF102991999999999999999999
0029029170999991906070513004+62900+027667FM-12+009099999V0202501N002619999999N0000001N9+02061+99999101031ADDGF103991999999999999999999
0029029170999991906070520004+62900+027667FM-12+009099999V0209991C000019999999N0000001N9+01781+99999101031ADDGF107991999999999999999999
0029029170999991906070606004+62900+027667FM-12+009099999V0209991C000019999999N0000001N9+01831+99999101151ADDGF106991999999999999999999
0029029170999991906070613004+62900+027667FM-12+009099999V0209991C000019999999N0000001N9+02331+99999101101ADDGF102991999999999999999999
0029029170999991906070620004+62900+027667FM-12+009099999V0209991C000019999999N0000001N9+01941+99999101001ADDGF102991999999999999999999
0029029170999991906070706004+62900+027667FM-12+009099999V0209991C000019999999N0000001N9+02111+99999100841ADDGF101991999999999999999999
0029029170999991906070713004+62900+027667FM-12+009099999V0201601N001019999999N0000001N9+02721+99999100681ADDGF102991999999999999999999
0029029170999991906070720004+62900+027667FM-12+009099999V0209991C000019999999N0000001N9+02171+99999100621ADDGF102991999999999999999999
0029029170999991906070806004+62900+027667FM-12+009099999V0201101N001019999999N0000001N9+01891+99999100481ADDGF106991999999999999999999
0029029170999991906070813004+62900+027667FM-12+009099999V0209991C000019999999N0000001N9+02331+99999100341ADDGF107991999999999999999999
0029029170999991906070820004+62900+027667FM-12+009099999V0209991C000019999999N0000001N9+02001+99999100201ADDGF102991999999999999999999
0029029170999991906070906004+62900+027667FM-12+009099999V0209991C000019999999N0000001N9+02061+99999100181ADDGF107991999999999999999999
0029029170999991906070913004+62900+027667FM-12+009099999V0201101N001019999999N0000001N9+02561+99999100111ADDGF102991999999999999999999
0029029170999991906070920004+62900+027667FM-12+009099999V0209991C000019999999N0000001N9+02281+99999100121ADDGF106991999999999999999999
0029029170999991906071006004+62900+027667FM-12+009099999V0203601N001019999999N0000001N9+01891+99999100591ADDGF100991999999999999999999
0029029170999991906071013004+62900+027667FM-12+009099999V0200201N004619999999N0000001N9+02391+99999100751ADDGF100991999999999999999999
0029029170999991906071020004+62900+027667FM-12+009099999V0209991C000019999999N0000001N9+01891+99999100721ADDGF100991999999999999999999
0029029170999991906071106004+62900+027667FM-12+009099999V0209991C000019999999N0000001N9+02001+99999100661ADDGF100991999999999999999999
0029029170999991906071113004+62900+027667FM-12+009099999V0201801N001019999999N0000001N9+02781+99999100461ADDGF102991999999999999999999
0029029170999991906071120004+62900+027667FM-12+009099999V0209991C000019999999N0000001N9+02331+99999100311ADDGF102991999999999999999999
0029029170999991906071206004+62900+027667FM-12+009099999V0209991C000019999999N0000001N9+02391+99999100241ADDGF100991999999999999999999
0029029170999991906071213004+62900+027667FM-12+009099999V0209991C000019999999N0000001N9+02171+99999100191ADDGF106991999999999999999999
0029029170999991906071220004+62900+027667FM-12+009099999V0209991C000019999999N0000001N9+02111+99999100191ADDGF106991999999999999999999
0029029170999991906071306004+62900+027667FM-12+009099999V0203601N001019999999N0000001N9+01671+99999100431ADDGF108991999999999999999999
0029029170999991906071313004+62900+027667FM-12+009099999V0200901N001019999999N0000001N9+02281+99999100431ADDGF104991999999999999999999
0029029170999991906071320004+62900+027667FM-12+009099999V0209991C000019999999N0000001N9+01941+99999100381ADDGF106991999999999999999999
0029029170999991906071406004+62900+027667FM-12+009099999V0209991C000019999999N0000001N9+01891+99999100421ADDGF100991999999999999999999
0029029170999991906071413004+62900+027667FM-12+009099999V0209991C000019999999N0000001N9+02501+99999100231ADDGF102991999999999999999999
0029029170999991906071420004+62900+027667FM-12+009099999V0209991C000019999999N0000001N9+02111+99999100021ADDGF103991999999999999999999
0029029170999991906071506004+62900+027667FM-12+009099999V0201401N001019999999N0000001N9+01941+99999099591ADDGF107991999999999999999999
0035029170999991906071513004+62900+027667FM-12+009099999V0209991C000019999999N0000001N9+01441+99999099111ADDGF108991999999999999999999MW1621
0029029170999991906071520004+62900+027667FM-12+009099999V0201101N001019999999N0000001N9+01891+99999098481ADDGF108991999999999999999999
0029029170999991906071606004+62900+027667FM-12+009099999V0202001N001019999999N0000001N9+01831+99999097711ADDGF108991999999999999999999
0029029170999991906071613004+62900+027667FM-12+009099999V0202301N006719999999N0000001N9+02061+99999098321ADDGF104991999999999999999999
0029029170999991906071620004+62900+027667FM-12+009099999V0209991C000019999999N0000001N9+01721+99999098381ADDGF102991999999999999999999
0029029170999991906071706004+62900+027667FM-12+009099999V0202001N002619999999N0000001N9+01611+99999098351ADDGF103991999999999999999999
0029029170999991906071713004+62900+027667FM-12+009099999V0202501N001019999999N0000001N9+01561+99999098361ADDGF103991999999999999999999
0029029170999991906071720004+62900+027667FM-12+009099999V0209991C000019999999N0000001N9+01171+99999098471ADDGF101991999999999999999999
0029029170999991906071806004+62900+027667FM-12+009099999V0209991C000019999999N0000001N9+01221+99999098351ADDGF107991999999999999999999
0029029170999991906071813004+62900+027667FM-12+009099999V0202501N001019999999N0000001N9+01441+99999098421ADDGF106991999999999999999999
0029029170999991906071820004+62900+027667FM-12+009099999V0202301N001019999999N0000001N9+01221+99999098661ADDGF107991999999999999999999
0029029170999991906071906004+62900+027667FM-12+009099999V0209991C000019999999N0000001N9+01391+99999099121ADDGF106991999999999999999999
0029029170999991906071913004+62900+027667FM-12+009099999V0202501N001019999999N0000001N9+01831+99999099341ADDGF106991999999999999999999
0029029170999991906071920004+62900+027667FM-12+009099999V0209991C000019999999N0000001N9+01441+99999099321ADDGF108991999999999999999999
0029029170999991906072006004+62900+027667FM-12+009099999V0209991C000019999999N0000001N9+01611+99999099031ADDGF104991999999999999999999
0029029170999991906072013004+62900+027667FM-12+009099999V0201801N001019999999N0000001N9+02111+99999098751ADDGF108991999999999999999999
0029029170999991906072020004+62900+027667FM-12+009099999V0209991C000019999999N0000001N9+01441+99999098711ADDGF108991999999999999999999
0035029170999991906072106004+62900+027667FM-12+009099999V0202301N001019999999N0000001N9+01281+99999098581ADDGF108991999999999999999999MW1621
0029029170999991906072113004+62900+027667FM-12+009099999V0201801N001019999999N0000001N9+01611+99999098631ADDGF105991999999999999999999
0029029170999991906072120004+62900+027667FM-12+009099999V0209991C000019999999N0000001N9+01171+99999098861ADDGF101991999999999999999999
0029029170999991906072206004+62900+027667FM-12+009099999V0201801N002619999999N0000001N9+01391+99999099061ADDGF108991999999999999999999
0029029170999991906072213004+62900+027667FM-12+009099999V0201801N001019999999N0000001N9+01831+99999099191ADDGF107991999999999999999999
0029029170999991906072220004+62900+027667FM-12+009099999V0209991C000019999999N0000001N9+01281+99999099391ADDGF102991999999999999999999
0029029170999991906072306004+62900+027667FM-12+009099999V0209991C000019999999N0000001N9+01561+99999099661ADDGF106991999999999999999999
0029029170999991906072313004+62900+027667FM-12+009099999V0202701N001019999999N0000001N9+01941+99999099871ADDGF105991999999999999999999
0029029170999991906072320004+62900+027667FM-12+009099999V0209991C000019999999N0000001N9+01501+99999100041ADDGF102991999999999999999999
0029029170999991906072406004+62900+027667FM-12+009099999V0209991C000019999999N0000001N9+01611+99999100231ADDGF101991999999999999999999
0029029170999991906072413004+62900+027667FM-12+009099999V0203601N002619999999N0000001N9+02171+99999100271ADDGF104991999999999999999999
0029029170999991906072420004+62900+027667FM-12+009099999V0209991C000019999999N0000001N9+01941+99999100301ADDGF102991999999999999999999
0029029170999991906072506004+62900+027667FM-12+009099999V0209991C000019999999N0000001N9+02221+99999100471ADDGF103991999999999999999999
0029029170999991906072513004+62900+027667FM-12+009099999V0209991C000019999999N0000001N9+02671+99999100281ADDGF104991999999999999999999
0029029170999991906072520004+62900+027667FM-12+009099999V0209991C000019999999N0000001N9+02171+99999100231ADDGF101991999999999999999999
0029029170999991906072606004+62900+027667FM-12+009099999V0200901N002619999999N0000001N9+01941+99999100181ADDGF107991999999999999999999
0029029170999991906072613004+62900+027667FM-12+009099999V0200201N001019999999N0000001N9+02331+99999100161ADDGF107991999999999999999999
0029029170999991906072620004+62900+027667FM-12+009099999V0209991C000019999999N0000001N9+02111+99999100181ADDGF102991999999999999999999
0029029170999991906072706004+62900+027667FM-12+009099999V0200901N001019999999N0000001N9+02001+99999100301ADDGF106991999999999999999999
0029029170999991906072713004+62900+027667FM-12+009099999V0203601N001019999999N0000001N9+02561+99999100341ADDGF103991999999999999999999
0029029170999991906072720004+62900+027667FM-12+009099999V0209991C000019999999N0000001N9+01891+99999100541ADDGF108991999999999999999999
0029029170999991906072806004+62900+027667FM-12+009099999V0200501N001019999999N0000001N9+01721+99999100741ADDGF106991999999999999999999
0029029170999991906072813004+62900+027667FM-12+009099999V0200701N001019999999N0000001N9+02281+99999100661ADDGF103991999999999999999999
0029029170999991906072820004+62900+027667FM-12+009099999V0200701N001019999999N0000001N9+02061+99999100621ADDGF100991999999999999999999
0029029170999991906072906004+62900+027667FM-12+009099999V0209991C000019999999N0000001N9+01611+99999100621ADDGF100991999999999999999999
0029029170999991906072913004+62900+027667FM-12+009099999V0200901N001019999999N0000001N9+02331+99999100501ADDGF100991999999999999999999
0029029170999991906072920004+62900+027667FM-12+009099999V0209991C000019999999N0000001N9+02001+99999100421ADDGF100991999999999999999999
0029029170999991906073006004+62900+027667FM-12+009099999V0201101N002619999999N0000001N9+01671+99999100791ADDGF100991999999999999999999
0029029170999991906073013004+62900+027667FM-12+009099999V0200901N002619999999N0000001N9+02001+99999100861ADDGF100991999999999999999999
0029029170999991906073020004+62900+027667FM-12+009099999V0209991C000019999999N0000001N9+01611+99999100791ADDGF100991999999999999999999
0029029170999991906073106004+62900+027667FM-12+009099999V0209991C000019999999N0000001N9+01781+99999100821ADDGF101991999999999999999999
0029029170999991906073113004+62900+027667FM-12+009099999V0203601N002619999999N0000001N9+02281+99999100751ADDGF102991999999999999999999
0029029170999991906073120004+62900+027667FM-12+009099999V0209991C000019999999N0000001N9+01721+99999100751ADDGF102991999999999999999999
0029029170999991906080106004+62900+027667FM-12+009099999V0209991C000019999999N0000001N9+02001+99999100821ADDGF102991999999999999999999
0029029170999991906080113004+62900+027667FM-12+009099999V0202901N001019999999N0000001N9+02441+99999100661ADDGF101991999999999999999999
0029029170999991906080120004+62900+027667FM-12+009099999V0209991C000019999999N0000001N9+02061+99999100421ADDGF101991999999999999999999
0029029170999991906080206004+62900+027667FM-12+009099999V0209991C000019999999N0000001N9+02061+99999100311ADDGF100991999999999999999999
0029029170999991906080213004+62900+027667FM-12+009099999V0203601N002619999999N0000001N9+02611+99999100071ADDGF104991999999999999999999
0029029170999991906080220004+62900+027667FM-12+009099999V0209991C000019999999N0000001N9+01941+99999099961ADDGF105991999999999999999999
0029029170999991906080306004+62900+027667FM-12+009099999V0209991C000019999999N0000001N9+01941+99999999999ADDGF102991999999999999999999
0029029170999991906080313004+62900+027667FM-12+009099999V0209991C000019999999N0000001N9+02611+99999099781ADDGF104991999999999999999999
0029029170999991906080320004+62900+027667FM-12+009099999V0209991C000019999999N0000001N9+01831+99999099711ADDGF108991999999999999999999
0029029170999991906080406004+62900+027667FM-12+009099999V0209991C000019999999N0000001N9+01611+99999099501ADDGF108991999999999999999999
0029029170999991906080413004+62900+027667FM-12+009099999V0200901N004619999999N0000001N9+01671+99999099641ADDGF106991999999999999999999
0029029170999991906080420004+62900+027667FM-12+009099999V0209991C000019999999N0000001N9+01391+99999099671ADDGF102991999999999999999999
0029029170999991906080506004+62900+027667FM-12+009099999V0200901N004619999999N0000001N9+01001+99999099581ADDGF107991999999999999999999
0029029170999991906080513004+62900+027667FM-12+009099999V0200901N006719999999N0000001N9+01331+99999099441ADDGF105991999999999999999999
0029029170999991906080520004+62900+027667FM-12+009099999V0209991C000019999999N0000001N9+01111+99999099301ADDGF102991999999999999999999
0029029170999991906080606004+62900+027667FM-12+009099999V0200501N001019999999N0000001N9+01001+99999099361ADDGF104991999999999999999999
0029029170999991906080613004+62900+027667FM-12+009099999V0209991C000019999999N0000001N9+01221+99999099351ADDGF106991999999999999999999
0029029170999991906080620004+62900+027667FM-12+009099999V0209991C000019999999N0000001N9+00941+99999099461ADDGF102991999999999999999999
0029029170999991906080706004+62900+027667FM-12+009099999V0209991C000019999999N0000001N9+01001+99999099561ADDGF108991999999999999999999
0029029170999991906080713004+62900+027667FM-12+009099999V0203601N006719999999N0000001N9+01611+99999099261ADDGF103991999999999999999999
0029029170999991906080720004+62900+027667FM-12+009099999V0209991C000019999999N0000001N9+01281+99999099321ADDGF108991999999999999999999
0029029170999991906080806004+62900+027667FM-12+009099999V0203201N001019999999N0000001N9+01001+99999099241ADDGF108991999999999999999999
0029029170999991906080813004+62900+027667FM-12+009099999V0203201N006719999999N0000001N9+01221+99999099261ADDGF105991999999999999999999
0029029170999991906080820004+62900+027667FM-12+009099999V0209991C000019999999N0000001N9+00941+99999099161ADDGF103991999999999999999999
0029029170999991906080906004+62900+027667FM-12+009099999V0209991C000019999999N0000001N9+00891+99999099101ADDGF108991999999999999999999
0035029170999991906080913004+62900+027667FM-12+009099999V0209991C000019999999N0000001N9+01171+99999099061ADDGF107991999999999999999999MW1621
0035029170999991906080920004+62900+027667FM-12+009099999V0209991C000019999999N0000001N9+01001+99999099071ADDGF108991999999999999999999MW1621
0029029170999991906081006004+62900+027667FM-12+009099999V0209991C000019999999N0000001N9+00891+99999099071ADDGF108991999999999999999999
0029029170999991906081013004+62900+027667FM-12+009099999V0209991C000019999999N0000001N9+01331+99999099141ADDGF107991999999999999999999
0029029170999991906081020004+62900+027667FM-12+009099999V0209991C000019999999N0000001N9+01001+99999099161ADDGF106991999999999999999999
0029029170999991906081106004+62900+027667FM-12+009099999V0209991C000019999999N0000001N9+01111+99999099161ADDGF108991999999999999999999
0029029170999991906081113004+62900+027667FM-12+009099999V0202301N002619999999N0000001N9+01391+99999099311ADDGF108991999999999999999999
0029029170999991906081120004+62900+027667FM-12+009099999V0209991C000019999999N0000001N9+01171+99999099321ADDGF108991999999999999999999
0029029170999991906081206004+62900+027667FM-12+009099999V0209991C000019999999N0000001N9+01221+99999099431ADDGF108991999999999999999999
0029029170999991906081213004+62900+027667FM-12+009099999V0209991C000019999999N0000001N9+01561+99999099601ADDGF106991999999999999999999
0029029170999991906081220004+62900+027667FM-12+009099999V0209991C000019999999N0000001N9+01391+99999099661ADDGF107991999999999999999999
0029029170999991906081306004+62900+027667FM-12+009099999V0209991C000019999999N0000001N9+01331+99999099821ADDGF100991999999999999999999
0029029170999991906081313004+62900+027667FM-12+009099999V0203601N001019999999N0000001N9+01891+99999099941ADDGF104991999999999999999999
0029029170999991906081320004+62900+027667FM-12+009099999V0209991C000019999999N0000001N9+01441+99999100111ADDGF102991999999999999999999
0029029170999991906081406004+62900+027667FM-12+009099999V0209991C000019999999N0000001N9+01611+99999100541ADDGF100991999999999999999999
0029029170999991906081413004+62900+027667FM-12+009099999V0201601N001019999999N0000001N9+02171+99999100641ADDGF102991999999999999999999
0029029170999991906081420004+62900+027667FM-12+009099999V0209991C000019999999N0000001N9+01501+99999100781ADDGF101991999999999999999999
0029029170999991906081506004+62900+027667FM-12+009099999V0209991C000019999999N0000001N9+01611+99999100901ADDGF106991999999999999999999
0029029170999991906081513004+62900+027667FM-12+009099999V0202501N004619999999N0000001N9+02281+99999100841ADDGF102991999999999999999999
0029029170999991906081520004+62900+027667FM-12+009099999V0209991C000019999999N0000001N9+01781+99999100701ADDGF103991999999999999999999
0029029170999991906081606004+62900+027667FM-12+009099999V0202301N001019999999N0000001N9+01721+99999100631ADDGF101991999999999999999999
0029029170999991906081613004+62900+027667FM-12+009099999V0202301N006719999999N0000001N9+02441+99999100381ADDGF102991999999999999999999
0029029170999991906081620004+62900+027667FM-12+009099999V0209991C000019999999N0000001N9+01941+99999100181ADDGF102991999999999999999999
0029029170999991906081706004+62900+027667FM-12+009099999V0202301N002619999999N0000001N9+01671+99999100161ADDGF103991999999999999999999
0029029170999991906081713004+62900+027667FM-12+009099999V0202301N002619999999N0000001N9+02061+99999100081ADDGF107991999999999999999999
0029029170999991906081720004+62900+027667FM-12+009099999V0209991C000019999999N0000001N9+01671+99999099881ADDGF107991999999999999999999
0035029170999991906081806004+62900+027667FM-12+009099999V0201101N001019999999N0000001N9+01561+99999099271ADDGF108991999999999999999999MW1621
0029029170999991906081813004+62900+027667FM-12+009099999V0202301N001019999999N0000001N9+02061+99999099421ADDGF105991999999999999999999
0029029170999991906081820004+62900+027667FM-12+009099999V0209991C000019999999N0000001N9+01391+99999099401ADDGF103991999999999999999999
0029029170999991906081906004+62900+027667FM-12+009099999V0201401N001019999999N0000001N9+01671+99999098751ADDGF108991999999999999999999
0029029170999991906081913004+62900+027667FM-12+009099999V0209991C000019999999N0000001N9+01891+99999098261ADDGF106991999999999999999999
0035029170999991906081920004+62900+027667FM-12+009099999V0202301N012319999999N0000001N9+01281+99999098111ADDGF108991999999999999999999MW1621
0029029170999991906082006004+62900+027667FM-12+009099999V0202301N002619999999N0000001N9+01171+99999098921ADDGF102991999999999999999999
0029029170999991906082013004+62900+027667FM-12+009099999V0202301N004619999999N0000001N9+01501+99999099161ADDGF108991999999999999999999
0029029170999991906082020004+62900+027667FM-12+009099999V0209991C000019999999N0000001N9+00831+99999099321ADDGF102991999999999999999999
0035029170999991906082106004+62900+027667FM-12+009099999V0201801N001019999999N0000001N9+01061+99999099111ADDGF108991999999999999999999MW1601
0035029170999991906082113004+62900+027667FM-12+009099999V0201801N001019999999N0000001N9+01281+99999098321ADDGF108991999999999999999999MW1621
0029029170999991906082120004+62900+027667FM-12+009099999V0209991C000019999999N0000001N9+01221+99999098081ADDGF106991999999999999999999
0029029170999991906082206004+62900+027667FM-12+009099999V0202501N001019999999N0000001N9+01061+99999098101ADDGF102991999999999999999999
0029029170999991906082213004+62900+027667FM-12+009099999V0202501N002619999999N0000001N9+01561+99999098241ADDGF105991999999999999999999
0029029170999991906082220004+62900+027667FM-12+009099999V0202701N004619999999N0000001N9+01061+99999098501ADDGF108991999999999999999999
0029029170999991906082306004+62900+027667FM-12+009099999V0202701N002619999999N0000001N9+01061+99999098831ADDGF106991999999999999999999
0035029170999991906082313004+62900+027667FM-12+009099999V0203601N001019999999N0000001N9+01001+99999099071ADDGF107991999999999999999999MW1621
0029029170999991906082320004+62900+027667FM-12+009099999V0209991C000019999999N0000001N9+00891+99999099111ADDGF107991999999999999999999
0029029170999991906082406004+62900+027667FM-12+009099999V0200501N001019999999N0000001N9+00891+99999099121ADDGF108991999999999999999999
0029029170999991906082413004+62900+027667FM-12+009099999V0203601N006719999999N0000001N9+00941+99999099261ADDGF107991999999999999999999
0029029170999991906082420004+62900+027667FM-12+009099999V0203601N001019999999N0000001N9+00781+99999099321ADDGF108991999999999999999999
0029029170999991906082506004+62900+027667FM-12+009099999V0209991C000019999999N0000001N9+00721+99999099421ADDGF106991999999999999999999
0029029170999991906082513004+62900+027667FM-12+009099999V0202901N004619999999N0000001N9+01001+99999099511ADDGF106991999999999999999999
0029029170999991906082520004+62900+027667FM-12+009099999V0203401N001019999999N0000001N9+00611+99999099501ADDGF102991999999999999999999
0029029170999991906082606004+62900+027667FM-12+009099999V0209991C000019999999N0000001N9+00671+99999099431ADDGF108991999999999999999999
0029029170999991906082613004+62900+027667FM-12+009099999V0200201N001019999999N0000001N9+01061+99999099361ADDGF106991999999999999999999
0029029170999991906082620004+62900+027667FM-12+009099999V0203601N001019999999N0000001N9+00781+99999099181ADDGF108991999999999999999999
0029029170999991906082706004+62900+027667FM-12+009099999V0209991C000019999999N0000001N9+00671+99999099041ADDGF104991999999999999999999
0029029170999991906082713004+62900+027667FM-12+009099999V0203201N002619999999N0000001N9+01061+99999099141ADDGF105991999999999999999999
0029029170999991906082720004+62900+027667FM-12+009099999V0203601N001019999999N0000001N9+00781+99999099351ADDGF107991999999999999999999
0029029170999991906082806004+62900+027667FM-12+009099999V0209991C000019999999N0000001N9+00671+99999099351ADDGF108991999999999999999999
0035029170999991906082813004+62900+027667FM-12+009099999V0203201N006719999999N0000001N9+01061+99999099301ADDGF105991999999999999999999MW1601
0029029170999991906082820004+62900+027667FM-12+009099999V0203201N002619999999N0000001N9+00671+99999099541ADDGF100991999999999999999999
0029029170999991906082906004+62900+027667FM-12+009099999V0203201N001019999999N0000001N9+00501+99999099641ADDGF102991999999999999999999
0029029170999991906082913004+62900+027667FM-12+009099999V0202901N004619999999N0000001N9+00831+99999099761ADDGF106991999999999999999999
0029029170999991906082920004+62900+027667FM-12+009099999V0209991C000019999999N0000001N9+00501+99999999999ADDGF102991999999999999999999
0029029170999991906083006004+62900+027667FM-12+009099999V0209991C000019999999N0000001N9+00561+99999100081ADDGF108991999999999999999999
0029029170999991906083013004+62900+027667FM-12+009099999V0201801N001019999999N0000001N9+00891+99999099881ADDGF108991999999999999999999
0029029170999991906083020004+62900+027667FM-12+009099999V0209991C000019999999N0000001N9+00831+99999099701ADDGF108991999999999999999999
0029029170999991906083106004+62900+027667FM-12+009099999V0209991C000019999999N0000001N9+00831+99999099781ADDGF108991999999999999999999
0029029170999991906083113004+62900+027667FM-12+009099999V0203401N006719999999N0000001N9+00831+99999100161ADDGF103991999999999999999999
0029029170999991906083120004+62900+027667FM-12+009099999V0203401N001019999999N0000001N9+00671+99999100561ADDGF101991999999999999999999
0029029170999991906090106004+62900+027667FM-12+009099999V0200501N001019999999N0000001N9+00561+99999100781ADDGF106991999999999999999999
0029029170999991906090113004+62900+027667FM-12+009099999V0209991C000019999999N0000001N9+01061+99999100461ADDGF108991999999999999999999
0035029170999991906090120004+62900+027667FM-12+009099999V0201801N002619999999N0000001N9+00671+99999099991ADDGF108991999999999999999999MW1621
0029029170999991906090206004+62900+027667FM-12+009099999V0203201N001019999999N0000001N9+00831+99999098801ADDGF108991999999999999999999
0029029170999991906090213004+62900+027667FM-12+009099999V0203201N001019999999N0000001N9+00671+99999099281ADDGF108991999999999999999999
0029029170999991906090220004+62900+027667FM-12+009099999V0203601N004619999999N0000001N9+00611+99999099961ADDGF108991999999999999999999
0029029170999991906090306004+62900+027667FM-12+009099999V0203601N002619999999N0000001N9+00331+99999101041ADDGF108991999999999999999999
