0029029170999991907010106004+62900+027667FM-12+009099999V0200501N002619999999N0000001N9-01391+99999099461ADDGF107991999999999999999999
0029029170999991907010113004+62900+027667FM-12+009099999V0200501N001019999999N0000001N9-01171+99999099511ADDGF108991999999999999999999
0029029170999991907010120004+62900+027667FM-12+009099999V0209991C000019999999N0000001N9-01611+99999099721ADDGF100991999999999999999999
0029029170999991907010206004+62900+027667FM-12+009099999V0209991C000019999999N0000001N9-01941+99999099921ADDGF108991999999999999999999
0029029170999991907010213004+62900+027667FM-12+009099999V0209991C000019999999N0000001N9-02061+99999100121ADDGF108991999999999999999999
0029029170999991907010220004+62900+027667FM-12+009099999V0209991C000019999999N0000001N9-02331+99999100121ADDGF108991999999999999999999
0029029170999991907010306004+62900+027667FM-12+009099999V0209991C000019999999N0000001N9-02501+99999100021ADDGF108991999999999999999999
0029029170999991907010313004+62900+027667FM-12+009099999V0209991C000019999999N0000001N9-02221+99999099751ADDGF108991999999999999999999
0029029170999991907010320004+62900+027667FM-12+009099999V0201401N002619999999N0000001N9-01501+99999099431ADDGF108991999999999999999999
0029029170999991907010406004+62900+027667FM-12+009099999V0201401N001019999999N0000001N9-01441+99999099591ADDGF108991999999999999999999
0029029170999991907010413004+62900+027667FM-12+009099999V0201401N001019999999N0000001N9-01611+99999099901ADDGF108991999999999999999999
0029029170999991907010420004+62900+027667FM-12+009099999V0201401N001019999999N0000001N9-01781+99999100301ADDGF108991999999999999999999
0029029170999991907010506004+62900+027667FM-12+009099999V0200501N001019999999N0000001N9-01721+99999100701ADDGF108991999999999999999999
0029029170999991907010513004+62900+027667FM-12+009099999V0209991C000019999999N0000001N9-01441+99999101001ADDGF108991999999999999999999
0029029170999991907010520004+62900+027667FM-12+009099999V0200501N001019999999N0000001N9-01221+99999101021ADDGF108991999999999999999999
0029029170999991907010606004+62900+027667FM-12+009099999V0201401N001019999999N0000001N9-00721+99999100471ADDGF108991999999999999999999
0029029170999991907010613004+62900+027667FM-12+009099999V0209991C000019999999N0000001N9-00501+99999100151ADDGF108991999999999999999999
0029029170999991907010620004+62900+027667FM-12+009099999V0209991C000019999999N0000001N9-00331+99999099901ADDGF108991999999999999999999
0029029170999991907010706004+62900+027667FM-12+009099999V0201401N001019999999N0000001N9-00501+99999099981ADDGF108991999999999999999999
0029029170999991907010713004+62900+027667FM-12+009099999V0201401N001019999999N0000001N9-00501+99999100181ADDGF108991999999999999999999
0029029170999991907010720004+62900+027667FM-12+009099999V0201801N001019999999N0000001N9-00441+99999100231ADDGF108991999999999999999999
0029029170999991907010806004+62900+027667FM-12+009099999V0201801N001019999999N0000001N9-00441+99999099621ADDGF108991999999999999999999
0029029170999991907010813004+62900+027667FM-12+009099999V0202301N001019999999N0000001N9-00221+99999098741ADDGF108991999999999999999999
0029029170999991907010820004+62900+027667FM-12+009099999V0202301N002619999999N0000001N9+00171+99999098281ADDGF106991999999999999999999
0029029170999991907010906004+62900+027667FM-12+009099999V0202701N001019999999N0000001N9-00111+99999098591ADDGF100991999999999999999999
0029029170999991907010913004+62900+027667FM-12+009099999V0202701N001019999999N0000001N9-00111+99999098641ADDGF106991999999999999999999
0029029170999991907010920004+62900+027667FM-12+009099999V0202701N001019999999N0000001N9-00561+99999098791ADDGF100991999999999999999999
0029029170999991907011006004+62900+027667FM-12+009099999V0209991C000019999999N0000001N9-01111+99999098871ADDGF100991999999999999999999
0029029170999991907011013004+62900+027667FM-12+009099999V0203201N001019999999N0000001N9-00941+99999099361ADDGF105991999999999999999999
0029029170999991907011020004+62900+027667FM-12+009099999V0209991C000019999999N0000001N9-01281+99999099941ADDGF100991999999999999999999
0029029170999991907011106004+62900+027667FM-12+009099999V0200901N001019999999N0000001N9-01721+99999100631ADDGF100991999999999999999999
0029029170999991907011113004+62900+027667FM-12+009099999V0209991C000019999999N0000001N9-02111+99999100841ADDGF105991999999999999999999
0029029170999991907011120004+62900+027667FM-12+009099999V0209991C000019999999N0000001N9-02221+99999100661ADDGF102991999999999999999999
0029029170999991907011206004+62900+027667FM-12+009099999V0201401N001019999999N0000001N9-02281+99999100441ADDGF108991999999999999999999
0035029170999991907011213004+62900+027667FM-12+009099999V0201401N001019999999N0000001N9-01831+99999099961ADDGF108991999999999999999999MW1721
0029029170999991907011220004+62900+027667FM-12+009099999V0201401N001019999999N0000001N9-01831+99999099401ADDGF108991999999999999999999
0029029170999991907011306004+62900+027667FM-12+009099999V0201401N001019999999N0000001N9-01331+99999098281ADDGF108991999999999999999999
0035029170999991907011313004+62900+027667FM-12+009099999V0201401N002619999999N0000001N9-01561+99999098341ADDGF108991999999999999999999MW1721
0029029170999991907011320004+62900+027667FM-12+009099999V0201401N001019999999N0000001N9-01721+99999098761ADDGF100991999999999999999999
0029029170999991907011406004+62900+027667FM-12+009099999V0201401N001019999999N0000001N9-02171+99999099461ADDGF108991999999999999999999
0029029170999991907011413004+62900+027667FM-12+009099999V0201401N001019999999N0000001N9-02001+99999099501ADDGF108991999999999999999999
0029029170999991907011420004+62900+027667FM-12+009099999V0201401N002619999999N0000001N9-02001+99999099221ADDGF108991999999999999999999
0035029170999991907011506004+62900+027667FM-12+009099999V0201801N002619999999N0000001N9-01671+99999098521ADDGF108991999999999999999999MW1721
0035029170999991907011513004+62900+027667FM-12+009099999V0201801N001019999999N0000001N9-01561+99999098461ADDGF108991999999999999999999MW1721
0029029170999991907011520004+62900+027667FM-12+009099999V0209991C000019999999N0000001N9-01611+99999098681ADDGF108991999999999999999999
0029029170999991907011606004+62900+027667FM-12+009099999V0200901N001019999999N0000001N9-01721+99999099401ADDGF108991999999999999999999
0035029170999991907011613004+62900+027667FM-12+009099999V0200501N001019999999N0000001N9-01721+99999100161ADDGF108991999999999999999999MW1721
0029029170999991907011620004+62900+027667FM-12+009099999V0200901N001019999999N0000001N9-01611+99999100701ADDGF108991999999999999999999
0029029170999991907011706004+62900+027667FM-12+009099999V0209991C000019999999N0000001N9-01501+99999100861ADDGF108991999999999999999999
0029029170999991907011713004+62900+027667FM-12+009099999V0209991C000019999999N0000001N9-01501+99999100701ADDGF108991999999999999999999
0029029170999991907011720004+62900+027667FM-12+009099999V0209991C000019999999N0000001N9-01501+99999100721ADDGF100991999999999999999999
0029029170999991907011806004+62900+027667FM-12+009099999V0209991C000019999999N0000001N9-01221+99999100661ADDGF108991999999999999999999
0029029170999991907011813004+62900+027667FM-12+009099999V0209991C000019999999N0000001N9-01171+99999101031ADDGF108991999999999999999999
0029029170999991907011820004+62900+027667FM-12+009099999V0209991C000019999999N0000001N9-01061+99999101461ADDGF108991999999999999999999
0029029170999991907011906004+62900+027667FM-12+009099999V0209991C000019999999N0000001N9-01061+99999102121ADDGF108991999999999999999999
0029029170999991907011913004+62900+027667FM-12+009099999V0209991C000019999999N0000001N9-01611+99999102711ADDGF103991999999999999999999
0029029170999991907011920004+62900+027667FM-12+009099999V0209991C000019999999N0000001N9-02001+99999103151ADDGF100991999999999999999999
0029029170999991907012006004+62900+027667FM-12+009099999V0200901N001019999999N0000001N9-02281+99999103581ADDGF100991999999999999999999
0029029170999991907012013004+62900+027667FM-12+009099999V0200901N001019999999N0000001N9-02501+99999103941ADDGF100991999999999999999999
0029029170999991907012020004+62900+027667FM-12+009099999V0209991C000019999999N0000001N9-02721+99999104381ADDGF100991999999999999999999
0029029170999991907012106004+62900+027667FM-12+009099999V0209991C000019999999N0000001N9-03061+99999104701ADDGF100991999999999999999999
0029029170999991907012113004+62900+027667FM-12+009099999V0209991C000019999999N0000001N9-02721+99999104871ADDGF100991999999999999999999
0029029170999991907012120004+62900+027667FM-12+009099999V0209991C000019999999N0000001N9-03171+99999104951ADDGF100991999999999999999999
0048029170999991907012206004+62900+027667FM-12+009099999V0209991C000019999999N0000001N9-03501+99999999999ADDGF100991999999999999999999EQDQ01 095003APOSLP
0029029170999991907012213004+62900+027667FM-12+009099999V0209991C000019999999N0000001N9-03171+99999104941ADDGF100991999999999999999999
0029029170999991907012220004+62900+027667FM-12+009099999V0209991C000019999999N0000001N9-03171+99999104661ADDGF100991999999999999999999
0035029170999991907012306004+62900+027667FM-12+009099999V0202301N002619999999N0000001N9-01061+99999103381ADDGF108991999999999999999999MW1721
0035029170999991907012313004+62900+027667FM-12+009099999V0202301N019019999999N0000001N9-00671+99999102311ADDGF108991999999999999999999MW1721
0035029170999991907012320004+62900+027667FM-12+009099999V0202301N019019999999N0000001N9-00501+99999101601ADDGF108991999999999999999999MW1721
0029029170999991907012406004+62900+027667FM-12+009099999V0202301N006719999999N0000001N9-00281+99999100501ADDGF108991999999999999999999
0029029170999991907012413004+62900+027667FM-12+009099999V0202301N012319999999N0000001N9-00111+99999100241ADDGF108991999999999999999999
0029029170999991907012420004+62900+027667FM-12+009099999V0202301N019019999999N0000001N9-00221+99999099921ADDGF108991999999999999999999
0035029170999991907012506004+62900+027667FM-12+009099999V0201801N004619999999N0000001N9-00721+99999098791ADDGF108991999999999999999999MW1721
0029029170999991907012513004+62900+027667FM-12+009099999V0202301N002619999999N0000001N9-00441+99999097871ADDGF108991999999999999999999
0029029170999991907012520004+62900+027667FM-12+009099999V0202301N001019999999N0000001N9-00441+99999097841ADDGF106991999999999999999999
0029029170999991907012606004+62900+027667FM-12+009099999V0203201N001019999999N0000001N9-00781+99999097461ADDGF108991999999999999999999
0029029170999991907012613004+62900+027667FM-12+009099999V0202701N001019999999N0000001N9-01281+99999098241ADDGF100991999999999999999999
0035029170999991907012620004+62900+027667FM-12+009099999V0209991C000019999999N0000001N9-01171+99999098621ADDGF108991999999999999999999MW1741
0029029170999991907012706004+62900+027667FM-12+009099999V0209991C000019999999N0000001N9-01941+99999099601ADDGF100991999999999999999999
0029029170999991907012713004+62900+027667FM-12+009099999V0209991C000019999999N0000001N9-02171+99999100081ADDGF100991999999999999999999
0029029170999991907012720004+62900+027667FM-12+009099999V0209991C000019999999N0000001N9-02391+99999100201ADDGF100991999999999999999999
0029029170999991907012806004+62900+027667FM-12+009099999V0209991C000019999999N0000001N9-01721+99999099981ADDGF108991999999999999999999
0035029170999991907012813004+62900+027667FM-12+009099999V0201401N001019999999N0000001N9-01441+99999099921ADDGF108991999999999999999999MW1741
0029029170999991907012820004+62900+027667FM-12+009099999V0201401N001019999999N0000001N9-01441+99999099671ADDGF108991999999999999999999
0029029170999991907012906004+62900+027667FM-12+009099999V0209991C000019999999N0000001N9-01441+99999099301ADDGF108991999999999999999999
0029029170999991907012913004+62900+027667FM-12+009099999V0209991C000019999999N0000001N9-01281+99999099201ADDGF108991999999999999999999
0029029170999991907012920004+62900+027667FM-12+009099999V0201401N001019999999N0000001N9-01171+99999098951ADDGF108991999999999999999999
0035029170999991907013006004+62900+027667FM-12+009099999V0201401N001019999999N0000001N9-01061+99999098751ADDGF108991999999999999999999MW1741
0029029170999991907013013004+62900+027667FM-12+009099999V0200901N001019999999N0000001N9-01061+99999098841ADDGF108991999999999999999999
0029029170999991907013020004+62900+027667FM-12+009099999V0209991C000019999999N0000001N9-01281+99999099061ADDGF100991999999999999999999
0029029170999991907013106004+62900+027667FM-12+009099999V0209991C000019999999N0000001N9-01221+99999099521ADDGF108991999999999999999999
0029029170999991907013113004+62900+027667FM-12+009099999V0209991C000019999999N0000001N9-01111+99999099961ADDGF108991999999999999999999
0029029170999991907013120004+62900+027667FM-12+009099999V0209991C000019999999N0000001N9-00941+99999100311ADDGF108991999999999999999999
0029029170999991907020106004+62900+027667FM-12+009099999V0209991C000019999999N0000001N9-01001+99999100741ADDGF108991999999999999999999
0029029170999991907020113004+62900+027667FM-12+009099999V0209991C000019999999N0000001N9-01281+99999101111ADDGF100991999999999999999999
0029029170999991907020120004+62900+027667FM-12+009099999V0209991C000019999999N0000001N9-01891+99999101431ADDGF100991999999999999999999
0029029170999991907020206004+62900+027667FM-12+009099999V0209991C000019999999N0000001N9-01281+99999101361ADDGF108991999999999999999999
0029029170999991907020213004+62900+027667FM-12+009099999V0201801N001019999999N0000001N9-00721+99999101431ADDGF100991999999999999999999
0029029170999991907020220004+62900+027667FM-12+009099999V0202301N001019999999N0000001N9-00721+99999101381ADDGF100991999999999999999999
0029029170999991907020306004+62900+027667FM-12+009099999V0202301N004619999999N0000001N9-00501+99999101001ADDGF108991999999999999999999
0029029170999991907020313004+62900+027667FM-12+009099999V0202701N001019999999N0000001N9-00221+99999101301ADDGF102991999999999999999999
0029029170999991907020320004+62900+027667FM-12+009099999V0202301N001019999999N0000001N9-00391+99999101521ADDGF108991999999999999999999
0029029170999991907020406004+62900+027667FM-12+009099999V0202301N001019999999N0000001N9-00611+99999101441ADDGF108991999999999999999999
0029029170999991907020413004+62900+027667FM-12+009099999V0209991C000019999999N0000001N9-00781+99999101481ADDGF108991999999999999999999
0029029170999991907020420004+62900+027667FM-12+009099999V0202301N001019999999N0000001N9-00831+99999101241ADDGF108991999999999999999999
0029029170999991907020506004+62900+027667FM-12+009099999V0202301N001019999999N0000001N9-00781+99999100951ADDGF108991999999999999999999
0029029170999991907020513004+62900+027667FM-12+009099999V0202301N001019999999N0000001N9-00611+99999100881ADDGF108991999999999999999999
0029029170999991907020520004+62900+027667FM-12+009099999V0202301N001019999999N0000001N9-00611+99999101141ADDGF107991999999999999999999
0029029170999991907020606004+62900+027667FM-12+009099999V0209991C000019999999N0000001N9-01171+99999101901ADDGF108991999999999999999999
0029029170999991907020613004+62900+027667FM-12+009099999V0209991C000019999999N0000001N9-00941+99999102181ADDGF108991999999999999999999
0029029170999991907020620004+62900+027667FM-12+009099999V0209991C000019999999N0000001N9-00721+99999102181ADDGF108991999999999999999999
0029029170999991907020706004+62900+027667FM-12+009099999V0209991C000019999999N0000001N9-00331+99999102101ADDGF108991999999999999999999
0035029170999991907020713004+62900+027667FM-12+009099999V0209991C000019999999N0000001N9-00331+99999101991ADDGF108991999999999999999999MW1741
0029029170999991907020720004+62900+027667FM-12+009099999V0209991C000019999999N0000001N9-00781+99999101861ADDGF108991999999999999999999
0029029170999991907020806004+62900+027667FM-12+009099999V0209991C000019999999N0000001N9-01281+99999101631ADDGF108991999999999999999999
0035029170999991907020813004+62900+027667FM-12+009099999V0209991C000019999999N0000001N9-01171+99999101661ADDGF108991999999999999999999MW1721
0029029170999991907020820004+62900+027667FM-12+009099999V0201801N001019999999N0000001N9-00941+99999101701ADDGF108991999999999999999999
0029029170999991907020906004+62900+027667FM-12+009099999V0209991C000019999999N0000001N9-01221+99999101591ADDGF108991999999999999999999
0029029170999991907020913004+62900+027667FM-12+009099999V0209991C000019999999N0000001N9-01221+99999101501ADDGF108991999999999999999999
0029029170999991907020920004+62900+027667FM-12+009099999V0209991C000019999999N0000001N9-01501+99999101321ADDGF108991999999999999999999
0035029170999991907021006004+62900+027667FM-12+009099999V0209991C000019999999N0000001N9-01331+99999101281ADDGF108991999999999999999999MW1741
0029029170999991907021013004+62900+027667FM-12+009099999V0209991C000019999999N0000001N9-01221+99999101311ADDGF102991999999999999999999
0029029170999991907021020004+62900+027667FM-12+009099999V0201801N001019999999N0000001N9-01281+99999101381ADDGF108991999999999999999999
0029029170999991907021106004+62900+027667FM-12+009099999V0209991C000019999999N0000001N9-01171+99999101001ADDGF108991999999999999999999
0029029170999991907021113004+62900+027667FM-12+009099999V0209991C000019999999N0000001N9-01281+99999101071ADDGF108991999999999999999999
0029029170999991907021120004+62900+027667FM-12+009099999V0209991C000019999999N0000001N9-00891+99999101071ADDGF108991999999999999999999
0029029170999991907021206004+62900+027667FM-12+009099999V0209991C000019999999N0000001N9-01391+99999100911ADDGF100991999999999999999999
0029029170999991907021213004+62900+027667FM-12+009099999V0209991C000019999999N0000001N9-01221+99999100831ADDGF108991999999999999999999
0029029170999991907021220004+62900+027667FM-12+009099999V0201801N001019999999N0000001N9-01441+99999100821ADDGF100991999999999999999999
0029029170999991907021306004+62900+027667FM-12+009099999V0209991C000019999999N0000001N9-01281+99999100781ADDGF108991999999999999999999
0029029170999991907021313004+62900+027667FM-12+009099999V0201801N001019999999N0000001N9-01061+99999101061ADDGF106991999999999999999999
0029029170999991907021320004+62900+027667FM-12+009099999V0209991C000019999999N0000001N9-01671+99999101201ADDGF100991999999999999999999
0029029170999991907021406004+62900+027667FM-12+009099999V0209991C000019999999N0000001N9-01781+99999101201ADDGF100991999999999999999999
0029029170999991907021413004+62900+027667FM-12+009099999V0209991C000019999999N0000001N9-00831+99999101161ADDGF100991999999999999999999
0029029170999991907021420004+62900+027667FM-12+009099999V0209991C000019999999N0000001N9-01561+99999101121ADDGF100991999999999999999999
0035029170999991907021506004+62900+027667FM-12+009099999V0201801N001019999999N0000001N9-01281+99999100701ADDGF108991999999999999999999MW1741
0035029170999991907021513004+62900+027667FM-12+009099999V0201801N001019999999N0000001N9-00831+99999099821ADDGF108991999999999999999999MW1741
0035029170999991907021520004+62900+027667FM-12+009099999V0201801N019019999999N0000001N9-00611+99999099121ADDGF108991999999999999999999MW1741
0035029170999991907021606004+62900+027667FM-12+009099999V0201801N006719999999N0000001N9-00561+99999097541ADDGF108991999999999999999999MW1721
0035029170999991907021613004+62900+027667FM-12+009099999V0201401N002619999999N0000001N9-00831+99999097311ADDGF108991999999999999999999MW1721
0029029170999991907021620004+62900+027667FM-12+009099999V0201401N001019999999N0000001N9-00171+99999097601ADDGF108991999999999999999999
0029029170999991907021706004+62900+027667FM-12+009099999V0209991C000019999999N0000001N9-00501+99999097401ADDGF108991999999999999999999
0029029170999991907021713004+62900+027667FM-12+009099999V0209991C000019999999N0000001N9-00281+99999097191ADDGF108991999999999999999999
0029029170999991907021720004+62900+027667FM-12+009099999V0209991C000019999999N0000001N9-00171+99999097311ADDGF108991999999999999999999
0029029170999991907021806004+62900+027667FM-12+009099999V0209991C000019999999N0000001N9-00721+99999097601ADDGF108991999999999999999999
0029029170999991907021813004+62900+027667FM-12+009099999V0209991C000019999999N0000001N9-00501+99999098061ADDGF100991999999999999999999
0029029170999991907021820004+62900+027667FM-12+009099999V0209991C000019999999N0000001N9-01061+99999098231ADDGF100991999999999999999999
0029029170999991907021906004+62900+027667FM-12+009099999V0209991C000019999999N0000001N9-01281+99999098121ADDGF108991999999999999999999
0035029170999991907021913004+62900+027667FM-12+009099999V0201401N001019999999N0000001N9-00831+99999097441ADDGF108991999999999999999999MW1721
0035029170999991907021920004+62900+027667FM-12+009099999V0201401N019019999999N0000001N9-00611+99999097071ADDGF108991999999999999999999MW1381
0029029170999991907022006004+62900+027667FM-12+009099999V0201801N002619999999N0000001N9-00171+99999097181ADDGF108991999999999999999999
0029029170999991907022013004+62900+027667FM-12+009099999V0201801N002619999999N0000001N9+00001+99999097081ADDGF108991999999999999999999
0029029170999991907022020004+62900+027667FM-12+009099999V0201401N012319999999N0000001N9-00221+99999096631ADDGF108991999999999999999999
0035029170999991907022106004+62900+027667FM-12+009099999V0201401N006719999999N0000001N9-00391+99999096151ADDGF108991999999999999999999MW1741
0029029170999991907022113004+62900+027667FM-12+009099999V0201401N001019999999N0000001N9-00061+99999096421ADDGF108991999999999999999999
0029029170999991907022120004+62900+027667FM-12+009099999V0201401N019019999999N0000001N9-00221+99999096521ADDGF108991999999999999999999
0035029170999991907022206004+62900+027667FM-12+009099999V0201401N006719999999N0000001N9-00281+99999096471ADDGF108991999999999999999999MW1721
0029029170999991907022213004+62900+027667FM-12+009099999V0201401N001019999999N0000001N9+00001+99999096801ADDGF108991999999999999999999
0029029170999991907022220004+62900+027667FM-12+009099999V0209991C000019999999N0000001N9-00281+99999097271ADDGF108991999999999999999999
0029029170999991907022306004+62900+027667FM-12+009099999V0209991C000019999999N0000001N9-00171+99999097581ADDGF108991999999999999999999
0035029170999991907022313004+62900+027667FM-12+009099999V0201401N001019999999N0000001N9-00061+99999097751ADDGF108991999999999999999999MW1741
0029029170999991907022320004+62900+027667FM-12+009099999V0209991C000019999999N0000001N9-00221+99999097881ADDGF108991999999999999999999
0029029170999991907022406004+62900+027667FM-12+009099999V0209991C000019999999N0000001N9-00331+99999098081ADDGF108991999999999999999999
0029029170999991907022413004+62900+027667FM-12+009099999V0209991C000019999999N0000001N9-00221+99999098421ADDGF108991999999999999999999
0029029170999991907022420004+62900+027667FM-12+009099999V0209991C000019999999N0000001N9-00611+99999098861ADDGF108991999999999999999999
0029029170999991907022506004+62900+027667FM-12+009099999V0203201N001019999999N0000001N9-00941+99999099561ADDGF108991999999999999999999
0029029170999991907022513004+62900+027667FM-12+009099999V0203201N001019999999N0000001N9-00781+99999099701ADDGF108991999999999999999999
0035029170999991907022520004+62900+027667FM-12+009099999V0202301N002619999999N0000001N9-00831+99999099061ADDGF108991999999999999999999MW1721
0035029170999991907022606004+62900+027667FM-12+009099999V0202301N006719999999N0000001N9-00221+99999097431ADDGF108991999999999999999999MW1721
0029029170999991907022613004+62900+027667FM-12+009099999V0202301N006719999999N0000001N9+00061+99999096061ADDGF108991999999999999999999
0029029170999991907022620004+62900+027667FM-12+009099999V0202301N006719999999N0000001N9-00441+99999096641ADDGF100991999999999999999999
0029029170999991907022706004+62900+027667FM-12+009099999V0202301N002619999999N0000001N9-00561+99999096791ADDGF108991999999999999999999
0029029170999991907022713004+62900+027667FM-12+009099999V0203201N002619999999N0000001N9-00281+99999097361ADDGF108991999999999999999999
0029029170999991907022720004+62900+027667FM-12+009099999V0203201N019019999999N0000001N9-00561+99999097621ADDGF107991999999999999999999
0029029170999991907022806004+62900+027667FM-12+009099999V0203201N002619999999N0000001N9-00721+99999098341ADDGF100991999999999999999999
0035029170999991907022813004+62900+027667FM-12+009099999V0202901N001019999999N0000001N9-00391+99999098481ADDGF108991999999999999999999MW1721
0029029170999991907022820004+62900+027667FM-12+009099999V0202901N019019999999N0000001N9-00281+99999098661ADDGF103991999999999999999999
0029029170999991907030106004+62900+027667FM-12+009099999V0203201N002619999999N0000001N9-00671+99999099591ADDGF100991999999999999999999
0029029170999991907030113004+62900+027667FM-12+009099999V0203201N001019999999N0000001N9-00221+99999099881ADDGF100991999999999999999999
0029029170999991907030120004+62900+027667FM-12+009099999V0209991C000019999999N0000001N9-00781+99999100101ADDGF100991999999999999999999
0029029170999991907030206004+62900+027667FM-12+009099999V0209991C000019999999N0000001N9-01171+99999099511ADDGF108991999999999999999999
0029029170999991907030213004+62900+027667FM-12+009099999V0209991C000019999999N0000001N9-00391+99999099671ADDGF108991999999999999999999
0029029170999991907030220004+62900+027667FM-12+009099999V0203201N002619999999N0000001N9-00221+99999100061ADDGF101991999999999999999999
0029029170999991907030306004+62900+027667FM-12+009099999V0209991C000019999999N0000001N9-00671+99999100641ADDGF101991999999999999999999
0029029170999991907030313004+62900+027667FM-12+009099999V0202301N001019999999N0000001N9+00001+99999100621ADDGF100991999999999999999999
0029029170999991907030320004+62900+027667FM-12+009099999V0209991C000019999999N0000001N9-00111+99999101031ADDGF100991999999999999999999
0029029170999991907030406004+62900+027667FM-12+009099999V0209991C000019999999N0000001N9-01061+99999101031ADDGF108991999999999999999999
0029029170999991907030413004+62900+027667FM-12+009099999V0202301N001019999999N0000001N9+00501+99999100401ADDGF100991999999999999999999
0029029170999991907030420004+62900+027667FM-12+009099999V0202301N002619999999N0000001N9+00111+99999100101ADDGF100991999999999999999999
0029029170999991907030506004+62900+027667FM-12+009099999V0209991C000019999999N0000001N9+00001+99999100241ADDGF102991999999999999999999
0029029170999991907030513004+62900+027667FM-12+009099999V0202301N001019999999N0000001N9+00331+99999100041ADDGF100991999999999999999999
0029029170999991907030520004+62900+027667FM-12+009099999V0209991C000019999999N0000001N9+00111+99999099871ADDGF100991999999999999999999
0029029170999991907030606004+62900+027667FM-12+009099999V0202301N004619999999N0000001N9+00171+99999099631ADDGF100991999999999999999999
0029029170999991907030613004+62900+027667FM-12+009099999V0202301N002619999999N0000001N9+00501+99999099391ADDGF105991999999999999999999
0029029170999991907030620004+62900+027667FM-12+009099999V0202301N002619999999N0000001N9+00171+99999099241ADDGF100991999999999999999999
0029029170999991907030706004+62900+027667FM-12+009099999V0202701N001019999999N0000001N9-00221+99999099431ADDGF100991999999999999999999
0029029170999991907030713004+62900+027667FM-12+009099999V0202301N001019999999N0000001N9+00281+99999100021ADDGF100991999999999999999999
0029029170999991907030720004+62900+027667FM-12+009099999V0202301N002619999999N0000001N9-00171+99999099761ADDGF106991999999999999999999
0029029170999991907030806004+62900+027667FM-12+009099999V0202301N004619999999N0000001N9-00061+99999098881ADDGF108991999999999999999999
0035029170999991907030813004+62900+027667FM-12+009099999V0202301N002619999999N0000001N9+00061+99999098741ADDGF108991999999999999999999MW1721
0029029170999991907030820004+62900+027667FM-12+009099999V0201801N019019999999N0000001N9+00001+99999098551ADDGF108991999999999999999999
0029029170999991907030906004+62900+027667FM-12+009099999V0202301N002619999999N0000001N9+00111+99999098421ADDGF108991999999999999999999
0035029170999991907030913004+62900+027667FM-12+009099999V0202301N001019999999N0000001N9+00061+99999098641ADDGF108991999999999999999999MW1741
0029029170999991907030920004+62900+027667FM-12+009099999V0209991C000019999999N0000001N9-00441+99999099081ADDGF100991999999999999999999
0029029170999991907031006004+62900+027667FM-12+009099999V0209991C000019999999N0000001N9-01061+99999099391ADDGF108991999999999999999999
0035029170999991907031013004+62900+027667FM-12+009099999V0200501N001019999999N0000001N9-00441+99999099351ADDGF108991999999999999999999MW1721
0035029170999991907031020004+62900+027667FM-12+009099999V0209991C000019999999N0000001N9-00441+99999099401ADDGF108991999999999999999999MW1721
0029029170999991907031106004+62900+027667FM-12+009099999V0200901N001019999999N0000001N9-00441+99999099401ADDGF108991999999999999999999
0029029170999991907031113004+62900+027667FM-12+009099999V0209991C000019999999N0000001N9-00331+99999099621ADDGF108991999999999999999999
0029029170999991907031120004+62900+027667FM-12+009099999V0209991C000019999999N0000001N9-00831+99999099871ADDGF105991999999999999999999
0029029170999991907031206004+62900+027667FM-12+009099999V0209991C000019999999N0000001N9-01221+99999100121ADDGF108991999999999999999999
0035029170999991907031213004+62900+027667FM-12+009099999V0201401N001019999999N0000001N9-00501+99999100301ADDGF108991999999999999999999MW1721
0029029170999991907031220004+62900+027667FM-12+009099999V0209991C000019999999N0000001N9-00721+99999100391ADDGF108991999999999999999999
0035029170999991907031306004+62900+027667FM-12+009099999V0209991C000019999999N0000001N9-01001+99999100201ADDGF108991999999999999999999MW1721
0029029170999991907031313004+62900+027667FM-12+009099999V0209991C000019999999N0000001N9-00501+99999099951ADDGF108991999999999999999999
0035029170999991907031320004+62900+027667FM-12+009099999V0209991C000019999999N0000001N9-00781+99999099761ADDGF108991999999999999999999MW1721
0035029170999991907031406004+62900+027667FM-12+009099999V0209991C000019999999N0000001N9-01001+99999099661ADDGF108991999999999999999999MW1721
0029029170999991907031413004+62900+027667FM-12+009099999V0209991C000019999999N0000001N9-00561+99999099861ADDGF100991999999999999999999
0029029170999991907031420004+62900+027667FM-12+009099999V0209991C000019999999N0000001N9-01281+99999100121ADDGF108991999999999999999999
0035029170999991907031506004+62900+027667FM-12+009099999V0209991C000019999999N0000001N9-01171+99999100441ADDGF108991999999999999999999MW1721
0029029170999991907031513004+62900+027667FM-12+009099999V0209991C000019999999N0000001N9-00781+99999100701ADDGF108991999999999999999999
0029029170999991907031520004+62900+027667FM-12+009099999V0209991C000019999999N0000001N9-01061+99999100801ADDGF105991999999999999999999
0029029170999991907031606004+62900+027667FM-12+009099999V0209991C000019999999N0000001N9-01561+99999100631ADDGF100991999999999999999999
0035029170999991907031613004+62900+027667FM-12+009099999V0202301N001019999999N0000001N9-00441+99999100381ADDGF108991999999999999999999MW1721
0029029170999991907031620004+62900+027667FM-12+009099999V0209991C000019999999N0000001N9-00441+99999100261ADDGF100991999999999999999999
0035029170999991907031706004+62900+027667FM-12+009099999V0201801N001019999999N0000001N9-00281+99999099841ADDGF108991999999999999999999MW1741
0035029170999991907031713004+62900+027667FM-12+009099999V0201801N006719999999N0000001N9+00001+99999099511ADDGF108991999999999999999999MW1721
0029029170999991907031720004+62900+027667FM-12+009099999V0201801N002619999999N0000001N9-00721+99999099321ADDGF108991999999999999999999
0029029170999991907031806004+62900+027667FM-12+009099999V0201801N001019999999N0000001N9-00441+99999099141ADDGF108991999999999999999999
0029029170999991907031813004+62900+027667FM-12+009099999V0201801N002619999999N0000001N9-00111+99999099071ADDGF108991999999999999999999
0029029170999991907031820004+62900+027667FM-12+009099999V0201801N001019999999N0000001N9-00281+99999098921ADDGF108991999999999999999999
0035029170999991907031906004+62900+027667FM-12+009099999V0201401N001019999999N0000001N9-00611+99999098621ADDGF108991999999999999999999MW1721
0029029170999991907031913004+62900+027667FM-12+009099999V0201401N001019999999N0000001N9-00061+99999098421ADDGF108991999999999999999999
0029029170999991907031920004+62900+027667FM-12+009099999V0201401N001019999999N0000001N9-00221+99999098341ADDGF107991999999999999999999
0035029170999991907032006004+62900+027667FM-12+009099999V0201401N002619999999N0000001N9-00281+99999098361ADDGF108991999999999999999999MW1721
0029029170999991907032013004+62900+027667FM-12+009099999V0201401N001019999999N0000001N9+00111+99999098421ADDGF108991999999999999999999
0029029170999991907032020004+62900+027667FM-12+009099999V0209991C000019999999N0000001N9-00221+99999098721ADDGF108991999999999999999999
0035029170999991907032106004+62900+027667FM-12+009099999V0200501N001019999999N0000001N9-00221+99999098951ADDGF108991999999999999999999MW1721
0029029170999991907032113004+62900+027667FM-12+009099999V0209991C000019999999N0000001N9+00001+99999099191ADDGF108991999999999999999999
0029029170999991907032120004+62900+027667FM-12+009099999V0209991C000019999999N0000001N9-00281+99999099281ADDGF108991999999999999999999
0035029170999991907032206004+62900+027667FM-12+009099999V0209991C000019999999N0000001N9-00501+99999098911ADDGF108991999999999999999999MW1721
0029029170999991907032213004+62900+027667FM-12+009099999V0209991C000019999999N0000001N9-00111+99999098641ADDGF108991999999999999999999
0029029170999991907032220004+62900+027667FM-12+009099999V0209991C000019999999N0000001N9-00611+99999098601ADDGF101991999999999999999999
0029029170999991907032306004+62900+027667FM-12+009099999V0209991C000019999999N0000001N9-01061+99999098991ADDGF100991999999999999999999
0029029170999991907032313004+62900+027667FM-12+009099999V0209991C000019999999N0000001N9+00001+99999099341ADDGF108991999999999999999999
0029029170999991907032320004+62900+027667FM-12+009099999V0209991C000019999999N0000001N9-00391+99999099711ADDGF108991999999999999999999
0029029170999991907032406004+62900+027667FM-12+009099999V0209991C000019999999N0000001N9-00281+99999099921ADDGF108991999999999999999999
0029029170999991907032413004+62900+027667FM-12+009099999V0209991C000019999999N0000001N9-00061+99999100361ADDGF108991999999999999999999
0029029170999991907032420004+62900+027667FM-12+009099999V0209991C000019999999N0000001N9-00611+99999100481ADDGF100991999999999999999999
0029029170999991907032506004+62900+027667FM-12+009099999V0209991C000019999999N0000001N9-01171+99999100511ADDGF108991999999999999999999
0029029170999991907032513004+62900+027667FM-12+009099999V0202301N001019999999N0000001N9+00221+99999100421ADDGF108991999999999999999999
0029029170999991907032520004+62900+027667FM-12+009099999V0202301N001019999999N0000001N9-00061+99999100431ADDGF108991999999999999999999
0029029170999991907032606004+62900+027667FM-12+009099999V0202301N001019999999N0000001N9-00171+99999100271ADDGF103991999999999999999999
0029029170999991907032613004+62900+027667FM-12+009099999V0202301N002619999999N0000001N9+00331+99999099801ADDGF108991999999999999999999
0029029170999991907032620004+62900+027667FM-12+009099999V0202301N001019999999N0000001N9+00391+99999099751ADDGF100991999999999999999999
0029029170999991907032706004+62900+027667FM-12+009099999V0202701N001019999999N0000001N9-00221+99999100881ADDGF102991999999999999999999
0029029170999991907032713004+62900+027667FM-12+009099999V0202501N002619999999N0000001N9+00721+99999100961ADDGF100991999999999999999999
0029029170999991907032720004+62900+027667FM-12+009099999V0202501N001019999999N0000001N9+00561+99999100581ADDGF101991999999999999999999
0029029170999991907032806004+62900+027667FM-12+009099999V0202301N001019999999N0000001N9+00391+99999100141ADDGF100991999999999999999999
0029029170999991907032813004+62900+027667FM-12+009099999V0202301N001019999999N0000001N9+00781+99999099991ADDGF108991999999999999999999
0029029170999991907032820004+62900+027667FM-12+009099999V0209991C000019999999N0000001N9+00441+99999100201ADDGF100991999999999999999999
0029029170999991907032906004+62900+027667FM-12+009099999V0209991C000019999999N0000001N9+00111+99999100661ADDGF100991999999999999999999
0029029170999991907032913004+62900+027667FM-12+009099999V0203201N001019999999N0000001N9+00781+99999100951ADDGF100991999999999999999999
0029029170999991907032920004+62900+027667FM-12+009099999V0209991C000019999999N0000001N9+00221+99999101271ADDGF100991999999999999999999
0029029170999991907033006004+62900+027667FM-12+009099999V0209991C000019999999N0000001N9-00281+99999101441ADDGF100991999999999999999999
0029029170999991907033013004+62900+027667FM-12+009099999V0209991C000019999999N0000001N9+00721+99999101361ADDGF100991999999999999999999
0029029170999991907033020004+62900+027667FM-12+009099999V0209991C000019999999N0000001N9+00171+99999101351ADDGF100991999999999999999999
0029029170999991907033106004+62900+027667FM-12+009099999V0209991C000019999999N0000001N9-00331+99999101421ADDGF100991999999999999999999
0029029170999991907033113004+62900+027667FM-12+009099999V0201401N001019999999N0000001N9+00891+99999101361ADDGF100991999999999999999999
0029029170999991907033120004+62900+027667FM-12+009099999V0209991C000019999999N0000001N9+00331+99999101381ADDGF100991999999999999999999
0029029170999991907040106004+62900+027667FM-12+009099999V0209991C000019999999N0000001N9-00171+99999101301ADDGF100991999999999999999999
0029029170999991907040113004+62900+027667FM-12+009099999V0209991C000019999999N0000001N9+00781+99999101031ADDGF100991999999999999999999
0029029170999991907040120004+62900+027667FM-12+009099999V0209991C000019999999N0000001N9+00111+99999100781ADDGF100991999999999999999999
0029029170999991907040206004+62900+027667FM-12+009099999V0209991C000019999999N0000001N9-00281+99999100591ADDGF108991999999999999999999
0029029170999991907040213004+62900+027667FM-12+009099999V0209991C000019999999N0000001N9+00671+99999100511ADDGF100991999999999999999999
0029029170999991907040220004+62900+027667FM-12+009099999V0209991C000019999999N0000001N9+00061+99999100581ADDGF100991999999999999999999
0029029170999991907040306004+62900+027667FM-12+009099999V0209991C000019999999N0000001N9-00171+99999100661ADDGF108991999999999999999999
0029029170999991907040313004+62900+027667FM-12+009099999V0209991C000019999999N0000001N9+00721+99999100671ADDGF108991999999999999999999
0029029170999991907040320004+62900+027667FM-12+009099999V0209991C000019999999N0000001N9+00331+99999100821ADDGF108991999999999999999999
0029029170999991907040406004+62900+027667FM-12+009099999V0209991C000019999999N0000001N9+00171+99999101151ADDGF108991999999999999999999
0029029170999991907040413004+62900+027667FM-12+009099999V0209991C000019999999N0000001N9+00441+99999101391ADDGF108991999999999999999999
0029029170999991907040420004+62900+027667FM-12+009099999V0209991C000019999999N0000001N9+00221+99999101661ADDGF108991999999999999999999
0029029170999991907040506004+62900+027667FM-12+009099999V0209991C000019999999N0000001N9+00281+99999102071ADDGF108991999999999999999999
0029029170999991907040513004+62900+027667FM-12+009099999V0201401N001019999999N0000001N9+00501+99999102121ADDGF108991999999999999999999
0029029170999991907040520004+62900+027667FM-12+009099999V0201401N001019999999N0000001N9+00281+99999101981ADDGF100991999999999999999999
0029029170999991907040606004+62900+027667FM-12+009099999V0209991C000019999999N0000001N9+00061+99999101871ADDGF100991999999999999999999
0029029170999991907040613004+62900+027667FM-12+009099999V0201401N001019999999N0000001N9+00561+99999101701ADDGF100991999999999999999999
0029029170999991907040620004+62900+027667FM-12+009099999V0201401N001019999999N0000001N9+00001+99999101631ADDGF100991999999999999999999
0029029170999991907040706004+62900+027667FM-12+009099999V0201401N001019999999N0000001N9+00061+99999101541ADDGF108991999999999999999999
0029029170999991907040713004+62900+027667FM-12+009099999V0201401N002619999999N0000001N9+00561+99999101501ADDGF108991999999999999999999
0029029170999991907040720004+62900+027667FM-12+009099999V0209991C000019999999N0000001N9+00001+99999101431ADDGF100991999999999999999999
0029029170999991907040806004+62900+027667FM-12+009099999V0201401N001019999999N0000001N9+00001+99999101391ADDGF108991999999999999999999
0029029170999991907040813004+62900+027667FM-12+009099999V0201801N001019999999N0000001N9+00221+99999101421ADDGF108991999999999999999999
0029029170999991907040820004+62900+027667FM-12+009099999V0209991C000019999999N0000001N9+00171+99999101481ADDGF108991999999999999999999
0029029170999991907040906004+62900+027667FM-12+009099999V0209991C000019999999N0000001N9+00171+99999101581ADDGF108991999999999999999999
0029029170999991907040913004+62900+027667FM-12+009099999V0209991C000019999999N0000001N9+00391+99999101671ADDGF108991999999999999999999
0029029170999991907040920004+62900+027667FM-12+009099999V0209991C000019999999N0000001N9+00221+99999101741ADDGF108991999999999999999999
0029029170999991907041006004+62900+027667FM-12+009099999V0209991C000019999999N0000001N9+00111+99999101721ADDGF100991999999999999999999
0029029170999991907041013004+62900+027667FM-12+009099999V0209991C000019999999N0000001N9+00781+99999101481ADDGF100991999999999999999999
0029029170999991907041020004+62900+027667FM-12+009099999V0209991C000019999999N0000001N9+00171+99999101271ADDGF100991999999999999999999
0029029170999991907041106004+62900+027667FM-12+009099999V0209991C000019999999N0000001N9+00001+99999101021ADDGF108991999999999999999999
0029029170999991907041113004+62900+027667FM-12+009099999V0209991C000019999999N0000001N9+00331+99999100781ADDGF108991999999999999999999
0029029170999991907041120004+62900+027667FM-12+009099999V0209991C000019999999N0000001N9+00221+99999100631ADDGF100991999999999999999999
0029029170999991907041206004+62900+027667FM-12+009099999V0203201N001019999999N0000001N9+00171+99999100621ADDGF100991999999999999999999
0029029170999991907041213004+62900+027667FM-12+009099999V0209991C000019999999N0000001N9+00501+99999100461ADDGF101991999999999999999999
0029029170999991907041220004+62900+027667FM-12+009099999V0209991C000019999999N0000001N9+00221+99999100071ADDGF101991999999999999999999
0029029170999991907041306004+62900+027667FM-12+009099999V0209991C000019999999N0000001N9+00001+99999099701ADDGF100991999999999999999999
0029029170999991907041313004+62900+027667FM-12+009099999V0202701N001019999999N0000001N9+00501+99999099621ADDGF105991999999999999999999
0029029170999991907041320004+62900+027667FM-12+009099999V0203601N002619999999N0000001N9-00171+99999099551ADDGF108991999999999999999999
0029029170999991907041406004+62900+027667FM-12+009099999V0209991C000019999999N0000001N9-00281+99999099191ADDGF108991999999999999999999
0035029170999991907041413004+62900+027667FM-12+009099999V0203601N001019999999N0000001N9-00171+99999099231ADDGF108991999999999999999999MW1721
0029029170999991907041420004+62900+027667FM-12+009099999V0203201N001019999999N0000001N9-00561+99999099621ADDGF100991999999999999999999
0029029170999991907041506004+62900+027667FM-12+009099999V0202701N001019999999N0000001N9-00561+99999100021ADDGF107991999999999999999999
0029029170999991907041513004+62900+027667FM-12+009099999V0203201N001019999999N0000001N9+00001+99999099951ADDGF108991999999999999999999
0029029170999991907041520004+62900+027667FM-12+009099999V0209991C000019999999N0000001N9-00281+99999100031ADDGF100991999999999999999999
0029029170999991907041606004+62900+027667FM-12+009099999V0209991C000019999999N0000001N9-00501+99999100121ADDGF108991999999999999999999
0035029170999991907041613004+62900+027667FM-12+009099999V0202301N001019999999N0000001N9+00061+99999099951ADDGF108991999999999999999999MW1721
0029029170999991907041620004+62900+027667FM-12+009099999V0202301N001019999999N0000001N9-00111+99999099801ADDGF108991999999999999999999
0029029170999991907041706004+62900+027667FM-12+009099999V0209991C000019999999N0000001N9-00221+99999099701ADDGF106991999999999999999999
0029029170999991907041713004+62900+027667FM-12+009099999V0201801N001019999999N0000001N9+00441+99999099441ADDGF108991999999999999999999
0035029170999991907041720004+62900+027667FM-12+009099999V0209991C000019999999N0000001N9+00001+99999099231ADDGF108991999999999999999999MW1741
0029029170999991907041806004+62900+027667FM-12+009099999V0209991C000019999999N0000001N9+00061+99999098831ADDGF108991999999999999999999
0029029170999991907041813004+62900+027667FM-12+009099999V0209991C000019999999N0000001N9+00331+99999098601ADDGF108991999999999999999999
0035029170999991907041820004+62900+027667FM-12+009099999V0209991C000019999999N0000001N9+00221+99999098471ADDGF108991999999999999999999MW1621
0035029170999991907041906004+62900+027667FM-12+009099999V0209991C000019999999N0000001N9+00111+99999098311ADDGF108991999999999999999999MW1621
0035029170999991907041913004+62900+027667FM-12+009099999V0202701N001019999999N0000001N9+00171+99999098721ADDGF108991999999999999999999MW1621
0029029170999991907041920004+62900+027667FM-12+009099999V0209991C000019999999N0000001N9+00001+99999099201ADDGF108991999999999999999999
0029029170999991907042006004+62900+027667FM-12+009099999V0202701N001019999999N0000001N9-00221+99999099301ADDGF100991999999999999999999
0029029170999991907042013004+62900+027667FM-12+009099999V0203601N001019999999N0000001N9+00001+99999099361ADDGF108991999999999999999999
0029029170999991907042020004+62900+027667FM-12+009099999V0203601N001019999999N0000001N9-00061+99999099261ADDGF108991999999999999999999
0035029170999991907042106004+62900+027667FM-12+009099999V0203201N001019999999N0000001N9+00061+99999099341ADDGF108991999999999999999999MW1721
0035029170999991907042113004+62900+027667FM-12+009099999V0209991C000019999999N0000001N9+00111+99999099631ADDGF108991999999999999999999MW1721
0029029170999991907042120004+62900+027667FM-12+009099999V0209991C000019999999N0000001N9+00001+99999099881ADDGF108991999999999999999999
0035029170999991907042206004+62900+027667FM-12+009099999V0202701N001019999999N0000001N9-00171+99999100021ADDGF108991999999999999999999MW1721
0035029170999991907042213004+62900+027667FM-12+009099999V0201801N001019999999N0000001N9-00221+99999099991ADDGF108991999999999999999999MW1621
0035029170999991907042220004+62900+027667FM-12+009099999V0209991C000019999999N0000001N9+00171+99999100111ADDGF108991999999999999999999MW1621
0035029170999991907042306004+62900+027667FM-12+009099999V0209991C000019999999N0000001N9+00221+99999099901ADDGF108991999999999999999999MW1621
0035029170999991907042313004+62900+027667FM-12+009099999V0201801N001019999999N0000001N9+00281+99999099621ADDGF108991999999999999999999MW1621
0029029170999991907042320004+62900+027667FM-12+009099999V0209991C000019999999N0000001N9+00171+99999099301ADDGF108991999999999999999999
0035029170999991907042406004+62900+027667FM-12+009099999V0209991C000019999999N0000001N9+00171+99999098901ADDGF108991999999999999999999MW1621
0035029170999991907042413004+62900+027667FM-12+009099999V0209991C000019999999N0000001N9+00441+99999098921ADDGF108991999999999999999999MW1621
0035029170999991907042420004+62900+027667FM-12+009099999V0209991C000019999999N0000001N9+00221+99999098801ADDGF108991999999999999999999MW1621
0035029170999991907042506004+62900+027667FM-12+009099999V0209991C000019999999N0000001N9+00221+99999098881ADDGF108991999999999999999999MW1621
0029029170999991907042513004+62900+027667FM-12+009099999V0209991C000019999999N0000001N9+00501+99999099281ADDGF108991999999999999999999
0035029170999991907042520004+62900+027667FM-12+009099999V0209991C000019999999N0000001N9+00281+99999099231ADDGF108991999999999999999999MW1621
0029029170999991907042606004+62900+027667FM-12+009099999V0209991C000019999999N0000001N9+00281+99999099221ADDGF108991999999999999999999
0035029170999991907042613004+62900+027667FM-12+009099999V0200501N001019999999N0000001N9+00501+99999099081ADDGF108991999999999999999999MW1621
0029029170999991907042620004+62900+027667FM-12+009099999V0200501N001019999999N0000001N9+00441+99999098751ADDGF108991999999999999999999
0029029170999991907042706004+62900+027667FM-12+009099999V0200501N002619999999N0000001N9+00331+99999098421ADDGF108991999999999999999999
0035029170999991907042713004+62900+027667FM-12+009099999V0200501N002619999999N0000001N9+00441+99999098321ADDGF108991999999999999999999MW1621
0035029170999991907042720004+62900+027667FM-12+009099999V0200501N001019999999N0000001N9+00441+99999098361ADDGF108991999999999999999999MW1621
0029029170999991907042806004+62900+027667FM-12+009099999V0201801N001019999999N0000001N9+00171+99999098861ADDGF108991999999999999999999
0029029170999991907042813004+62900+027667FM-12+009099999V0201801N001019999999N0000001N9+00561+99999099101ADDGF106991999999999999999999
0029029170999991907042820004+62900+027667FM-12+009099999V0209991C000019999999N0000001N9+00001+99999099241ADDGF100991999999999999999999
0029029170999991907042906004+62900+027667FM-12+009099999V0209991C000019999999N0000001N9+00221+99999099351ADDGF100991999999999999999999
0029029170999991907042913004+62900+027667FM-12+009099999V0201801N001019999999N0000001N9+00781+99999099441ADDGF102991999999999999999999
0029029170999991907042920004+62900+027667FM-12+009099999V0200901N001019999999N0000001N9+00171+99999099501ADDGF100991999999999999999999
0029029170999991907043006004+62900+027667FM-12+009099999V0209991C000019999999N0000001N9+00391+99999099551ADDGF100991999999999999999999
0029029170999991907043013004+62900+027667FM-12+009099999V0209991C000019999999N0000001N9+00781+99999099401ADDGF101991999999999999999999
0029029170999991907043020004+62900+027667FM-12+009099999V0209991C000019999999N0000001N9+00331+99999099201ADDGF100991999999999999999999
0029029170999991907050106004+62900+027667FM-12+009099999V0203601N002619999999N0000001N9+00171+99999098861ADDGF108991999999999999999999
0029029170999991907050113004+62900+027667FM-12+009099999V0203201N001019999999N0000001N9+00611+99999098821ADDGF108991999999999999999999
0029029170999991907050120004+62900+027667FM-12+009099999V0209991C000019999999N0000001N9+00171+99999098991ADDGF108991999999999999999999
0029029170999991907050206004+62900+027667FM-12+009099999V0209991C000019999999N0000001N9+00111+99999099431ADDGF100991999999999999999999
0029029170999991907050213004+62900+027667FM-12+009099999V0209991C000019999999N0000001N9+00781+99999099631ADDGF106991999999999999999999
0029029170999991907050220004+62900+027667FM-12+009099999V0201801N001019999999N0000001N9+00441+99999099751ADDGF108991999999999999999999
0029029170999991907050306004+62900+027667FM-12+009099999V0209991C000019999999N0000001N9+00331+99999099671ADDGF108991999999999999999999
0029029170999991907050313004+62900+027667FM-12+009099999V0201801N006719999999N0000001N9+00391+99999099461ADDGF108991999999999999999999
0029029170999991907050320004+62900+027667FM-12+009099999V0201801N001019999999N0000001N9+00281+99999099241ADDGF108991999999999999999999
0029029170999991907050406004+62900+027667FM-12+009099999V0209991C000019999999N0000001N9+00441+99999098761ADDGF108991999999999999999999
0029029170999991907050413004+62900+027667FM-12+009099999V0201801N001019999999N0000001N9+00671+99999098941ADDGF108991999999999999999999
0029029170999991907050420004+62900+027667FM-12+009099999V0209991C000019999999N0000001N9+00331+99999098831ADDGF108991999999999999999999
0035029170999991907050506004+62900+027667FM-12+009099999V0209991C000019999999N0000001N9+00331+99999098671ADDGF108991999999999999999999MW1621
0029029170999991907050513004+62900+027667FM-12+009099999V0202701N001019999999N0000001N9+00671+99999099081ADDGF107991999999999999999999
0035029170999991907050520004+62900+027667FM-12+009099999V0202701N001019999999N0000001N9+00391+99999099351ADDGF108991999999999999999999MW1621
0029029170999991907050606004+62900+027667FM-12+009099999V0202701N002619999999N0000001N9+00391+99999099921ADDGF108991999999999999999999
0029029170999991907050613004+62900+027667FM-12+009099999V0202701N001019999999N0000001N9+00781+99999100231ADDGF103991999999999999999999
0029029170999991907050620004+62900+027667FM-12+009099999V0203201N001019999999N0000001N9+00281+99999100661ADDGF102991999999999999999999
0029029170999991907050706004+62900+027667FM-12+009099999V0203601N001019999999N0000001N9+00111+99999101311ADDGF108991999999999999999999
0029029170999991907050713004+62900+027667FM-12+009099999V0203201N001019999999N0000001N9+00671+99999101661ADDGF100991999999999999999999
0029029170999991907050720004+62900+027667FM-12+009099999V0209991C000019999999N0000001N9+00001+99999101701ADDGF100991999999999999999999
0029029170999991907050806004+62900+027667FM-12+009099999V0209991C000019999999N0000001N9+00221+99999101641ADDGF100991999999999999999999
0029029170999991907050813004+62900+027667FM-12+009099999V0201801N001019999999N0000001N9+01001+99999101361ADDGF100991999999999999999999
0029029170999991907050820004+62900+027667FM-12+009099999V0209991C000019999999N0000001N9+00501+99999100951ADDGF108991999999999999999999
0029029170999991907050906004+62900+027667FM-12+009099999V0209991C000019999999N0000001N9+00501+99999100321ADDGF108991999999999999999999
0035029170999991907050913004+62900+027667FM-12+009099999V0202301N001019999999N0000001N9+00611+99999100351ADDGF108991999999999999999999MW1621
0029029170999991907050920004+62900+027667FM-12+009099999V0203201N001019999999N0000001N9+00441+99999100751ADDGF108991999999999999999999
0029029170999991907051006004+62900+027667FM-12+009099999V0209991C000019999999N0000001N9+00331+99999100941ADDGF108991999999999999999999
0029029170999991907051013004+62900+027667FM-12+009099999V0209991C000019999999N0000001N9+00781+99999100921ADDGF105991999999999999999999
0035029170999991907051020004+62900+027667FM-12+009099999V0209991C000019999999N0000001N9+00561+99999100841ADDGF108991999999999999999999MW1621
0029029170999991907051106004+62900+027667FM-12+009099999V0201401N001019999999N0000001N9+00671+99999100711ADDGF108991999999999999999999
0029029170999991907051113004+62900+027667FM-12+009099999V0202001N001019999999N0000001N9+01561+99999100401ADDGF108991999999999999999999
0035029170999991907051120004+62900+027667FM-12+009099999V0202301N001019999999N0000001N9+01001+99999099671ADDGF108991999999999999999999MW1621
0029029170999991907051206004+62900+027667FM-12+009099999V0202301N001019999999N0000001N9+01001+99999099841ADDGF100991999999999999999999
0048029170999991907051213004+62900+027667FM-12+009099999V0202301N001019999999N0000001N9+01501+99999099781ADDGF106991999999999999999999EQDQ01+000722PRSWM1
0029029170999991907051220004+62900+027667FM-12+009099999V0202701N001019999999N0000001N9+01061+99999099521ADDGF108991999999999999999999
0029029170999991907051306004+62900+027667FM-12+009099999V0203201N001019999999N0000001N9+00721+99999099081ADDGF108991999999999999999999
0035029170999991907051313004+62900+027667FM-12+009099999V0203201N004619999999N0000001N9+00331+99999100141ADDGF108991999999999999999999MW1691
0029029170999991907051320004+62900+027667FM-12+009099999V0209991C000019999999N0000001N9+00221+99999100321ADDGF108991999999999999999999
0029029170999991907051406004+62900+027667FM-12+009099999V0202701N004619999999N0000001N9+00281+99999099881ADDGF108991999999999999999999
0029029170999991907051413004+62900+027667FM-12+009099999V0203601N002619999999N0000001N9+00441+99999099621ADDGF108991999999999999999999
0029029170999991907051420004+62900+027667FM-12+009099999V0203201N001019999999N0000001N9+00001+99999099881ADDGF100991999999999999999999
0029029170999991907051506004+62900+027667FM-12+009099999V0203201N001019999999N0000001N9+00111+99999099981ADDGF100991999999999999999999
0029029170999991907051513004+62900+027667FM-12+009099999V0203201N002619999999N0000001N9+00441+99999099881ADDGF108991999999999999999999
0029029170999991907051520004+62900+027667FM-12+009099999V0209991C000019999999N0000001N9+00111+99999099671ADDGF106991999999999999999999
0029029170999991907051606004+62900+027667FM-12+009099999V0209991C000019999999N0000001N9+00171+99999099601ADDGF100991999999999999999999
0029029170999991907051613004+62900+027667FM-12+009099999V0200901N002619999999N0000001N9+00501+99999099541ADDGF105991999999999999999999
0029029170999991907051620004+62900+027667FM-12+009099999V0200901N001019999999N0000001N9+00171+99999099521ADDGF108991999999999999999999
0029029170999991907051706004+62900+027667FM-12+009099999V0200501N001019999999N0000001N9+00281+99999099481ADDGF105991999999999999999999
0029029170999991907051713004+62900+027667FM-12+009099999V0200501N001019999999N0000001N9+00721+99999099541ADDGF108991999999999999999999
0029029170999991907051720004+62900+027667FM-12+009099999V0209991C000019999999N0000001N9+00501+99999099791ADDGF108991999999999999999999
0029029170999991907051806004+62900+027667FM-12+009099999V0209991C000019999999N0000001N9+00721+99999100111ADDGF100991999999999999999999
0029029170999991907051813004+62900+027667FM-12+009099999V0209991C000019999999N0000001N9+00671+99999100341ADDGF108991999999999999999999
0029029170999991907051820004+62900+027667FM-12+009099999V0209991C000019999999N0000001N9+00721+99999100711ADDGF108991999999999999999999
0029029170999991907051906004+62900+027667FM-12+009099999V0209991C000019999999N0000001N9+00831+99999101201ADDGF108991999999999999999999
0029029170999991907051913004+62900+027667FM-12+009099999V0201401N001019999999N0000001N9+01221+99999101401ADDGF108991999999999999999999
0029029170999991907051920004+62900+027667FM-12+009099999V0201401N001019999999N0000001N9+00781+99999101511ADDGF108991999999999999999999
0029029170999991907052006004+62900+027667FM-12+009099999V0201401N001019999999N0000001N9+00721+99999101871ADDGF108991999999999999999999
0029029170999991907052013004+62900+027667FM-12+009099999V0201601N001019999999N0000001N9+01331+99999101641ADDGF108991999999999999999999
0029029170999991907052020004+62900+027667FM-12+009099999V0209991C000019999999N0000001N9+00941+99999101481ADDGF108991999999999999999999
0035029170999991907052106004+62900+027667FM-12+009099999V0209991C000019999999N0000001N9+00831+99999100861ADDGF108991999999999999999999MW1641
0029029170999991907052113004+62900+027667FM-12+009099999V0209991C000019999999N0000001N9+01561+99999100551ADDGF108991999999999999999999
0035029170999991907052120004+62900+027667FM-12+009099999V0209991C000019999999N0000001N9+00831+99999100421ADDGF108991999999999999999999MW1641
0035029170999991907052206004+62900+027667FM-12+009099999V0200501N001019999999N0000001N9+00611+99999100061ADDGF108991999999999999999999MW1621
0035029170999991907052213004+62900+027667FM-12+009099999V0200901N002619999999N0000001N9+00501+99999099951ADDGF108991999999999999999999MW1621
0035029170999991907052220004+62900+027667FM-12+009099999V0209991C000019999999N0000001N9+00441+99999099941ADDGF108991999999999999999999MW1621
0035029170999991907052306004+62900+027667FM-12+009099999V0200501N001019999999N0000001N9+00611+99999099881ADDGF108991999999999999999999MW1621
0029029170999991907052313004+62900+027667FM-12+009099999V0203201N001019999999N0000001N9+01111+99999999999ADDGF105991999999999999999999
0029029170999991907052320004+62900+027667FM-12+009099999V0203601N001019999999N0000001N9+00721+99999100161ADDGF108991999999999999999999
0029029170999991907052406004+62900+027667FM-12+009099999V0203601N001019999999N0000001N9+00781+99999100421ADDGF100991999999999999999999
0029029170999991907052413004+62900+027667FM-12+009099999V0203201N001019999999N0000001N9+01111+99999100591ADDGF107991999999999999999999
0029029170999991907052420004+62900+027667FM-12+009099999V0209991C000019999999N0000001N9+00671+99999100631ADDGF108991999999999999999999
0029029170999991907052506004+62900+027667FM-12+009099999V0209991C000019999999N0000001N9+00611+99999100311ADDGF108991999999999999999999
0035029170999991907052513004+62900+027667FM-12+009099999V0201801N001019999999N0000001N9+01061+99999099951ADDGF108991999999999999999999MW1621
0029029170999991907052520004+62900+027667FM-12+009099999V0209991C000019999999N0000001N9+00671+99999099711ADDGF108991999999999999999999
0029029170999991907052606004+62900+027667FM-12+009099999V0203601N001019999999N0000001N9+00441+99999099301ADDGF108991999999999999999999
0029029170999991907052613004+62900+027667FM-12+009099999V0203601N001019999999N0000001N9+00941+99999098981ADDGF107991999999999999999999
0029029170999991907052620004+62900+027667FM-12+009099999V0200501N001019999999N0000001N9+00611+99999098591ADDGF108991999999999999999999
0029029170999991907052706004+62900+027667FM-12+009099999V0200501N002619999999N0000001N9+00391+99999098191ADDGF108991999999999999999999
0035029170999991907052713004+62900+027667FM-12+009099999V0203601N004619999999N0000001N9+00391+99999098191ADDGF108991999999999999999999MW1621
0035029170999991907052720004+62900+027667FM-12+009099999V0203601N004619999999N0000001N9+00111+99999098191ADDGF108991999999999999999999MW1691
0035029170999991907052806004+62900+027667FM-12+009099999V0203601N002619999999N0000001N9+00001+99999097701ADDGF108991999999999999999999MW1721
0035029170999991907052813004+62900+027667FM-12+009099999V0203601N019019999999N0000001N9+00171+99999097901ADDGF108991999999999999999999MW1721
0035029170999991907052820004+62900+027667FM-12+009099999V0203601N006719999999N0000001N9+00061+99999098021ADDGF108991999999999999999999MW1721
0035029170999991907052906004+62900+027667FM-12+009099999V0200501N002619999999N0000001N9+00001+99999098431ADDGF108991999999999999999999MW1721
0029029170999991907052913004+62900+027667FM-12+009099999V0200901N002619999999N0000001N9+00221+99999098901ADDGF108991999999999999999999
0029029170999991907052920004+62900+027667FM-12+009099999V0200901N001019999999N0000001N9+00391+99999099201ADDGF108991999999999999999999
0035029170999991907053006004+62900+027667FM-12+009099999V0200501N001019999999N0000001N9+00001+99999099631ADDGF108991999999999999999999MW1721
0029029170999991907053013004+62900+027667FM-12+009099999V0209991C000019999999N0000001N9+00721+99999099661ADDGF108991999999999999999999
0035029170999991907053020004+62900+027667FM-12+009099999V0201401N001019999999N0000001N9+00281+99999099381ADDGF108991999999999999999999MW1621
0029029170999991907053106004+62900+027667FM-12+009099999V0209991C000019999999N0000001N9+00171+99999098711ADDGF108991999999999999999999
0029029170999991907053113004+62900+027667FM-12+009099999V0201801N001019999999N0000001N9+00391+99999098701ADDGF108991999999999999999999
0029029170999991907053120004+62900+027667FM-12+009099999V0200901N001019999999N0000001N9+00281+99999098991ADDGF108991999999999999999999
0029029170999991907060106004+62900+027667FM-12+009099999V0203601N001019999999N0000001N9+00281+99999099501ADDGF108991999999999999999999
0029029170999991907060113004+62900+027667FM-12+009099999V0203201N001019999999N0000001N9+00781+99999099901ADDGF108991999999999999999999
0029029170999991907060120004+62900+027667FM-12+009099999V0203601N001019999999N0000001N9+00391+99999100241ADDGF108991999999999999999999
0029029170999991907060206004+62900+027667FM-12+009099999V0203201N001019999999N0000001N9+00561+99999100721ADDGF108991999999999999999999
0029029170999991907060213004+62900+027667FM-12+009099999V0202301N001019999999N0000001N9+01061+99999100671ADDGF108991999999999999999999
0029029170999991907060220004+62900+027667FM-12+009099999V0209991C000019999999N0000001N9+00781+99999100511ADDGF108991999999999999999999
0029029170999991907060306004+62900+027667FM-12+009099999V0201801N001019999999N0000001N9+01001+99999100301ADDGF108991999999999999999999
0029029170999991907060313004+62900+027667FM-12+009099999V0202301N002619999999N0000001N9+01281+99999099861ADDGF108991999999999999999999
0029029170999991907060320004+62900+027667FM-12+009099999V0202001N001019999999N0000001N9+00891+99999099601ADDGF108991999999999999999999
0029029170999991907060406004+62900+027667FM-12+009099999V0202701N001019999999N0000001N9+00941+99999099921ADDGF108991999999999999999999
0029029170999991907060413004+62900+027667FM-12+009099999V0202701N001019999999N0000001N9+01111+99999100181ADDGF108991999999999999999999
0035029170999991907060420004+62900+027667FM-12+009099999V0200501N001019999999N0000001N9+01061+99999100081ADDGF108991999999999999999999MW1621
0029029170999991907060506004+62900+027667FM-12+009099999V0201801N001019999999N0000001N9+01281+99999099441ADDGF108991999999999999999999
0035029170999991907060513004+62900+027667FM-12+009099999V0202301N001019999999N0000001N9+01281+99999099481ADDGF108991999999999999999999MW1621
0035029170999991907060520004+62900+027667FM-12+009099999V0203201N001019999999N0000001N9+01061+99999099181ADDGF108991999999999999999999MW1621
0029029170999991907060606004+62900+027667FM-12+009099999V0203201N002619999999N0000001N9+00671+99999099901ADDGF108991999999999999999999
0029029170999991907060613004+62900+027667FM-12+009099999V0203201N002619999999N0000001N9+01331+99999100341ADDGF101991999999999999999999
0029029170999991907060620004+62900+027667FM-12+009099999V0200501N001019999999N0000001N9+00831+99999100741ADDGF100991999999999999999999
0029029170999991907060706004+62900+027667FM-12+009099999V0201401N001019999999N0000001N9+01001+99999101161ADDGF100991999999999999999999
0029029170999991907060713004+62900+027667FM-12+009099999V0201801N001019999999N0000001N9+01501+99999101061ADDGF100991999999999999999999
0029029170999991907060720004+62900+027667FM-12+009099999V0209991C000019999999N0000001N9+01061+99999100961ADDGF100991999999999999999999
0029029170999991907060806004+62900+027667FM-12+009099999V0201401N001019999999N0000001N9+01171+99999100911ADDGF100991999999999999999999
0029029170999991907060813004+62900+027667FM-12+009099999V0201801N001019999999N0000001N9+01781+99999100621ADDGF107991999999999999999999
0029029170999991907060820004+62900+027667FM-12+009099999V0209991C000019999999N0000001N9+01441+99999100501ADDGF108991999999999999999999
0029029170999991907060906004+62900+027667FM-12+009099999V0201401N001019999999N0000001N9+01331+99999100361ADDGF108991999999999999999999
0029029170999991907060913004+62900+027667FM-12+009099999V0201401N001019999999N0000001N9+01831+99999100321ADDGF108991999999999999999999
0035029170999991907060920004+62900+027667FM-12+009099999V0209991C000019999999N0000001N9+01281+99999100321ADDGF108991999999999999999999MW1621
0029029170999991907061006004+62900+027667FM-12+009099999V0200501N001019999999N0000001N9+01281+99999100201ADDGF108991999999999999999999
0029029170999991907061013004+62900+027667FM-12+009099999V0209991C000019999999N0000001N9+01721+99999100181ADDGF108991999999999999999999
0029029170999991907061020004+62900+027667FM-12+009099999V0209991C000019999999N0000001N9+01391+99999100221ADDGF108991999999999999999999
0029029170999991907061106004+62900+027667FM-12+009099999V0200501N001019999999N0000001N9+01441+99999100191ADDGF101991999999999999999999
0029029170999991907061113004+62900+027667FM-12+009099999V0203201N001019999999N0000001N9+02001+99999100191ADDGF107991999999999999999999
0029029170999991907061120004+62900+027667FM-12+009099999V0200501N002619999999N0000001N9+01831+99999100111ADDGF106991999999999999999999
0029029170999991907061206004+62900+027667FM-12+009099999V0200901N001019999999N0000001N9+01501+99999100321ADDGF106991999999999999999999
0029029170999991907061213004+62900+027667FM-12+009099999V0201401N001019999999N0000001N9+02171+99999100511ADDGF102991999999999999999999
0029029170999991907061220004+62900+027667FM-12+009099999V0209991C000019999999N0000001N9+01781+99999100701ADDGF101991999999999999999999
0029029170999991907061306004+62900+027667FM-12+009099999V0209991C000019999999N0000001N9+01781+99999101151ADDGF100991999999999999999999
0029029170999991907061313004+62900+027667FM-12+009099999V0200901N002619999999N0000001N9+02171+99999101121ADDGF101991999999999999999999
0029029170999991907061320004+62900+027667FM-12+009099999V0209991C000019999999N0000001N9+01721+99999101151ADDGF100991999999999999999999
0029029170999991907061406004+62900+027667FM-12+009099999V0209991C000019999999N0000001N9+01671+99999101261ADDGF100991999999999999999999
0029029170999991907061413004+62900+027667FM-12+009099999V0201101N001019999999N0000001N9+02331+99999101121ADDGF102991999999999999999999
0029029170999991907061420004+62900+027667FM-12+009099999V0209991C000019999999N0000001N9+01721+99999101001ADDGF108991999999999999999999
0029029170999991907061506004+62900+027667FM-12+009099999V0209991C000019999999N0000001N9+01781+99999100861ADDGF107991999999999999999999
0029029170999991907061513004+62900+027667FM-12+009099999V0201101N001019999999N0000001N9+02441+99999100591ADDGF105991999999999999999999
0029029170999991907061520004+62900+027667FM-12+009099999V0209991C000019999999N0000001N9+01941+99999100391ADDGF106991999999999999999999
0029029170999991907061606004+62900+027667FM-12+009099999V0209991C000019999999N0000001N9+01781+99999100381ADDGF108991999999999999999999
0029029170999991907061613004+62900+027667FM-12+009099999V0201401N002619999999N0000001N9+02331+99999100381ADDGF108991999999999999999999
0029029170999991907061620004+62900+027667FM-12+009099999V0202701N001019999999N0000001N9+01561+99999100421ADDGF108991999999999999999999
0029029170999991907061706004+62900+027667FM-12+009099999V0209991C000019999999N0000001N9+01781+99999100401ADDGF106991999999999999999999
0029029170999991907061713004+62900+027667FM-12+009099999V0201101N002619999999N0000001N9+02561+99999100311ADDGF102991999999999999999999
0029029170999991907061720004+62900+027667FM-12+009099999V0209991C000019999999N0000001N9+02111+99999100281ADDGF107991999999999999999999
0029029170999991907061806004+62900+027667FM-12+009099999V0209991C000019999999N0000001N9+02001+99999100271ADDGF105991999999999999999999
0029029170999991907061813004+62900+027667FM-12+009099999V0202501N001019999999N0000001N9+02061+99999100261ADDGF108991999999999999999999
0029029170999991907061820004+62900+027667FM-12+009099999V0209991C000019999999N0000001N9+01721+99999100071ADDGF107991999999999999999999
0029029170999991907061906004+62900+027667FM-12+009099999V0202301N001019999999N0000001N9+01281+99999099841ADDGF108991999999999999999999
0029029170999991907061913004+62900+027667FM-12+009099999V0202301N004619999999N0000001N9+01941+99999099781ADDGF106991999999999999999999
0029029170999991907061920004+62900+027667FM-12+009099999V0209991C000019999999N0000001N9+01561+99999099741ADDGF106991999999999999999999
0029029170999991907062006004+62900+027667FM-12+009099999V0209991C000019999999N0000001N9+01561+99999099791ADDGF104991999999999999999999
0029029170999991907062013004+62900+027667FM-12+009099999V0201601N002619999999N0000001N9+01941+99999099661ADDGF106991999999999999999999
0029029170999991907062020004+62900+027667FM-12+009099999V0209991C000019999999N0000001N9+01561+99999099151ADDGF108991999999999999999999
0029029170999991907062106004+62900+027667FM-12+009099999V0209991C000019999999N0000001N9+01281+99999098081ADDGF108991999999999999999999
0029029170999991907062113004+62900+027667FM-12+009099999V0202301N006719999999N0000001N9+01561+99999098721ADDGF108991999999999999999999
0029029170999991907062120004+62900+027667FM-12+009099999V0202301N004619999999N0000001N9+01331+99999100321ADDGF108991999999999999999999
0029029170999991907062206004+62900+027667FM-12+009099999V0201401N001019999999N0000001N9+01391+99999098641ADDGF108991999999999999999999
0029029170999991907062213004+62900+027667FM-12+009099999V0201601N002619999999N0000001N9+01561+99999098641ADDGF107991999999999999999999
0029029170999991907062220004+62900+027667FM-12+009099999V0201401N001019999999N0000001N9+01281+99999098701ADDGF106991999999999999999999
0029029170999991907062306004+62900+027667FM-12+009099999V0202301N002619999999N0000001N9+01111+99999098681ADDGF108991999999999999999999
0029029170999991907062313004+62900+027667FM-12+009099999V0202301N009319999999N0000001N9+01831+99999099221ADDGF104991999999999999999999
0029029170999991907062320004+62900+027667FM-12+009099999V0202301N002619999999N0000001N9+01611+99999099421ADDGF105991999999999999999999
0029029170999991907062406004+62900+027667FM-12+009099999V0201801N002619999999N0000001N9+01441+99999099601ADDGF102991999999999999999999
0029029170999991907062413004+62900+027667FM-12+009099999V0201801N001019999999N0000001N9+01331+99999099221ADDGF108991999999999999999999
0029029170999991907062420004+62900+027667FM-12+009099999V0202301N002619999999N0000001N9+01111+99999099421ADDGF107991999999999999999999
0029029170999991907062506004+62900+027667FM-12+009099999V0202001N002619999999N0000001N9+01331+99999099671ADDGF103991999999999999999999
0029029170999991907062513004+62900+027667FM-12+009099999V0202001N006719999999N0000001N9+01781+99999099711ADDGF107991999999999999999999
0029029170999991907062520004+62900+027667FM-12+009099999V0209991C000019999999N0000001N9+01441+99999099791ADDGF102991999999999999999999
0029029170999991907062606004+62900+027667FM-12+009099999V0209991C000019999999N0000001N9+01501+99999099671ADDGF103991999999999999999999
0029029170999991907062613004+62900+027667FM-12+009099999V0209991C000019999999N0000001N9+02061+99999099631ADDGF103991999999999999999999
0029029170999991907062620004+62900+027667FM-12+009099999V0201801N001019999999N0000001N9+01331+99999099631ADDGF108991999999999999999999
0029029170999991907062706004+62900+027667FM-12+009099999V0209991C000019999999N0000001N9+01331+99999099661ADDGF108991999999999999999999
0029029170999991907062713004+62900+027667FM-12+009099999V0209991C000019999999N0000001N9+01501+99999099761ADDGF104991999999999999999999
0029029170999991907062720004+62900+027667FM-12+009099999V0209991C000019999999N0000001N9+01441+99999099821ADDGF102991999999999999999999
0029029170999991907062806004+62900+027667FM-12+009099999V0209991C000019999999N0000001N9+01331+99999099831ADDGF108991999999999999999999
0029029170999991907062813004+62900+027667FM-12+009099999V0202301N002619999999N0000001N9+02061+99999100031ADDGF103991999999999999999999
0029029170999991907062820004+62900+027667FM-12+009099999V0209991C000019999999N0000001N9+01721+99999100121ADDGF100991999999999999999999
0029029170999991907062906004+62900+027667FM-12+009099999V0202301N001019999999N0000001N9+01561+99999100311ADDGF100991999999999999999999
0029029170999991907062913004+62900+027667FM-12+009099999V0201801N001019999999N0000001N9+02111+99999100181ADDGF107991999999999999999999
0035029170999991907062920004+62900+027667FM-12+009099999V0209991C000019999999N0000001N9+01561+99999100151ADDGF108991999999999999999999MW1621
0029029170999991907063006004+62900+027667FM-12+009099999V0209991C000019999999N0000001N9+01611+99999100301ADDGF103991999999999999999999
0029029170999991907063013004+62900+027667FM-12+009099999V0209991C000019999999N0000001N9+02061+99999100311ADDGF107991999999999999999999
0029029170999991907063020004+62900+027667FM-12+009099999V0209991C000019999999N0000001N9+01721+99999100181ADDGF107991999999999999999999
0029029170999991907070106004+62900+027667FM-12+009099999V0201101N001019999999N0000001N9+01781+99999099861ADDGF103991999999999999999999
0029029170999991907070113004+62900+027667FM-12+009099999V0202001N002619999999N0000001N9+02561+99999099741ADDGF107991999999999999999999
0029029170999991907070120004+62900+027667FM-12+009099999V0209991C000019999999N0000001N9+02111+99999099621ADDGF105991999999999999999999
0029029170999991907070206004+62900+027667FM-12+009099999V0209991C000019999999N0000001N9+02061+99999099701ADDGF102991999999999999999999
0029029170999991907070213004+62900+027667FM-12+009099999V0202701N001019999999N0000001N9+02331+99999099861ADDGF102991999999999999999999
0029029170999991907070220004+62900+027667FM-12+009099999V0209991C000019999999N0000001N9+01891+99999099911ADDGF102991999999999999999999
0029029170999991907070306004+62900+027667FM-12+009099999V0200501N002619999999N0000001N9+01831+99999099941ADDGF102991999999999999999999
0029029170999991907070313004+62900+027667FM-12+009099999V0200201N001019999999N0000001N9+02561+99999099751ADDGF105991999999999999999999
0029029170999991907070320004+62900+027667FM-12+009099999V0200901N002619999999N0000001N9+02061+99999099631ADDGF106991999999999999999999
0029029170999991907070406004+62900+027667FM-12+009099999V0200901N001019999999N0000001N9+01611+99999099631ADDGF108991999999999999999999
0029029170999991907070413004+62900+027667FM-12+009099999V0200901N002619999999N0000001N9+02061+99999099711ADDGF107991999999999999999999
0029029170999991907070420004+62900+027667FM-12+009099999V0209991C000019999999N0000001N9+01561+99999099961ADDGF108991999999999999999999
0029029170999991907070506004+62900+027667FM-12+009099999V0202001N001019999999N0000001N9+01561+99999100351ADDGF101991999999999999999999
0029029170999991907070513004+62900+027667FM-12+009099999V0202301N004619999999N0000001N9+02061+99999100551ADDGF106991999999999999999999
0029029170999991907070520004+62900+027667FM-12+009099999V0201801N001019999999N0000001N9+01781+99999100601ADDGF101991999999999999999999
0029029170999991907070606004+62900+027667FM-12+009099999V0201801N002619999999N0000001N9+01941+99999100641ADDGF100991999999999999999999
0029029170999991907070613004+62900+027667FM-12+009099999V0202301N002619999999N0000001N9+02391+99999100661ADDGF106991999999999999999999
0029029170999991907070620004+62900+027667FM-12+009099999V0209991C000019999999N0000001N9+01891+99999100501ADDGF102991999999999999999999
0029029170999991907070706004+62900+027667FM-12+009099999V0201401N001019999999N0000001N9+01941+99999100221ADDGF104991999999999999999999
0029029170999991907070713004+62900+027667FM-12+009099999V0201401N001019999999N0000001N9+02441+99999100031ADDGF102991999999999999999999
0029029170999991907070720004+62900+027667FM-12+009099999V0209991C000019999999N0000001N9+01781+99999100141ADDGF107991999999999999999999
0029029170999991907070806004+62900+027667FM-12+009099999V0209991C000019999999N0000001N9+01941+99999100241ADDGF100991999999999999999999
0029029170999991907070813004+62900+027667FM-12+009099999V0201601N001019999999N0000001N9+02441+99999100081ADDGF106991999999999999999999
0029029170999991907070820004+62900+027667FM-12+009099999V0209991C000019999999N0000001N9+02001+99999099881ADDGF102991999999999999999999
0029029170999991907070906004+62900+027667FM-12+009099999V0201801N001019999999N0000001N9+01831+99999099941ADDGF107991999999999999999999
0029029170999991907070913004+62900+027667FM-12+009099999V0202501N002619999999N0000001N9+02061+99999100461ADDGF101991999999999999999999
0029029170999991907070920004+62900+027667FM-12+009099999V0209991C000019999999N0000001N9+01781+99999100681ADDGF102991999999999999999999
0029029170999991907071006004+62900+027667FM-12+009099999V0209991C000019999999N0000001N9+01671+99999101021ADDGF100991999999999999999999
0029029170999991907071013004+62900+027667FM-12+009099999V0201401N001019999999N0000001N9+02281+99999101031ADDGF101991999999999999999999
0029029170999991907071020004+62900+027667FM-12+009099999V0209991C000019999999N0000001N9+01781+99999100981ADDGF102991999999999999999999
0029029170999991907071106004+62900+027667FM-12+009099999V0201801N001019999999N0000001N9+02061+99999100951ADDGF107991999999999999999999
0029029170999991907071113004+62900+027667FM-12+009099999V0209991C000019999999N0000001N9+02561+99999100821ADDGF105991999999999999999999
0029029170999991907071120004+62900+027667FM-12+009099999V0209991C000019999999N0000001N9+01941+99999100781ADDGF104991999999999999999999
0029029170999991907071206004+62900+027667FM-12+009099999V0209991C000019999999N0000001N9+02171+99999100681ADDGF106991999999999999999999
0029029170999991907071213004+62900+027667FM-12+009099999V0209991C000019999999N0000001N9+02561+99999100661ADDGF103991999999999999999999
0029029170999991907071220004+62900+027667FM-12+009099999V0209991C000019999999N0000001N9+01941+99999100621ADDGF103991999999999999999999
0029029170999991907071306004+62900+027667FM-12+009099999V0209991C000019999999N0000001N9+02061+99999100521ADDGF103991999999999999999999
0029029170999991907071313004+62900+027667FM-12+009099999V0203601N001019999999N0000001N9+02501+99999100441ADDGF106991999999999999999999
0029029170999991907071320004+62900+027667FM-12+009099999V0200501N001019999999N0000001N9+02111+99999100461ADDGF102991999999999999999999
0029029170999991907071406004+62900+027667FM-12+009099999V0200901N002619999999N0000001N9+01611+99999100701ADDGF108991999999999999999999
0029029170999991907071413004+62900+027667FM-12+009099999V0200501N002619999999N0000001N9+02001+99999100801ADDGF106991999999999999999999
0029029170999991907071420004+62900+027667FM-12+009099999V0209991C000019999999N0000001N9+01781+99999100881ADDGF100991999999999999999999
0029029170999991907071506004+62900+027667FM-12+009099999V0209991C000019999999N0000001N9+02001+99999101041ADDGF101991999999999999999999
0029029170999991907071513004+62900+027667FM-12+009099999V0209991C000019999999N0000001N9+02501+99999100821ADDGF107991999999999999999999
0029029170999991907071520004+62900+027667FM-12+009099999V0209991C000019999999N0000001N9+02001+99999100401ADDGF108991999999999999999999
0029029170999991907071606004+62900+027667FM-12+009099999V0203601N001019999999N0000001N9+01221+99999099991ADDGF108991999999999999999999
0029029170999991907071613004+62900+027667FM-12+009099999V0203601N004619999999N0000001N9+01501+99999099831ADDGF106991999999999999999999
0029029170999991907071620004+62900+027667FM-12+009099999V0203201N004619999999N0000001N9+00941+99999099751ADDGF102991999999999999999999
0029029170999991907071706004+62900+027667FM-12+009099999V0203201N004619999999N0000001N9+00891+99999099281ADDGF107991999999999999999999
0035029170999991907071713004+62900+027667FM-12+009099999V0202701N004619999999N0000001N9+00941+99999099001ADDGF108991999999999999999999MW1621
0029029170999991907071720004+62900+027667FM-12+009099999V0202501N001019999999N0000001N9+00721+99999098641ADDGF108991999999999999999999
0029029170999991907071806004+62900+027667FM-12+009099999V0209991C000019999999N0000001N9+00781+99999098481ADDGF108991999999999999999999
0035029170999991907071813004+62900+027667FM-12+009099999V0202301N001019999999N0000001N9+01001+99999098911ADDGF108991999999999999999999MW1621
0029029170999991907071820004+62900+027667FM-12+009099999V0209991C000019999999N0000001N9+01001+99999099261ADDGF102991999999999999999999
0029029170999991907071906004+62900+027667FM-12+009099999V0209991C000019999999N0000001N9+01281+99999099671ADDGF101991999999999999999999
0029029170999991907071913004+62900+027667FM-12+009099999V0209991C000019999999N0000001N9+01671+99999099801ADDGF107991999999999999999999
0029029170999991907071920004+62900+027667FM-12+009099999V0209991C000019999999N0000001N9+01391+99999099861ADDGF102991999999999999999999
0029029170999991907072006004+62900+027667FM-12+009099999V0200501N006719999999N0000001N9+01501+99999099761ADDGF105991999999999999999999
0029029170999991907072013004+62900+027667FM-12+009099999V0200901N012319999999N0000001N9+01891+99999099511ADDGF102991999999999999999999
0029029170999991907072020004+62900+027667FM-12+009099999V0200901N001019999999N0000001N9+01611+99999099561ADDGF104991999999999999999999
0029029170999991907072106004+62900+027667FM-12+009099999V0200501N002619999999N0000001N9+01331+99999099431ADDGF108991999999999999999999
0029029170999991907072113004+62900+027667FM-12+009099999V0200901N006719999999N0000001N9+01391+99999099301ADDGF108991999999999999999999
0035029170999991907072120004+62900+027667FM-12+009099999V0203601N002619999999N0000001N9+01221+99999099021ADDGF108991999999999999999999MW1621
0029029170999991907072206004+62900+027667FM-12+009099999V0209991C000019999999N0000001N9+01281+99999098841ADDGF108991999999999999999999
0029029170999991907072213004+62900+027667FM-12+009099999V0209991C000019999999N0000001N9+01561+99999098951ADDGF108991999999999999999999
0029029170999991907072220004+62900+027667FM-12+009099999V0209991C000019999999N0000001N9+01391+99999099071ADDGF102991999999999999999999
0029029170999991907072306004+62900+027667FM-12+009099999V0200901N001019999999N0000001N9+01561+99999099111ADDGF102991999999999999999999
0029029170999991907072313004+62900+027667FM-12+009099999V0209991C000019999999N0000001N9+01561+99999099221ADDGF106991999999999999999999
0029029170999991907072320004+62900+027667FM-12+009099999V0203601N001019999999N0000001N9+01331+99999099381ADDGF102991999999999999999999
0029029170999991907072406004+62900+027667FM-12+009099999V0209991C000019999999N0000001N9+01391+99999099401ADDGF108991999999999999999999
0029029170999991907072413004+62900+027667FM-12+009099999V0209991C000019999999N0000001N9+01561+99999099511ADDGF107991999999999999999999
0029029170999991907072420004+62900+027667FM-12+009099999V0209991C000019999999N0000001N9+01441+99999099581ADDGF106991999999999999999999
0029029170999991907072506004+62900+027667FM-12+009099999V0209991C000019999999N0000001N9+01331+99999099631ADDGF108991999999999999999999
0029029170999991907072513004+62900+027667FM-12+009099999V0200901N002619999999N0000001N9+01781+99999099661ADDGF107991999999999999999999
0029029170999991907072520004+62900+027667FM-12+009099999V0209991C000019999999N0000001N9+01441+99999099621ADDGF102991999999999999999999
0029029170999991907072606004+62900+027667FM-12+009099999V0209991C000019999999N0000001N9+01501+99999099661ADDGF106991999999999999999999
0029029170999991907072613004+62900+027667FM-12+009099999V0203601N004619999999N0000001N9+02001+99999099561ADDGF106991999999999999999999
0029029170999991907072620004+62900+027667FM-12+009099999V0209991C000019999999N0000001N9+01561+99999099561ADDGF101991999999999999999999
0029029170999991907072706004+62900+027667FM-12+009099999V0209991C000019999999N0000001N9+01441+99999099671ADDGF105991999999999999999999
0029029170999991907072713004+62900+027667FM-12+009099999V0202501N002619999999N0000001N9+02111+99999099701ADDGF104991999999999999999999
0029029170999991907072720004+62900+027667FM-12+009099999V0209991C000019999999N0000001N9+01671+99999099681ADDGF106991999999999999999999
0029029170999991907072806004+62900+027667FM-12+009099999V0209991C000019999999N0000001N9+01501+99999099831ADDGF100991999999999999999999
0029029170999991907072813004+62900+027667FM-12+009099999V0202701N002619999999N0000001N9+02001+99999099831ADDGF103991999999999999999999
0029029170999991907072820004+62900+027667FM-12+009099999V0209991C000019999999N0000001N9+01611+99999099761ADDGF102991999999999999999999
0029029170999991907072906004+62900+027667FM-12+009099999V0209991C000019999999N0000001N9+01721+99999099681ADDGF106991999999999999999999
0029029170999991907072913004+62900+027667FM-12+009099999V0209991C000019999999N0000001N9+01671+99999099521ADDGF106991999999999999999999
0029029170999991907072920004+62900+027667FM-12+009099999V0209991C000019999999N0000001N9+01441+99999099321ADDGF108991999999999999999999
0029029170999991907073006004+62900+027667FM-12+009099999V0209991C000019999999N0000001N9+01561+99999099161ADDGF108991999999999999999999
0029029170999991907073013004+62900+027667FM-12+009099999V0202301N002619999999N0000001N9+01831+99999099141ADDGF106991999999999999999999
0029029170999991907073020004+62900+027667FM-12+009099999V0209991C000019999999N0000001N9+01441+99999099141ADDGF107991999999999999999999
0029029170999991907073106004+62900+027667FM-12+009099999V0209991C000019999999N0000001N9+01561+99999099041ADDGF107991999999999999999999
0035029170999991907073113004+62900+027667FM-12+009099999V0201601N001019999999N0000001N9+01441+99999098701ADDGF108991999999999999999999MW1621
0029029170999991907073120004+62900+027667FM-12+009099999V0209991C000019999999N0000001N9+01501+99999098521ADDGF102991999999999999999999
0029029170999991907080106004+62900+027667FM-12+009099999V0202301N001019999999N0000001N9+01501+99999098761ADDGF106991999999999999999999
0029029170999991907080113004+62900+027667FM-12+009099999V0209991C000019999999N0000001N9+01831+99999098871ADDGF106991999999999999999999
0029029170999991907080120004+62900+027667FM-12+009099999V0209991C000019999999N0000001N9+01171+99999099001ADDGF102991999999999999999999
0029029170999991907080206004+62900+027667FM-12+009099999V0209991C000019999999N0000001N9+01331+99999099101ADDGF100991999999999999999999
0029029170999991907080213004+62900+027667FM-12+009099999V0209991C000019999999N0000001N9+01671+99999099041ADDGF104991999999999999999999
0029029170999991907080220004+62900+027667FM-12+009099999V0209991C000019999999N0000001N9+01281+99999099021ADDGF108991999999999999999999
0029029170999991907080306004+62900+027667FM-12+009099999V0209991C000019999999N0000001N9+01281+99999099071ADDGF108991999999999999999999
0029029170999991907080313004+62900+027667FM-12+009099999V0203601N001019999999N0000001N9+01781+99999099221ADDGF105991999999999999999999
0029029170999991907080320004+62900+027667FM-12+009099999V0209991C000019999999N0000001N9+01281+99999099381ADDGF103991999999999999999999
0029029170999991907080406004+62900+027667FM-12+009099999V0203601N001019999999N0000001N9+01331+99999099601ADDGF102991999999999999999999
0029029170999991907080413004+62900+027667FM-12+009099999V0203601N002619999999N0000001N9+01781+99999099711ADDGF102991999999999999999999
0029029170999991907080420004+62900+027667FM-12+009099999V0203401N001019999999N0000001N9+01281+99999099941ADDGF102991999999999999999999
0029029170999991907080506004+62900+027667FM-12+009099999V0209991C000019999999N0000001N9+01281+99999100121ADDGF102991999999999999999999
0029029170999991907080513004+62900+027667FM-12+009099999V0203401N001019999999N0000001N9+01391+99999100241ADDGF106991999999999999999999
0029029170999991907080520004+62900+027667FM-12+009099999V0209991C000019999999N0000001N9+01221+99999100321ADDGF108991999999999999999999
0029029170999991907080606004+62900+027667FM-12+009099999V0209991C000019999999N0000001N9+01441+99999100421ADDGF100991999999999999999999
0029029170999991907080613004+62900+027667FM-12+009099999V0201801N001019999999N0000001N9+01721+99999100341ADDGF106991999999999999999999
0029029170999991907080620004+62900+027667FM-12+009099999V0209991C000019999999N0000001N9+01391+99999100041ADDGF102991999999999999999999
0029029170999991907080706004+62900+027667FM-12+009099999V0201401N019019999999N0000001N9+01391+99999099351ADDGF108991999999999999999999
0035029170999991907080713004+62900+027667FM-12+009099999V0201401N019019999999N0000001N9+01391+99999098961ADDGF108991999999999999999999MW1621
0029029170999991907080720004+62900+027667FM-12+009099999V0201401N001019999999N0000001N9+01331+99999098821ADDGF108991999999999999999999
0029029170999991907080806004+62900+027667FM-12+009099999V0201801N001019999999N0000001N9+01391+99999098791ADDGF103991999999999999999999
0029029170999991907080813004+62900+027667FM-12+009099999V0201601N001019999999N0000001N9+01781+99999098841ADDGF106991999999999999999999
0029029170999991907080820004+62900+027667FM-12+009099999V0209991C000019999999N0000001N9+01331+99999098951ADDGF107991999999999999999999
0029029170999991907080906004+62900+027667FM-12+009099999V0209991C000019999999N0000001N9+01281+99999098961ADDGF108991999999999999999999
0029029170999991907080913004+62900+027667FM-12+009099999V0203401N001019999999N0000001N9+01721+99999098801ADDGF106991999999999999999999
0029029170999991907080920004+62900+027667FM-12+009099999V0209991C000019999999N0000001N9+01281+99999098671ADDGF107991999999999999999999
0029029170999991907081006004+62900+027667FM-12+009099999V0202901N001019999999N0000001N9+01391+99999098561ADDGF103991999999999999999999
0029029170999991907081013004+62900+027667FM-12+009099999V0202301N006719999999N0000001N9+01831+99999098601ADDGF103991999999999999999999
0029029170999991907081020004+62900+027667FM-12+009099999V0209991C000019999999N0000001N9+01391+99999098741ADDGF106991999999999999999999
0029029170999991907081106004+62900+027667FM-12+009099999V0209991C000019999999N0000001N9+01171+99999098871ADDGF108991999999999999999999
0029029170999991907081113004+62900+027667FM-12+009099999V0201801N001019999999N0000001N9+01671+99999098801ADDGF108991999999999999999999
0029029170999991907081120004+62900+027667FM-12+009099999V0209991C000019999999N0000001N9+01281+99999098741ADDGF108991999999999999999999
0029029170999991907081206004+62900+027667FM-12+009099999V0202301N001019999999N0000001N9+01221+99999098781ADDGF107991999999999999999999
0029029170999991907081213004+62900+027667FM-12+009099999V0202901N004619999999N0000001N9+01611+99999098911ADDGF106991999999999999999999
0029029170999991907081220004+62900+027667FM-12+009099999V0202501N004619999999N0000001N9+01281+99999099221ADDGF108991999999999999999999
0029029170999991907081306004+62900+027667FM-12+009099999V0209991C000019999999N0000001N9+01171+99999099441ADDGF100991999999999999999999
0029029170999991907081313004+62900+027667FM-12+009099999V0202001N001019999999N0000001N9+01781+99999099401ADDGF106991999999999999999999
0029029170999991907081320004+62900+027667FM-12+009099999V0209991C000019999999N0000001N9+01221+99999099161ADDGF108991999999999999999999
0035029170999991907081406004+62900+027667FM-12+009099999V0203401N001019999999N0000001N9+01061+99999098961ADDGF108991999999999999999999MW1601
0029029170999991907081413004+62900+027667FM-12+009099999V0203601N001019999999N0000001N9+01441+99999099031ADDGF108991999999999999999999
0029029170999991907081420004+62900+027667FM-12+009099999V0209991C000019999999N0000001N9+01001+99999099021ADDGF102991999999999999999999
0029029170999991907081506004+62900+027667FM-12+009099999V0209991C000019999999N0000001N9+01281+99999099041ADDGF106991999999999999999999
0029029170999991907081513004+62900+027667FM-12+009099999V0202001N001019999999N0000001N9+01561+99999099161ADDGF107991999999999999999999
0029029170999991907081520004+62900+027667FM-12+009099999V0209991C000019999999N0000001N9+01001+99999099301ADDGF106991999999999999999999
0029029170999991907081606004+62900+027667FM-12+009099999V0201401N001019999999N0000001N9+01391+99999099501ADDGF101991999999999999999999
0029029170999991907081613004+62900+027667FM-12+009099999V0201601N006719999999N0000001N9+01671+99999099421ADDGF105991999999999999999999
0035029170999991907081620004+62900+027667FM-12+009099999V0201401N004619999999N0000001N9+01281+99999099221ADDGF108991999999999999999999MW1621
0029029170999991907081706004+62900+027667FM-12+009099999V0209991C000019999999N0000001N9+01501+99999099081ADDGF108991999999999999999999
0029029170999991907081713004+62900+027667FM-12+009099999V0202301N002619999999N0000001N9+01891+99999099431ADDGF104991999999999999999999
0029029170999991907081720004+62900+027667FM-12+009099999V0209991C000019999999N0000001N9+01171+99999099711ADDGF105991999999999999999999
0029029170999991907081806004+62900+027667FM-12+009099999V0209991C000019999999N0000001N9+01221+99999099831ADDGF108991999999999999999999
0029029170999991907081813004+62900+027667FM-12+009099999V0209991C000019999999N0000001N9+01561+99999099841ADDGF107991999999999999999999
0029029170999991907081820004+62900+027667FM-12+009099999V0209991C000019999999N0000001N9+01221+99999099751ADDGF102991999999999999999999
0029029170999991907081906004+62900+027667FM-12+009099999V0201801N004619999999N0000001N9+01331+99999099551ADDGF103991999999999999999999
0029029170999991907081913004+62900+027667FM-12+009099999V0201801N004619999999N0000001N9+01721+99999099501ADDGF104991999999999999999999
0029029170999991907081920004+62900+027667FM-12+009099999V0209991C000019999999N0000001N9+01391+99999099281ADDGF107991999999999999999999
0029029170999991907082006004+62900+027667FM-12+009099999V0209991C000019999999N0000001N9+01331+99999098181ADDGF107991999999999999999999
0035029170999991907082013004+62900+027667FM-12+009099999V0202301N006719999999N0000001N9+01221+99999098101ADDGF108991999999999999999999MW1601
0029029170999991907082020004+62900+027667FM-12+009099999V0202301N006719999999N0000001N9+01061+99999098281ADDGF106991999999999999999999
0029029170999991907082106004+62900+027667FM-12+009099999V0202301N002619999999N0000001N9+01111+99999098441ADDGF107991999999999999999999
0029029170999991907082113004+62900+027667FM-12+009099999V0202301N004619999999N0000001N9+01281+99999098911ADDGF108991999999999999999999
0029029170999991907082120004+62900+027667FM-12+009099999V0209991C000019999999N0000001N9+01111+99999099111ADDGF108991999999999999999999
0029029170999991907082206004+62900+027667FM-12+009099999V0209991C000019999999N0000001N9+01221+99999099591ADDGF106991999999999999999999
0029029170999991907082213004+62900+027667FM-12+009099999V0202501N001019999999N0000001N9+01281+99999099821ADDGF108991999999999999999999
0029029170999991907082220004+62900+027667FM-12+009099999V0209991C000019999999N0000001N9+01171+99999099831ADDGF108991999999999999999999
0029029170999991907082306004+62900+027667FM-12+009099999V0209991C000019999999N0000001N9+01221+99999099621ADDGF108991999999999999999999
0029029170999991907082313004+62900+027667FM-12+009099999V0201101N001019999999N0000001N9+01561+99999099381ADDGF102991999999999999999999
0029029170999991907082320004+62900+027667FM-12+009099999V0209991C000019999999N0000001N9+01061+99999099261ADDGF100991999999999999999999
0029029170999991907082406004+62900+027667FM-12+009099999V0209991C000019999999N0000001N9+01281+99999099061ADDGF106991999999999999999999
0029029170999991907082413004+62900+027667FM-12+009099999V0201601N004619999999N0000001N9+01721+99999098821ADDGF104991999999999999999999
0029029170999991907082420004+62900+027667FM-12+009099999V0201101N001019999999N0000001N9+01221+99999098501ADDGF102991999999999999999999
0029029170999991907082506004+62900+027667FM-12+009099999V0209991C000019999999N0000001N9+01061+99999098121ADDGF108991999999999999999999
0029029170999991907082513004+62900+027667FM-12+009099999V0209991C000019999999N0000001N9+01331+99999098161ADDGF108991999999999999999999
0029029170999991907082520004+62900+027667FM-12+009099999V0209991C000019999999N0000001N9+01001+99999098271ADDGF108991999999999999999999
0029029170999991907082606004+62900+027667FM-12+009099999V0202701N001019999999N0000001N9+00831+99999098461ADDGF108991999999999999999999
0029029170999991907082613004+62900+027667FM-12+009099999V0202701N001019999999N0000001N9+01111+99999098641ADDGF108991999999999999999999
0029029170999991907082620004+62900+027667FM-12+009099999V0209991C000019999999N0000001N9+00941+99999098741ADDGF108991999999999999999999
0029029170999991907082706004+62900+027667FM-12+009099999V0202901N001019999999N0000001N9+00831+99999098861ADDGF108991999999999999999999
0029029170999991907082713004+62900+027667FM-12+009099999V0203201N006719999999N0000001N9+01001+99999099101ADDGF105991999999999999999999
0029029170999991907082720004+62900+027667FM-12+009099999V0202901N002619999999N0000001N9+00721+99999099391ADDGF108991999999999999999999
0029029170999991907082806004+62900+027667FM-12+009099999V0202701N002619999999N0000001N9+00831+99999099481ADDGF107991999999999999999999
0029029170999991907082813004+62900+027667FM-12+009099999V0202501N006719999999N0000001N9+01281+99999099581ADDGF106991999999999999999999
0029029170999991907082820004+62900+027667FM-12+009099999V0209991C000019999999N0000001N9+00721+99999099821ADDGF107991999999999999999999
0029029170999991907082906004+62900+027667FM-12+009099999V0203401N001019999999N0000001N9+00781+99999100151ADDGF107991999999999999999999
0029029170999991907082913004+62900+027667FM-12+009099999V0203401N006719999999N0000001N9+01171+99999100441ADDGF103991999999999999999999
0029029170999991907082920004+62900+027667FM-12+009099999V0209991C000019999999N0000001N9+00611+99999100711ADDGF102991999999999999999999
0029029170999991907083006004+62900+027667FM-12+009099999V0209991C000019999999N0000001N9+00671+99999100881ADDGF100991999999999999999999
0029029170999991907083013004+62900+027667FM-12+009099999V0201801N002619999999N0000001N9+01331+99999100591ADDGF107991999999999999999999
0035029170999991907083020004+62900+027667FM-12+009099999V0202301N004619999999N0000001N9+01171+99999100301ADDGF108991999999999999999999MW1621
0029029170999991907083106004+62900+027667FM-12+009099999V0202301N002619999999N0000001N9+01111+99999099841ADDGF108991999999999999999999
0029029170999991907083113004+62900+027667FM-12+009099999V0202701N002619999999N0000001N9+01671+99999099791ADDGF102991999999999999999999
0029029170999991907083120004+62900+027667FM-12+009099999V0202301N001019999999N0000001N9+01111+99999099711ADDGF102991999999999999999999
0029029170999991907090106004+62900+027667FM-12+009099999V0202301N002619999999N0000001N9+01001+99999099581ADDGF108991999999999999999999
0029029170999991907090113004+62900+027667FM-12+009099999V0202301N002619999999N0000001N9+01441+99999099511ADDGF108991999999999999999999
0029029170999991907090120004+62900+027667FM-12+009099999V0201401N001019999999N0000001N9+01171+99999098761ADDGF108991999999999999999999
0029029170999991907090206004+62900+027667FM-12+009099999V0202001N009319999999N0000001N9+00831+99999097951ADDGF108991999999999999999999
0035029170999991907090213004+62900+027667FM-12+009099999V0202301N019019999999N0000001N9+01111+99999098561ADDGF108991999999999999999999MW1621
0029029170999991907090220004+62900+027667FM-12+009099999V0202301N004619999999N0000001N9+00671+99999099501ADDGF100991999999999999999999
