0029029170999991908010106004+62900+027667FM-12+009099999V0209991C000019999999N0000001N9-01831+99999101591ADDGF108991999999999999999999
0029029170999991908010113004+62900+027667FM-12+009099999V0209991C000019999999N0000001N9-01611+99999101551ADDGF108991999999999999999999
0035029170999991908010120004+62900+027667FM-12+009099999V0202301N001019999999N0000001N9-01501+99999101181ADDGF108991999999999999999999MW1721
0029029170999991908010206004+62900+027667FM-12+009099999V0202301N002619999999N0000001N9-01061+99999099981ADDGF108991999999999999999999
0029029170999991908010213004+62900+027667FM-12+009099999V0203201N001019999999N0000001N9-00941+99999100021ADDGF108991999999999999999999
0029029170999991908010220004+62900+027667FM-12+009099999V0209991C000019999999N0000001N9-01831+99999100321ADDGF100991999999999999999999
0029029170999991908010306004+62900+027667FM-12+009099999V0209991C000019999999N0000001N9-02391+99999099801ADDGF108991999999999999999999
0035029170999991908010313004+62900+027667FM-12+009099999V0201801N001019999999N0000001N9-01611+99999098781ADDGF108991999999999999999999MW1721
0029029170999991908010320004+62900+027667FM-12+009099999V0209991C000019999999N0000001N9-01331+99999098081ADDGF108991999999999999999999
0029029170999991908010406004+62900+027667FM-12+009099999V0203601N001019999999N0000001N9-01941+99999098991ADDGF100991999999999999999999
0029029170999991908010413004+62900+027667FM-12+009099999V0209991C000019999999N0000001N9-02281+99999099621ADDGF108991999999999999999999
0029029170999991908010420004+62900+027667FM-12+009099999V0209991C000019999999N0000001N9-02611+99999099961ADDGF100991999999999999999999
0029029170999991908010506004+62900+027667FM-12+009099999V0200901N001019999999N0000001N9-02221+99999100401ADDGF108991999999999999999999
0029029170999991908010513004+62900+027667FM-12+009099999V0201801N001019999999N0000001N9-01941+99999100101ADDGF108991999999999999999999
0035029170999991908010520004+62900+027667FM-12+009099999V0201801N002619999999N0000001N9-01671+99999099431ADDGF108991999999999999999999MW1721
0029029170999991908010606004+62900+027667FM-12+009099999V0202301N001019999999N0000001N9-00891+99999098001ADDGF108991999999999999999999
0029029170999991908010613004+62900+027667FM-12+009099999V0202701N001019999999N0000001N9-00501+99999097841ADDGF108991999999999999999999
0029029170999991908010620004+62900+027667FM-12+009099999V0203201N001019999999N0000001N9-01721+99999098071ADDGF100991999999999999999999
0029029170999991908010706004+62900+027667FM-12+009099999V0209991C000019999999N0000001N9-01941+99999098341ADDGF100991999999999999999999
0029029170999991908010713004+62900+027667FM-12+009099999V0203201N001019999999N0000001N9-02001+99999098231ADDGF100991999999999999999999
0029029170999991908010720004+62900+027667FM-12+009099999V0202701N001019999999N0000001N9-01891+99999098561ADDGF100991999999999999999999
0029029170999991908010806004+62900+027667FM-12+009099999V0203201N002619999999N0000001N9-01781+99999099061ADDGF108991999999999999999999
0029029170999991908010813004+62900+027667FM-12+009099999V0203601N001019999999N0000001N9-01831+99999099661ADDGF100991999999999999999999
0029029170999991908010820004+62900+027667FM-12+009099999V0209991C000019999999N0000001N9-01831+99999100261ADDGF100991999999999999999999
0029029170999991908010906004+62900+027667FM-12+009099999V0209991C000019999999N0000001N9-02391+99999100621ADDGF108991999999999999999999
0029029170999991908010913004+62900+027667FM-12+009099999V0209991C000019999999N0000001N9-02221+99999100661ADDGF108991999999999999999999
0029029170999991908010920004+62900+027667FM-12+009099999V0200901N001019999999N0000001N9-02721+99999100661ADDGF100991999999999999999999
0029029170999991908011006004+62900+027667FM-12+009099999V0209991C000019999999N0000001N9-03061+99999100441ADDGF108991999999999999999999
0029029170999991908011013004+62900+027667FM-12+009099999V0209991C000019999999N0000001N9-02721+99999100321ADDGF100991999999999999999999
0029029170999991908011020004+62900+027667FM-12+009099999V0209991C000019999999N0000001N9-03111+99999100121ADDGF100991999999999999999999
0029029170999991908011106004+62900+027667FM-12+009099999V0209991C000019999999N0000001N9-03221+99999099781ADDGF100991999999999999999999
0035029170999991908011113004+62900+027667FM-12+009099999V0209991C000019999999N0000001N9-02331+99999099261ADDGF108991999999999999999999MW1721
0035029170999991908011120004+62900+027667FM-12+009099999V0201401N001019999999N0000001N9-01831+99999098841ADDGF108991999999999999999999MW1721
0029029170999991908011206004+62900+027667FM-12+009099999V0209991C000019999999N0000001N9-01561+99999099001ADDGF108991999999999999999999
0029029170999991908011213004+62900+027667FM-12+009099999V0201401N001019999999N0000001N9-01501+99999099501ADDGF108991999999999999999999
0029029170999991908011220004+62900+027667FM-12+009099999V0201401N001019999999N0000001N9-01501+99999099701ADDGF108991999999999999999999
0029029170999991908011306004+62900+027667FM-12+009099999V0209991C000019999999N0000001N9-00891+99999099401ADDGF108991999999999999999999
0029029170999991908011313004+62900+027667FM-12+009099999V0202701N001019999999N0000001N9-00111+99999100041ADDGF100991999999999999999999
0029029170999991908011320004+62900+027667FM-12+009099999V0202701N001019999999N0000001N9-00221+99999100471ADDGF100991999999999999999999
0029029170999991908011406004+62900+027667FM-12+009099999V0209991C000019999999N0000001N9-01111+99999100681ADDGF100991999999999999999999
0029029170999991908011413004+62900+027667FM-12+009099999V0209991C000019999999N0000001N9-00891+99999100501ADDGF108991999999999999999999
0029029170999991908011420004+62900+027667FM-12+009099999V0209991C000019999999N0000001N9-01111+99999100741ADDGF100991999999999999999999
0029029170999991908011506004+62900+027667FM-12+009099999V0209991C000019999999N0000001N9-00721+99999100271ADDGF108991999999999999999999
0035029170999991908011513004+62900+027667FM-12+009099999V0209991C000019999999N0000001N9-00721+99999100221ADDGF108991999999999999999999MW1481
0029029170999991908011520004+62900+027667FM-12+009099999V0209991C000019999999N0000001N9-00611+99999100121ADDGF108991999999999999999999
0029029170999991908011606004+62900+027667FM-12+009099999V0209991C000019999999N0000001N9-00561+99999099701ADDGF108991999999999999999999
0029029170999991908011613004+62900+027667FM-12+009099999V0201801N001019999999N0000001N9-00221+99999098871ADDGF108991999999999999999999
0035029170999991908011620004+62900+027667FM-12+009099999V0201801N002619999999N0000001N9+00111+99999098271ADDGF108991999999999999999999MW1621
0035029170999991908011706004+62900+027667FM-12+009099999V0202701N002619999999N0000001N9+00171+99999097391ADDGF108991999999999999999999MW1621
0029029170999991908011713004+62900+027667FM-12+009099999V0203201N001019999999N0000001N9+00111+99999098031ADDGF108991999999999999999999
0029029170999991908011720004+62900+027667FM-12+009099999V0202701N001019999999N0000001N9+00171+99999098551ADDGF108991999999999999999999
0029029170999991908011806004+62900+027667FM-12+009099999V0201801N001019999999N0000001N9-00281+99999098031ADDGF108991999999999999999999
0035029170999991908011813004+62900+027667FM-12+009099999V0201801N002619999999N0000001N9+00221+99999096701ADDGF108991999999999999999999MW1621
0029029170999991908011820004+62900+027667FM-12+009099999V0202301N012319999999N0000001N9+00221+99999096711ADDGF108991999999999999999999
0035029170999991908011906004+62900+027667FM-12+009099999V0202701N004619999999N0000001N9-00171+99999097191ADDGF108991999999999999999999MW1721
0029029170999991908011913004+62900+027667FM-12+009099999V0203201N002619999999N0000001N9+00221+99999098501ADDGF108991999999999999999999
0029029170999991908011920004+62900+027667FM-12+009099999V0203201N002619999999N0000001N9-00671+99999099401ADDGF100991999999999999999999
0029029170999991908012006004+62900+027667FM-12+009099999V0209991C000019999999N0000001N9-00781+99999099581ADDGF107991999999999999999999
0029029170999991908012013004+62900+027667FM-12+009099999V0209991C000019999999N0000001N9-00331+99999099221ADDGF108991999999999999999999
0035029170999991908012020004+62900+027667FM-12+009099999V0209991C000019999999N0000001N9-00281+99999098921ADDGF108991999999999999999999MW1721
0029029170999991908012106004+62900+027667FM-12+009099999V0203201N001019999999N0000001N9-00111+99999098911ADDGF107991999999999999999999
0029029170999991908012113004+62900+027667FM-12+009099999V0202701N001019999999N0000001N9-00501+99999099221ADDGF108991999999999999999999
0035029170999991908012120004+62900+027667FM-12+009099999V0201801N002619999999N0000001N9-00221+99999097961ADDGF108991999999999999999999MW1721
0029029170999991908012206004+62900+027667FM-12+009099999V0203201N019019999999N0000001N9-00171+99999098181ADDGF108991999999999999999999
0029029170999991908012213004+62900+027667FM-12+009099999V0203601N002619999999N0000001N9-00391+99999100041ADDGF108991999999999999999999
0029029170999991908012220004+62900+027667FM-12+009099999V0203601N001019999999N0000001N9-00721+99999101081ADDGF108991999999999999999999
0029029170999991908012306004+62900+027667FM-12+009099999V0201801N001019999999N0000001N9-00831+99999101151ADDGF108991999999999999999999
0029029170999991908012313004+62900+027667FM-12+009099999V0202301N001019999999N0000001N9-00331+99999100641ADDGF108991999999999999999999
0029029170999991908012320004+62900+027667FM-12+009099999V0202301N001019999999N0000001N9-00171+99999100181ADDGF108991999999999999999999
0029029170999991908012406004+62900+027667FM-12+009099999V0202301N002619999999N0000001N9-00061+99999099741ADDGF100991999999999999999999
0029029170999991908012413004+62900+027667FM-12+009099999V0202301N002619999999N0000001N9+00171+99999099401ADDGF108991999999999999999999
0029029170999991908012420004+62900+027667FM-12+009099999V0203201N002619999999N0000001N9-00061+99999099961ADDGF100991999999999999999999
0029029170999991908012506004+62900+027667FM-12+009099999V0202701N001019999999N0000001N9-00391+99999100591ADDGF100991999999999999999999
0029029170999991908012513004+62900+027667FM-12+009099999V0202701N001019999999N0000001N9-00281+99999100591ADDGF100991999999999999999999
0029029170999991908012520004+62900+027667FM-12+009099999V0202701N002619999999N0000001N9-00221+99999100361ADDGF100991999999999999999999
0029029170999991908012606004+62900+027667FM-12+009099999V0201801N002619999999N0000001N9-00391+99999099511ADDGF108991999999999999999999
0029029170999991908012613004+62900+027667FM-12+009099999V0201801N002619999999N0000001N9-00171+99999098881ADDGF108991999999999999999999
0035029170999991908012620004+62900+027667FM-12+009099999V0201801N002619999999N0000001N9-00281+99999098301ADDGF108991999999999999999999MW1721
0029029170999991908012706004+62900+027667FM-12+009099999V0209991C000019999999N0000001N9-00221+99999098001ADDGF108991999999999999999999
0035029170999991908012713004+62900+027667FM-12+009099999V0209991C000019999999N0000001N9+00001+99999097671ADDGF108991999999999999999999MW1721
0029029170999991908012720004+62900+027667FM-12+009099999V0202301N002619999999N0000001N9-00281+99999097281ADDGF108991999999999999999999
0029029170999991908012806004+62900+027667FM-12+009099999V0201401N001019999999N0000001N9-00501+99999096951ADDGF108991999999999999999999
0035029170999991908012813004+62900+027667FM-12+009099999V0209991C000019999999N0000001N9-00561+99999096721ADDGF108991999999999999999999MW1701
0035029170999991908012820004+62900+027667FM-12+009099999V0209991C000019999999N0000001N9-00561+99999096631ADDGF108991999999999999999999MW1721
0035029170999991908012906004+62900+027667FM-12+009099999V0209991C000019999999N0000001N9-00501+99999096461ADDGF108991999999999999999999MW1701
0029029170999991908012913004+62900+027667FM-12+009099999V0209991C000019999999N0000001N9-00171+99999096711ADDGF108991999999999999999999
0029029170999991908012920004+62900+027667FM-12+009099999V0209991C000019999999N0000001N9-00171+99999096921ADDGF108991999999999999999999
0029029170999991908013006004+62900+027667FM-12+009099999V0209991C000019999999N0000001N9-00441+99999097341ADDGF108991999999999999999999
0029029170999991908013013004+62900+027667FM-12+009099999V0209991C000019999999N0000001N9-00671+99999097601ADDGF108991999999999999999999
0029029170999991908013020004+62900+027667FM-12+009099999V0202701N001019999999N0000001N9-01001+99999097751ADDGF108991999999999999999999
0029029170999991908013106004+62900+027667FM-12+009099999V0209991C000019999999N0000001N9-00941+99999097901ADDGF108991999999999999999999
0029029170999991908013113004+62900+027667FM-12+009099999V0209991C000019999999N0000001N9-01001+99999097941ADDGF108991999999999999999999
0035029170999991908013120004+62900+027667FM-12+009099999V0201401N001019999999N0000001N9-00941+99999097871ADDGF108991999999999999999999MW1721
0035029170999991908020106004+62900+027667FM-12+009099999V0209991C000019999999N0000001N9-00561+99999097911ADDGF108991999999999999999999MW1721
0035029170999991908020113004+62900+027667FM-12+009099999V0209991C000019999999N0000001N9-00331+99999098391ADDGF108991999999999999999999MW1721
0035029170999991908020120004+62900+027667FM-12+009099999V0209991C000019999999N0000001N9-00441+99999098991ADDGF108991999999999999999999MW1721
0029029170999991908020206004+62900+027667FM-12+009099999V0209991C000019999999N0000001N9-00561+99999099621ADDGF108991999999999999999999
0035029170999991908020213004+62900+027667FM-12+009099999V0209991C000019999999N0000001N9-00561+99999100121ADDGF108991999999999999999999MW1721
0029029170999991908020220004+62900+027667FM-12+009099999V0209991C000019999999N0000001N9-00721+99999100501ADDGF108991999999999999999999
0029029170999991908020306004+62900+027667FM-12+009099999V0209991C000019999999N0000001N9-00721+99999100391ADDGF108991999999999999999999
0029029170999991908020313004+62900+027667FM-12+009099999V0209991C000019999999N0000001N9-00721+99999100241ADDGF108991999999999999999999
0029029170999991908020320004+62900+027667FM-12+009099999V0209991C000019999999N0000001N9-00671+99999100101ADDGF108991999999999999999999
0029029170999991908020406004+62900+027667FM-12+009099999V0209991C000019999999N0000001N9-00331+99999099901ADDGF108991999999999999999999
0035029170999991908020413004+62900+027667FM-12+009099999V0209991C000019999999N0000001N9-00281+99999099981ADDGF108991999999999999999999MW1721
0029029170999991908020420004+62900+027667FM-12+009099999V0209991C000019999999N0000001N9-00721+99999100471ADDGF100991999999999999999999
0029029170999991908020506004+62900+027667FM-12+009099999V0209991C000019999999N0000001N9-01561+99999100421ADDGF103991999999999999999999
0035029170999991908020513004+62900+027667FM-12+009099999V0202301N004619999999N0000001N9-00501+99999099191ADDGF108991999999999999999999MW1721
0035029170999991908020520004+62900+027667FM-12+009099999V0202301N006719999999N0000001N9-00391+99999098041ADDGF108991999999999999999999MW1721
0029029170999991908020606004+62900+027667FM-12+009099999V0202501N006719999999N0000001N9+00001+99999096751ADDGF108991999999999999999999
0029029170999991908020613004+62900+027667FM-12+009099999V0202701N004619999999N0000001N9-00061+99999096881ADDGF108991999999999999999999
0029029170999991908020620004+62900+027667FM-12+009099999V0202901N001019999999N0000001N9-00561+99999097321ADDGF100991999999999999999999
0029029170999991908020706004+62900+027667FM-12+009099999V0209991C000019999999N0000001N9-01111+99999098141ADDGF102991999999999999999999
0029029170999991908020713004+62900+027667FM-12+009099999V0202701N001019999999N0000001N9-00831+99999098831ADDGF100991999999999999999999
0029029170999991908020720004+62900+027667FM-12+009099999V0209991C000019999999N0000001N9-01221+99999099231ADDGF100991999999999999999999
0029029170999991908020806004+62900+027667FM-12+009099999V0209991C000019999999N0000001N9-02111+99999098911ADDGF102991999999999999999999
0029029170999991908020813004+62900+027667FM-12+009099999V0209991C000019999999N0000001N9-01441+99999098281ADDGF108991999999999999999999
0035029170999991908020820004+62900+027667FM-12+009099999V0200901N001019999999N0000001N9-01281+99999098061ADDGF108991999999999999999999MW1721
0029029170999991908020906004+62900+027667FM-12+009099999V0200501N004619999999N0000001N9-01221+99999098381ADDGF108991999999999999999999
0029029170999991908020913004+62900+027667FM-12+009099999V0200501N004619999999N0000001N9-01061+99999098861ADDGF108991999999999999999999
0035029170999991908020920004+62900+027667FM-12+009099999V0200501N004619999999N0000001N9-01221+99999099481ADDGF108991999999999999999999MW1721
0029029170999991908021006004+62900+027667FM-12+009099999V0209991C000019999999N0000001N9-01331+99999100321ADDGF108991999999999999999999
0029029170999991908021013004+62900+027667FM-12+009099999V0209991C000019999999N0000001N9-01331+99999100751ADDGF100991999999999999999999
0029029170999991908021020004+62900+027667FM-12+009099999V0209991C000019999999N0000001N9-02001+99999100841ADDGF105991999999999999999999
0029029170999991908021106004+62900+027667FM-12+009099999V0209991C000019999999N0000001N9-01671+99999999999ADDGF108991999999999999999999
0035029170999991908021113004+62900+027667FM-12+009099999V0201401N001019999999N0000001N9-00941+99999098581ADDGF108991999999999999999999MW1721
0029029170999991908021120004+62900+027667FM-12+009099999V0202301N001019999999N0000001N9-00221+99999097321ADDGF108991999999999999999999
0029029170999991908021206004+62900+027667FM-12+009099999V0203201N006719999999N0000001N9-00891+99999097281ADDGF108991999999999999999999
0029029170999991908021213004+62900+027667FM-12+009099999V0203201N006719999999N0000001N9-01221+99999097741ADDGF102991999999999999999999
0029029170999991908021220004+62900+027667FM-12+009099999V0209991C000019999999N0000001N9-01611+99999098261ADDGF106991999999999999999999
0029029170999991908021306004+62900+027667FM-12+009099999V0209991C000019999999N0000001N9-02001+99999098961ADDGF100991999999999999999999
0029029170999991908021313004+62900+027667FM-12+009099999V0209991C000019999999N0000001N9-01331+99999099641ADDGF100991999999999999999999
0029029170999991908021320004+62900+027667FM-12+009099999V0209991C000019999999N0000001N9-01111+99999099961ADDGF108991999999999999999999
0029029170999991908021406004+62900+027667FM-12+009099999V0209991C000019999999N0000001N9-01001+99999100631ADDGF108991999999999999999999
0029029170999991908021413004+62900+027667FM-12+009099999V0209991C000019999999N0000001N9-00831+99999101191ADDGF108991999999999999999999
0029029170999991908021420004+62900+027667FM-12+009099999V0209991C000019999999N0000001N9-01001+99999101391ADDGF108991999999999999999999
0029029170999991908021506004+62900+027667FM-12+009099999V0209991C000019999999N0000001N9-01281+99999100951ADDGF108991999999999999999999
0029029170999991908021513004+62900+027667FM-12+009099999V0209991C000019999999N0000001N9-01111+99999100511ADDGF108991999999999999999999
0035029170999991908021520004+62900+027667FM-12+009099999V0209991C000019999999N0000001N9-01221+99999999999ADDGF108991999999999999999999MW1701
0035029170999991908021606004+62900+027667FM-12+009099999V0201401N001019999999N0000001N9-00941+99999099181ADDGF108991999999999999999999MW1721
0035029170999991908021613004+62900+027667FM-12+009099999V0201401N001019999999N0000001N9-00611+99999098601ADDGF108991999999999999999999MW1721
0035029170999991908021620004+62900+027667FM-12+009099999V0201401N001019999999N0000001N9-00331+99999098231ADDGF108991999999999999999999MW1721
0029029170999991908021706004+62900+027667FM-12+009099999V0201401N001019999999N0000001N9-00111+99999097941ADDGF108991999999999999999999
0035029170999991908021713004+62900+027667FM-12+009099999V0209991C000019999999N0000001N9+00001+99999098181ADDGF108991999999999999999999MW1721
0035029170999991908021720004+62900+027667FM-12+009099999V0209991C000019999999N0000001N9-00061+99999098441ADDGF108991999999999999999999MW1721
0029029170999991908021806004+62900+027667FM-12+009099999V0209991C000019999999N0000001N9-00501+99999098511ADDGF108991999999999999999999
0029029170999991908021813004+62900+027667FM-12+009099999V0201801N001019999999N0000001N9-00561+99999098541ADDGF108991999999999999999999
0029029170999991908021820004+62900+027667FM-12+009099999V0209991C000019999999N0000001N9-00721+99999098481ADDGF108991999999999999999999
0029029170999991908021906004+62900+027667FM-12+009099999V0201801N001019999999N0000001N9-00561+99999098231ADDGF108991999999999999999999
0035029170999991908021913004+62900+027667FM-12+009099999V0201801N001019999999N0000001N9-00221+99999097801ADDGF108991999999999999999999MW1721
0029029170999991908021920004+62900+027667FM-12+009099999V0201801N001019999999N0000001N9-00171+99999097741ADDGF108991999999999999999999
0029029170999991908022006004+62900+027667FM-12+009099999V0201801N001019999999N0000001N9+00001+99999098121ADDGF108991999999999999999999
0035029170999991908022013004+62900+027667FM-12+009099999V0201801N001019999999N0000001N9-00061+99999098241ADDGF108991999999999999999999MW1721
0035029170999991908022020004+62900+027667FM-12+009099999V0201801N001019999999N0000001N9-00111+99999098161ADDGF108991999999999999999999MW1721
0035029170999991908022106004+62900+027667FM-12+009099999V0201801N001019999999N0000001N9-00331+99999098521ADDGF108991999999999999999999MW1721
0029029170999991908022113004+62900+027667FM-12+009099999V0209991C000019999999N0000001N9-00221+99999098951ADDGF108991999999999999999999
0035029170999991908022120004+62900+027667FM-12+009099999V0209991C000019999999N0000001N9-00501+99999099301ADDGF108991999999999999999999MW1721
0035029170999991908022206004+62900+027667FM-12+009099999V0209991C000019999999N0000001N9-00721+99999099481ADDGF108991999999999999999999MW1721
0035029170999991908022213004+62900+027667FM-12+009099999V0201801N001019999999N0000001N9-00501+99999099551ADDGF108991999999999999999999MW1721
0029029170999991908022220004+62900+027667FM-12+009099999V0209991C000019999999N0000001N9-00831+99999099591ADDGF108991999999999999999999
0035029170999991908022306004+62900+027667FM-12+009099999V0209991C000019999999N0000001N9-01111+99999099581ADDGF108991999999999999999999MW1721
0029029170999991908022313004+62900+027667FM-12+009099999V0201801N001019999999N0000001N9-00721+99999099561ADDGF108991999999999999999999
0029029170999991908022320004+62900+027667FM-12+009099999V0201401N002619999999N0000001N9-00941+99999099641ADDGF108991999999999999999999
0029029170999991908022406004+62900+027667FM-12+009099999V0201401N002619999999N0000001N9-01111+99999099861ADDGF108991999999999999999999
0035029170999991908022413004+62900+027667FM-12+009099999V0201401N001019999999N0000001N9-00831+99999100181ADDGF108991999999999999999999MW1721
0029029170999991908022420004+62900+027667FM-12+009099999V0201401N002619999999N0000001N9-01111+99999100401ADDGF100991999999999999999999
0029029170999991908022506004+62900+027667FM-12+009099999V0201401N001019999999N0000001N9-01781+99999100441ADDGF100991999999999999999999
0029029170999991908022513004+62900+027667FM-12+009099999V0201401N001019999999N0000001N9-01501+99999100441ADDGF100991999999999999999999
0035029170999991908022520004+62900+027667FM-12+009099999V0209991C000019999999N0000001N9-01891+99999100471ADDGF108991999999999999999999MW1721
0035029170999991908022606004+62900+027667FM-12+009099999V0209991C000019999999N0000001N9-01391+99999100321ADDGF108991999999999999999999MW1721
0029029170999991908022613004+62900+027667FM-12+009099999V0209991C000019999999N0000001N9-00941+99999100111ADDGF108991999999999999999999
0029029170999991908022620004+62900+027667FM-12+009099999V0209991C000019999999N0000001N9-01221+99999099861ADDGF108991999999999999999999
0029029170999991908022706004+62900+027667FM-12+009099999V0209991C000019999999N0000001N9-01501+99999099561ADDGF108991999999999999999999
0035029170999991908022713004+62900+027667FM-12+009099999V0209991C000019999999N0000001N9-00941+99999099711ADDGF108991999999999999999999MW1721
0029029170999991908022720004+62900+027667FM-12+009099999V0201401N001019999999N0000001N9-00831+99999099781ADDGF108991999999999999999999
0029029170999991908022806004+62900+027667FM-12+009099999V0201401N001019999999N0000001N9-00891+99999099901ADDGF108991999999999999999999
0029029170999991908022813004+62900+027667FM-12+009099999V0201401N001019999999N0000001N9-00501+99999099801ADDGF108991999999999999999999
0029029170999991908022820004+62900+027667FM-12+009099999V0201401N001019999999N0000001N9-00611+99999100191ADDGF106991999999999999999999
0029029170999991908022906004+62900+027667FM-12+009099999V0201401N002619999999N0000001N9-00331+99999100141ADDGF108991999999999999999999
0035029170999991908022913004+62900+027667FM-12+009099999V0201401N002619999999N0000001N9-00331+99999100431ADDGF108991999999999999999999MW1721
0035029170999991908022920004+62900+027667FM-12+009099999V0209991C000019999999N0000001N9-00721+99999100801ADDGF108991999999999999999999MW1721
0029029170999991908030106004+62900+027667FM-12+009099999V0201401N001019999999N0000001N9-00671+99999100961ADDGF108991999999999999999999
0029029170999991908030113004+62900+027667FM-12+009099999V0201401N004619999999N0000001N9-00671+99999100901ADDGF108991999999999999999999
0029029170999991908030120004+62900+027667FM-12+009099999V0201401N001019999999N0000001N9-00781+99999101071ADDGF108991999999999999999999
0029029170999991908030206004+62900+027667FM-12+009099999V0201401N002619999999N0000001N9-00611+99999100941ADDGF108991999999999999999999
0029029170999991908030213004+62900+027667FM-12+009099999V0201401N001019999999N0000001N9-00561+99999101031ADDGF108991999999999999999999
0029029170999991908030220004+62900+027667FM-12+009099999V0201401N001019999999N0000001N9-00501+99999101391ADDGF108991999999999999999999
0029029170999991908030306004+62900+027667FM-12+009099999V0200501N001019999999N0000001N9-00501+99999101361ADDGF108991999999999999999999
0029029170999991908030313004+62900+027667FM-12+009099999V0201401N002619999999N0000001N9-00221+99999101081ADDGF108991999999999999999999
0029029170999991908030320004+62900+027667FM-12+009099999V0201401N001019999999N0000001N9-00111+99999100991ADDGF108991999999999999999999
0029029170999991908030406004+62900+027667FM-12+009099999V0209991C000019999999N0000001N9-00111+99999101031ADDGF108991999999999999999999
0029029170999991908030413004+62900+027667FM-12+009099999V0209991C000019999999N0000001N9-00061+99999100741ADDGF108991999999999999999999
0035029170999991908030420004+62900+027667FM-12+009099999V0201401N006719999999N0000001N9+00001+99999100471ADDGF108991999999999999999999MW1721
0029029170999991908030506004+62900+027667FM-12+009099999V0201401N006719999999N0000001N9-00061+99999100471ADDGF108991999999999999999999
0035029170999991908030513004+62900+027667FM-12+009099999V0201401N001019999999N0000001N9-00061+99999100561ADDGF108991999999999999999999MW1721
0029029170999991908030520004+62900+027667FM-12+009099999V0201401N002619999999N0000001N9-00111+99999100921ADDGF108991999999999999999999
0029029170999991908030606004+62900+027667FM-12+009099999V0209991C000019999999N0000001N9-00281+99999101161ADDGF108991999999999999999999
0029029170999991908030613004+62900+027667FM-12+009099999V0209991C000019999999N0000001N9-00111+99999101181ADDGF108991999999999999999999
0029029170999991908030620004+62900+027667FM-12+009099999V0209991C000019999999N0000001N9-00281+99999101161ADDGF108991999999999999999999
0029029170999991908030706004+62900+027667FM-12+009099999V0209991C000019999999N0000001N9-00331+99999101181ADDGF108991999999999999999999
0029029170999991908030713004+62900+027667FM-12+009099999V0209991C000019999999N0000001N9-00111+99999101241ADDGF103991999999999999999999
0029029170999991908030720004+62900+027667FM-12+009099999V0209991C000019999999N0000001N9-00561+99999101261ADDGF105991999999999999999999
0029029170999991908030806004+62900+027667FM-12+009099999V0209991C000019999999N0000001N9-01441+99999101271ADDGF108991999999999999999999
0029029170999991908030813004+62900+027667FM-12+009099999V0209991C000019999999N0000001N9-00221+99999101221ADDGF101991999999999999999999
0029029170999991908030820004+62900+027667FM-12+009099999V0209991C000019999999N0000001N9-00941+99999101151ADDGF100991999999999999999999
0035029170999991908030906004+62900+027667FM-12+009099999V0209991C000019999999N0000001N9-00721+99999101061ADDGF108991999999999999999999MW1721
0029029170999991908030913004+62900+027667FM-12+009099999V0201401N006719999999N0000001N9-00721+99999101071ADDGF100991999999999999999999
0029029170999991908030920004+62900+027667FM-12+009099999V0201401N002619999999N0000001N9-01501+99999101201ADDGF100991999999999999999999
0029029170999991908031006004+62900+027667FM-12+009099999V0201401N002619999999N0000001N9-02111+99999101271ADDGF100991999999999999999999
0029029170999991908031013004+62900+027667FM-12+009099999V0201401N002619999999N0000001N9-01501+99999101311ADDGF100991999999999999999999
0029029170999991908031020004+62900+027667FM-12+009099999V0201401N002619999999N0000001N9-01941+99999101431ADDGF100991999999999999999999
0029029170999991908031106004+62900+027667FM-12+009099999V0200501N002619999999N0000001N9-02281+99999101481ADDGF100991999999999999999999
0029029170999991908031113004+62900+027667FM-12+009099999V0200901N002619999999N0000001N9-01221+99999101521ADDGF100991999999999999999999
0029029170999991908031120004+62900+027667FM-12+009099999V0200501N001019999999N0000001N9-01561+99999101641ADDGF100991999999999999999999
0029029170999991908031206004+62900+027667FM-12+009099999V0200501N001019999999N0000001N9-01831+99999101841ADDGF100991999999999999999999
0029029170999991908031213004+62900+027667FM-12+009099999V0200501N001019999999N0000001N9-00941+99999101761ADDGF100991999999999999999999
0029029170999991908031220004+62900+027667FM-12+009099999V0209991C000019999999N0000001N9-01281+99999101631ADDGF100991999999999999999999
0029029170999991908031306004+62900+027667FM-12+009099999V0209991C000019999999N0000001N9-01891+99999101391ADDGF100991999999999999999999
0029029170999991908031313004+62900+027667FM-12+009099999V0209991C000019999999N0000001N9-00831+99999101151ADDGF100991999999999999999999
0029029170999991908031320004+62900+027667FM-12+009099999V0209991C000019999999N0000001N9-01221+99999101021ADDGF100991999999999999999999
0029029170999991908031406004+62900+027667FM-12+009099999V0209991C000019999999N0000001N9-02111+99999100901ADDGF100991999999999999999999
0029029170999991908031413004+62900+027667FM-12+009099999V0202301N001019999999N0000001N9-00611+99999100601ADDGF100991999999999999999999
0029029170999991908031420004+62900+027667FM-12+009099999V0202701N001019999999N0000001N9-01001+99999100261ADDGF102991999999999999999999
0035029170999991908031506004+62900+027667FM-12+009099999V0209991C000019999999N0000001N9-01221+99999099921ADDGF108991999999999999999999MW1721
0029029170999991908031513004+62900+027667FM-12+009099999V0203201N002619999999N0000001N9-00721+99999100071ADDGF100991999999999999999999
0029029170999991908031520004+62900+027667FM-12+009099999V0209991C000019999999N0000001N9-01561+99999100281ADDGF100991999999999999999999
0035029170999991908031606004+62900+027667FM-12+009099999V0209991C000019999999N0000001N9-01001+99999099741ADDGF108991999999999999999999MW1721
0035029170999991908031613004+62900+027667FM-12+009099999V0209991C000019999999N0000001N9-00391+99999099721ADDGF108991999999999999999999MW1721
0029029170999991908031620004+62900+027667FM-12+009099999V0209991C000019999999N0000001N9-01061+99999100071ADDGF100991999999999999999999
0035029170999991908031706004+62900+027667FM-12+009099999V0202301N002619999999N0000001N9-00561+99999099541ADDGF108991999999999999999999MW1721
0029029170999991908031713004+62900+027667FM-12+009099999V0209991C000019999999N0000001N9-00171+99999999999ADDGF107991999999999999999999
0029029170999991908031720004+62900+027667FM-12+009099999V0209991C000019999999N0000001N9-01001+99999100561ADDGF107991999999999999999999
0029029170999991908031806004+62900+027667FM-12+009099999V0202301N001019999999N0000001N9-00281+99999100541ADDGF108991999999999999999999
0029029170999991908031813004+62900+027667FM-12+009099999V0202301N002619999999N0000001N9+00221+99999100641ADDGF107991999999999999999999
0029029170999991908031820004+62900+027667FM-12+009099999V0202301N001019999999N0000001N9-00221+99999100941ADDGF100991999999999999999999
0029029170999991908031906004+62900+027667FM-12+009099999V0202301N001019999999N0000001N9-00611+99999101121ADDGF100991999999999999999999
0029029170999991908031913004+62900+027667FM-12+009099999V0202301N001019999999N0000001N9+00171+99999101311ADDGF100991999999999999999999
0029029170999991908031920004+62900+027667FM-12+009099999V0202301N002619999999N0000001N9-00391+99999101521ADDGF100991999999999999999999
0029029170999991908032006004+62900+027667FM-12+009099999V0209991C000019999999N0000001N9-01061+99999101871ADDGF100991999999999999999999
0029029170999991908032013004+62900+027667FM-12+009099999V0202301N002619999999N0000001N9+00281+99999102041ADDGF100991999999999999999999
0029029170999991908032020004+62900+027667FM-12+009099999V0209991C000019999999N0000001N9-00611+99999102151ADDGF100991999999999999999999
0029029170999991908032106004+62900+027667FM-12+009099999V0201801N001019999999N0000001N9-00891+99999102231ADDGF108991999999999999999999
0029029170999991908032113004+62900+027667FM-12+009099999V0201801N001019999999N0000001N9-00171+99999102351ADDGF108991999999999999999999
0029029170999991908032120004+62900+027667FM-12+009099999V0209991C000019999999N0000001N9-00561+99999102471ADDGF100991999999999999999999
0029029170999991908032206004+62900+027667FM-12+009099999V0209991C000019999999N0000001N9-01111+99999102561ADDGF108991999999999999999999
0029029170999991908032213004+62900+027667FM-12+009099999V0209991C000019999999N0000001N9+00111+99999102461ADDGF100991999999999999999999
0029029170999991908032220004+62900+027667FM-12+009099999V0209991C000019999999N0000001N9-00941+99999102431ADDGF100991999999999999999999
0029029170999991908032306004+62900+027667FM-12+009099999V0209991C000019999999N0000001N9-01331+99999102431ADDGF100991999999999999999999
0029029170999991908032313004+62900+027667FM-12+009099999V0209991C000019999999N0000001N9-00061+99999102361ADDGF100991999999999999999999
0029029170999991908032320004+62900+027667FM-12+009099999V0209991C000019999999N0000001N9-00561+99999102181ADDGF100991999999999999999999
0029029170999991908032406004+62900+027667FM-12+009099999V0209991C000019999999N0000001N9-01221+99999102111ADDGF100991999999999999999999
0029029170999991908032413004+62900+027667FM-12+009099999V0202301N001019999999N0000001N9+00221+99999101921ADDGF100991999999999999999999
0029029170999991908032420004+62900+027667FM-12+009099999V0203601N001019999999N0000001N9-00331+99999102071ADDGF100991999999999999999999
0029029170999991908032506004+62900+027667FM-12+009099999V0209991C000019999999N0000001N9-01111+99999102141ADDGF108991999999999999999999
0029029170999991908032513004+62900+027667FM-12+009099999V0201401N001019999999N0000001N9+00061+99999101711ADDGF108991999999999999999999
0029029170999991908032520004+62900+027667FM-12+009099999V0201401N001019999999N0000001N9-00501+99999101391ADDGF100991999999999999999999
0029029170999991908032606004+62900+027667FM-12+009099999V0209991C000019999999N0000001N9-00501+99999101821ADDGF108991999999999999999999
0029029170999991908032613004+62900+027667FM-12+009099999V0200501N001019999999N0000001N9-00221+99999101711ADDGF100991999999999999999999
0029029170999991908032620004+62900+027667FM-12+009099999V0209991C000019999999N0000001N9-00721+99999101641ADDGF100991999999999999999999
0029029170999991908032706004+62900+027667FM-12+009099999V0202701N001019999999N0000001N9-00441+99999101391ADDGF101991999999999999999999
0029029170999991908032713004+62900+027667FM-12+009099999V0202301N001019999999N0000001N9+00221+99999101041ADDGF100991999999999999999999
0029029170999991908032720004+62900+027667FM-12+009099999V0202301N001019999999N0000001N9-00331+99999100791ADDGF100991999999999999999999
0029029170999991908032806004+62900+027667FM-12+009099999V0209991C000019999999N0000001N9-01061+99999100401ADDGF108991999999999999999999
0029029170999991908032813004+62900+027667FM-12+009099999V0209991C000019999999N0000001N9-00171+99999100381ADDGF100991999999999999999999
0029029170999991908032820004+62900+027667FM-12+009099999V0209991C000019999999N0000001N9-00561+99999100421ADDGF100991999999999999999999
0029029170999991908032906004+62900+027667FM-12+009099999V0209991C000019999999N0000001N9-00221+99999100311ADDGF100991999999999999999999
0029029170999991908032913004+62900+027667FM-12+009099999V0202301N001019999999N0000001N9+00721+99999100201ADDGF100991999999999999999999
0029029170999991908032920004+62900+027667FM-12+009099999V0202301N001019999999N0000001N9+00391+99999100391ADDGF108991999999999999999999
0029029170999991908033006004+62900+027667FM-12+009099999V0201801N001019999999N0000001N9+00171+99999100391ADDGF100991999999999999999999
0029029170999991908033013004+62900+027667FM-12+009099999V0201801N001019999999N0000001N9+00941+99999100321ADDGF100991999999999999999999
0029029170999991908033020004+62900+027667FM-12+009099999V0202301N001019999999N0000001N9+00391+99999100071ADDGF100991999999999999999999
0029029170999991908033106004+62900+027667FM-12+009099999V0202301N002619999999N0000001N9+00171+99999099761ADDGF108991999999999999999999
0029029170999991908033113004+62900+027667FM-12+009099999V0201801N001019999999N0000001N9+00331+99999099801ADDGF108991999999999999999999
0029029170999991908033120004+62900+027667FM-12+009099999V0209991C000019999999N0000001N9+00001+99999099701ADDGF107991999999999999999999
0029029170999991908040106004+62900+027667FM-12+009099999V0209991C000019999999N0000001N9+00111+99999099711ADDGF101991999999999999999999
0029029170999991908040113004+62900+027667FM-12+009099999V0209991C000019999999N0000001N9+00611+99999099861ADDGF100991999999999999999999
0029029170999991908040120004+62900+027667FM-12+009099999V0209991C000019999999N0000001N9-00111+99999100081ADDGF100991999999999999999999
0029029170999991908040206004+62900+027667FM-12+009099999V0201401N001019999999N0000001N9-00171+99999100191ADDGF108991999999999999999999
0029029170999991908040213004+62900+027667FM-12+009099999V0201601N001019999999N0000001N9+00171+99999100301ADDGF108991999999999999999999
0029029170999991908040220004+62900+027667FM-12+009099999V0209991C000019999999N0000001N9+00001+99999100311ADDGF108991999999999999999999
0029029170999991908040306004+62900+027667FM-12+009099999V0209991C000019999999N0000001N9+00061+99999100321ADDGF108991999999999999999999
0029029170999991908040313004+62900+027667FM-12+009099999V0209991C000019999999N0000001N9+00561+99999100581ADDGF108991999999999999999999
0029029170999991908040320004+62900+027667FM-12+009099999V0209991C000019999999N0000001N9+00001+99999100831ADDGF108991999999999999999999
0029029170999991908040406004+62900+027667FM-12+009099999V0201801N001019999999N0000001N9+00001+99999101121ADDGF108991999999999999999999
0029029170999991908040413004+62900+027667FM-12+009099999V0201801N001019999999N0000001N9+00111+99999101241ADDGF108991999999999999999999
0029029170999991908040420004+62900+027667FM-12+009099999V0209991C000019999999N0000001N9-00221+99999101351ADDGF100991999999999999999999
0029029170999991908040506004+62900+027667FM-12+009099999V0209991C000019999999N0000001N9-00171+99999101391ADDGF108991999999999999999999
0029029170999991908040513004+62900+027667FM-12+009099999V0209991C000019999999N0000001N9+00561+99999101271ADDGF102991999999999999999999
0029029170999991908040520004+62900+027667FM-12+009099999V0209991C000019999999N0000001N9-00061+99999101231ADDGF100991999999999999999999
0029029170999991908040606004+62900+027667FM-12+009099999V0209991C000019999999N0000001N9-00061+99999101101ADDGF100991999999999999999999
0029029170999991908040613004+62900+027667FM-12+009099999V0203201N001019999999N0000001N9+00671+99999101201ADDGF108991999999999999999999
0029029170999991908040620004+62900+027667FM-12+009099999V0209991C000019999999N0000001N9-00061+99999101431ADDGF100991999999999999999999
0029029170999991908040706004+62900+027667FM-12+009099999V0209991C000019999999N0000001N9-00111+99999101721ADDGF108991999999999999999999
0029029170999991908040713004+62900+027667FM-12+009099999V0209991C000019999999N0000001N9+00561+99999101641ADDGF103991999999999999999999
0029029170999991908040720004+62900+027667FM-12+009099999V0209991C000019999999N0000001N9-00061+99999101481ADDGF100991999999999999999999
0029029170999991908040806004+62900+027667FM-12+009099999V0202301N001019999999N0000001N9+00061+99999101041ADDGF100991999999999999999999
0029029170999991908040813004+62900+027667FM-12+009099999V0202301N002619999999N0000001N9+00561+99999100681ADDGF108991999999999999999999
0029029170999991908040820004+62900+027667FM-12+009099999V0202301N002619999999N0000001N9+00281+99999100421ADDGF108991999999999999999999
0029029170999991908040906004+62900+027667FM-12+009099999V0202301N001019999999N0000001N9+00171+99999100081ADDGF108991999999999999999999
0029029170999991908040913004+62900+027667FM-12+009099999V0202301N001019999999N0000001N9+00561+99999099961ADDGF108991999999999999999999
0029029170999991908040920004+62900+027667FM-12+009099999V0202301N001019999999N0000001N9-00111+99999099981ADDGF100991999999999999999999
0029029170999991908041006004+62900+027667FM-12+009099999V0209991C000019999999N0000001N9+00111+99999100271ADDGF100991999999999999999999
0029029170999991908041013004+62900+027667FM-12+009099999V0203201N001019999999N0000001N9+00671+99999100381ADDGF108991999999999999999999
0029029170999991908041020004+62900+027667FM-12+009099999V0209991C000019999999N0000001N9+00171+99999100481ADDGF108991999999999999999999
0029029170999991908041106004+62900+027667FM-12+009099999V0200501N001019999999N0000001N9+00281+99999100631ADDGF108991999999999999999999
0000029170999991908041113004+62900+027667FM-12+009099999V0200501N001019999999N0000001N9+00671+99999100721
0029029170999991908041120004+62900+027667FM-12+009099999V0201401N001019999999N0000001N9+00221+99999100871ADDGF108991999999999999999999
0029029170999991908041206004+62900+027667FM-12+009099999V0200901N001019999999N0000001N9+00061+99999101101ADDGF108991999999999999999999
0029029170999991908041213004+62900+027667FM-12+009099999V0203601N001019999999N0000001N9+00501+99999101081ADDGF106991999999999999999999
0029029170999991908041220004+62900+027667FM-12+009099999V0209991C000019999999N0000001N9-00111+99999101151ADDGF100991999999999999999999
0029029170999991908041306004+62900+027667FM-12+009099999V0203201N001019999999N0000001N9+00111+99999101231ADDGF100991999999999999999999
0029029170999991908041313004+62900+027667FM-12+009099999V0203201N002619999999N0000001N9+00781+99999101271ADDGF100991999999999999999999
0029029170999991908041320004+62900+027667FM-12+009099999V0203601N002619999999N0000001N9+00221+99999101591ADDGF100991999999999999999999
0029029170999991908041406004+62900+027667FM-12+009099999V0209991C000019999999N0000001N9+00061+99999101901ADDGF100991999999999999999999
0029029170999991908041413004+62900+027667FM-12+009099999V0203601N001019999999N0000001N9+00891+99999101741ADDGF100991999999999999999999
0029029170999991908041420004+62900+027667FM-12+009099999V0209991C000019999999N0000001N9+00391+99999101561ADDGF100991999999999999999999
0029029170999991908041506004+62900+027667FM-12+009099999V0209991C000019999999N0000001N9+00171+99999101441ADDGF108991999999999999999999
0029029170999991908041513004+62900+027667FM-12+009099999V0209991C000019999999N0000001N9+00781+99999101321ADDGF100991999999999999999999
0029029170999991908041520004+62900+027667FM-12+009099999V0209991C000019999999N0000001N9+00281+99999101281ADDGF100991999999999999999999
0029029170999991908041606004+62900+027667FM-12+009099999V0202301N001019999999N0000001N9+00441+99999101061ADDGF100991999999999999999999
0029029170999991908041613004+62900+027667FM-12+009099999V0202301N004619999999N0000001N9+00941+99999100671ADDGF100991999999999999999999
0029029170999991908041620004+62900+027667FM-12+009099999V0202301N001019999999N0000001N9+00391+99999100441ADDGF100991999999999999999999
0029029170999991908041706004+62900+027667FM-12+009099999V0202301N001019999999N0000001N9+00221+99999099661ADDGF108991999999999999999999
0029029170999991908041713004+62900+027667FM-12+009099999V0202301N001019999999N0000001N9+00721+99999099321ADDGF106991999999999999999999
0029029170999991908041720004+62900+027667FM-12+009099999V0202701N001019999999N0000001N9+00171+99999099301ADDGF100991999999999999999999
0029029170999991908041806004+62900+027667FM-12+009099999V0209991C000019999999N0000001N9+00001+99999099361ADDGF102991999999999999999999
0029029170999991908041813004+62900+027667FM-12+009099999V0201801N001019999999N0000001N9+00391+99999099271ADDGF108991999999999999999999
0035029170999991908041820004+62900+027667FM-12+009099999V0200501N001019999999N0000001N9+00001+99999098991ADDGF108991999999999999999999MW1901
0035029170999991908041906004+62900+027667FM-12+009099999V0200501N006719999999N0000001N9-00331+99999098541ADDGF108991999999999999999999MW1721
0035029170999991908041913004+62900+027667FM-12+009099999V0200501N006719999999N0000001N9-00281+99999098401ADDGF108991999999999999999999MW1721
0035029170999991908041920004+62900+027667FM-12+009099999V0200501N002619999999N0000001N9-00441+99999098191ADDGF108991999999999999999999MW1721
0029029170999991908042006004+62900+027667FM-12+009099999V0209991C000019999999N0000001N9+00281+99999097421ADDGF108991999999999999999999
0029029170999991908042013004+62900+027667FM-12+009099999V0202301N002619999999N0000001N9+00281+99999097701ADDGF108991999999999999999999
0029029170999991908042020004+62900+027667FM-12+009099999V0202301N002619999999N0000001N9-00281+99999098001ADDGF108991999999999999999999
0029029170999991908042106004+62900+027667FM-12+009099999V0202301N001019999999N0000001N9-00501+99999098481ADDGF108991999999999999999999
0029029170999991908042113004+62900+027667FM-12+009099999V0202301N002619999999N0000001N9+00061+99999098721ADDGF108991999999999999999999
0029029170999991908042120004+62900+027667FM-12+009099999V0202301N002619999999N0000001N9-00171+99999098881ADDGF108991999999999999999999
0029029170999991908042206004+62900+027667FM-12+009099999V0209991C000019999999N0000001N9-00221+99999099161ADDGF108991999999999999999999
0029029170999991908042213004+62900+027667FM-12+009099999V0201801N001019999999N0000001N9+00501+99999098801ADDGF106991999999999999999999
0029029170999991908042220004+62900+027667FM-12+009099999V0201401N002619999999N0000001N9+00171+99999098621ADDGF108991999999999999999999
0035029170999991908042306004+62900+027667FM-12+009099999V0209991C000019999999N0000001N9+00171+99999098631ADDGF108991999999999999999999MW1721
0029029170999991908042313004+62900+027667FM-12+009099999V0201801N002619999999N0000001N9+00221+99999099501ADDGF108991999999999999999999
0029029170999991908042320004+62900+027667FM-12+009099999V0201801N002619999999N0000001N9-00061+99999100161ADDGF100991999999999999999999
0029029170999991908042406004+62900+027667FM-12+009099999V0209991C000019999999N0000001N9-00281+99999100841ADDGF100991999999999999999999
0029029170999991908042413004+62900+027667FM-12+009099999V0201801N001019999999N0000001N9+00611+99999101041ADDGF108991999999999999999999
0029029170999991908042420004+62900+027667FM-12+009099999V0209991C000019999999N0000001N9+00001+99999101321ADDGF108991999999999999999999
0029029170999991908042506004+62900+027667FM-12+009099999V0200901N001019999999N0000001N9+00111+99999101461ADDGF100991999999999999999999
0029029170999991908042513004+62900+027667FM-12+009099999V0200901N001019999999N0000001N9+00501+99999101301ADDGF108991999999999999999999
0029029170999991908042520004+62900+027667FM-12+009099999V0209991C000019999999N0000001N9+00331+99999101201ADDGF108991999999999999999999
0029029170999991908042606004+62900+027667FM-12+009099999V0209991C000019999999N0000001N9+00501+99999100941ADDGF108991999999999999999999
0029029170999991908042613004+62900+027667FM-12+009099999V0201401N001019999999N0000001N9+00891+99999100711ADDGF108991999999999999999999
0029029170999991908042620004+62900+027667FM-12+009099999V0201401N001019999999N0000001N9+00501+99999100681ADDGF108991999999999999999999
0029029170999991908042706004+62900+027667FM-12+009099999V0209991C000019999999N0000001N9+00441+99999100391ADDGF108991999999999999999999
0029029170999991908042713004+62900+027667FM-12+009099999V0209991C000019999999N0000001N9+01061+99999100141ADDGF102991999999999999999999
0029029170999991908042720004+62900+027667FM-12+009099999V0209991C000019999999N0000001N9+00441+99999099961ADDGF100991999999999999999999
0029029170999991908042806004+62900+027667FM-12+009099999V0209991C000019999999N0000001N9+00561+99999099991ADDGF108991999999999999999999
0029029170999991908042813004+62900+027667FM-12+009099999V0200901N001019999999N0000001N9+00781+99999100391ADDGF108991999999999999999999
0029029170999991908042820004+62900+027667FM-12+009099999V0209991C000019999999N0000001N9+00391+99999100701ADDGF108991999999999999999999
0029029170999991908042906004+62900+027667FM-12+009099999V0209991C000019999999N0000001N9+00281+99999100781ADDGF108991999999999999999999
0029029170999991908042913004+62900+027667FM-12+009099999V0200501N001019999999N0000001N9+00671+99999100541ADDGF108991999999999999999999
0029029170999991908042920004+62900+027667FM-12+009099999V0200501N002619999999N0000001N9+00441+99999100391ADDGF108991999999999999999999
0029029170999991908043006004+62900+027667FM-12+009099999V0200501N004619999999N0000001N9+00171+99999100141ADDGF108991999999999999999999
0035029170999991908043013004+62900+027667FM-12+009099999V0203601N002619999999N0000001N9+00171+99999100521ADDGF108991999999999999999999MW1721
0029029170999991908043020004+62900+027667FM-12+009099999V0200501N001019999999N0000001N9+00111+99999100741ADDGF100991999999999999999999
0029029170999991908050106004+62900+027667FM-12+009099999V0200501N001019999999N0000001N9+00061+99999100911ADDGF100991999999999999999999
0029029170999991908050113004+62900+027667FM-12+009099999V0201401N001019999999N0000001N9+00561+99999100721ADDGF100991999999999999999999
0029029170999991908050120004+62900+027667FM-12+009099999V0209991C000019999999N0000001N9+00061+99999100421ADDGF100991999999999999999999
0029029170999991908050206004+62900+027667FM-12+009099999V0203201N001019999999N0000001N9-00111+99999100071ADDGF108991999999999999999999
0029029170999991908050213004+62900+027667FM-12+009099999V0203201N002619999999N0000001N9+00221+99999099951ADDGF108991999999999999999999
0029029170999991908050220004+62900+027667FM-12+009099999V0200501N001019999999N0000001N9-00061+99999099741ADDGF108991999999999999999999
0029029170999991908050306004+62900+027667FM-12+009099999V0200901N001019999999N0000001N9-00171+99999099721ADDGF108991999999999999999999
0029029170999991908050313004+62900+027667FM-12+009099999V0203601N001019999999N0000001N9+00171+99999099721ADDGF108991999999999999999999
0029029170999991908050320004+62900+027667FM-12+009099999V0203201N001019999999N0000001N9-00281+99999099791ADDGF100991999999999999999999
0029029170999991908050406004+62900+027667FM-12+009099999V0203201N001019999999N0000001N9-00171+99999099621ADDGF108991999999999999999999
0035029170999991908050413004+62900+027667FM-12+009099999V0203201N001019999999N0000001N9-00061+99999099641ADDGF108991999999999999999999MW1721
0029029170999991908050420004+62900+027667FM-12+009099999V0203601N001019999999N0000001N9-00221+99999099661ADDGF108991999999999999999999
0029029170999991908050506004+62900+027667FM-12+009099999V0203601N006719999999N0000001N9-00221+99999099661ADDGF108991999999999999999999
0035029170999991908050513004+62900+027667FM-12+009099999V0203601N002619999999N0000001N9-00171+99999099671ADDGF108991999999999999999999MW1721
0035029170999991908050520004+62900+027667FM-12+009099999V0200501N002619999999N0000001N9-00281+99999099841ADDGF108991999999999999999999MW1721
0029029170999991908050606004+62900+027667FM-12+009099999V0200501N002619999999N0000001N9-00281+99999099941ADDGF108991999999999999999999
0029029170999991908050613004+62900+027667FM-12+009099999V0200901N001019999999N0000001N9+00061+99999099991ADDGF108991999999999999999999
0029029170999991908050620004+62900+027667FM-12+009099999V0209991C000019999999N0000001N9-00111+99999999999ADDGF108991999999999999999999
0029029170999991908050706004+62900+027667FM-12+009099999V0209991C000019999999N0000001N9-00281+99999100071ADDGF100991999999999999999999
0029029170999991908050713004+62900+027667FM-12+009099999V0201401N001019999999N0000001N9-00221+99999099921ADDGF100991999999999999999999
0029029170999991908050720004+62900+027667FM-12+009099999V0209991C000019999999N0000001N9-00061+99999099711ADDGF100991999999999999999999
0029029170999991908050806004+62900+027667FM-12+009099999V0201801N001019999999N0000001N9+00221+99999099381ADDGF108991999999999999999999
0035029170999991908050813004+62900+027667FM-12+009099999V0201801N001019999999N0000001N9+00721+99999099121ADDGF108991999999999999999999MW1621
0035029170999991908050820004+62900+027667FM-12+009099999V0209991C000019999999N0000001N9+00281+99999098961ADDGF108991999999999999999999MW1621
0035029170999991908050906004+62900+027667FM-12+009099999V0209991C000019999999N0000001N9+00281+99999098621ADDGF108991999999999999999999MW1621
0035029170999991908050913004+62900+027667FM-12+009099999V0209991C000019999999N0000001N9+00391+99999098541ADDGF108991999999999999999999MW1621
0029029170999991908050920004+62900+027667FM-12+009099999V0209991C000019999999N0000001N9+00281+99999098591ADDGF108991999999999999999999
0029029170999991908051006004+62900+027667FM-12+009099999V0203601N001019999999N0000001N9+00331+99999098581ADDGF108991999999999999999999
0029029170999991908051013004+62900+027667FM-12+009099999V0203201N001019999999N0000001N9+00671+99999098661ADDGF108991999999999999999999
0029029170999991908051020004+62900+027667FM-12+009099999V0209991C000019999999N0000001N9+00221+99999098861ADDGF108991999999999999999999
0029029170999991908051106004+62900+027667FM-12+009099999V0203201N001019999999N0000001N9+00061+99999099201ADDGF100991999999999999999999
0029029170999991908051113004+62900+027667FM-12+009099999V0203201N001019999999N0000001N9+00441+99999099391ADDGF108991999999999999999999
0029029170999991908051120004+62900+027667FM-12+009099999V0203201N001019999999N0000001N9+00111+99999099441ADDGF108991999999999999999999
0029029170999991908051206004+62900+027667FM-12+009099999V0203201N001019999999N0000001N9+00111+99999099551ADDGF100991999999999999999999
0029029170999991908051213004+62900+027667FM-12+009099999V0203201N004619999999N0000001N9+00501+99999099741ADDGF108991999999999999999999
0029029170999991908051220004+62900+027667FM-12+009099999V0209991C000019999999N0000001N9+00061+99999099901ADDGF102991999999999999999999
0029029170999991908051306004+62900+027667FM-12+009099999V0209991C000019999999N0000001N9+00171+99999100101ADDGF100991999999999999999999
0029029170999991908051313004+62900+027667FM-12+009099999V0203201N001019999999N0000001N9+00781+99999100081ADDGF106991999999999999999999
0029029170999991908051320004+62900+027667FM-12+009099999V0209991C000019999999N0000001N9+00061+99999100101ADDGF100991999999999999999999
0029029170999991908051406004+62900+027667FM-12+009099999V0209991C000019999999N0000001N9+00281+99999099941ADDGF100991999999999999999999
0029029170999991908051413004+62900+027667FM-12+009099999V0201401N001019999999N0000001N9+00781+99999099361ADDGF108991999999999999999999
0029029170999991908051420004+62900+027667FM-12+009099999V0200901N002619999999N0000001N9+00441+99999099081ADDGF108991999999999999999999
0029029170999991908051506004+62900+027667FM-12+009099999V0203601N002619999999N0000001N9+00611+99999099511ADDGF100991999999999999999999
0029029170999991908051513004+62900+027667FM-12+009099999V0203201N001019999999N0000001N9+01171+99999099841ADDGF100991999999999999999999
0029029170999991908051520004+62900+027667FM-12+009099999V0209991C000019999999N0000001N9+00781+99999100061ADDGF108991999999999999999999
0029029170999991908051606004+62900+027667FM-12+009099999V0202701N001019999999N0000001N9+00831+99999100071ADDGF108991999999999999999999
0029029170999991908051613004+62900+027667FM-12+009099999V0202701N001019999999N0000001N9+01281+99999099991ADDGF102991999999999999999999
0029029170999991908051620004+62900+027667FM-12+009099999V0209991C000019999999N0000001N9+00611+99999100021ADDGF108991999999999999999999
0029029170999991908051706004+62900+027667FM-12+009099999V0209991C000019999999N0000001N9+00671+99999099991ADDGF108991999999999999999999
0029029170999991908051713004+62900+027667FM-12+009099999V0203601N001019999999N0000001N9+01221+99999100141ADDGF102991999999999999999999
0029029170999991908051720004+62900+027667FM-12+009099999V0209991C000019999999N0000001N9+00671+99999100311ADDGF100991999999999999999999
0029029170999991908051806004+62900+027667FM-12+009099999V0202301N001019999999N0000001N9+00831+99999100161ADDGF100991999999999999999999
0029029170999991908051813004+62900+027667FM-12+009099999V0202301N002619999999N0000001N9+01391+99999099631ADDGF108991999999999999999999
0029029170999991908051820004+62900+027667FM-12+009099999V0209991C000019999999N0000001N9+00721+99999099231ADDGF108991999999999999999999
0029029170999991908051906004+62900+027667FM-12+009099999V0203601N001019999999N0000001N9+00721+99999099181ADDGF100991999999999999999999
0029029170999991908051913004+62900+027667FM-12+009099999V0203201N002619999999N0000001N9+01331+99999099391ADDGF108991999999999999999999
0029029170999991908051920004+62900+027667FM-12+009099999V0202701N001019999999N0000001N9+00831+99999099621ADDGF106991999999999999999999
0029029170999991908052006004+62900+027667FM-12+009099999V0202301N001019999999N0000001N9+00941+99999099781ADDGF100991999999999999999999
0029029170999991908052013004+62900+027667FM-12+009099999V0203201N001019999999N0000001N9+01441+99999099701ADDGF102991999999999999999999
0029029170999991908052020004+62900+027667FM-12+009099999V0209991C000019999999N0000001N9+00781+99999099781ADDGF108991999999999999999999
0029029170999991908052106004+62900+027667FM-12+009099999V0203601N001019999999N0000001N9+01061+99999099881ADDGF107991999999999999999999
0035029170999991908052113004+62900+027667FM-12+009099999V0202701N001019999999N0000001N9+00941+99999100101ADDGF108991999999999999999999MW1621
0029029170999991908052120004+62900+027667FM-12+009099999V0202301N001019999999N0000001N9+00721+99999100441ADDGF100991999999999999999999
0029029170999991908052206004+62900+027667FM-12+009099999V0202301N001019999999N0000001N9+00831+99999100741ADDGF100991999999999999999999
0029029170999991908052213004+62900+027667FM-12+009099999V0201801N001019999999N0000001N9+01671+99999100751ADDGF102991999999999999999999
0029029170999991908052220004+62900+027667FM-12+009099999V0209991C000019999999N0000001N9+00941+99999100641ADDGF108991999999999999999999
0029029170999991908052306004+62900+027667FM-12+009099999V0201801N001019999999N0000001N9+01061+99999099881ADDGF108991999999999999999999
0035029170999991908052313004+62900+027667FM-12+009099999V0209991C000019999999N0000001N9+00891+99999099581ADDGF108991999999999999999999MW1621
0029029170999991908052320004+62900+027667FM-12+009099999V0202301N002619999999N0000001N9+00831+99999099391ADDGF100991999999999999999999
0029029170999991908052406004+62900+027667FM-12+009099999V0202701N004619999999N0000001N9+00831+99999099841ADDGF101991999999999999999999
0029029170999991908052413004+62900+027667FM-12+009099999V0203201N002619999999N0000001N9+01441+99999100181ADDGF100991999999999999999999
0029029170999991908052420004+62900+027667FM-12+009099999V0209991C000019999999N0000001N9+00831+99999100441ADDGF100991999999999999999999
0029029170999991908052506004+62900+027667FM-12+009099999V0209991C000019999999N0000001N9+01001+99999100781ADDGF100991999999999999999999
0029029170999991908052513004+62900+027667FM-12+009099999V0203201N001019999999N0000001N9+01501+99999100751ADDGF100991999999999999999999
0029029170999991908052520004+62900+027667FM-12+009099999V0209991C000019999999N0000001N9+01001+99999100701ADDGF108991999999999999999999
0029029170999991908052606004+62900+027667FM-12+009099999V0209991C000019999999N0000001N9+01221+99999100801ADDGF100991999999999999999999
0029029170999991908052613004+62900+027667FM-12+009099999V0201401N001019999999N0000001N9+01831+99999100631ADDGF100991999999999999999999
0029029170999991908052620004+62900+027667FM-12+009099999V0209991C000019999999N0000001N9+01221+99999100781ADDGF108991999999999999999999
0035029170999991908052706004+62900+027667FM-12+009099999V0209991C000019999999N0000001N9+00781+99999101101ADDGF108991999999999999999999MW1621
0029029170999991908052713004+62900+027667FM-12+009099999V0209991C000019999999N0000001N9+01061+99999101311ADDGF108991999999999999999999
0029029170999991908052720004+62900+027667FM-12+009099999V0209991C000019999999N0000001N9+01001+99999101391ADDGF100991999999999999999999
0029029170999991908052806004+62900+027667FM-12+009099999V0202301N001019999999N0000001N9+01221+99999101511ADDGF100991999999999999999999
0029029170999991908052813004+62900+027667FM-12+009099999V0202301N004619999999N0000001N9+01561+99999101591ADDGF100991999999999999999999
0029029170999991908052820004+62900+027667FM-12+009099999V0209991C000019999999N0000001N9+01061+99999101741ADDGF100991999999999999999999
0029029170999991908052906004+62900+027667FM-12+009099999V0203601N001019999999N0000001N9+01221+99999101661ADDGF100991999999999999999999
0029029170999991908052913004+62900+027667FM-12+009099999V0203201N004619999999N0000001N9+01671+99999101741ADDGF100991999999999999999999
0029029170999991908052920004+62900+027667FM-12+009099999V0209991C000019999999N0000001N9+01171+99999101901ADDGF100991999999999999999999
0029029170999991908053006004+62900+027667FM-12+009099999V02099999999999999999N0000001N9+01281+99999101991ADDGF108991999999999999999999
0029029170999991908053013004+62900+027667FM-12+009099999V0203201N002619999999N0000001N9+02061+99999101581ADDGF101991999999999999999999
0029029170999991908053020004+62900+027667FM-12+009099999V0209991C000019999999N0000001N9+01671+99999101381ADDGF100991999999999999999999
0029029170999991908053106004+62900+027667FM-12+009099999V0202301N001019999999N0000001N9+01721+99999101161ADDGF100991999999999999999999
0029029170999991908053113004+62900+027667FM-12+009099999V0202301N004619999999N0000001N9+02671+99999100791ADDGF100991999999999999999999
0029029170999991908053120004+62900+027667FM-12+009099999V0202301N001019999999N0000001N9+02061+99999100311ADDGF100991999999999999999999
0029029170999991908060106004+62900+027667FM-12+009099999V0209991C000019999999N0000001N9+01561+99999100031ADDGF108991999999999999999999
0029029170999991908060113004+62900+027667FM-12+009099999V0209991C000019999999N0000001N9+01721+99999099821ADDGF106991999999999999999999
0029029170999991908060120004+62900+027667FM-12+009099999V0203601N001019999999N0000001N9+01221+99999099941ADDGF102991999999999999999999
0029029170999991908060206004+62900+027667FM-12+009099999V0200501N004619999999N0000001N9+00721+99999100591ADDGF102991999999999999999999
0029029170999991908060213004+62900+027667FM-12+009099999V0203601N004619999999N0000001N9+01111+99999100751ADDGF102991999999999999999999
0029029170999991908060220004+62900+027667FM-12+009099999V0209991C000019999999N0000001N9+00671+99999100901ADDGF106991999999999999999999
0029029170999991908060306004+62900+027667FM-12+009099999V0203601N001019999999N0000001N9+00611+99999101261ADDGF101991999999999999999999
0029029170999991908060313004+62900+027667FM-12+009099999V0203201N001019999999N0000001N9+01061+99999101081ADDGF108991999999999999999999
0029029170999991908060320004+62900+027667FM-12+009099999V0209991C000019999999N0000001N9+00781+99999100981ADDGF107991999999999999999999
0029029170999991908060406004+62900+027667FM-12+009099999V0209991C000019999999N0000001N9+01001+99999100391ADDGF107991999999999999999999
0035029170999991908060413004+62900+027667FM-12+009099999V0202701N001019999999N0000001N9+01221+99999099351ADDGF108991999999999999999999MW1601
0029029170999991908060420004+62900+027667FM-12+009099999V0203201N001019999999N0000001N9+00781+99999099081ADDGF104991999999999999999999
0029029170999991908060506004+62900+027667FM-12+009099999V0203601N002619999999N0000001N9+00391+99999099361ADDGF102991999999999999999999
0029029170999991908060513004+62900+027667FM-12+009099999V0200501N002619999999N0000001N9+00891+99999099321ADDGF102991999999999999999999
0029029170999991908060520004+62900+027667FM-12+009099999V0209991C000019999999N0000001N9+00611+99999099181ADDGF102991999999999999999999
0029029170999991908060606004+62900+027667FM-12+009099999V0201401N001019999999N0000001N9+00781+99999099071ADDGF105991999999999999999999
0029029170999991908060613004+62900+027667FM-12+009099999V0200701N002619999999N0000001N9+00891+99999099041ADDGF108991999999999999999999
0029029170999991908060620004+62900+027667FM-12+009099999V0209991C000019999999N0000001N9+00611+99999099151ADDGF108991999999999999999999
0029029170999991908060706004+62900+027667FM-12+009099999V0209991C000019999999N0000001N9+00671+99999099481ADDGF107991999999999999999999
0029029170999991908060713004+62900+027667FM-12+009099999V0209991C000019999999N0000001N9+01001+99999099701ADDGF106991999999999999999999
0029029170999991908060720004+62900+027667FM-12+009099999V0209991C000019999999N0000001N9+00671+99999099901ADDGF101991999999999999999999
0029029170999991908060806004+62900+027667FM-12+009099999V0209991C000019999999N0000001N9+00941+99999100081ADDGF107991999999999999999999
0029029170999991908060813004+62900+027667FM-12+009099999V0201401N001019999999N0000001N9+01281+99999100201ADDGF108991999999999999999999
0029029170999991908060820004+62900+027667FM-12+009099999V0209991C000019999999N0000001N9+00941+99999100341ADDGF106991999999999999999999
0029029170999991908060906004+62900+027667FM-12+009099999V0209991C000019999999N0000001N9+01001+99999100541ADDGF102991999999999999999999
0029029170999991908060913004+62900+027667FM-12+009099999V0209991C000019999999N0000001N9+01221+99999100671ADDGF106991999999999999999999
0029029170999991908060920004+62900+027667FM-12+009099999V0209991C000019999999N0000001N9+00891+99999100861ADDGF102991999999999999999999
0029029170999991908061006004+62900+027667FM-12+009099999V0209991C000019999999N0000001N9+01221+99999100941ADDGF102991999999999999999999
0029029170999991908061013004+62900+027667FM-12+009099999V0209991C000019999999N0000001N9+01441+99999100821ADDGF107991999999999999999999
0035029170999991908061020004+62900+027667FM-12+009099999V0209991C000019999999N0000001N9+01001+99999100861ADDGF108991999999999999999999MW1621
0029029170999991908061106004+62900+027667FM-12+009099999V0209991C000019999999N0000001N9+01111+99999100881ADDGF103991999999999999999999
0029029170999991908061113004+62900+027667FM-12+009099999V0209991C000019999999N0000001N9+01501+99999100871ADDGF104991999999999999999999
0029029170999991908061120004+62900+027667FM-12+009099999V0209991C000019999999N0000001N9+01171+99999100921ADDGF100991999999999999999999
0029029170999991908061206004+62900+027667FM-12+009099999V0209991C000019999999N0000001N9+01441+99999100951ADDGF100991999999999999999999
0029029170999991908061213004+62900+027667FM-12+009099999V0201401N001019999999N0000001N9+01941+99999100741ADDGF102991999999999999999999
0029029170999991908061220004+62900+027667FM-12+009099999V0209991C000019999999N0000001N9+01611+99999100581ADDGF100991999999999999999999
0029029170999991908061306004+62900+027667FM-12+009099999V0209991C000019999999N0000001N9+01611+99999100521ADDGF102991999999999999999999
0029029170999991908061313004+62900+027667FM-12+009099999V0201801N004619999999N0000001N9+02171+99999100401ADDGF102991999999999999999999
0029029170999991908061320004+62900+027667FM-12+009099999V0209991C000019999999N0000001N9+01561+99999100321ADDGF102991999999999999999999
0029029170999991908061406004+62900+027667FM-12+009099999V0209991C000019999999N0000001N9+01671+99999100201ADDGF101991999999999999999999
0029029170999991908061413004+62900+027667FM-12+009099999V0201801N004619999999N0000001N9+02221+99999099911ADDGF105991999999999999999999
0029029170999991908061420004+62900+027667FM-12+009099999V0209991C000019999999N0000001N9+01561+99999099791ADDGF108991999999999999999999
0029029170999991908061506004+62900+027667FM-12+009099999V0209991C000019999999N0000001N9+01441+99999099121ADDGF108991999999999999999999
0029029170999991908061513004+62900+027667FM-12+009099999V0202301N004619999999N0000001N9+01721+99999099221ADDGF107991999999999999999999
0029029170999991908061520004+62900+027667FM-12+009099999V0209991C000019999999N0000001N9+01281+99999099941ADDGF100991999999999999999999
0029029170999991908061606004+62900+027667FM-12+009099999V0209991C000019999999N0000001N9+01331+99999100441ADDGF100991999999999999999999
0029029170999991908061613004+62900+027667FM-12+009099999V0202301N002619999999N0000001N9+01941+99999100471ADDGF107991999999999999999999
0029029170999991908061620004+62900+027667FM-12+009099999V0209991C000019999999N0000001N9+01561+99999100601ADDGF100991999999999999999999
0029029170999991908061706004+62900+027667FM-12+009099999V0202301N009319999999N0000001N9+01501+99999100561ADDGF106991999999999999999999
0029029170999991908061713004+62900+027667FM-12+009099999V0202301N012319999999N0000001N9+02281+99999100261ADDGF102991999999999999999999
0029029170999991908061720004+62900+027667FM-12+009099999V0202301N002619999999N0000001N9+02001+99999100161ADDGF108991999999999999999999
0029029170999991908061806004+62900+027667FM-12+009099999V0209991C000019999999N0000001N9+01441+99999100361ADDGF108991999999999999999999
0029029170999991908061813004+62900+027667FM-12+009099999V0209991C000019999999N0000001N9+02441+99999100241ADDGF106991999999999999999999
0029029170999991908061820004+62900+027667FM-12+009099999V0209991C000019999999N0000001N9+02111+99999099951ADDGF101991999999999999999999
0029029170999991908061906004+62900+027667FM-12+009099999V0209991C000019999999N0000001N9+02061+99999099801ADDGF105991999999999999999999
0029029170999991908061913004+62900+027667FM-12+009099999V0202001N006719999999N0000001N9+02831+99999099521ADDGF106991999999999999999999
0029029170999991908061920004+62900+027667FM-12+009099999V0202301N002619999999N0000001N9+02111+99999099521ADDGF102991999999999999999999
0029029170999991908062006004+62900+027667FM-12+009099999V0209991C000019999999N0000001N9+01781+99999099601ADDGF108991999999999999999999
0029029170999991908062013004+62900+027667FM-12+009099999V0209991C000019999999N0000001N9+02061+99999099241ADDGF108991999999999999999999
0029029170999991908062020004+62900+027667FM-12+009099999V0202301N004619999999N0000001N9+01831+99999098921ADDGF108991999999999999999999
0029029170999991908062106004+62900+027667FM-12+009099999V0203201N009319999999N0000001N9+00781+99999099761ADDGF108991999999999999999999
0029029170999991908062113004+62900+027667FM-12+009099999V0203201N012319999999N0000001N9+01331+99999100621ADDGF106991999999999999999999
0029029170999991908062120004+62900+027667FM-12+009099999V0209991C000019999999N0000001N9+01001+99999101141ADDGF100991999999999999999999
0029029170999991908062206004+62900+027667FM-12+009099999V0209991C000019999999N0000001N9+01171+99999101761ADDGF107991999999999999999999
0029029170999991908062213004+62900+027667FM-12+009099999V0209991C000019999999N0000001N9+01561+99999101711ADDGF105991999999999999999999
0029029170999991908062220004+62900+027667FM-12+009099999V0209991C000019999999N0000001N9+01171+99999101761ADDGF103991999999999999999999
0029029170999991908062306004+62900+027667FM-12+009099999V0209991C000019999999N0000001N9+01561+99999101961ADDGF108991999999999999999999
0029029170999991908062313004+62900+027667FM-12+009099999V0209991C000019999999N0000001N9+02061+99999101801ADDGF101991999999999999999999
0029029170999991908062320004+62900+027667FM-12+009099999V0209991C000019999999N0000001N9+01831+99999101751ADDGF100991999999999999999999
0029029170999991908062406004+62900+027667FM-12+009099999V0202701N001019999999N0000001N9+01831+99999101751ADDGF106991999999999999999999
0029029170999991908062413004+62900+027667FM-12+009099999V0202501N001019999999N0000001N9+02171+99999101431ADDGF102991999999999999999999
0029029170999991908062420004+62900+027667FM-12+009099999V0209991C000019999999N0000001N9+01721+99999101161ADDGF100991999999999999999999
0029029170999991908062506004+62900+027667FM-12+009099999V0209991C000019999999N0000001N9+01781+99999100981ADDGF105991999999999999999999
0029029170999991908062513004+62900+027667FM-12+009099999V0201401N001019999999N0000001N9+02331+99999100541ADDGF102991999999999999999999
0029029170999991908062520004+62900+027667FM-12+009099999V0209991C000019999999N0000001N9+02061+99999100201ADDGF106991999999999999999999
0029029170999991908062606004+62900+027667FM-12+009099999V0201601N001019999999N0000001N9+01671+99999099641ADDGF107991999999999999999999
0035029170999991908062613004+62900+027667FM-12+009099999V0203201N001019999999N0000001N9+01721+99999099421ADDGF108991999999999999999999MW1601
0029029170999991908062620004+62900+027667FM-12+009099999V0209991C000019999999N0000001N9+01221+99999099321ADDGF108991999999999999999999
0035029170999991908062706004+62900+027667FM-12+009099999V0203601N004619999999N0000001N9+01281+99999099031ADDGF108991999999999999999999MW1621
0035029170999991908062713004+62900+027667FM-12+009099999V0203201N012319999999N0000001N9+01171+99999099201ADDGF108991999999999999999999MW1621
0029029170999991908062720004+62900+027667FM-12+009099999V0203201N009319999999N0000001N9+01171+99999099841ADDGF108991999999999999999999
0029029170999991908062806004+62900+027667FM-12+009099999V0203401N001019999999N0000001N9+01061+99999100031ADDGF108991999999999999999999
0029029170999991908062813004+62900+027667FM-12+009099999V0202901N001019999999N0000001N9+01831+99999099751ADDGF102991999999999999999999
0029029170999991908062820004+62900+027667FM-12+009099999V0209991C000019999999N0000001N9+01441+99999099661ADDGF106991999999999999999999
0029029170999991908062906004+62900+027667FM-12+009099999V0203601N002619999999N0000001N9+01331+99999099421ADDGF107991999999999999999999
0029029170999991908062913004+62900+027667FM-12+009099999V0203601N006719999999N0000001N9+01171+99999099681ADDGF108991999999999999999999
0029029170999991908062920004+62900+027667FM-12+009099999V0200501N004619999999N0000001N9+00941+99999099961ADDGF108991999999999999999999
0029029170999991908063006004+62900+027667FM-12+009099999V0203601N002619999999N0000001N9+00671+99999100021ADDGF108991999999999999999999
0029029170999991908063013004+62900+027667FM-12+009099999V0203201N006719999999N0000001N9+01001+99999100241ADDGF108991999999999999999999
0029029170999991908063020004+62900+027667FM-12+009099999V0203601N001019999999N0000001N9+00721+99999100261ADDGF107991999999999999999999
0029029170999991908070106004+62900+027667FM-12+009099999V0203601N004619999999N0000001N9+00721+99999100241ADDGF108991999999999999999999
0029029170999991908070113004+62900+027667FM-12+009099999V0203601N006719999999N0000001N9+00831+99999100311ADDGF108991999999999999999999
0029029170999991908070120004+62900+027667FM-12+009099999V0203401N001019999999N0000001N9+00941+99999100241ADDGF106991999999999999999999
0035029170999991908070206004+62900+027667FM-12+009099999V0203601N006719999999N0000001N9+00561+99999099911ADDGF108991999999999999999999MW1621
0029029170999991908070213004+62900+027667FM-12+009099999V0203601N004619999999N0000001N9+00671+99999099621ADDGF108991999999999999999999
0029029170999991908070220004+62900+027667FM-12+009099999V0200501N004619999999N0000001N9+00721+99999099541ADDGF108991999999999999999999
0035029170999991908070306004+62900+027667FM-12+009099999V0203601N004619999999N0000001N9+00611+99999099101ADDGF108991999999999999999999MW1621
0035029170999991908070313004+62900+027667FM-12+009099999V0203601N002619999999N0000001N9+00831+99999099071ADDGF108991999999999999999999MW1621
0035029170999991908070320004+62900+027667FM-12+009099999V0200501N002619999999N0000001N9+00721+99999099181ADDGF108991999999999999999999MW1621
0029029170999991908070406004+62900+027667FM-12+009099999V0200501N002619999999N0000001N9+00941+99999099221ADDGF108991999999999999999999
0029029170999991908070413004+62900+027667FM-12+009099999V0200701N002619999999N0000001N9+01001+99999099311ADDGF108991999999999999999999
0029029170999991908070420004+62900+027667FM-12+009099999V0200701N002619999999N0000001N9+00891+99999099431ADDGF108991999999999999999999
0029029170999991908070506004+62900+027667FM-12+009099999V0200701N002619999999N0000001N9+00781+99999099541ADDGF108991999999999999999999
0029029170999991908070513004+62900+027667FM-12+009099999V0200501N001019999999N0000001N9+01441+99999099541ADDGF107991999999999999999999
0029029170999991908070520004+62900+027667FM-12+009099999V0200501N001019999999N0000001N9+01001+99999099601ADDGF108991999999999999999999
0029029170999991908070606004+62900+027667FM-12+009099999V0200501N001019999999N0000001N9+00721+99999099471ADDGF108991999999999999999999
0029029170999991908070613004+62900+027667FM-12+009099999V0200501N001019999999N0000001N9+00781+99999099601ADDGF108991999999999999999999
0029029170999991908070620004+62900+027667FM-12+009099999V0209991C000019999999N0000001N9+00611+99999099671ADDGF108991999999999999999999
0029029170999991908070706004+62900+027667FM-12+009099999V0201101N001019999999N0000001N9+00441+99999099541ADDGF108991999999999999999999
0035029170999991908070713004+62900+027667FM-12+009099999V0200901N002619999999N0000001N9+00671+99999099701ADDGF108991999999999999999999MW1601
0029029170999991908070720004+62900+027667FM-12+009099999V0209991C000019999999N0000001N9+00611+99999099711ADDGF108991999999999999999999
0029029170999991908070806004+62900+027667FM-12+009099999V0209991C000019999999N0000001N9+00781+99999099781ADDGF104991999999999999999999
0029029170999991908070813004+62900+027667FM-12+009099999V0200201N001019999999N0000001N9+01391+99999099661ADDGF103991999999999999999999
0029029170999991908070820004+62900+027667FM-12+009099999V0209991C000019999999N0000001N9+01061+99999099601ADDGF102991999999999999999999
0029029170999991908070906004+62900+027667FM-12+009099999V0209991C000019999999N0000001N9+01331+99999099581ADDGF108991999999999999999999
0029029170999991908070913004+62900+027667FM-12+009099999V0209991C000019999999N0000001N9+01781+99999099511ADDGF108991999999999999999999
0029029170999991908070920004+62900+027667FM-12+009099999V0209991C000019999999N0000001N9+01331+99999099431ADDGF108991999999999999999999
0029029170999991908071006004+62900+027667FM-12+009099999V0209991C000019999999N0000001N9+01441+99999099391ADDGF107991999999999999999999
0029029170999991908071013004+62900+027667FM-12+009099999V0209991C000019999999N0000001N9+01891+99999099301ADDGF105991999999999999999999
0029029170999991908071020004+62900+027667FM-12+009099999V0202001N001019999999N0000001N9+01441+99999099271ADDGF107991999999999999999999
0029029170999991908071106004+62900+027667FM-12+009099999V0202701N001019999999N0000001N9+01501+99999099361ADDGF103991999999999999999999
0029029170999991908071113004+62900+027667FM-12+009099999V0201401N001019999999N0000001N9+01831+99999099271ADDGF102991999999999999999999
0029029170999991908071120004+62900+027667FM-12+009099999V0202301N001019999999N0000001N9+01331+99999099271ADDGF108991999999999999999999
0029029170999991908071206004+62900+027667FM-12+009099999V0209991C000019999999N0000001N9+01501+99999099501ADDGF107991999999999999999999
0029029170999991908071213004+62900+027667FM-12+009099999V0209991C000019999999N0000001N9+02061+99999099501ADDGF104991999999999999999999
0029029170999991908071220004+62900+027667FM-12+009099999V0209991C000019999999N0000001N9+01501+99999099501ADDGF108991999999999999999999
0029029170999991908071306004+62900+027667FM-12+009099999V0209991C000019999999N0000001N9+01331+99999099361ADDGF108991999999999999999999
0029029170999991908071313004+62900+027667FM-12+009099999V0209991C000019999999N0000001N9+01671+99999099301ADDGF108991999999999999999999
0029029170999991908071320004+62900+027667FM-12+009099999V0209991C000019999999N0000001N9+01561+99999099351ADDGF106991999999999999999999
0029029170999991908071406004+62900+027667FM-12+009099999V0209991C000019999999N0000001N9+01561+99999099621ADDGF108991999999999999999999
0029029170999991908071413004+62900+027667FM-12+009099999V0201101N001019999999N0000001N9+02001+99999099681ADDGF102991999999999999999999
0029029170999991908071420004+62900+027667FM-12+009099999V0209991C000019999999N0000001N9+01781+99999099721ADDGF104991999999999999999999
0035029170999991908071506004+62900+027667FM-12+009099999V0209991C000019999999N0000001N9+01441+99999099621ADDGF108991999999999999999999MW1601
0029029170999991908071513004+62900+027667FM-12+009099999V0202301N001019999999N0000001N9+01561+99999099661ADDGF108991999999999999999999
0029029170999991908071520004+62900+027667FM-12+009099999V0209991C000019999999N0000001N9+01441+99999099861ADDGF106991999999999999999999
0029029170999991908071606004+62900+027667FM-12+009099999V0209991C000019999999N0000001N9+01721+99999099991ADDGF101991999999999999999999
0029029170999991908071613004+62900+027667FM-12+009099999V0201801N001019999999N0000001N9+02281+99999099961ADDGF106991999999999999999999
0029029170999991908071620004+62900+027667FM-12+009099999V0209991C000019999999N0000001N9+01781+99999099951ADDGF106991999999999999999999
0029029170999991908071706004+62900+027667FM-12+009099999V0209991C000019999999N0000001N9+01671+99999100071ADDGF100991999999999999999999
0029029170999991908071713004+62900+027667FM-12+009099999V0202301N001019999999N0000001N9+02171+99999100151ADDGF105991999999999999999999
0029029170999991908071720004+62900+027667FM-12+009099999V0209991C000019999999N0000001N9+01611+99999100311ADDGF103991999999999999999999
0029029170999991908071806004+62900+027667FM-12+009099999V0209991C000019999999N0000001N9+01781+99999100661ADDGF106991999999999999999999
0029029170999991908071813004+62900+027667FM-12+009099999V0201401N001019999999N0000001N9+02331+99999100801ADDGF105991999999999999999999
0029029170999991908071820004+62900+027667FM-12+009099999V0209991C000019999999N0000001N9+01781+99999100841ADDGF101991999999999999999999
0029029170999991908071906004+62900+027667FM-12+009099999V0209991C000019999999N0000001N9+02061+99999100911ADDGF101991999999999999999999
0029029170999991908071913004+62900+027667FM-12+009099999V0201401N001019999999N0000001N9+02501+99999100701ADDGF102991999999999999999999
0029029170999991908071920004+62900+027667FM-12+009099999V0209991C000019999999N0000001N9+02171+99999100481ADDGF106991999999999999999999
0029029170999991908072006004+62900+027667FM-12+009099999V0209991C000019999999N0000001N9+02171+99999100301ADDGF101991999999999999999999
0035029170999991908072013004+62900+027667FM-12+009099999V0209991C000019999999N0000001N9+02441+99999099981ADDGF108991999999999999999999MW1951
0035029170999991908072020004+62900+027667FM-12+009099999V0209991C000019999999N0000001N9+01891+99999100071ADDGF108991999999999999999999MW1951
0029029170999991908072106004+62900+027667FM-12+009099999V0202001N002619999999N0000001N9+02001+99999099621ADDGF108991999999999999999999
0029029170999991908072113004+62900+027667FM-12+009099999V0201401N001019999999N0000001N9+02611+99999099301ADDGF106991999999999999999999
0029029170999991908072206004+62900+027667FM-12+009099999V0209991C000019999999N0000001N9+01611+99999099871ADDGF102991999999999999999999
0029029170999991908072213004+62900+027667FM-12+009099999V0203201N002619999999N0000001N9+01941+99999100101ADDGF104991999999999999999999
0029029170999991908072220004+62900+027667FM-12+009099999V0200201N001019999999N0000001N9+01441+99999100511ADDGF101991999999999999999999
0029029170999991908072306004+62900+027667FM-12+009099999V0200201N001019999999N0000001N9+01441+99999100981ADDGF100991999999999999999999
0029029170999991908072313004+62900+027667FM-12+009099999V0209991C000019999999N0000001N9+01831+99999101101ADDGF105991999999999999999999
0029029170999991908072320004+62900+027667FM-12+009099999V0209991C000019999999N0000001N9+01501+99999101141ADDGF102991999999999999999999
0029029170999991908072406004+62900+027667FM-12+009099999V0209991C000019999999N0000001N9+01781+99999101391ADDGF100991999999999999999999
0029029170999991908072413004+62900+027667FM-12+009099999V0209991C000019999999N0000001N9+02171+99999101551ADDGF100991999999999999999999
0029029170999991908072420004+62900+027667FM-12+009099999V0209991C000019999999N0000001N9+01781+99999101361ADDGF100991999999999999999999
0029029170999991908072506004+62900+027667FM-12+009099999V0209991C000019999999N0000001N9+01941+99999101591ADDGF102991999999999999999999
0029029170999991908072513004+62900+027667FM-12+009099999V0201401N001019999999N0000001N9+02281+99999101641ADDGF102991999999999999999999
0029029170999991908072520004+62900+027667FM-12+009099999V0209991C000019999999N0000001N9+01831+99999101551ADDGF101991999999999999999999
0029029170999991908072606004+62900+027667FM-12+009099999V0209991C000019999999N0000001N9+02111+99999101701ADDGF100991999999999999999999
0029029170999991908072613004+62900+027667FM-12+009099999V0201401N001019999999N0000001N9+02611+99999101631ADDGF101991999999999999999999
0029029170999991908072620004+62900+027667FM-12+009099999V0209991C000019999999N0000001N9+02061+99999101481ADDGF102991999999999999999999
0029029170999991908072706004+62900+027667FM-12+009099999V0201401N001019999999N0000001N9+02111+99999101601ADDGF102991999999999999999999
0029029170999991908072713004+62900+027667FM-12+009099999V0201401N001019999999N0000001N9+02671+99999101561ADDGF102991999999999999999999
0029029170999991908072720004+62900+027667FM-12+009099999V0209991C000019999999N0000001N9+02171+99999101471ADDGF101991999999999999999999
0029029170999991908072806004+62900+027667FM-12+009099999V0209991C000019999999N0000001N9+02221+99999101511ADDGF101991999999999999999999
0029029170999991908072813004+62900+027667FM-12+009099999V0209991C000019999999N0000001N9+02671+99999101471ADDGF105991999999999999999999
0029029170999991908072820004+62900+027667FM-12+009099999V0209991C000019999999N0000001N9+02061+99999101221ADDGF100991999999999999999999
0029029170999991908072906004+62900+027667FM-12+009099999V0209991C000019999999N0000001N9+02171+99999101121ADDGF101991999999999999999999
0029029170999991908072913004+62900+027667FM-12+009099999V0202901N001019999999N0000001N9+02781+99999100981ADDGF103991999999999999999999
0029029170999991908072920004+62900+027667FM-12+009099999V0209991C000019999999N0000001N9+02111+99999100881ADDGF102991999999999999999999
0029029170999991908073006004+62900+027667FM-12+009099999V0203201N001019999999N0000001N9+01831+99999100951ADDGF102991999999999999999999
0029029170999991908073013004+62900+027667FM-12+009099999V0202701N004619999999N0000001N9+02281+99999100801ADDGF101991999999999999999999
0029029170999991908073020004+62900+027667FM-12+009099999V0209991C000019999999N0000001N9+01781+99999100321ADDGF102991999999999999999999
0029029170999991908073106004+62900+027667FM-12+009099999V0209991C000019999999N0000001N9+02061+99999099701ADDGF103991999999999999999999
0029029170999991908073113004+62900+027667FM-12+009099999V0202001N004619999999N0000001N9+02501+99999099441ADDGF108991999999999999999999
0029029170999991908073120004+62900+027667FM-12+009099999V0209991C000019999999N0000001N9+01611+99999099551ADDGF103991999999999999999999
0029029170999991908080106004+62900+027667FM-12+009099999V0209991C000019999999N0000001N9+01501+99999099281ADDGF108991999999999999999999
0029029170999991908080113004+62900+027667FM-12+009099999V0209991C000019999999N0000001N9+01891+99999099421ADDGF108991999999999999999999
0029029170999991908080120004+62900+027667FM-12+009099999V0209991C000019999999N0000001N9+01611+99999099821ADDGF106991999999999999999999
0029029170999991908080206004+62900+027667FM-12+009099999V0209991C000019999999N0000001N9+01501+99999099881ADDGF108991999999999999999999
0029029170999991908080213004+62900+027667FM-12+009099999V0201401N001019999999N0000001N9+02281+99999099721ADDGF104991999999999999999999
0029029170999991908080220004+62900+027667FM-12+009099999V0209991C000019999999N0000001N9+01831+99999099861ADDGF102991999999999999999999
0029029170999991908080306004+62900+027667FM-12+009099999V0209991C000019999999N0000001N9+02111+99999099711ADDGF102991999999999999999999
0029029170999991908080313004+62900+027667FM-12+009099999V0209991C000019999999N0000001N9+02171+99999099581ADDGF107991999999999999999999
0029029170999991908080320004+62900+027667FM-12+009099999V0200901N001019999999N0000001N9+02061+99999099591ADDGF106991999999999999999999
0029029170999991908080406004+62900+027667FM-12+009099999V0200901N001019999999N0000001N9+01721+99999099311ADDGF100991999999999999999999
0029029170999991908080413004+62900+027667FM-12+009099999V0200501N004619999999N0000001N9+02171+99999099231ADDGF102991999999999999999999
0029029170999991908080420004+62900+027667FM-12+009099999V0203601N001019999999N0000001N9+01671+99999099341ADDGF101991999999999999999999
0029029170999991908080506004+62900+027667FM-12+009099999V0203601N004619999999N0000001N9+01561+99999099311ADDGF101991999999999999999999
0029029170999991908080513004+62900+027667FM-12+009099999V0203601N004619999999N0000001N9+01781+99999099391ADDGF105991999999999999999999
0029029170999991908080520004+62900+027667FM-12+009099999V0200501N002619999999N0000001N9+01611+99999099471ADDGF102991999999999999999999
0029029170999991908080606004+62900+027667FM-12+009099999V0203601N001019999999N0000001N9+01501+99999099681ADDGF101991999999999999999999
0029029170999991908080613004+62900+027667FM-12+009099999V0203601N002619999999N0000001N9+02171+99999099711ADDGF102991999999999999999999
0029029170999991908080620004+62900+027667FM-12+009099999V0209991C000019999999N0000001N9+01721+99999099721ADDGF102991999999999999999999
0029029170999991908080706004+62900+027667FM-12+009099999V0209991C000019999999N0000001N9+01721+99999099741ADDGF101991999999999999999999
0029029170999991908080713004+62900+027667FM-12+009099999V0202901N001019999999N0000001N9+02281+99999099621ADDGF105991999999999999999999
0029029170999991908080720004+62900+027667FM-12+009099999V0202901N001019999999N0000001N9+01721+99999099561ADDGF106991999999999999999999
0029029170999991908080806004+62900+027667FM-12+009099999V0209991C000019999999N0000001N9+01781+99999099601ADDGF105991999999999999999999
0029029170999991908080813004+62900+027667FM-12+009099999V0209991C000019999999N0000001N9+02221+99999099561ADDGF106991999999999999999999
0029029170999991908080820004+62900+027667FM-12+009099999V0209991C000019999999N0000001N9+01721+99999099661ADDGF108991999999999999999999
0029029170999991908080906004+62900+027667FM-12+009099999V0209991C000019999999N0000001N9+01781+99999099751ADDGF108991999999999999999999
0029029170999991908080913004+62900+027667FM-12+009099999V0209991C000019999999N0000001N9+02171+99999099751ADDGF103991999999999999999999
0029029170999991908080920004+62900+027667FM-12+009099999V0209991C000019999999N0000001N9+01831+99999099861ADDGF107991999999999999999999
0029029170999991908081006004+62900+027667FM-12+009099999V0209991C000019999999N0000001N9+02001+99999100151ADDGF107991999999999999999999
0029029170999991908081013004+62900+027667FM-12+009099999V0201101N001019999999N0000001N9+02111+99999100311ADDGF105991999999999999999999
0029029170999991908081020004+62900+027667FM-12+009099999V0209991C000019999999N0000001N9+01721+99999100421ADDGF102991999999999999999999
0029029170999991908081106004+62900+027667FM-12+009099999V0209991C000019999999N0000001N9+01891+99999100601ADDGF101991999999999999999999
0029029170999991908081113004+62900+027667FM-12+009099999V0201401N001019999999N0000001N9+02331+99999100631ADDGF106991999999999999999999
0029029170999991908081120004+62900+027667FM-12+009099999V0209991C000019999999N0000001N9+01831+99999100551ADDGF102991999999999999999999
0029029170999991908081206004+62900+027667FM-12+009099999V0209991C000019999999N0000001N9+01941+99999100581ADDGF101991999999999999999999
0029029170999991908081213004+62900+027667FM-12+009099999V0201401N001019999999N0000001N9+02671+99999100471ADDGF103991999999999999999999
0029029170999991908081220004+62900+027667FM-12+009099999V0209991C000019999999N0000001N9+01781+99999100581ADDGF102991999999999999999999
0029029170999991908081306004+62900+027667FM-12+009099999V0200901N002619999999N0000001N9+01611+99999100701ADDGF103991999999999999999999
0029029170999991908081313004+62900+027667FM-12+009099999V0201101N004619999999N0000001N9+02171+99999100551ADDGF101991999999999999999999
0029029170999991908081320004+62900+027667FM-12+009099999V0200901N004619999999N0000001N9+01671+99999100671ADDGF102991999999999999999999
0029029170999991908081406004+62900+027667FM-12+009099999V0201401N002619999999N0000001N9+00941+99999100871ADDGF108991999999999999999999
0029029170999991908081413004+62900+027667FM-12+009099999V0200901N006719999999N0000001N9+01561+99999100781ADDGF107991999999999999999999
0029029170999991908081420004+62900+027667FM-12+009099999V0200901N004619999999N0000001N9+01281+99999100721ADDGF106991999999999999999999
0029029170999991908081506004+62900+027667FM-12+009099999V0200501N001019999999N0000001N9+01001+99999100621ADDGF107991999999999999999999
0029029170999991908081513004+62900+027667FM-12+009099999V0201101N004619999999N0000001N9+01391+99999100441ADDGF108991999999999999999999
0029029170999991908081520004+62900+027667FM-12+009099999V0200501N002619999999N0000001N9+01281+99999100391ADDGF108991999999999999999999
0029029170999991908081606004+62900+027667FM-12+009099999V0200701N004619999999N0000001N9+01171+99999100231ADDGF108991999999999999999999
0029029170999991908081613004+62900+027667FM-12+009099999V0200501N004619999999N0000001N9+01721+99999100081ADDGF107991999999999999999999
0029029170999991908081620004+62900+027667FM-12+009099999V0209991C000019999999N0000001N9+01391+99999999999ADDGF102991999999999999999999
0029029170999991908081706004+62900+027667FM-12+009099999V0209991C000019999999N0000001N9+01391+99999099941ADDGF100991999999999999999999
0029029170999991908081713004+62900+027667FM-12+009099999V0200501N001019999999N0000001N9+02001+99999099841ADDGF102991999999999999999999
0029029170999991908081720004+62900+027667FM-12+009099999V0209991C000019999999N0000001N9+01671+99999099791ADDGF102991999999999999999999
0029029170999991908081806004+62900+027667FM-12+009099999V0203201N001019999999N0000001N9+01611+99999099681ADDGF104991999999999999999999
0029029170999991908081813004+62900+027667FM-12+009099999V0203201N001019999999N0000001N9+01941+99999099441ADDGF107991999999999999999999
0029029170999991908081820004+62900+027667FM-12+009099999V0203201N001019999999N0000001N9+01441+99999099241ADDGF108991999999999999999999
0029029170999991908081906004+62900+027667FM-12+009099999V0203201N009319999999N0000001N9+01171+99999099031ADDGF103991999999999999999999
0029029170999991908081913004+62900+027667FM-12+009099999V0203201N009319999999N0000001N9+01171+99999099281ADDGF106991999999999999999999
0029029170999991908081920004+62900+027667FM-12+009099999V0203201N002619999999N0000001N9+00891+99999099481ADDGF106991999999999999999999
0029029170999991908082006004+62900+027667FM-12+009099999V0203601N004619999999N0000001N9+00781+99999099761ADDGF101991999999999999999999
0029029170999991908082013004+62900+027667FM-12+009099999V0203401N006719999999N0000001N9+00941+99999099831ADDGF106991999999999999999999
0029029170999991908082020004+62900+027667FM-12+009099999V0203201N004619999999N0000001N9+00721+99999099871ADDGF102991999999999999999999
0029029170999991908082106004+62900+027667FM-12+009099999V0203601N004619999999N0000001N9+00781+99999099921ADDGF102991999999999999999999
0029029170999991908082113004+62900+027667FM-12+009099999V0203201N006719999999N0000001N9+01331+99999999999ADDGF101991999999999999999999
0029029170999991908082120004+62900+027667FM-12+009099999V0209991C000019999999N0000001N9+00941+99999100141ADDGF101991999999999999999999
0029029170999991908082206004+62900+027667FM-12+009099999V0209991C000019999999N0000001N9+01001+99999100391ADDGF107991999999999999999999
0029029170999991908082213004+62900+027667FM-12+009099999V0201401N001019999999N0000001N9+01671+99999100321ADDGF101991999999999999999999
0029029170999991908082220004+62900+027667FM-12+009099999V0209991C000019999999N0000001N9+01281+99999100041ADDGF106991999999999999999999
0029029170999991908082306004+62900+027667FM-12+009099999V0202001N001019999999N0000001N9+01331+99999099601ADDGF108991999999999999999999
0029029170999991908082313004+62900+027667FM-12+009099999V0209991C000019999999N0000001N9+01721+99999099241ADDGF108991999999999999999999
0029029170999991908082320004+62900+027667FM-12+009099999V0209991C000019999999N0000001N9+01331+99999098841ADDGF108991999999999999999999
0029029170999991908082406004+62900+027667FM-12+009099999V0209991C000019999999N0000001N9+01061+99999098961ADDGF108991999999999999999999
0029029170999991908082413004+62900+027667FM-12+009099999V0200501N001019999999N0000001N9+01281+99999099261ADDGF108991999999999999999999
0035029170999991908082420004+62900+027667FM-12+009099999V0209991C000019999999N0000001N9+00891+99999099271ADDGF108991999999999999999999MW1601
0029029170999991908082506004+62900+027667FM-12+009099999V0209991C000019999999N0000001N9+00781+99999099191ADDGF108991999999999999999999
0029029170999991908082513004+62900+027667FM-12+009099999V0201101N001019999999N0000001N9+01331+99999099181ADDGF102991999999999999999999
0029029170999991908082520004+62900+027667FM-12+009099999V0209991C000019999999N0000001N9+01001+99999099231ADDGF102991999999999999999999
0029029170999991908082606004+62900+027667FM-12+009099999V0209991C000019999999N0000001N9+01111+99999099351ADDGF108991999999999999999999
0029029170999991908082613004+62900+027667FM-12+009099999V0203201N002619999999N0000001N9+01611+99999099471ADDGF102991999999999999999999
0029029170999991908082620004+62900+027667FM-12+009099999V0209991C000019999999N0000001N9+00891+99999099431ADDGF102991999999999999999999
0029029170999991908082706004+62900+027667FM-12+009099999V0209991C000019999999N0000001N9+01281+99999099121ADDGF106991999999999999999999
0029029170999991908082713004+62900+027667FM-12+009099999V0201401N001019999999N0000001N9+01721+99999098951ADDGF106991999999999999999999
0029029170999991908082720004+62900+027667FM-12+009099999V0201401N001019999999N0000001N9+01281+99999098821ADDGF108991999999999999999999
0029029170999991908082806004+62900+027667FM-12+009099999V0201401N001019999999N0000001N9+01281+99999098231ADDGF108991999999999999999999
0029029170999991908082813004+62900+027667FM-12+009099999V0202301N004619999999N0000001N9+01721+99999098151ADDGF106991999999999999999999
0029029170999991908082820004+62900+027667FM-12+009099999V0202301N004619999999N0000001N9+01221+99999098271ADDGF104991999999999999999999
0029029170999991908082906004+62900+027667FM-12+009099999V0202301N001019999999N0000001N9+01281+99999098121ADDGF108991999999999999999999
0029029170999991908082913004+62900+027667FM-12+009099999V0202501N002619999999N0000001N9+01831+99999098041ADDGF104991999999999999999999
0029029170999991908082920004+62900+027667FM-12+009099999V0200201N001019999999N0000001N9+01171+99999098111ADDGF104991999999999999999999
0029029170999991908083006004+62900+027667FM-12+009099999V0209991C000019999999N0000001N9+00831+99999098481ADDGF108991999999999999999999
0029029170999991908083013004+62900+027667FM-12+009099999V0209991C000019999999N0000001N9+01391+99999098781ADDGF108991999999999999999999
0029029170999991908083020004+62900+027667FM-12+009099999V0209991C000019999999N0000001N9+01061+99999098861ADDGF108991999999999999999999
0029029170999991908083106004+62900+027667FM-12+009099999V0209991C000019999999N0000001N9+01061+99999098881ADDGF108991999999999999999999
0029029170999991908083113004+62900+027667FM-12+009099999V0209991C000019999999N0000001N9+01391+99999098901ADDGF107991999999999999999999
0029029170999991908083120004+62900+027667FM-12+009099999V0209991C000019999999N0000001N9+01111+99999098871ADDGF108991999999999999999999
0029029170999991908090106004+62900+027667FM-12+009099999V0209991C000019999999N0000001N9+01001+99999098991ADDGF108991999999999999999999
0029029170999991908090113004+62900+027667FM-12+009099999V0203601N001019999999N0000001N9+01391+99999099041ADDGF108991999999999999999999
0029029170999991908090120004+62900+027667FM-12+009099999V0209991C000019999999N0000001N9+01061+99999099071ADDGF108991999999999999999999
0029029170999991908090206004+62900+027667FM-12+009099999V0209991C000019999999N0000001N9+00941+99999099081ADDGF108991999999999999999999
0029029170999991908090213004+62900+027667FM-12+009099999V0201401N001019999999N0000001N9+01441+99999099021ADDGF108991999999999999999999
0035029170999991908090220004+62900+027667FM-12+009099999V0201401N001019999999N0000001N9+01171+99999098781ADDGF108991999999999999999999MW1621
