0029029170999991909010106004+62900+027667FM-12+009099999V0202001N001019999999N0000001N9-01061+99999102241ADDGF108991999999999999999999
0029029170999991909010113004+62900+027667FM-12+009099999V0209991C000019999999N0000001N9-00781+99999102031ADDGF108991999999999999999999
0029029170999991909010120004+62900+027667FM-12+009099999V0202001N001019999999N0000001N9-00501+99999101781ADDGF108991999999999999999999
0029029170999991909010206004+62900+027667FM-12+009099999V0202301N001019999999N0000001N9-00721+99999101141ADDGF108991999999999999999999
0035029170999991909010213004+62900+027667FM-12+009099999V0202301N002619999999N0000001N9-00221+99999100081ADDGF108991999999999999999999MW1721
0029029170999991909010220004+62900+027667FM-12+009099999V0202301N001019999999N0000001N9+00061+99999099671ADDGF104991999999999999999999
0029029170999991909010306004+62900+027667FM-12+009099999V0202701N001019999999N0000001N9-00111+99999099861ADDGF100991999999999999999999
0029029170999991909010313004+62900+027667FM-12+009099999V0209991C000019999999N0000001N9-00221+99999100111ADDGF104991999999999999999999
0029029170999991909010320004+62900+027667FM-12+009099999V0202501N002619999999N0000001N9+00061+99999099321ADDGF108991999999999999999999
0029029170999991909010406004+62900+027667FM-12+009099999V0202701N001019999999N0000001N9+00111+99999099101ADDGF100991999999999999999999
0029029170999991909010413004+62900+027667FM-12+009099999V0202901N001019999999N0000001N9+00111+99999098951ADDGF100991999999999999999999
0029029170999991909010420004+62900+027667FM-12+009099999V0203201N002619999999N0000001N9+00001+99999098941ADDGF100991999999999999999999
0029029170999991909010506004+62900+027667FM-12+009099999V0202901N002619999999N0000001N9-00171+99999099341ADDGF100991999999999999999999
0029029170999991909010513004+62900+027667FM-12+009099999V0203201N001019999999N0000001N9-00221+99999099961ADDGF100991999999999999999999
0029029170999991909010520004+62900+027667FM-12+009099999V0203201N001019999999N0000001N9-00391+99999100181ADDGF100991999999999999999999
0029029170999991909010606004+62900+027667FM-12+009099999V0209991C000019999999N0000001N9-00561+99999100431ADDGF108991999999999999999999
0029029170999991909010613004+62900+027667FM-12+009099999V0209991C000019999999N0000001N9-00501+99999100301ADDGF108991999999999999999999
0029029170999991909010620004+62900+027667FM-12+009099999V0202301N001019999999N0000001N9-00281+99999099381ADDGF108991999999999999999999
0029029170999991909010706004+62900+027667FM-12+009099999V0209991C000019999999N0000001N9-00611+99999099021ADDGF100991999999999999999999
0029029170999991909010713004+62900+027667FM-12+009099999V0200901N001019999999N0000001N9-00611+99999099061ADDGF108991999999999999999999
0029029170999991909010720004+62900+027667FM-12+009099999V0200901N001019999999N0000001N9-01391+99999099111ADDGF100991999999999999999999
0029029170999991909010806004+62900+027667FM-12+009099999V0201101N001019999999N0000001N9-01671+99999098981ADDGF108991999999999999999999
0029029170999991909010813004+62900+027667FM-12+009099999V0201401N001019999999N0000001N9-01721+99999099311ADDGF108991999999999999999999
0029029170999991909010820004+62900+027667FM-12+009099999V0209991C000019999999N0000001N9-01561+99999099751ADDGF108991999999999999999999
0029029170999991909010906004+62900+027667FM-12+009099999V0201101N001019999999N0000001N9-01501+99999999999ADDGF108991999999999999999999
0029029170999991909010913004+62900+027667FM-12+009099999V0201601N001019999999N0000001N9-01061+99999100071ADDGF108991999999999999999999
0029029170999991909010920004+62900+027667FM-12+009099999V0201801N001019999999N0000001N9-00891+99999099801ADDGF108991999999999999999999
0029029170999991909011006004+62900+027667FM-12+009099999V0202301N001019999999N0000001N9-00501+99999099311ADDGF108991999999999999999999
0029029170999991909011013004+62900+027667FM-12+009099999V0202001N004619999999N0000001N9-00281+99999098991ADDGF108991999999999999999999
0035029170999991909011020004+62900+027667FM-12+009099999V0201801N002619999999N0000001N9-00331+99999098701ADDGF108991999999999999999999MW1721
0029029170999991909011106004+62900+027667FM-12+009099999V0201801N001019999999N0000001N9-00281+99999098081ADDGF108991999999999999999999
0029029170999991909011113004+62900+027667FM-12+009099999V0202301N001019999999N0000001N9+00001+99999097581ADDGF108991999999999999999999
0035029170999991909011120004+62900+027667FM-12+009099999V0202001N002619999999N0000001N9+00061+99999097321ADDGF108991999999999999999999MW1721
0029029170999991909011206004+62900+027667FM-12+009099999V0201801N002619999999N0000001N9+00061+99999096961ADDGF108991999999999999999999
0029029170999991909011213004+62900+027667FM-12+009099999V0209991C000019999999N0000001N9+00171+99999097271ADDGF108991999999999999999999
0029029170999991909011220004+62900+027667FM-12+009099999V0201601N001019999999N0000001N9-00171+99999096941ADDGF108991999999999999999999
0029029170999991909011306004+62900+027667FM-12+009099999V0201601N001019999999N0000001N9-00391+99999096751ADDGF108991999999999999999999
0035029170999991909011313004+62900+027667FM-12+009099999V0209991C000019999999N0000001N9-00221+99999096831ADDGF108991999999999999999999MW1721
0029029170999991909011320004+62900+027667FM-12+009099999V0202301N002619999999N0000001N9-00561+99999097351ADDGF108991999999999999999999
0029029170999991909011406004+62900+027667FM-12+009099999V0202301N001019999999N0000001N9-00611+99999098191ADDGF108991999999999999999999
0029029170999991909011413004+62900+027667FM-12+009099999V0201801N001019999999N0000001N9-00831+99999098741ADDGF108991999999999999999999
0029029170999991909011420004+62900+027667FM-12+009099999V0209991C000019999999N0000001N9-00781+99999098871ADDGF108991999999999999999999
0029029170999991909011506004+62900+027667FM-12+009099999V0209991C000019999999N0000001N9-00561+99999099181ADDGF108991999999999999999999
0029029170999991909011513004+62900+027667FM-12+009099999V0201401N002619999999N0000001N9-00611+99999099591ADDGF108991999999999999999999
0029029170999991909011520004+62900+027667FM-12+009099999V0201401N002619999999N0000001N9-00611+99999099521ADDGF108991999999999999999999
0029029170999991909011606004+62900+027667FM-12+009099999V0201401N006719999999N0000001N9-00611+99999098821ADDGF108991999999999999999999
0035029170999991909011613004+62900+027667FM-12+009099999V0201601N002619999999N0000001N9-00391+99999098671ADDGF108991999999999999999999MW1721
0029029170999991909011620004+62900+027667FM-12+009099999V0202001N001019999999N0000001N9+00061+99999098991ADDGF108991999999999999999999
0029029170999991909011706004+62900+027667FM-12+009099999V0202001N001019999999N0000001N9-00061+99999099801ADDGF108991999999999999999999
0029029170999991909011713004+62900+027667FM-12+009099999V0201601N002619999999N0000001N9-00221+99999100181ADDGF108991999999999999999999
0048029170999991909011720004+62900+027667FM-12+009099999V0201601N001019999999N0000001N9-00331+99999100201ADDGF108991999999999999999999EQDQ01+000622PRSWM1
0029029170999991909011806004+62900+027667FM-12+009099999V0201601N001019999999N0000001N9-00391+99999100181ADDGF108991999999999999999999
0035029170999991909011813004+62900+027667FM-12+009099999V0202301N002619999999N0000001N9+00001+99999099721ADDGF108991999999999999999999MW1721
0035029170999991909011820004+62900+027667FM-12+009099999V0202001N002619999999N0000001N9+00171+99999099521ADDGF108991999999999999999999MW1621
0035029170999991909011906004+62900+027667FM-12+009099999V0202001N006719999999N0000001N9+00281+99999099661ADDGF108991999999999999999999MW1621
0029029170999991909011913004+62900+027667FM-12+009099999V0202301N002619999999N0000001N9+00281+99999099991ADDGF108991999999999999999999
0029029170999991909011920004+62900+027667FM-12+009099999V0202001N001019999999N0000001N9+00281+99999100401ADDGF108991999999999999999999
0029029170999991909012006004+62900+027667FM-12+009099999V0202001N002619999999N0000001N9+00171+99999100541ADDGF108991999999999999999999
0029029170999991909012013004+62900+027667FM-12+009099999V0202301N001019999999N0000001N9+00061+99999100841ADDGF108991999999999999999999
0029029170999991909012020004+62900+027667FM-12+009099999V0202301N002619999999N0000001N9+00061+99999100831ADDGF108991999999999999999999
0029029170999991909012106004+62900+027667FM-12+009099999V0209991C000019999999N0000001N9-00171+99999101311ADDGF100991999999999999999999
0029029170999991909012113004+62900+027667FM-12+009099999V0202501N001019999999N0000001N9-00391+99999101501ADDGF104991999999999999999999
0029029170999991909012120004+62900+027667FM-12+009099999V0202501N001019999999N0000001N9-00331+99999101311ADDGF100991999999999999999999
0029029170999991909012206004+62900+027667FM-12+009099999V0202501N002619999999N0000001N9-00171+99999100841ADDGF108991999999999999999999
0029029170999991909012213004+62900+027667FM-12+009099999V0202501N002619999999N0000001N9-00171+99999100621ADDGF108991999999999999999999
0029029170999991909012220004+62900+027667FM-12+009099999V0202501N002619999999N0000001N9-00111+99999100441ADDGF100991999999999999999999
0029029170999991909012306004+62900+027667FM-12+009099999V0202501N002619999999N0000001N9+00061+99999100581ADDGF104991999999999999999999
0029029170999991909012313004+62900+027667FM-12+009099999V0202501N002619999999N0000001N9+00111+99999100591ADDGF100991999999999999999999
0029029170999991909012320004+62900+027667FM-12+009099999V0209991C000019999999N0000001N9-00171+99999101001ADDGF100991999999999999999999
0029029170999991909012406004+62900+027667FM-12+009099999V0202501N001019999999N0000001N9-00221+99999101031ADDGF108991999999999999999999
0029029170999991909012413004+62900+027667FM-12+009099999V0202501N001019999999N0000001N9-00221+99999101041ADDGF108991999999999999999999
0029029170999991909012420004+62900+027667FM-12+009099999V0203201N002619999999N0000001N9-00281+99999100761ADDGF104991999999999999999999
0029029170999991909012506004+62900+027667FM-12+009099999V0202701N002619999999N0000001N9-00171+99999100761ADDGF100991999999999999999999
0029029170999991909012513004+62900+027667FM-12+009099999V0203201N001019999999N0000001N9-00171+99999101041ADDGF100991999999999999999999
0029029170999991909012520004+62900+027667FM-12+009099999V0203401N004619999999N0000001N9-00331+99999101461ADDGF104991999999999999999999
0029029170999991909012606004+62900+027667FM-12+009099999V0209991C000019999999N0000001N9-00831+99999102071ADDGF108991999999999999999999
0029029170999991909012613004+62900+027667FM-12+009099999V0209991C000019999999N0000001N9-00891+99999102081ADDGF104991999999999999999999
0029029170999991909012620004+62900+027667FM-12+009099999V0209991C000019999999N0000001N9-00831+99999102021ADDGF100991999999999999999999
0029029170999991909012706004+62900+027667FM-12+009099999V0209991C000019999999N0000001N9-01061+99999101841ADDGF108991999999999999999999
0029029170999991909012713004+62900+027667FM-12+009099999V0209991C000019999999N0000001N9-00561+99999101791ADDGF108991999999999999999999
0029029170999991909012720004+62900+027667FM-12+009099999V0202301N001019999999N0000001N9-00391+99999101911ADDGF108991999999999999999999
0029029170999991909012806004+62900+027667FM-12+009099999V0202301N001019999999N0000001N9-00441+99999101861ADDGF108991999999999999999999
0029029170999991909012813004+62900+027667FM-12+009099999V0202301N001019999999N0000001N9-00281+99999101751ADDGF108991999999999999999999
0029029170999991909012820004+62900+027667FM-12+009099999V0202301N002619999999N0000001N9-00171+99999101581ADDGF108991999999999999999999
0029029170999991909012906004+62900+027667FM-12+009099999V0202301N004619999999N0000001N9-00391+99999100981ADDGF108991999999999999999999
0029029170999991909012913004+62900+027667FM-12+009099999V0202301N002619999999N0000001N9-00561+99999100221ADDGF108991999999999999999999
0029029170999991909012920004+62900+027667FM-12+009099999V0202001N001019999999N0000001N9-00391+99999099311ADDGF108991999999999999999999
0029029170999991909013006004+62900+027667FM-12+009099999V0202001N002619999999N0000001N9-00221+99999098961ADDGF108991999999999999999999
0029029170999991909013013004+62900+027667FM-12+009099999V0202301N002619999999N0000001N9-00111+99999098911ADDGF108991999999999999999999
0029029170999991909013020004+62900+027667FM-12+009099999V0209991C000019999999N0000001N9-00501+99999098921ADDGF108991999999999999999999
0029029170999991909013106004+62900+027667FM-12+009099999V0201601N001019999999N0000001N9-00941+99999098701ADDGF108991999999999999999999
0029029170999991909013113004+62900+027667FM-12+009099999V0209991C000019999999N0000001N9-00941+99999098501ADDGF104991999999999999999999
0029029170999991909013120004+62900+027667FM-12+009099999V0209991C000019999999N0000001N9-01061+99999098551ADDGF108991999999999999999999
0029029170999991909020106004+62900+027667FM-12+009099999V0209991C000019999999N0000001N9-01561+99999098631ADDGF108991999999999999999999
0035029170999991909020113004+62900+027667FM-12+009099999V0201101N001019999999N0000001N9-01441+99999098711ADDGF108991999999999999999999MW1721
0048029170999991909020120004+62900+027667FM-12+009099999V0201101N001019999999N0000001N9+99999+99999098751ADDGF108991999999999999999999EQDQ01 +01563ATOT  
0029029170999991909020206004+62900+027667FM-12+009099999V0209991C000019999999N0000001N9-01501+99999099061ADDGF108991999999999999999999
0029029170999991909020213004+62900+027667FM-12+009099999V0209991C000019999999N0000001N9-01281+99999099061ADDGF108991999999999999999999
0035029170999991909020220004+62900+027667FM-12+009099999V0209991C000019999999N0000001N9-01331+99999099041ADDGF108991999999999999999999MW1721
0029029170999991909020306004+62900+027667FM-12+009099999V0209991C000019999999N0000001N9-01561+99999098671ADDGF108991999999999999999999
0029029170999991909020313004+62900+027667FM-12+009099999V0209991C000019999999N0000001N9-01441+99999098661ADDGF108991999999999999999999
0029029170999991909020320004+62900+027667FM-12+009099999V0209991C000019999999N0000001N9-01721+99999098431ADDGF100991999999999999999999
0029029170999991909020406004+62900+027667FM-12+009099999V0201601N001019999999N0000001N9-01061+99999098161ADDGF108991999999999999999999
0035029170999991909020413004+62900+027667FM-12+009099999V0201601N001019999999N0000001N9-01111+99999098301ADDGF108991999999999999999999MW1721
0029029170999991909020420004+62900+027667FM-12+009099999V0209991C000019999999N0000001N9-01221+99999098341ADDGF108991999999999999999999
0029029170999991909020506004+62900+027667FM-12+009099999V0209991C000019999999N0000001N9-01171+99999098361ADDGF108991999999999999999999
0029029170999991909020513004+62900+027667FM-12+009099999V0209991C000019999999N0000001N9-01111+99999098191ADDGF108991999999999999999999
0029029170999991909020520004+62900+027667FM-12+009099999V0209991C000019999999N0000001N9-01331+99999098301ADDGF104991999999999999999999
0029029170999991909020606004+62900+027667FM-12+009099999V0200201N001019999999N0000001N9-01441+99999098361ADDGF108991999999999999999999
0029029170999991909020613004+62900+027667FM-12+009099999V0209991C000019999999N0000001N9-01221+99999098631ADDGF108991999999999999999999
0029029170999991909020620004+62900+027667FM-12+009099999V0203601N001019999999N0000001N9-01391+99999098881ADDGF108991999999999999999999
0029029170999991909020706004+62900+027667FM-12+009099999V0209991C000019999999N0000001N9-01501+99999099111ADDGF108991999999999999999999
0029029170999991909020713004+62900+027667FM-12+009099999V0203201N001019999999N0000001N9-01501+99999099501ADDGF108991999999999999999999
0029029170999991909020720004+62900+027667FM-12+009099999V0203201N001019999999N0000001N9-01391+99999099801ADDGF108991999999999999999999
0029029170999991909020806004+62900+027667FM-12+009099999V0203401N001019999999N0000001N9-01281+99999100501ADDGF108991999999999999999999
0029029170999991909020813004+62900+027667FM-12+009099999V0203401N001019999999N0000001N9-01441+99999100921ADDGF100991999999999999999999
0029029170999991909020820004+62900+027667FM-12+009099999V0209991C000019999999N0000001N9-01501+99999101241ADDGF100991999999999999999999
0029029170999991909020906004+62900+027667FM-12+009099999V0209991C000019999999N0000001N9-01391+99999101181ADDGF108991999999999999999999
0029029170999991909020913004+62900+027667FM-12+009099999V0209991C000019999999N0000001N9-01331+99999101161ADDGF100991999999999999999999
0029029170999991909020920004+62900+027667FM-12+009099999V0209991C000019999999N0000001N9-02001+99999101141ADDGF100991999999999999999999
0029029170999991909021006004+62900+027667FM-12+009099999V0209991C000019999999N0000001N9-01831+99999101191ADDGF108991999999999999999999
0029029170999991909021013004+62900+027667FM-12+009099999V0209991C000019999999N0000001N9-01721+99999101381ADDGF108991999999999999999999
0035029170999991909021020004+62900+027667FM-12+009099999V0209991C000019999999N0000001N9-02221+99999101641ADDGF100991999999999999999999MW1481
0029029170999991909021106004+62900+027667FM-12+009099999V0209991C000019999999N0000001N9-02111+99999101481ADDGF108991999999999999999999
0029029170999991909021113004+62900+027667FM-12+009099999V0209991C000019999999N0000001N9-01501+99999101431ADDGF100991999999999999999999
0029029170999991909021120004+62900+027667FM-12+009099999V0209991C000019999999N0000001N9-01721+99999101271ADDGF108991999999999999999999
0035029170999991909021206004+62900+027667FM-12+009099999V0209991C000019999999N0000001N9-01561+99999100801ADDGF108991999999999999999999MW1481
0035029170999991909021213004+62900+027667FM-12+009099999V0209991C000019999999N0000001N9-01001+99999100301ADDGF108991999999999999999999MW1721
0035029170999991909021220004+62900+027667FM-12+009099999V0209991C000019999999N0000001N9-01001+99999100301ADDGF108991999999999999999999MW1481
0029029170999991909021306004+62900+027667FM-12+009099999V0209991C000019999999N0000001N9-00831+99999100711ADDGF108991999999999999999999
0029029170999991909021313004+62900+027667FM-12+009099999V0209991C000019999999N0000001N9-00611+99999100681ADDGF108991999999999999999999
0029029170999991909021320004+62900+027667FM-12+009099999V0202301N001019999999N0000001N9-00781+99999100421ADDGF108991999999999999999999
0035029170999991909021406004+62900+027667FM-12+009099999V0202301N001019999999N0000001N9-00391+99999098551ADDGF108991999999999999999999MW1721
0035029170999991909021413004+62900+027667FM-12+009099999V0202301N001019999999N0000001N9-00221+99999097081ADDGF108991999999999999999999MW1721
0035029170999991909021420004+62900+027667FM-12+009099999V0202301N001019999999N0000001N9+00001+99999096111ADDGF108991999999999999999999MW1721
0035029170999991909021506004+62900+027667FM-12+009099999V0209991C000019999999N0000001N9-00221+99999095681ADDGF108991999999999999999999MW1721
0035029170999991909021513004+62900+027667FM-12+009099999V0203601N001019999999N0000001N9-00061+99999096271ADDGF108991999999999999999999MW1721
0029029170999991909021520004+62900+027667FM-12+009099999V0209991C000019999999N0000001N9-00561+99999096501ADDGF108991999999999999999999
0029029170999991909021606004+62900+027667FM-12+009099999V0203201N001019999999N0000001N9-01001+99999096781ADDGF100991999999999999999999
0029029170999991909021613004+62900+027667FM-12+009099999V0203201N001019999999N0000001N9-00721+99999097231ADDGF104991999999999999999999
0035029170999991909021620004+62900+027667FM-12+009099999V0203601N001019999999N0000001N9-00891+99999097781ADDGF108991999999999999999999MW1721
0029029170999991909021706004+62900+027667FM-12+009099999V0203601N001019999999N0000001N9-01501+99999098401ADDGF108991999999999999999999
0029029170999991909021713004+62900+027667FM-12+009099999V0209991C000019999999N0000001N9-01281+99999098921ADDGF104991999999999999999999
0029029170999991909021720004+62900+027667FM-12+009099999V0209991C000019999999N0000001N9-01611+99999099081ADDGF108991999999999999999999
0029029170999991909021806004+62900+027667FM-12+009099999V0209991C000019999999N0000001N9-01221+99999099711ADDGF108991999999999999999999
0029029170999991909021813004+62900+027667FM-12+009099999V0202301N001019999999N0000001N9-00721+99999099681ADDGF104991999999999999999999
0029029170999991909021820004+62900+027667FM-12+009099999V0209991C000019999999N0000001N9-01221+99999099801ADDGF100991999999999999999999
0029029170999991909021906004+62900+027667FM-12+009099999V0209991C000019999999N0000001N9-01671+99999100481ADDGF104991999999999999999999
0029029170999991909021913004+62900+027667FM-12+009099999V0209991C000019999999N0000001N9-01281+99999100641ADDGF100991999999999999999999
0029029170999991909021920004+62900+027667FM-12+009099999V0201801N001019999999N0000001N9-01001+99999100621ADDGF108991999999999999999999
0029029170999991909022006004+62900+027667FM-12+009099999V0209991C000019999999N0000001N9-00721+99999100871ADDGF108991999999999999999999
0029029170999991909022013004+62900+027667FM-12+009099999V0209991C000019999999N0000001N9-00391+99999101271ADDGF108991999999999999999999
0029029170999991909022020004+62900+027667FM-12+009099999V0209991C000019999999N0000001N9-00441+99999101501ADDGF108991999999999999999999
0029029170999991909022106004+62900+027667FM-12+009099999V0209991C000019999999N0000001N9-00441+99999101591ADDGF108991999999999999999999
0029029170999991909022113004+62900+027667FM-12+009099999V0209991C000019999999N0000001N9-00111+99999101601ADDGF104991999999999999999999
0029029170999991909022120004+62900+027667FM-12+009099999V0209991C000019999999N0000001N9-00281+99999101781ADDGF108991999999999999999999
0035029170999991909022206004+62900+027667FM-12+009099999V0209991C000019999999N0000001N9-00501+99999102111ADDGF108991999999999999999999MW1481
0035029170999991909022213004+62900+027667FM-12+009099999V0209991C000019999999N0000001N9-00391+99999102381ADDGF108991999999999999999999MW1481
0035029170999991909022220004+62900+027667FM-12+009099999V0209991C000019999999N0000001N9-00441+99999102501ADDGF108991999999999999999999MW1481
0035029170999991909022306004+62900+027667FM-12+009099999V0209991C000019999999N0000001N9-00561+99999102591ADDGF108991999999999999999999MW1481
0035029170999991909022313004+62900+027667FM-12+009099999V0209991C000019999999N0000001N9-00501+99999102871ADDGF108991999999999999999999MW1481
0035029170999991909022320004+62900+027667FM-12+009099999V0209991C000019999999N0000001N9-00501+99999102761ADDGF108991999999999999999999MW1481
0035029170999991909022406004+62900+027667FM-12+009099999V0209991C000019999999N0000001N9-00441+99999102761ADDGF108991999999999999999999MW1481
0035029170999991909022413004+62900+027667FM-12+009099999V0202501N001019999999N0000001N9-00331+99999102881ADDGF108991999999999999999999MW1481
0035029170999991909022420004+62900+027667FM-12+009099999V0209991C000019999999N0000001N9-00331+99999102781ADDGF108991999999999999999999MW1481
0029029170999991909022506004+62900+027667FM-12+009099999V0202501N001019999999N0000001N9-00441+99999102761ADDGF108991999999999999999999
0029029170999991909022513004+62900+027667FM-12+009099999V0202301N001019999999N0000001N9-00391+99999102641ADDGF108991999999999999999999
0029029170999991909022520004+62900+027667FM-12+009099999V0209991C000019999999N0000001N9-00561+99999102631ADDGF108991999999999999999999
0029029170999991909022606004+62900+027667FM-12+009099999V0209991C000019999999N0000001N9-00831+99999102641ADDGF108991999999999999999999
0029029170999991909022613004+62900+027667FM-12+009099999V0209991C000019999999N0000001N9-00671+99999102351ADDGF108991999999999999999999
0029029170999991909022620004+62900+027667FM-12+009099999V0209991C000019999999N0000001N9-01171+99999101921ADDGF100991999999999999999999
0029029170999991909022706004+62900+027667FM-12+009099999V0209991C000019999999N0000001N9-01061+99999101121ADDGF100991999999999999999999
0029029170999991909022713004+62900+027667FM-12+009099999V0209991C000019999999N0000001N9-00561+99999100801ADDGF100991999999999999999999
0029029170999991909022720004+62900+027667FM-12+009099999V0202301N001019999999N0000001N9-00501+99999100581ADDGF108991999999999999999999
0029029170999991909022806004+62900+027667FM-12+009099999V0209991C000019999999N0000001N9-01391+99999101001ADDGF100991999999999999999999
0029029170999991909022813004+62900+027667FM-12+009099999V0209991C000019999999N0000001N9-01001+99999101161ADDGF100991999999999999999999
0029029170999991909022820004+62900+027667FM-12+009099999V0209991C000019999999N0000001N9-01721+99999100741ADDGF100991999999999999999999
0029029170999991909030106004+62900+027667FM-12+009099999V0209991C000019999999N0000001N9-02391+99999100631ADDGF104991999999999999999999
0029029170999991909030113004+62900+027667FM-12+009099999V0209991C000019999999N0000001N9-01281+99999100341ADDGF104991999999999999999999
0029029170999991909030120004+62900+027667FM-12+009099999V0209991C000019999999N0000001N9-01441+99999099791ADDGF108991999999999999999999
0029029170999991909030206004+62900+027667FM-12+009099999V0200901N001019999999N0000001N9-01331+99999099111ADDGF108991999999999999999999
0029029170999991909030213004+62900+027667FM-12+009099999V0200501N001019999999N0000001N9-00891+99999099221ADDGF104991999999999999999999
0029029170999991909030220004+62900+027667FM-12+009099999V0200501N001019999999N0000001N9-01171+99999099541ADDGF108991999999999999999999
0029029170999991909030306004+62900+027667FM-12+009099999V0200501N002619999999N0000001N9-01721+99999099741ADDGF108991999999999999999999
0029029170999991909030313004+62900+027667FM-12+009099999V0200701N002619999999N0000001N9-01171+99999099671ADDGF108991999999999999999999
0035029170999991909030320004+62900+027667FM-12+009099999V0200901N006719999999N0000001N9-01061+99999099631ADDGF108991999999999999999999MW1721
0035029170999991909030406004+62900+027667FM-12+009099999V0200901N001019999999N0000001N9-01111+99999099741ADDGF108991999999999999999999MW1721
0035029170999991909030413004+62900+027667FM-12+009099999V0201401N001019999999N0000001N9-00671+99999099961ADDGF108991999999999999999999MW1721
0035029170999991909030420004+62900+027667FM-12+009099999V0209991C000019999999N0000001N9-00441+99999100151ADDGF108991999999999999999999MW1721
0035029170999991909030506004+62900+027667FM-12+009099999V0201401N001019999999N0000001N9-00331+99999100271ADDGF108991999999999999999999MW1721
0029029170999991909030513004+62900+027667FM-12+009099999V0201401N001019999999N0000001N9-00111+99999100701ADDGF108991999999999999999999
0029029170999991909030520004+62900+027667FM-12+009099999V0209991C000019999999N0000001N9-00171+99999100791ADDGF108991999999999999999999
0029029170999991909030606004+62900+027667FM-12+009099999V0201401N001019999999N0000001N9-00221+99999100841ADDGF108991999999999999999999
0029029170999991909030613004+62900+027667FM-12+009099999V0209991C000019999999N0000001N9+00061+99999101341ADDGF108991999999999999999999
0029029170999991909030620004+62900+027667FM-12+009099999V0201401N001019999999N0000001N9-00171+99999101471ADDGF108991999999999999999999
0029029170999991909030706004+62900+027667FM-12+009099999V0201401N001019999999N0000001N9-00781+99999101661ADDGF100991999999999999999999
0029029170999991909030713004+62900+027667FM-12+009099999V0201401N004619999999N0000001N9-00281+99999101581ADDGF100991999999999999999999
0029029170999991909030720004+62900+027667FM-12+009099999V0201401N001019999999N0000001N9-00611+99999101661ADDGF100991999999999999999999
0029029170999991909030806004+62900+027667FM-12+009099999V0201401N002619999999N0000001N9-00781+99999101741ADDGF100991999999999999999999
0029029170999991909030813004+62900+027667FM-12+009099999V0201401N002619999999N0000001N9-00501+99999101801ADDGF108991999999999999999999
0029029170999991909030820004+62900+027667FM-12+009099999V0201401N001019999999N0000001N9-00611+99999101961ADDGF108991999999999999999999
0029029170999991909030906004+62900+027667FM-12+009099999V0201401N001019999999N0000001N9-00891+99999102041ADDGF108991999999999999999999
0029029170999991909030913004+62900+027667FM-12+009099999V0201401N001019999999N0000001N9-00501+99999102141ADDGF108991999999999999999999
0029029170999991909030920004+62900+027667FM-12+009099999V0201401N001019999999N0000001N9-00831+99999102001ADDGF108991999999999999999999
0029029170999991909031006004+62900+027667FM-12+009099999V0209991C000019999999N0000001N9-01331+99999102101ADDGF100991999999999999999999
0029029170999991909031013004+62900+027667FM-12+009099999V0209991C000019999999N0000001N9-00721+99999101911ADDGF100991999999999999999999
0029029170999991909031020004+62900+027667FM-12+009099999V0209991C000019999999N0000001N9-01391+99999101841ADDGF100991999999999999999999
0035029170999991909031106004+62900+027667FM-12+009099999V0209991C000019999999N0000001N9-01281+99999101861ADDGF108991999999999999999999MW1721
0029029170999991909031113004+62900+027667FM-12+009099999V0209991C000019999999N0000001N9-00941+99999101721ADDGF100991999999999999999999
0029029170999991909031120004+62900+027667FM-12+009099999V0209991C000019999999N0000001N9-01111+99999101421ADDGF100991999999999999999999
0029029170999991909031206004+62900+027667FM-12+009099999V0201801N001019999999N0000001N9-01281+99999100991ADDGF104991999999999999999999
0035029170999991909031213004+62900+027667FM-12+009099999V0201801N001019999999N0000001N9-00831+99999100761ADDGF108991999999999999999999MW1721
0035029170999991909031220004+62900+027667FM-12+009099999V0209991C000019999999N0000001N9-01001+99999100601ADDGF108991999999999999999999MW1721
0035029170999991909031306004+62900+027667FM-12+009099999V0201401N001019999999N0000001N9-01061+99999100341ADDGF108991999999999999999999MW1721
0029029170999991909031313004+62900+027667FM-12+009099999V0201401N001019999999N0000001N9-00781+99999100241ADDGF108991999999999999999999
0029029170999991909031320004+62900+027667FM-12+009099999V0209991C000019999999N0000001N9-00831+99999100071ADDGF108991999999999999999999
0029029170999991909031406004+62900+027667FM-12+009099999V0201401N001019999999N0000001N9-00781+99999100031ADDGF108991999999999999999999
0029029170999991909031413004+62900+027667FM-12+009099999V0201401N001019999999N0000001N9-00391+99999099951ADDGF108991999999999999999999
0035029170999991909031420004+62900+027667FM-12+009099999V0209991C000019999999N0000001N9-00781+99999999999ADDGF108991999999999999999999MW1721
0029029170999991909031506004+62900+027667FM-12+009099999V0209991C000019999999N0000001N9-00671+99999100021ADDGF108991999999999999999999
0029029170999991909031513004+62900+027667FM-12+009099999V0209991C000019999999N0000001N9-00441+99999100081ADDGF108991999999999999999999
0029029170999991909031520004+62900+027667FM-12+009099999V0209991C000019999999N0000001N9-00781+99999100311ADDGF108991999999999999999999
0029029170999991909031606004+62900+027667FM-12+009099999V0209991C000019999999N0000001N9-01001+99999100541ADDGF104991999999999999999999
0029029170999991909031613004+62900+027667FM-12+009099999V0201101N002619999999N0000001N9-00391+99999100671ADDGF108991999999999999999999
0029029170999991909031620004+62900+027667FM-12+009099999V0209991C000019999999N0000001N9-00501+99999100591ADDGF108991999999999999999999
0035029170999991909031706004+62900+027667FM-12+009099999V0200901N002619999999N0000001N9-00441+99999100281ADDGF108991999999999999999999MW1721
0035029170999991909031713004+62900+027667FM-12+009099999V0200901N002619999999N0000001N9-00171+99999100061ADDGF108991999999999999999999MW1721
0029029170999991909031720004+62900+027667FM-12+009099999V0200901N002619999999N0000001N9-00441+99999100161ADDGF108991999999999999999999
0035029170999991909031806004+62900+027667FM-12+009099999V0201401N001019999999N0000001N9-00391+99999100461ADDGF108991999999999999999999MW1721
0035029170999991909031813004+62900+027667FM-12+009099999V0201401N001019999999N0000001N9-00281+99999100431ADDGF108991999999999999999999MW1721
0035029170999991909031820004+62900+027667FM-12+009099999V0209991C000019999999N0000001N9-00501+99999100421ADDGF108991999999999999999999MW1721
0029029170999991909031906004+62900+027667FM-12+009099999V0201601N001019999999N0000001N9-00281+99999100401ADDGF108991999999999999999999
0035029170999991909031913004+62900+027667FM-12+009099999V0209991C000019999999N0000001N9+00001+99999100511ADDGF108991999999999999999999MW1721
0035029170999991909031920004+62900+027667FM-12+009099999V0209991C000019999999N0000001N9-00281+99999100591ADDGF108991999999999999999999MW1721
0029029170999991909032006004+62900+027667FM-12+009099999V0209991C000019999999N0000001N9-00391+99999100901ADDGF108991999999999999999999
0029029170999991909032013004+62900+027667FM-12+009099999V0209991C000019999999N0000001N9+00111+99999100881ADDGF100991999999999999999999
0029029170999991909032020004+62900+027667FM-12+009099999V0209991C000019999999N0000001N9-00171+99999100871ADDGF108991999999999999999999
0029029170999991909032106004+62900+027667FM-12+009099999V0200901N001019999999N0000001N9-00391+99999100961ADDGF104991999999999999999999
0029029170999991909032113004+62900+027667FM-12+009099999V0209991C000019999999N0000001N9-00111+99999100841ADDGF100991999999999999999999
0029029170999991909032120004+62900+027667FM-12+009099999V0209991C000019999999N0000001N9-00561+99999100801ADDGF104991999999999999999999
0029029170999991909032206004+62900+027667FM-12+009099999V0209991C000019999999N0000001N9-00891+99999100791ADDGF100991999999999999999999
0029029170999991909032213004+62900+027667FM-12+009099999V0209991C000019999999N0000001N9-00221+99999100871ADDGF100991999999999999999999
0029029170999991909032220004+62900+027667FM-12+009099999V0209991C000019999999N0000001N9-00501+99999100791ADDGF108991999999999999999999
0029029170999991909032306004+62900+027667FM-12+009099999V0209991C000019999999N0000001N9-00721+99999100701ADDGF108991999999999999999999
0029029170999991909032313004+62900+027667FM-12+009099999V0202001N001019999999N0000001N9+00001+99999100661ADDGF104991999999999999999999
0029029170999991909032320004+62900+027667FM-12+009099999V0209991C000019999999N0000001N9-00501+99999100481ADDGF100991999999999999999999
0029029170999991909032406004+62900+027667FM-12+009099999V0209991C000019999999N0000001N9-01111+99999100321ADDGF108991999999999999999999
0029029170999991909032413004+62900+027667FM-12+009099999V0209991C000019999999N0000001N9-00221+99999100101ADDGF100991999999999999999999
0029029170999991909032420004+62900+027667FM-12+009099999V0209991C000019999999N0000001N9-01281+99999099861ADDGF100991999999999999999999
0029029170999991909032506004+62900+027667FM-12+009099999V0200501N001019999999N0000001N9-00891+99999099501ADDGF104991999999999999999999
0029029170999991909032513004+62900+027667FM-12+009099999V0200501N001019999999N0000001N9-00171+99999099301ADDGF104991999999999999999999
0029029170999991909032520004+62900+027667FM-12+009099999V0200501N001019999999N0000001N9-00391+99999099351ADDGF108991999999999999999999
0029029170999991909032606004+62900+027667FM-12+009099999V0200501N001019999999N0000001N9-00941+99999099701ADDGF100991999999999999999999
0029029170999991909032613004+62900+027667FM-12+009099999V0200501N001019999999N0000001N9-00171+99999100151ADDGF100991999999999999999999
0029029170999991909032620004+62900+027667FM-12+009099999V0209991C000019999999N0000001N9-00501+99999100481ADDGF104991999999999999999999
0029029170999991909032706004+62900+027667FM-12+009099999V0201101N001019999999N0000001N9-00721+99999100641ADDGF108991999999999999999999
0035029170999991909032713004+62900+027667FM-12+009099999V0201101N001019999999N0000001N9-00061+99999100601ADDGF108991999999999999999999MW1721
0035029170999991909032720004+62900+027667FM-12+009099999V0209991C000019999999N0000001N9-00111+99999100421ADDGF108991999999999999999999MW1721
0029029170999991909032806004+62900+027667FM-12+009099999V0201401N001019999999N0000001N9+00061+99999100101ADDGF108991999999999999999999
0029029170999991909032813004+62900+027667FM-12+009099999V0201101N001019999999N0000001N9+00331+99999100161ADDGF108991999999999999999999
0029029170999991909032820004+62900+027667FM-12+009099999V0209991C000019999999N0000001N9+00061+99999099741ADDGF108991999999999999999999
0035029170999991909032906004+62900+027667FM-12+009099999V0209991C000019999999N0000001N9+00061+99999099281ADDGF108991999999999999999999MW1721
0029029170999991909032913004+62900+027667FM-12+009099999V0202501N001019999999N0000001N9+00221+99999099121ADDGF108991999999999999999999
0029029170999991909032920004+62900+027667FM-12+009099999V0202501N001019999999N0000001N9+00001+99999099281ADDGF104991999999999999999999
0029029170999991909033006004+62900+027667FM-12+009099999V0202301N001019999999N0000001N9-00221+99999099831ADDGF100991999999999999999999
0029029170999991909033013004+62900+027667FM-12+009099999V0209991C000019999999N0000001N9+00281+99999099941ADDGF108991999999999999999999
0029029170999991909033020004+62900+027667FM-12+009099999V0209991C000019999999N0000001N9+00221+99999099951ADDGF108991999999999999999999
0029029170999991909033106004+62900+027667FM-12+009099999V0201401N001019999999N0000001N9+00061+99999099431ADDGF108991999999999999999999
0035029170999991909033113004+62900+027667FM-12+009099999V0209991C000019999999N0000001N9+00171+99999099191ADDGF108991999999999999999999MW1621
0035029170999991909033120004+62900+027667FM-12+009099999V0209991C000019999999N0000001N9+00111+99999098901ADDGF108991999999999999999999MW1621
0029029170999991909040106004+62900+027667FM-12+009099999V0202001N001019999999N0000001N9+00221+99999098311ADDGF108991999999999999999999
0029029170999991909040113004+62900+027667FM-12+009099999V0202301N002619999999N0000001N9+00281+99999098631ADDGF108991999999999999999999
0029029170999991909040120004+62900+027667FM-12+009099999V0202301N002619999999N0000001N9-00331+99999099351ADDGF108991999999999999999999
0029029170999991909040206004+62900+027667FM-12+009099999V0200501N001019999999N0000001N9-00611+99999099521ADDGF108991999999999999999999
0035029170999991909040213004+62900+027667FM-12+009099999V0203601N002619999999N0000001N9-00391+99999099541ADDGF108991999999999999999999MW1721
0029029170999991909040220004+62900+027667FM-12+009099999V0203601N004619999999N0000001N9-00721+99999100071ADDGF108991999999999999999999
0029029170999991909040306004+62900+027667FM-12+009099999V0203601N001019999999N0000001N9-00941+99999100711ADDGF104991999999999999999999
0029029170999991909040313004+62900+027667FM-12+009099999V0203601N004619999999N0000001N9-00221+99999101001ADDGF100991999999999999999999
0029029170999991909040320004+62900+027667FM-12+009099999V0203601N001019999999N0000001N9-00611+99999101391ADDGF100991999999999999999999
0029029170999991909040406004+62900+027667FM-12+009099999V0202901N001019999999N0000001N9-01061+99999101981ADDGF100991999999999999999999
0029029170999991909040413004+62900+027667FM-12+009099999V0202701N001019999999N0000001N9+00111+99999101951ADDGF100991999999999999999999
0029029170999991909040420004+62900+027667FM-12+009099999V0209991C000019999999N0000001N9-00111+99999101981ADDGF100991999999999999999999
0029029170999991909040506004+62900+027667FM-12+009099999V0209991C000019999999N0000001N9-00331+99999101991ADDGF108991999999999999999999
0029029170999991909040513004+62900+027667FM-12+009099999V0209991C000019999999N0000001N9+00721+99999101511ADDGF100991999999999999999999
0029029170999991909040520004+62900+027667FM-12+009099999V0209991C000019999999N0000001N9+00331+99999101031ADDGF104991999999999999999999
0029029170999991909040606004+62900+027667FM-12+009099999V0209991C000019999999N0000001N9+00001+99999100751ADDGF108991999999999999999999
0029029170999991909040613004+62900+027667FM-12+009099999V0209991C000019999999N0000001N9+00721+99999100631ADDGF104991999999999999999999
0029029170999991909040620004+62900+027667FM-12+009099999V0209991C000019999999N0000001N9+00391+99999100391ADDGF104991999999999999999999
0029029170999991909040706004+62900+027667FM-12+009099999V0200201N001019999999N0000001N9-00441+99999100551ADDGF104991999999999999999999
0029029170999991909040713004+62900+027667FM-12+009099999V0200501N002619999999N0000001N9-00221+99999100781ADDGF100991999999999999999999
0029029170999991909040720004+62900+027667FM-12+009099999V0200501N001019999999N0000001N9-00671+99999100781ADDGF100991999999999999999999
0029029170999991909040806004+62900+027667FM-12+009099999V0209991C000019999999N0000001N9-00831+99999100641ADDGF100991999999999999999999
0029029170999991909040813004+62900+027667FM-12+009099999V0202501N001019999999N0000001N9-00111+99999100231ADDGF108991999999999999999999
0029029170999991909040820004+62900+027667FM-12+009099999V0209991C000019999999N0000001N9-00391+99999099671ADDGF108991999999999999999999
0035029170999991909040906004+62900+027667FM-12+009099999V0202501N001019999999N0000001N9-00721+99999099591ADDGF108991999999999999999999MW1721
0029029170999991909040913004+62900+027667FM-12+009099999V0201101N001019999999N0000001N9-00111+99999099421ADDGF100991999999999999999999
0029029170999991909040920004+62900+027667FM-12+009099999V0201101N001019999999N0000001N9-00611+99999099551ADDGF100991999999999999999999
0029029170999991909041006004+62900+027667FM-12+009099999V0201401N002619999999N0000001N9-01001+99999100141ADDGF100991999999999999999999
0029029170999991909041013004+62900+027667FM-12+009099999V0200901N001019999999N0000001N9-00441+99999100401ADDGF100991999999999999999999
0029029170999991909041020004+62900+027667FM-12+009099999V0200901N001019999999N0000001N9-00721+99999100481ADDGF100991999999999999999999
0029029170999991909041106004+62900+027667FM-12+009099999V0200701N001019999999N0000001N9-01281+99999100541ADDGF100991999999999999999999
0029029170999991909041113004+62900+027667FM-12+009099999V0200901N001019999999N0000001N9-00391+99999100151ADDGF100991999999999999999999
0029029170999991909041120004+62900+027667FM-12+009099999V0200901N001019999999N0000001N9-00611+99999100031ADDGF108991999999999999999999
0029029170999991909041206004+62900+027667FM-12+009099999V0200901N002619999999N0000001N9-00611+99999099941ADDGF108991999999999999999999
0029029170999991909041213004+62900+027667FM-12+009099999V0200901N001019999999N0000001N9+00001+99999100191ADDGF100991999999999999999999
0029029170999991909041220004+62900+027667FM-12+009099999V0209991C000019999999N0000001N9-00611+99999100071ADDGF100991999999999999999999
0029029170999991909041306004+62900+027667FM-12+009099999V0209991C000019999999N0000001N9-00671+99999099801ADDGF100991999999999999999999
0029029170999991909041313004+62900+027667FM-12+009099999V0209991C000019999999N0000001N9+00171+99999099801ADDGF100991999999999999999999
0029029170999991909041320004+62900+027667FM-12+009099999V0209991C000019999999N0000001N9-00331+99999099821ADDGF100991999999999999999999
0029029170999991909041406004+62900+027667FM-12+009099999V0209991C000019999999N0000001N9-00501+99999100021ADDGF100991999999999999999999
0029029170999991909041413004+62900+027667FM-12+009099999V0209991C000019999999N0000001N9+00281+99999099911ADDGF100991999999999999999999
0029029170999991909041420004+62900+027667FM-12+009099999V0209991C000019999999N0000001N9-00331+99999100181ADDGF100991999999999999999999
0029029170999991909041506004+62900+027667FM-12+009099999V0209991C000019999999N0000001N9-00391+99999099831ADDGF100991999999999999999999
0029029170999991909041513004+62900+027667FM-12+009099999V0209991C000019999999N0000001N9+00391+99999099791ADDGF100991999999999999999999
0029029170999991909041520004+62900+027667FM-12+009099999V0209991C000019999999N0000001N9-00171+99999099841ADDGF100991999999999999999999
0029029170999991909041606004+62900+027667FM-12+009099999V0209991C000019999999N0000001N9+00331+99999099561ADDGF100991999999999999999999
0029029170999991909041613004+62900+027667FM-12+009099999V0200901N001019999999N0000001N9+00561+99999099831ADDGF100991999999999999999999
0029029170999991909041620004+62900+027667FM-12+009099999V0200501N002619999999N0000001N9+00331+99999099821ADDGF104991999999999999999999
0029029170999991909041706004+62900+027667FM-12+009099999V0200701N002619999999N0000001N9+00061+99999099801ADDGF108991999999999999999999
0035029170999991909041713004+62900+027667FM-12+009099999V0200501N002619999999N0000001N9+00001+99999100031ADDGF108991999999999999999999MW1721
0029029170999991909041720004+62900+027667FM-12+009099999V0200701N004619999999N0000001N9-00171+99999100181ADDGF104991999999999999999999
0035029170999991909041806004+62900+027667FM-12+009099999V0200201N002619999999N0000001N9-00501+99999100121ADDGF108991999999999999999999MW1701
0035029170999991909041813004+62900+027667FM-12+009099999V0200201N002619999999N0000001N9-00221+99999100461ADDGF104991999999999999999999MW1701
0035029170999991909041820004+62900+027667FM-12+009099999V0200201N001019999999N0000001N9-00611+99999100201ADDGF108991999999999999999999MW1701
0035029170999991909041906004+62900+027667FM-12+009099999V0200201N001019999999N0000001N9-00721+99999100381ADDGF108991999999999999999999MW1701
0029029170999991909041913004+62900+027667FM-12+009099999V0200201N001019999999N0000001N9-00281+99999100501ADDGF108991999999999999999999
0029029170999991909041920004+62900+027667FM-12+009099999V0209991C000019999999N0000001N9-00781+99999100601ADDGF100991999999999999999999
0029029170999991909042006004+62900+027667FM-12+009099999V0209991C000019999999N0000001N9-00831+99999100631ADDGF100991999999999999999999
0029029170999991909042013004+62900+027667FM-12+009099999V0200201N001019999999N0000001N9-00221+99999100511ADDGF100991999999999999999999
0029029170999991909042020004+62900+027667FM-12+009099999V0209991C000019999999N0000001N9-00611+99999100551ADDGF100991999999999999999999
0029029170999991909042106004+62900+027667FM-12+009099999V0209991C000019999999N0000001N9-00331+99999100701ADDGF104991999999999999999999
0029029170999991909042113004+62900+027667FM-12+009099999V0200201N001019999999N0000001N9+00061+99999100741ADDGF108991999999999999999999
0029029170999991909042120004+62900+027667FM-12+009099999V0209991C000019999999N0000001N9-00221+99999100881ADDGF108991999999999999999999
0029029170999991909042206004+62900+027667FM-12+009099999V0200201N001019999999N0000001N9-00441+99999100991ADDGF100991999999999999999999
0029029170999991909042213004+62900+027667FM-12+009099999V0200501N001019999999N0000001N9+00221+99999100911ADDGF108991999999999999999999
0029029170999991909042220004+62900+027667FM-12+009099999V0200501N001019999999N0000001N9+00171+99999100911ADDGF100991999999999999999999
0029029170999991909042306004+62900+027667FM-12+009099999V0200501N001019999999N0000001N9-00281+99999100671ADDGF100991999999999999999999
0029029170999991909042313004+62900+027667FM-12+009099999V0200501N001019999999N0000001N9+00331+99999100421ADDGF100991999999999999999999
0029029170999991909042320004+62900+027667FM-12+009099999V0200701N001019999999N0000001N9-00061+99999100311ADDGF108991999999999999999999
0035029170999991909042406004+62900+027667FM-12+009099999V0200501N001019999999N0000001N9-00331+99999100141ADDGF108991999999999999999999MW1701
0029029170999991909042413004+62900+027667FM-12+009099999V0209991C000019999999N0000001N9+00001+99999100121ADDGF104991999999999999999999
0029029170999991909042420004+62900+027667FM-12+009099999V0200501N001019999999N0000001N9-00061+99999100221ADDGF108991999999999999999999
0029029170999991909042506004+62900+027667FM-12+009099999V0200901N001019999999N0000001N9-00111+99999100421ADDGF108991999999999999999999
0029029170999991909042513004+62900+027667FM-12+009099999V0201401N001019999999N0000001N9+00441+99999100481ADDGF100991999999999999999999
0029029170999991909042520004+62900+027667FM-12+009099999V0201401N001019999999N0000001N9-00171+99999100481ADDGF100991999999999999999999
0029029170999991909042606004+62900+027667FM-12+009099999V0201401N001019999999N0000001N9+00001+99999099911ADDGF108991999999999999999999
0035029170999991909042613004+62900+027667FM-12+009099999V0201401N001019999999N0000001N9+00111+99999099511ADDGF108991999999999999999999MW1721
0029029170999991909042620004+62900+027667FM-12+009099999V0201401N001019999999N0000001N9+00061+99999099481ADDGF108991999999999999999999
0029029170999991909042706004+62900+027667FM-12+009099999V0209991C000019999999N0000001N9+00391+99999099231ADDGF108991999999999999999999
0029029170999991909042713004+62900+027667FM-12+009099999V0209991C000019999999N0000001N9+00941+99999099561ADDGF104991999999999999999999
0029029170999991909042720004+62900+027667FM-12+009099999V0209991C000019999999N0000001N9+00331+99999099561ADDGF100991999999999999999999
0029029170999991909042806004+62900+027667FM-12+009099999V0209991C000019999999N0000001N9+00171+99999099231ADDGF108991999999999999999999
0035029170999991909042813004+62900+027667FM-12+009099999V0201401N001019999999N0000001N9+00331+99999098591ADDGF108991999999999999999999MW1621
0029029170999991909042820004+62900+027667FM-12+009099999V0209991C000019999999N0000001N9+00281+99999097821ADDGF108991999999999999999999
0029029170999991909042906004+62900+027667FM-12+009099999V0202701N001019999999N0000001N9+00221+99999098041ADDGF108991999999999999999999
0029029170999991909042913004+62900+027667FM-12+009099999V0202501N001019999999N0000001N9+00441+99999098381ADDGF108991999999999999999999
0029029170999991909042920004+62900+027667FM-12+009099999V0209991C000019999999N0000001N9+00111+99999098561ADDGF108991999999999999999999
0029029170999991909043006004+62900+027667FM-12+009099999V0202001N001019999999N0000001N9+00221+99999098601ADDGF108991999999999999999999
0029029170999991909043013004+62900+027667FM-12+009099999V0202301N001019999999N0000001N9+00331+99999098761ADDGF108991999999999999999999
0029029170999991909043020004+62900+027667FM-12+009099999V0209991C000019999999N0000001N9+00171+99999099001ADDGF108991999999999999999999
0029029170999991909050106004+62900+027667FM-12+009099999V0209991C000019999999N0000001N9+00171+99999099221ADDGF108991999999999999999999
0029029170999991909050113004+62900+027667FM-12+009099999V0209991C000019999999N0000001N9+00501+99999099071ADDGF108991999999999999999999
0035029170999991909050120004+62900+027667FM-12+009099999V0200701N001019999999N0000001N9+00221+99999098911ADDGF108991999999999999999999MW1621
0035029170999991909050206004+62900+027667FM-12+009099999V0209991C000019999999N0000001N9+00171+99999098981ADDGF108991999999999999999999MW1721
0035029170999991909050213004+62900+027667FM-12+009099999V0202901N001019999999N0000001N9+00221+99999099351ADDGF108991999999999999999999MW1621
0029029170999991909050220004+62900+027667FM-12+009099999V0209991C000019999999N0000001N9+00111+99999100241ADDGF104991999999999999999999
0029029170999991909050306004+62900+027667FM-12+009099999V0209991C000019999999N0000001N9+00281+99999101081ADDGF104991999999999999999999
0029029170999991909050313004+62900+027667FM-12+009099999V0202301N001019999999N0000001N9+00721+99999101301ADDGF104991999999999999999999
0029029170999991909050320004+62900+027667FM-12+009099999V0209991C000019999999N0000001N9+00331+99999101701ADDGF100991999999999999999999
0029029170999991909050406004+62900+027667FM-12+009099999V0201801N002619999999N0000001N9+00331+99999101031ADDGF104991999999999999999999
0035029170999991909050413004+62900+027667FM-12+009099999V0202301N001019999999N0000001N9+00221+99999100941ADDGF104991999999999999999999MW1721
0029029170999991909050420004+62900+027667FM-12+009099999V0202501N001019999999N0000001N9+00171+99999101281ADDGF100991999999999999999999
0029029170999991909050506004+62900+027667FM-12+009099999V0202901N002619999999N0000001N9+00111+99999101101ADDGF100991999999999999999999
0029029170999991909050513004+62900+027667FM-12+009099999V0202901N002619999999N0000001N9+00331+99999101581ADDGF104991999999999999999999
0029029170999991909050520004+62900+027667FM-12+009099999V0203201N001019999999N0000001N9+00171+99999101911ADDGF104991999999999999999999
0029029170999991909050606004+62900+027667FM-12+009099999V0200501N002619999999N0000001N9+00001+99999102391ADDGF104991999999999999999999
0029029170999991909050613004+62900+027667FM-12+009099999V0200501N002619999999N0000001N9+00221+99999102231ADDGF108991999999999999999999
0029029170999991909050620004+62900+027667FM-12+009099999V0200501N001019999999N0000001N9-00061+99999102241ADDGF100991999999999999999999
0029029170999991909050706004+62900+027667FM-12+009099999V0200501N001019999999N0000001N9-00331+99999102261ADDGF100991999999999999999999
0029029170999991909050713004+62900+027667FM-12+009099999V0200901N001019999999N0000001N9+00281+99999102001ADDGF100991999999999999999999
0029029170999991909050720004+62900+027667FM-12+009099999V0209991C000019999999N0000001N9-00111+99999101661ADDGF100991999999999999999999
0029029170999991909050806004+62900+027667FM-12+009099999V0209991C000019999999N0000001N9+00001+99999101351ADDGF100991999999999999999999
0029029170999991909050813004+62900+027667FM-12+009099999V0200901N001019999999N0000001N9+00391+99999101121ADDGF100991999999999999999999
0029029170999991909050820004+62900+027667FM-12+009099999V0209991C000019999999N0000001N9-00061+99999100591ADDGF100991999999999999999999
0029029170999991909050906004+62900+027667FM-12+009099999V0209991C000019999999N0000001N9+00221+99999100521ADDGF100991999999999999999999
0029029170999991909050913004+62900+027667FM-12+009099999V0209991C000019999999N0000001N9+00671+99999100421ADDGF100991999999999999999999
0029029170999991909050920004+62900+027667FM-12+009099999V0209991C000019999999N0000001N9+00221+99999099881ADDGF100991999999999999999999
0029029170999991909051006004+62900+027667FM-12+009099999V0209991C000019999999N0000001N9+00331+99999099911ADDGF100991999999999999999999
0029029170999991909051013004+62900+027667FM-12+009099999V0201101N001019999999N0000001N9+00781+99999100221ADDGF104991999999999999999999
0029029170999991909051020004+62900+027667FM-12+009099999V0209991C000019999999N0000001N9+00331+99999100161ADDGF108991999999999999999999
0029029170999991909051106004+62900+027667FM-12+009099999V0209991C000019999999N0000001N9+00281+99999100181ADDGF104991999999999999999999
0029029170999991909051113004+62900+027667FM-12+009099999V0201601N001019999999N0000001N9+00671+99999100101ADDGF108991999999999999999999
0035029170999991909051120004+62900+027667FM-12+009099999V0209991C000019999999N0000001N9+00061+99999100071ADDGF108991999999999999999999MW1721
0029029170999991909051206004+62900+027667FM-12+009099999V0202901N001019999999N0000001N9+00171+99999999999ADDGF108991999999999999999999
0029029170999991909051213004+62900+027667FM-12+009099999V0202901N001019999999N0000001N9+00501+99999100521ADDGF104991999999999999999999
0029029170999991909051220004+62900+027667FM-12+009099999V0209991C000019999999N0000001N9+00171+99999100521ADDGF100991999999999999999999
0029029170999991909051306004+62900+027667FM-12+009099999V0201401N001019999999N0000001N9+00171+99999100321ADDGF104991999999999999999999
0035029170999991909051313004+62900+027667FM-12+009099999V0201101N002619999999N0000001N9+00111+99999099421ADDGF108991999999999999999999MW1721
0029029170999991909051320004+62900+027667FM-12+009099999V0201401N001019999999N0000001N9+00441+99999098601ADDGF108991999999999999999999
0029029170999991909051406004+62900+027667FM-12+009099999V0202001N002619999999N0000001N9+00281+99999098441ADDGF108991999999999999999999
0029029170999991909051413004+62900+027667FM-12+009099999V0202301N002619999999N0000001N9+00331+99999099321ADDGF108991999999999999999999
0029029170999991909051420004+62900+027667FM-12+009099999V0202301N001019999999N0000001N9+00111+99999099881ADDGF100991999999999999999999
0029029170999991909051506004+62900+027667FM-12+009099999V0202301N001019999999N0000001N9+00221+99999100461ADDGF100991999999999999999999
0029029170999991909051513004+62900+027667FM-12+009099999V0202301N001019999999N0000001N9+00721+99999100351ADDGF108991999999999999999999
0029029170999991909051520004+62900+027667FM-12+009099999V0209991C000019999999N0000001N9+00171+99999100391ADDGF104991999999999999999999
0029029170999991909051606004+62900+027667FM-12+009099999V0201401N001019999999N0000001N9+00331+99999099981ADDGF104991999999999999999999
0029029170999991909051613004+62900+027667FM-12+009099999V0202001N001019999999N0000001N9+00721+99999099831ADDGF100991999999999999999999
0029029170999991909051620004+62900+027667FM-12+009099999V0209991C000019999999N0000001N9+00111+99999099981ADDGF104991999999999999999999
0029029170999991909051706004+62900+027667FM-12+009099999V0202501N001019999999N0000001N9+00221+99999100461ADDGF100991999999999999999999
0029029170999991909051713004+62900+027667FM-12+009099999V0202501N001019999999N0000001N9+00721+99999100911ADDGF104991999999999999999999
0029029170999991909051720004+62900+027667FM-12+009099999V0209991C000019999999N0000001N9+00281+99999101071ADDGF104991999999999999999999
0029029170999991909051806004+62900+027667FM-12+009099999V0209991C000019999999N0000001N9+00331+99999101231ADDGF100991999999999999999999
0029029170999991909051813004+62900+027667FM-12+009099999V0201601N001019999999N0000001N9+01111+99999100681ADDGF104991999999999999999999
0029029170999991909051820004+62900+027667FM-12+009099999V0201601N001019999999N0000001N9+00561+99999100181ADDGF108991999999999999999999
0029029170999991909051906004+62900+027667FM-12+009099999V0209991C000019999999N0000001N9+00281+99999099391ADDGF108991999999999999999999
0029029170999991909051913004+62900+027667FM-12+009099999V0209991C000019999999N0000001N9+00561+99999099151ADDGF108991999999999999999999
0029029170999991909051920004+62900+027667FM-12+009099999V0209991C000019999999N0000001N9+00221+99999099041ADDGF108991999999999999999999
0035029170999991909052006004+62900+027667FM-12+009099999V0200201N002619999999N0000001N9-00061+99999099591ADDGF108991999999999999999999MW1721
0029029170999991909052013004+62900+027667FM-12+009099999V0200501N001019999999N0000001N9+00221+99999100231ADDGF108991999999999999999999
0029029170999991909052020004+62900+027667FM-12+009099999V0200201N001019999999N0000001N9+00221+99999100641ADDGF108991999999999999999999
0029029170999991909052106004+62900+027667FM-12+009099999V0203401N001019999999N0000001N9+00221+99999100911ADDGF108991999999999999999999
0029029170999991909052113004+62900+027667FM-12+009099999V0203201N001019999999N0000001N9+00441+99999101081ADDGF108991999999999999999999
0029029170999991909052120004+62900+027667FM-12+009099999V0203401N001019999999N0000001N9+00171+99999101161ADDGF108991999999999999999999
0029029170999991909052206004+62900+027667FM-12+009099999V0203201N001019999999N0000001N9+00221+99999101141ADDGF108991999999999999999999
0029029170999991909052213004+62900+027667FM-12+009099999V0209991C000019999999N0000001N9+00501+99999101041ADDGF108991999999999999999999
0029029170999991909052220004+62900+027667FM-12+009099999V0203201N001019999999N0000001N9+00221+99999101141ADDGF108991999999999999999999
0029029170999991909052306004+62900+027667FM-12+009099999V0209991C000019999999N0000001N9+00441+99999101281ADDGF100991999999999999999999
0029029170999991909052313004+62900+027667FM-12+009099999V0209991C000019999999N0000001N9+00781+99999101461ADDGF108991999999999999999999
0029029170999991909052320004+62900+027667FM-12+009099999V0209991C000019999999N0000001N9+00391+99999101181ADDGF100991999999999999999999
0029029170999991909052406004+62900+027667FM-12+009099999V0209991C000019999999N0000001N9+00561+99999100981ADDGF104991999999999999999999
0029029170999991909052413004+62900+027667FM-12+009099999V0202501N001019999999N0000001N9+01061+99999100801ADDGF104991999999999999999999
0029029170999991909052420004+62900+027667FM-12+009099999V0209991C000019999999N0000001N9+00721+99999100351ADDGF104991999999999999999999
0029029170999991909052506004+62900+027667FM-12+009099999V0209991C000019999999N0000001N9+00561+99999100311ADDGF108991999999999999999999
0035029170999991909052513004+62900+027667FM-12+009099999V0209991C000019999999N0000001N9+00611+99999100281ADDGF108991999999999999999999MW1621
0035029170999991909052520004+62900+027667FM-12+009099999V0209991C000019999999N0000001N9+00391+99999100421ADDGF108991999999999999999999MW1621
0029029170999991909052606004+62900+027667FM-12+009099999V0200501N001019999999N0000001N9+00331+99999100841ADDGF100991999999999999999999
0029029170999991909052613004+62900+027667FM-12+009099999V0200701N001019999999N0000001N9+00781+99999100881ADDGF100991999999999999999999
0029029170999991909052620004+62900+027667FM-12+009099999V0209991C000019999999N0000001N9+00501+99999100981ADDGF100991999999999999999999
0029029170999991909052706004+62900+027667FM-12+009099999V0209991C000019999999N0000001N9+00561+99999100991ADDGF100991999999999999999999
0029029170999991909052713004+62900+027667FM-12+009099999V0202701N001019999999N0000001N9+01331+99999100911ADDGF100991999999999999999999
0029029170999991909052720004+62900+027667FM-12+009099999V0209991C000019999999N0000001N9+01061+99999100621ADDGF104991999999999999999999
0029029170999991909052806004+62900+027667FM-12+009099999V0202701N001019999999N0000001N9+01001+99999100461ADDGF100991999999999999999999
0029029170999991909052813004+62900+027667FM-12+009099999V0202901N001019999999N0000001N9+01561+99999100431ADDGF100991999999999999999999
0029029170999991909052820004+62900+027667FM-12+009099999V0209991C000019999999N0000001N9+01061+99999100551ADDGF100991999999999999999999
0029029170999991909052906004+62900+027667FM-12+009099999V0209991C000019999999N0000001N9+01061+99999100751ADDGF100991999999999999999999
0029029170999991909052913004+62900+027667FM-12+009099999V0201401N001019999999N0000001N9+01891+99999100961ADDGF100991999999999999999999
0029029170999991909052920004+62900+027667FM-12+009099999V0209991C000019999999N0000001N9+01281+99999100621ADDGF100991999999999999999999
0029029170999991909053006004+62900+027667FM-12+009099999V0202901N001019999999N0000001N9+01391+99999100501ADDGF100991999999999999999999
0029029170999991909053013004+62900+027667FM-12+009099999V0202701N002619999999N0000001N9+02001+99999100221ADDGF104991999999999999999999
0029029170999991909053020004+62900+027667FM-12+009099999V0209991C000019999999N0000001N9+01171+99999999999ADDGF108991999999999999999999
0029029170999991909053106004+62900+027667FM-12+009099999V0202301N002619999999N0000001N9+01061+99999099441ADDGF108991999999999999999999
0029029170999991909053113004+62900+027667FM-12+009099999V0202301N002619999999N0000001N9+01171+99999099391ADDGF108991999999999999999999
0029029170999991909053120004+62900+027667FM-12+009099999V0209991C000019999999N0000001N9+00891+99999099461ADDGF100991999999999999999999
0029029170999991909060106004+62900+027667FM-12+009099999V0202501N001019999999N0000001N9+01001+99999099961ADDGF100991999999999999999999
0029029170999991909060113004+62900+027667FM-12+009099999V0202901N001019999999N0000001N9+01561+99999099821ADDGF104991999999999999999999
0029029170999991909060120004+62900+027667FM-12+009099999V0202501N001019999999N0000001N9+01221+99999099831ADDGF108991999999999999999999
0035029170999991909060206004+62900+027667FM-12+009099999V0201101N001019999999N0000001N9+00671+99999099231ADDGF108991999999999999999999MW1621
0029029170999991909060213004+62900+027667FM-12+009099999V0209991C000019999999N0000001N9+01061+99999098701ADDGF108991999999999999999999
0035029170999991909060220004+62900+027667FM-12+009099999V0200501N001019999999N0000001N9+01001+99999098821ADDGF108991999999999999999999MW1621
0035029170999991909060306004+62900+027667FM-12+009099999V0200501N002619999999N0000001N9+00561+99999098841ADDGF108991999999999999999999MW1621
0029029170999991909060313004+62900+027667FM-12+009099999V0203601N002619999999N0000001N9+00941+99999099321ADDGF108991999999999999999999
0029029170999991909060320004+62900+027667FM-12+009099999V0209991C000019999999N0000001N9+00891+99999099231ADDGF102991999999999999999999
0029029170999991909060406004+62900+027667FM-12+009099999V0209991C000019999999N0000001N9+00671+99999099101ADDGF101991999999999999999999
0029029170999991909060413004+62900+027667FM-12+009099999V0209991C000019999999N0000001N9+01171+99999098681ADDGF108991999999999999999999
0035029170999991909060420004+62900+027667FM-12+009099999V0209991C000019999999N0000001N9+00721+99999098441ADDGF108991999999999999999999MW1621
0029029170999991909060506004+62900+027667FM-12+009099999V0202701N002619999999N0000001N9+00501+99999098361ADDGF108991999999999999999999
0035029170999991909060513004+62900+027667FM-12+009099999V0202701N001019999999N0000001N9+00781+99999098561ADDGF108991999999999999999999MW1621
0029029170999991909060520004+62900+027667FM-12+009099999V0209991C000019999999N0000001N9+00721+99999099101ADDGF105991999999999999999999
0029029170999991909060606004+62900+027667FM-12+009099999V0209991C000019999999N0000001N9+00831+99999099511ADDGF106991999999999999999999
0029029170999991909060613004+62900+027667FM-12+009099999V0201101N001019999999N0000001N9+01441+99999099521ADDGF106991999999999999999999
0029029170999991909060620004+62900+027667FM-12+009099999V0201101N001019999999N0000001N9+01061+99999099591ADDGF105991999999999999999999
0035029170999991909060706004+62900+027667FM-12+009099999V0200901N001019999999N0000001N9+00721+99999099551ADDGF108991999999999999999999MW1621
0029029170999991909060713004+62900+027667FM-12+009099999V0209991C000019999999N0000001N9+00781+99999099151ADDGF108991999999999999999999
0029029170999991909060720004+62900+027667FM-12+009099999V0209991C000019999999N0000001N9+00781+99999099161ADDGF108991999999999999999999
0029029170999991909060806004+62900+027667FM-12+009099999V0202301N001019999999N0000001N9+00891+99999098831ADDGF108991999999999999999999
0029029170999991909060813004+62900+027667FM-12+009099999V0202701N001019999999N0000001N9+01061+99999099341ADDGF106991999999999999999999
0029029170999991909060820004+62900+027667FM-12+009099999V0202501N001019999999N0000001N9+01001+99999099441ADDGF105991999999999999999999
0029029170999991909060906004+62900+027667FM-12+009099999V0209991C000019999999N0000001N9+01001+99999099791ADDGF100991999999999999999999
0029029170999991909060913004+62900+027667FM-12+009099999V0209991C000019999999N0000001N9+01561+99999099711ADDGF103991999999999999999999
0029029170999991909060920004+62900+027667FM-12+009099999V0209991C000019999999N0000001N9+01221+99999099791ADDGF107991999999999999999999
0029029170999991909061006004+62900+027667FM-12+009099999V0201101N001019999999N0000001N9+01221+99999099791ADDGF107991999999999999999999
0029029170999991909061013004+62900+027667FM-12+009099999V0201401N001019999999N0000001N9+01281+99999099471ADDGF107991999999999999999999
0029029170999991909061020004+62900+027667FM-12+009099999V0209991C000019999999N0000001N9+01111+99999099711ADDGF107991999999999999999999
0029029170999991909061106004+62900+027667FM-12+009099999V0209991C000019999999N0000001N9+01001+99999099951ADDGF108991999999999999999999
0029029170999991909061113004+62900+027667FM-12+009099999V0202301N002619999999N0000001N9+01501+99999100321ADDGF106991999999999999999999
0029029170999991909061120004+62900+027667FM-12+009099999V0202901N001019999999N0000001N9+01001+99999100391ADDGF106991999999999999999999
0029029170999991909061206004+62900+027667FM-12+009099999V0209991C000019999999N0000001N9+01171+99999100671ADDGF100991999999999999999999
0029029170999991909061213004+62900+027667FM-12+009099999V0209991C000019999999N0000001N9+01561+99999100781ADDGF106991999999999999999999
0035029170999991909061220004+62900+027667FM-12+009099999V0209991C000019999999N0000001N9+01331+99999100541ADDGF108991999999999999999999MW1621
0035029170999991909061306004+62900+027667FM-12+009099999V0200501N002619999999N0000001N9+01001+99999999999ADDGF108991999999999999999999MW1621
0029029170999991909061313004+62900+027667FM-12+009099999V0209991C000019999999N0000001N9+01171+99999099991ADDGF108991999999999999999999
0029029170999991909061320004+62900+027667FM-12+009099999V0203401N001019999999N0000001N9+01171+99999099981ADDGF106991999999999999999999
0029029170999991909061406004+62900+027667FM-12+009099999V0200701N001019999999N0000001N9+00671+99999100281ADDGF107991999999999999999999
0029029170999991909061413004+62900+027667FM-12+009099999V0200501N001019999999N0000001N9+01111+99999100671ADDGF101991999999999999999999
0029029170999991909061420004+62900+027667FM-12+009099999V0200501N001019999999N0000001N9+00831+99999101381ADDGF108991999999999999999999
0029029170999991909061506004+62900+027667FM-12+009099999V0200701N001019999999N0000001N9+00891+99999101401ADDGF100991999999999999999999
0029029170999991909061513004+62900+027667FM-12+009099999V0201101N001019999999N0000001N9+01441+99999101041ADDGF100991999999999999999999
0029029170999991909061520004+62900+027667FM-12+009099999V0209991C000019999999N0000001N9+01221+99999100641ADDGF108991999999999999999999
0029029170999991909061606004+62900+027667FM-12+009099999V0202901N001019999999N0000001N9+01391+99999100261ADDGF100991999999999999999999
0029029170999991909061613004+62900+027667FM-12+009099999V0200501N002619999999N0000001N9+02001+99999100641ADDGF101991999999999999999999
0029029170999991909061620004+62900+027667FM-12+009099999V0209991C000019999999N0000001N9+01501+99999101001ADDGF100991999999999999999999
0029029170999991909061706004+62900+027667FM-12+009099999V0209991C000019999999N0000001N9+01441+99999100901ADDGF100991999999999999999999
0029029170999991909061713004+62900+027667FM-12+009099999V0203601N001019999999N0000001N9+02001+99999100381ADDGF101991999999999999999999
0029029170999991909061720004+62900+027667FM-12+009099999V0209991C000019999999N0000001N9+01831+99999100021ADDGF103991999999999999999999
0029029170999991909061806004+62900+027667FM-12+009099999V0200201N001019999999N0000001N9+01331+99999100351ADDGF100991999999999999999999
0029029170999991909061813004+62900+027667FM-12+009099999V0203201N001019999999N0000001N9+01831+99999100271ADDGF101991999999999999999999
0029029170999991909061820004+62900+027667FM-12+009099999V0209991C000019999999N0000001N9+01441+99999100341ADDGF100991999999999999999999
0029029170999991909061906004+62900+027667FM-12+009099999V0209991C000019999999N0000001N9+01441+99999100031ADDGF102991999999999999999999
0029029170999991909061913004+62900+027667FM-12+009099999V0209991C000019999999N0000001N9+02001+99999099871ADDGF106991999999999999999999
0029029170999991909061920004+62900+027667FM-12+009099999V0209991C000019999999N0000001N9+01441+99999100191ADDGF102991999999999999999999
0029029170999991909062006004+62900+027667FM-12+009099999V0209991C000019999999N0000001N9+01611+99999099821ADDGF102991999999999999999999
0029029170999991909062013004+62900+027667FM-12+009099999V0209991C000019999999N0000001N9+02171+99999099831ADDGF106991999999999999999999
0029029170999991909062020004+62900+027667FM-12+009099999V0209991C000019999999N0000001N9+01721+99999099551ADDGF102991999999999999999999
0029029170999991909062106004+62900+027667FM-12+009099999V0209991C000019999999N0000001N9+01671+99999099561ADDGF101991999999999999999999
0029029170999991909062113004+62900+027667FM-12+009099999V0209991C000019999999N0000001N9+02221+99999099831ADDGF102991999999999999999999
0029029170999991909062120004+62900+027667FM-12+009099999V0209991C000019999999N0000001N9+01331+99999099751ADDGF105991999999999999999999
0029029170999991909062206004+62900+027667FM-12+009099999V0201101N001019999999N0000001N9+01441+99999099861ADDGF108991999999999999999999
0029029170999991909062213004+62900+027667FM-12+009099999V0209991C000019999999N0000001N9+01941+99999100161ADDGF102991999999999999999999
0029029170999991909062220004+62900+027667FM-12+009099999V0203601N001019999999N0000001N9+01391+99999100181ADDGF108991999999999999999999
0035029170999991909062306004+62900+027667FM-12+009099999V0201401N001019999999N0000001N9+00941+99999100431ADDGF108991999999999999999999MW1621
0029029170999991909062313004+62900+027667FM-12+009099999V0201401N001019999999N0000001N9+01721+99999100461ADDGF100991999999999999999999
0029029170999991909062320004+62900+027667FM-12+009099999V0209991C000019999999N0000001N9+01501+99999100721ADDGF101991999999999999999999
0029029170999991909062406004+62900+027667FM-12+009099999V0209991C000019999999N0000001N9+01331+99999100601ADDGF108991999999999999999999
0029029170999991909062413004+62900+027667FM-12+009099999V0201401N001019999999N0000001N9+02111+99999100241ADDGF100991999999999999999999
0029029170999991909062420004+62900+027667FM-12+009099999V0209991C000019999999N0000001N9+01781+99999100321ADDGF100991999999999999999999
0029029170999991909062506004+62900+027667FM-12+009099999V0201601N001019999999N0000001N9+01561+99999100421ADDGF100991999999999999999999
0029029170999991909062513004+62900+027667FM-12+009099999V0209991C000019999999N0000001N9+02281+99999100541ADDGF101991999999999999999999
0029029170999991909062520004+62900+027667FM-12+009099999V0209991C000019999999N0000001N9+01781+99999100441ADDGF102991999999999999999999
0029029170999991909062606004+62900+027667FM-12+009099999V0200201N001019999999N0000001N9+02001+99999100351ADDGF100991999999999999999999
0029029170999991909062613004+62900+027667FM-12+009099999V0202901N001019999999N0000001N9+02561+99999100161ADDGF101991999999999999999999
0029029170999991909062620004+62900+027667FM-12+009099999V0209991C000019999999N0000001N9+02281+99999100311ADDGF102991999999999999999999
0029029170999991909062706004+62900+027667FM-12+009099999V0209991C000019999999N0000001N9+02001+99999100061ADDGF101991999999999999999999
0029029170999991909062713004+62900+027667FM-12+009099999V0202901N001019999999N0000001N9+02781+99999100261ADDGF101991999999999999999999
0029029170999991909062720004+62900+027667FM-12+009099999V0209991C000019999999N0000001N9+01831+99999100391ADDGF101991999999999999999999
0029029170999991909062806004+62900+027667FM-12+009099999V0200501N002619999999N0000001N9+01391+99999100041ADDGF100991999999999999999999
0029029170999991909062813004+62900+027667FM-12+009099999V0200901N001019999999N0000001N9+02441+99999099921ADDGF106991999999999999999999
0029029170999991909062820004+62900+027667FM-12+009099999V0209991C000019999999N0000001N9+01611+99999099841ADDGF101991999999999999999999
0029029170999991909062906004+62900+027667FM-12+009099999V0209991C000019999999N0000001N9+01561+99999100111ADDGF107991999999999999999999
0029029170999991909062913004+62900+027667FM-12+009099999V0209991C000019999999N0000001N9+02171+99999099261ADDGF107991999999999999999999
0035029170999991909062920004+62900+027667FM-12+009099999V0203201N001019999999N0000001N9+01331+99999099161ADDGF108991999999999999999999MW1621
0029029170999991909063006004+62900+027667FM-12+009099999V0203201N002619999999N0000001N9+01001+99999099381ADDGF100991999999999999999999
0029029170999991909063013004+62900+027667FM-12+009099999V0202901N002619999999N0000001N9+01111+99999099791ADDGF108991999999999999999999
0029029170999991909063020004+62900+027667FM-12+009099999V0209991C000019999999N0000001N9+01061+99999100041ADDGF102991999999999999999999
0029029170999991909070106004+62900+027667FM-12+009099999V0203601N001019999999N0000001N9+01111+99999100021ADDGF101991999999999999999999
0029029170999991909070113004+62900+027667FM-12+009099999V0203201N001019999999N0000001N9+01391+99999100401ADDGF106991999999999999999999
0029029170999991909070120004+62900+027667FM-12+009099999V0209991C000019999999N0000001N9+01061+99999100391ADDGF100991999999999999999999
0029029170999991909070206004+62900+027667FM-12+009099999V0200201N001019999999N0000001N9+01171+99999100551ADDGF100991999999999999999999
0029029170999991909070213004+62900+027667FM-12+009099999V0209991C000019999999N0000001N9+01781+99999100471ADDGF102991999999999999999999
0029029170999991909070220004+62900+027667FM-12+009099999V0209991C000019999999N0000001N9+01891+99999100431ADDGF101991999999999999999999
0029029170999991909070306004+62900+027667FM-12+009099999V0209991C000019999999N0000001N9+01611+99999100511ADDGF101991999999999999999999
0029029170999991909070313004+62900+027667FM-12+009099999V0209991C000019999999N0000001N9+02111+99999100431ADDGF103991999999999999999999
0029029170999991909070320004+62900+027667FM-12+009099999V0209991C000019999999N0000001N9+01721+99999100381ADDGF101991999999999999999999
0029029170999991909070406004+62900+027667FM-12+009099999V0202901N001019999999N0000001N9+01781+99999100561ADDGF100991999999999999999999
0029029170999991909070413004+62900+027667FM-12+009099999V0201401N001019999999N0000001N9+02331+99999100621ADDGF103991999999999999999999
0029029170999991909070420004+62900+027667FM-12+009099999V0202001N001019999999N0000001N9+01831+99999100581ADDGF101991999999999999999999
0029029170999991909070506004+62900+027667FM-12+009099999V0209991C000019999999N0000001N9+01891+99999100541ADDGF102991999999999999999999
0029029170999991909070513004+62900+027667FM-12+009099999V0209991C000019999999N0000001N9+02281+99999100461ADDGF107991999999999999999999
0029029170999991909070520004+62900+027667FM-12+009099999V0209991C000019999999N0000001N9+01831+99999100191ADDGF107991999999999999999999
0029029170999991909070606004+62900+027667FM-12+009099999V0209991C000019999999N0000001N9+01831+99999100041ADDGF102991999999999999999999
0029029170999991909070613004+62900+027667FM-12+009099999V0209991C000019999999N0000001N9+02221+99999099911ADDGF102991999999999999999999
0029029170999991909070620004+62900+027667FM-12+009099999V0209991C000019999999N0000001N9+01781+99999099901ADDGF101991999999999999999999
0029029170999991909070706004+62900+027667FM-12+009099999V0209991C000019999999N0000001N9+01721+99999099951ADDGF101991999999999999999999
0029029170999991909070713004+62900+027667FM-12+009099999V0201101N001019999999N0000001N9+02171+99999099831ADDGF102991999999999999999999
0029029170999991909070720004+62900+027667FM-12+009099999V0209991C000019999999N0000001N9+01891+99999099951ADDGF101991999999999999999999
0029029170999991909070806004+62900+027667FM-12+009099999V0209991C000019999999N0000001N9+01831+99999099961ADDGF101991999999999999999999
0029029170999991909070813004+62900+027667FM-12+009099999V0209991C000019999999N0000001N9+02171+99999099741ADDGF105991999999999999999999
0029029170999991909070820004+62900+027667FM-12+009099999V0209991C000019999999N0000001N9+01941+99999099831ADDGF100991999999999999999999
0029029170999991909070906004+62900+027667FM-12+009099999V0200701N001019999999N0000001N9+02061+99999099801ADDGF100991999999999999999999
0029029170999991909070913004+62900+027667FM-12+009099999V0201101N001019999999N0000001N9+02721+99999099311ADDGF101991999999999999999999
0029029170999991909070920004+62900+027667FM-12+009099999V0209991C000019999999N0000001N9+02171+99999099021ADDGF101991999999999999999999
0029029170999991909071006004+62900+027667FM-12+009099999V0200901N002619999999N0000001N9+02061+99999098861ADDGF102991999999999999999999
0029029170999991909071013004+62900+027667FM-12+009099999V0201401N002619999999N0000001N9+02171+99999098751ADDGF107991999999999999999999
0029029170999991909071020004+62900+027667FM-12+009099999V0209991C000019999999N0000001N9+01781+99999098741ADDGF108991999999999999999999
0029029170999991909071106004+62900+027667FM-12+009099999V0200901N001019999999N0000001N9+01611+99999098791ADDGF108991999999999999999999
0035029170999991909071113004+62900+027667FM-12+009099999V0200901N001019999999N0000001N9+01891+99999098751ADDGF107991999999999999999999MW1621
0029029170999991909071120004+62900+027667FM-12+009099999V0209991C000019999999N0000001N9+01671+99999098681ADDGF107991999999999999999999
0029029170999991909071206004+62900+027667FM-12+009099999V0209991C000019999999N0000001N9+01561+99999098701ADDGF108991999999999999999999
0029029170999991909071213004+62900+027667FM-12+009099999V0200501N001019999999N0000001N9+02111+99999098721ADDGF101991999999999999999999
0029029170999991909071220004+62900+027667FM-12+009099999V0209991C000019999999N0000001N9+01891+99999098801ADDGF102991999999999999999999
0029029170999991909071306004+62900+027667FM-12+009099999V0209991C000019999999N0000001N9+01781+99999098711ADDGF105991999999999999999999
0029029170999991909071313004+62900+027667FM-12+009099999V0200201N001019999999N0000001N9+02221+99999098621ADDGF106991999999999999999999
0029029170999991909071320004+62900+027667FM-12+009099999V0200201N001019999999N0000001N9+01721+99999098641ADDGF107991999999999999999999
0029029170999991909071406004+62900+027667FM-12+009099999V0209991C000019999999N0000001N9+01831+99999098641ADDGF108991999999999999999999
0029029170999991909071413004+62900+027667FM-12+009099999V0203601N001019999999N0000001N9+02331+99999098581ADDGF102991999999999999999999
0029029170999991909071420004+62900+027667FM-12+009099999V0209991C000019999999N0000001N9+01721+99999098591ADDGF101991999999999999999999
0029029170999991909071506004+62900+027667FM-12+009099999V0202701N001019999999N0000001N9+01671+99999098581ADDGF108991999999999999999999
0029029170999991909071513004+62900+027667FM-12+009099999V0203201N001019999999N0000001N9+02441+99999098501ADDGF102991999999999999999999
0029029170999991909071520004+62900+027667FM-12+009099999V0209991C000019999999N0000001N9+01891+99999098601ADDGF100991999999999999999999
0029029170999991909071606004+62900+027667FM-12+009099999V0202901N002619999999N0000001N9+01611+99999098821ADDGF101991999999999999999999
0029029170999991909071613004+62900+027667FM-12+009099999V0202501N002619999999N0000001N9+02001+99999098991ADDGF101991999999999999999999
0029029170999991909071620004+62900+027667FM-12+009099999V0209991C000019999999N0000001N9+01561+99999099151ADDGF101991999999999999999999
0029029170999991909071706004+62900+027667FM-12+009099999V0209991C000019999999N0000001N9+01391+99999099231ADDGF105991999999999999999999
0029029170999991909071713004+62900+027667FM-12+009099999V0209991C000019999999N0000001N9+02061+99999099151ADDGF102991999999999999999999
0029029170999991909071720004+62900+027667FM-12+009099999V0202301N001019999999N0000001N9+01721+99999098741ADDGF101991999999999999999999
0035029170999991909071806004+62900+027667FM-12+009099999V0201801N002619999999N0000001N9+01331+99999097841ADDGF108991999999999999999999MW1621
0035029170999991909071813004+62900+027667FM-12+009099999V0202301N002619999999N0000001N9+01331+99999098341ADDGF108991999999999999999999MW1621
0029029170999991909071820004+62900+027667FM-12+009099999V0202301N002619999999N0000001N9+01281+99999098461ADDGF108991999999999999999999
0029029170999991909071906004+62900+027667FM-12+009099999V0202301N004619999999N0000001N9+01221+99999098201ADDGF102991999999999999999999
0029029170999991909071913004+62900+027667FM-12+009099999V0202301N004619999999N0000001N9+01561+99999098111ADDGF107991999999999999999999
0035029170999991909071920004+62900+027667FM-12+009099999V0202301N001019999999N0000001N9+00831+99999098101ADDGF108991999999999999999999MW1621
0029029170999991909072006004+62900+027667FM-12+009099999V0209991C000019999999N0000001N9+00941+99999097781ADDGF108991999999999999999999
0029029170999991909072013004+62900+027667FM-12+009099999V0209991C000019999999N0000001N9+01501+99999097881ADDGF107991999999999999999999
0035029170999991909072020004+62900+027667FM-12+009099999V0209991C000019999999N0000001N9+01171+99999097921ADDGF108991999999999999999999MW1621
0029029170999991909072106004+62900+027667FM-12+009099999V0209991C000019999999N0000001N9+01171+99999098101ADDGF107991999999999999999999
0029029170999991909072113004+62900+027667FM-12+009099999V0203601N001019999999N0000001N9+01501+99999098241ADDGF106991999999999999999999
0035029170999991909072120004+62900+027667FM-12+009099999V0203201N001019999999N0000001N9+01171+99999098351ADDGF108991999999999999999999MW1621
0029029170999991909072206004+62900+027667FM-12+009099999V0209991C000019999999N0000001N9+01171+99999098501ADDGF108991999999999999999999
0029029170999991909072213004+62900+027667FM-12+009099999V0209991C000019999999N0000001N9+01501+99999098481ADDGF103991999999999999999999
0029029170999991909072220004+62900+027667FM-12+009099999V0209991C000019999999N0000001N9+01221+99999098541ADDGF101991999999999999999999
0029029170999991909072306004+62900+027667FM-12+009099999V0209991C000019999999N0000001N9+01391+99999098631ADDGF103991999999999999999999
0029029170999991909072313004+62900+027667FM-12+009099999V0202701N001019999999N0000001N9+01671+99999098741ADDGF102991999999999999999999
0029029170999991909072320004+62900+027667FM-12+009099999V0209991C000019999999N0000001N9+01391+99999098881ADDGF100991999999999999999999
0029029170999991909072406004+62900+027667FM-12+009099999V0209991C000019999999N0000001N9+01501+99999098921ADDGF108991999999999999999999
0029029170999991909072413004+62900+027667FM-12+009099999V0209991C000019999999N0000001N9+01781+99999098791ADDGF105991999999999999999999
0029029170999991909072420004+62900+027667FM-12+009099999V0209991C000019999999N0000001N9+01501+99999098701ADDGF102991999999999999999999
0029029170999991909072506004+62900+027667FM-12+009099999V0209991C000019999999N0000001N9+01561+99999098661ADDGF101991999999999999999999
0029029170999991909072513004+62900+027667FM-12+009099999V0209991C000019999999N0000001N9+01831+99999098631ADDGF106991999999999999999999
0029029170999991909072520004+62900+027667FM-12+009099999V0209991C000019999999N0000001N9+01331+99999098821ADDGF103991999999999999999999
0029029170999991909072606004+62900+027667FM-12+009099999V0202901N001019999999N0000001N9+01441+99999099201ADDGF100991999999999999999999
0029029170999991909072613004+62900+027667FM-12+009099999V0209991C000019999999N0000001N9+02171+99999099471ADDGF102991999999999999999999
0029029170999991909072620004+62900+027667FM-12+009099999V0209991C000019999999N0000001N9+01561+99999099551ADDGF101991999999999999999999
0035029170999991909072706004+62900+027667FM-12+009099999V0201401N001019999999N0000001N9+01331+99999099151ADDGF108991999999999999999999MW1621
0029029170999991909072713004+62900+027667FM-12+009099999V0209991C000019999999N0000001N9+01831+99999099081ADDGF106991999999999999999999
0029029170999991909072720004+62900+027667FM-12+009099999V0209991C000019999999N0000001N9+01391+99999098861ADDGF103991999999999999999999
0029029170999991909072806004+62900+027667FM-12+009099999V0209991C000019999999N0000001N9+01331+99999098821ADDGF107991999999999999999999
0029029170999991909072813004+62900+027667FM-12+009099999V0209991C000019999999N0000001N9+02001+99999098791ADDGF105991999999999999999999
0029029170999991909072820004+62900+027667FM-12+009099999V0209991C000019999999N0000001N9+01331+99999098901ADDGF103991999999999999999999
0029029170999991909072906004+62900+027667FM-12+009099999V0209991C000019999999N0000001N9+01611+99999098961ADDGF102991999999999999999999
0029029170999991909072913004+62900+027667FM-12+009099999V0209991C000019999999N0000001N9+01941+99999098911ADDGF102991999999999999999999
0029029170999991909072920004+62900+027667FM-12+009099999V0209991C000019999999N0000001N9+01561+99999098711ADDGF102991999999999999999999
0029029170999991909073006004+62900+027667FM-12+009099999V0209991C000019999999N0000001N9+01671+99999098541ADDGF102991999999999999999999
0029029170999991909073013004+62900+027667FM-12+009099999V0209991C000019999999N0000001N9+02061+99999098381ADDGF103991999999999999999999
0029029170999991909073020004+62900+027667FM-12+009099999V0209991C000019999999N0000001N9+01501+99999098271ADDGF102991999999999999999999
0029029170999991909073106004+62900+027667FM-12+009099999V0209991C000019999999N0000001N9+01441+99999098261ADDGF107991999999999999999999
0029029170999991909073113004+62900+027667FM-12+009099999V0209991C000019999999N0000001N9+01671+99999098421ADDGF108991999999999999999999
0035029170999991909073120004+62900+027667FM-12+009099999V0209991C000019999999N0000001N9+01501+99999098401ADDGF108991999999999999999999MW1621
0029029170999991909080106004+62900+027667FM-12+009099999V0201101N001019999999N0000001N9+01561+99999098671ADDGF106991999999999999999999
0029029170999991909080113004+62900+027667FM-12+009099999V0209991C000019999999N0000001N9+01831+99999098821ADDGF107991999999999999999999
0029029170999991909080120004+62900+027667FM-12+009099999V0209991C000019999999N0000001N9+01611+99999098991ADDGF108991999999999999999999
0029029170999991909080206004+62900+027667FM-12+009099999V0209991C000019999999N0000001N9+01721+99999099181ADDGF101991999999999999999999
0029029170999991909080213004+62900+027667FM-12+009099999V0209991C000019999999N0000001N9+02281+99999099341ADDGF106991999999999999999999
0029029170999991909080220004+62900+027667FM-12+009099999V0209991C000019999999N0000001N9+01671+99999099481ADDGF108991999999999999999999
0029029170999991909080306004+62900+027667FM-12+009099999V0202901N001019999999N0000001N9+01501+99999099791ADDGF108991999999999999999999
0029029170999991909080313004+62900+027667FM-12+009099999V0209991C000019999999N0000001N9+02111+99999100151ADDGF101991999999999999999999
0029029170999991909080320004+62900+027667FM-12+009099999V0209991C000019999999N0000001N9+01671+99999100121ADDGF106991999999999999999999
0029029170999991909080406004+62900+027667FM-12+009099999V0209991C000019999999N0000001N9+01441+99999100321ADDGF108991999999999999999999
0029029170999991909080413004+62900+027667FM-12+009099999V0202501N001019999999N0000001N9+02001+99999100261ADDGF102991999999999999999999
0029029170999991909080420004+62900+027667FM-12+009099999V0209991C000019999999N0000001N9+01611+99999100351ADDGF100991999999999999999999
0029029170999991909080506004+62900+027667FM-12+009099999V0202001N002619999999N0000001N9+01501+99999100071ADDGF108991999999999999999999
0029029170999991909080513004+62900+027667FM-12+009099999V0202301N001019999999N0000001N9+01721+99999099951ADDGF108991999999999999999999
0029029170999991909080520004+62900+027667FM-12+009099999V0202501N002619999999N0000001N9+01561+99999100061ADDGF107991999999999999999999
0029029170999991909080606004+62900+027667FM-12+009099999V0202701N002619999999N0000001N9+01501+99999100101ADDGF101991999999999999999999
0029029170999991909080613004+62900+027667FM-12+009099999V0202701N001019999999N0000001N9+01781+99999100041ADDGF102991999999999999999999
0029029170999991909080620004+62900+027667FM-12+009099999V0202501N001019999999N0000001N9+01391+99999100021ADDGF100991999999999999999999
0029029170999991909080706004+62900+027667FM-12+009099999V0202001N002619999999N0000001N9+01391+99999099871ADDGF102991999999999999999999
0029029170999991909080713004+62900+027667FM-12+009099999V0202501N002619999999N0000001N9+01721+99999099641ADDGF107991999999999999999999
0029029170999991909080720004+62900+027667FM-12+009099999V0202301N002619999999N0000001N9+01561+99999099311ADDGF107991999999999999999999
0035029170999991909080806004+62900+027667FM-12+009099999V0209991C000019999999N0000001N9+01221+99999098821ADDGF108991999999999999999999MW1621
0029029170999991909080813004+62900+027667FM-12+009099999V0209991C000019999999N0000001N9+01501+99999098621ADDGF105991999999999999999999
0029029170999991909080820004+62900+027667FM-12+009099999V0202501N001019999999N0000001N9+01171+99999098871ADDGF100991999999999999999999
0029029170999991909080906004+62900+027667FM-12+009099999V0202901N004619999999N0000001N9+01171+99999099141ADDGF103991999999999999999999
0029029170999991909080913004+62900+027667FM-12+009099999V0209991C000019999999N0000001N9+01391+99999099231ADDGF105991999999999999999999
0029029170999991909080920004+62900+027667FM-12+009099999V0209991C000019999999N0000001N9+01171+99999099201ADDGF100991999999999999999999
0029029170999991909081006004+62900+027667FM-12+009099999V0209991C000019999999N0000001N9+01171+99999098741ADDGF108991999999999999999999
0029029170999991909081013004+62900+027667FM-12+009099999V0209991C000019999999N0000001N9+01331+99999098481ADDGF107991999999999999999999
0029029170999991909081020004+62900+027667FM-12+009099999V0203201N001019999999N0000001N9+01061+99999098791ADDGF106991999999999999999999
0029029170999991909081106004+62900+027667FM-12+009099999V0202901N001019999999N0000001N9+01001+99999099081ADDGF102991999999999999999999
0029029170999991909081113004+62900+027667FM-12+009099999V0203201N001019999999N0000001N9+01111+99999099001ADDGF101991999999999999999999
0029029170999991909081120004+62900+027667FM-12+009099999V0209991C000019999999N0000001N9+00941+99999098761ADDGF102991999999999999999999
0029029170999991909081206004+62900+027667FM-12+009099999V0202901N002619999999N0000001N9+00891+99999098561ADDGF108991999999999999999999
0035029170999991909081213004+62900+027667FM-12+009099999V0203201N001019999999N0000001N9+01061+99999098841ADDGF108991999999999999999999MW1621
0029029170999991909081220004+62900+027667FM-12+009099999V0209991C000019999999N0000001N9+01001+99999098901ADDGF108991999999999999999999
0029029170999991909081306004+62900+027667FM-12+009099999V0209991C000019999999N0000001N9+01171+99999098581ADDGF108991999999999999999999
0029029170999991909081313004+62900+027667FM-12+009099999V0201601N001019999999N0000001N9+01391+99999098021ADDGF108991999999999999999999
0035029170999991909081320004+62900+027667FM-12+009099999V0201401N002619999999N0000001N9+01061+99999097441ADDGF108991999999999999999999MW1621
0029029170999991909081406004+62900+027667FM-12+009099999V0209991C000019999999N0000001N9+01111+99999097281ADDGF106991999999999999999999
0029029170999991909081413004+62900+027667FM-12+009099999V0209991C000019999999N0000001N9+01561+99999097601ADDGF106991999999999999999999
0029029170999991909081420004+62900+027667FM-12+009099999V0209991C000019999999N0000001N9+01061+99999097871ADDGF108991999999999999999999
0029029170999991909081506004+62900+027667FM-12+009099999V0209991C000019999999N0000001N9+01001+99999098111ADDGF107991999999999999999999
0029029170999991909081513004+62900+027667FM-12+009099999V0209991C000019999999N0000001N9+01171+99999098381ADDGF105991999999999999999999
0029029170999991909081520004+62900+027667FM-12+009099999V0209991C000019999999N0000001N9+01001+99999098631ADDGF102991999999999999999999
0035029170999991909081606004+62900+027667FM-12+009099999V0209991C000019999999N0000001N9+01001+99999098581ADDGF108991999999999999999999MW1621
0029029170999991909081613004+62900+027667FM-12+009099999V0209991C000019999999N0000001N9+01281+99999098871ADDGF108991999999999999999999
0029029170999991909081620004+62900+027667FM-12+009099999V0209991C000019999999N0000001N9+01001+99999098861ADDGF106991999999999999999999
0029029170999991909081706004+62900+027667FM-12+009099999V0209991C000019999999N0000001N9+01111+99999099361ADDGF107991999999999999999999
0029029170999991909081713004+62900+027667FM-12+009099999V0209991C000019999999N0000001N9+01671+99999099871ADDGF102991999999999999999999
0029029170999991909081720004+62900+027667FM-12+009099999V0209991C000019999999N0000001N9+01221+99999100141ADDGF106991999999999999999999
0029029170999991909081806004+62900+027667FM-12+009099999V0209991C000019999999N0000001N9+01331+99999100471ADDGF102991999999999999999999
0029029170999991909081813004+62900+027667FM-12+009099999V0209991C000019999999N0000001N9+01941+99999100661ADDGF101991999999999999999999
0029029170999991909081820004+62900+027667FM-12+009099999V0209991C000019999999N0000001N9+01611+99999100741ADDGF105991999999999999999999
0029029170999991909081906004+62900+027667FM-12+009099999V0209991C000019999999N0000001N9+01391+99999100881ADDGF108991999999999999999999
0029029170999991909081913004+62900+027667FM-12+009099999V0209991C000019999999N0000001N9+01891+99999100791ADDGF101991999999999999999999
0029029170999991909081920004+62900+027667FM-12+009099999V0209991C000019999999N0000001N9+01561+99999100551ADDGF100991999999999999999999
0029029170999991909082006004+62900+027667FM-12+009099999V0209991C000019999999N0000001N9+01441+99999100191ADDGF108991999999999999999999
0029029170999991909082013004+62900+027667FM-12+009099999V0209991C000019999999N0000001N9+02061+99999100021ADDGF105991999999999999999999
0035029170999991909082020004+62900+027667FM-12+009099999V0209991C000019999999N0000001N9+01561+99999999999ADDGF108991999999999999999999MW1621
0029029170999991909082106004+62900+027667FM-12+009099999V0209991C000019999999N0000001N9+01501+99999099901ADDGF108991999999999999999999
0035029170999991909082113004+62900+027667FM-12+009099999V0209991C000019999999N0000001N9+01671+99999100031ADDGF108991999999999999999999MW1621
0029029170999991909082120004+62900+027667FM-12+009099999V0209991C000019999999N0000001N9+01391+99999100111ADDGF108991999999999999999999
0029029170999991909082206004+62900+027667FM-12+009099999V0209991C000019999999N0000001N9+01501+99999100341ADDGF108991999999999999999999
0029029170999991909082213004+62900+027667FM-12+009099999V0209991C000019999999N0000001N9+01941+99999100431ADDGF107991999999999999999999
0029029170999991909082220004+62900+027667FM-12+009099999V0209991C000019999999N0000001N9+01501+99999100561ADDGF108991999999999999999999
0029029170999991909082306004+62900+027667FM-12+009099999V0209991C000019999999N0000001N9+01281+99999100561ADDGF106991999999999999999999
0029029170999991909082313004+62900+027667FM-12+009099999V0201101N001019999999N0000001N9+02001+99999100621ADDGF102991999999999999999999
0029029170999991909082320004+62900+027667FM-12+009099999V0209991C000019999999N0000001N9+01501+99999100441ADDGF108991999999999999999999
0029029170999991909082406004+62900+027667FM-12+009099999V0201101N001019999999N0000001N9+01561+99999100071ADDGF107991999999999999999999
0029029170999991909082413004+62900+027667FM-12+009099999V0201801N001019999999N0000001N9+01561+99999100221ADDGF108991999999999999999999
0029029170999991909082420004+62900+027667FM-12+009099999V0209991C000019999999N0000001N9+01171+99999100401ADDGF107991999999999999999999
0029029170999991909082506004+62900+027667FM-12+009099999V0209991C000019999999N0000001N9+01221+99999100641ADDGF102991999999999999999999
0029029170999991909082513004+62900+027667FM-12+009099999V0202501N001019999999N0000001N9+01891+99999100681ADDGF103991999999999999999999
0029029170999991909082520004+62900+027667FM-12+009099999V0209991C000019999999N0000001N9+01391+99999100701ADDGF102991999999999999999999
0029029170999991909082606004+62900+027667FM-12+009099999V0209991C000019999999N0000001N9+01281+99999100881ADDGF102991999999999999999999
0029029170999991909082613004+62900+027667FM-12+009099999V0209991C000019999999N0000001N9+02001+99999100831ADDGF101991999999999999999999
0029029170999991909082620004+62900+027667FM-12+009099999V0209991C000019999999N0000001N9+01331+99999100711ADDGF108991999999999999999999
0029029170999991909082706004+62900+027667FM-12+009099999V0209991C000019999999N0000001N9+01391+99999100551ADDGF107991999999999999999999
0029029170999991909082713004+62900+027667FM-12+009099999V0201401N001019999999N0000001N9+01781+99999100281ADDGF108991999999999999999999
0029029170999991909082720004+62900+027667FM-12+009099999V0209991C000019999999N0000001N9+01561+99999100101ADDGF108991999999999999999999
0029029170999991909082806004+62900+027667FM-12+009099999V0209991C000019999999N0000001N9+01281+99999100161ADDGF108991999999999999999999
0029029170999991909082813004+62900+027667FM-12+009099999V0209991C000019999999N0000001N9+01441+99999100121ADDGF108991999999999999999999
0029029170999991909082820004+62900+027667FM-12+009099999V0209991C000019999999N0000001N9+01281+99999099941ADDGF108991999999999999999999
0029029170999991909082906004+62900+027667FM-12+009099999V0202001N001019999999N0000001N9+01221+99999100241ADDGF108991999999999999999999
0029029170999991909082913004+62900+027667FM-12+009099999V0202301N001019999999N0000001N9+01441+99999100021ADDGF108991999999999999999999
0029029170999991909082920004+62900+027667FM-12+009099999V0209991C000019999999N0000001N9+01171+99999099681ADDGF107991999999999999999999
0029029170999991909083006004+62900+027667FM-12+009099999V0201801N001019999999N0000001N9+01111+99999099561ADDGF108991999999999999999999
0029029170999991909083013004+62900+027667FM-12+009099999V0201801N002619999999N0000001N9+01611+99999099421ADDGF108991999999999999999999
0029029170999991909083020004+62900+027667FM-12+009099999V0202501N002619999999N0000001N9+01391+99999099421ADDGF108991999999999999999999
0029029170999991909083106004+62900+027667FM-12+009099999V0209991C000019999999N0000001N9+01441+99999099141ADDGF108991999999999999999999
0029029170999991909083113004+62900+027667FM-12+009099999V0202001N001019999999N0000001N9+02221+99999098701ADDGF100991999999999999999999
0029029170999991909083120004+62900+027667FM-12+009099999V0209991C000019999999N0000001N9+01721+99999098321ADDGF102991999999999999999999
0035029170999991909090106004+62900+027667FM-12+009099999V0209991C000019999999N0000001N9+01441+99999098311ADDGF108991999999999999999999MW1621
0029029170999991909090113004+62900+027667FM-12+009099999V0201801N001019999999N0000001N9+01721+99999098391ADDGF106991999999999999999999
0029029170999991909090120004+62900+027667FM-12+009099999V0202501N002619999999N0000001N9+01281+99999098591ADDGF108991999999999999999999
0029029170999991909090206004+62900+027667FM-12+009099999V0202001N001019999999N0000001N9+01111+99999098981ADDGF107991999999999999999999
0035029170999991909090213004+62900+027667FM-12+009099999V0202001N002619999999N0000001N9+01281+99999098881ADDGF108991999999999999999999MW1621
0029029170999991909090220004+62900+027667FM-12+009099999V0202501N001019999999N0000001N9+01001+99999098921ADDGF108991999999999999999999
0029029170999991909090306004+62900+027667FM-12+009099999V0202501N001019999999N0000001N9+01001+99999098711ADDGF108991999999999999999999
