0029029170999991910010106004+62900+027667FM-12+009099999V0202301N004119999999N0000001N9-00441+99999100801ADDGF100991999999999999999999
0029029170999991910010113004+62900+027667FM-12+009099999V0202301N004119999999N0000001N9-00221+99999100641ADDGF106991999999999999999999
0029029170999991910010120004+62900+027667FM-12+009099999V0202301N011819999999N0000001N9-00171+99999100241ADDGF103991999999999999999999
0029029170999991910010206004+62900+027667FM-12+009099999V0202001N006219999999N0000001N9-00111+99999098821ADDGF100991999999999999999999
0029029170999991910010213004+62900+027667FM-12+009099999V0202301N006219999999N0000001N9+00111+99999098671ADDGF106991999999999999999999
0029029170999991910010220004+62900+027667FM-12+009099999V0202301N006219999999N0000001N9+00061+99999098391ADDGF108991999999999999999999
0035029170999991910010306004+62900+027667FM-12+009099999V0200501N004119999999N0000001N9-00061+99999097241ADDGF108991999999999999999999MW1721
0029029170999991910010313004+62900+027667FM-12+009099999V0209991C000019999999N0000001N9-00111+99999097581ADDGF105991999999999999999999
0029029170999991910010320004+62900+027667FM-12+009099999V0209991C000019999999N0000001N9-00671+99999098541ADDGF108991999999999999999999
0035029170999991910010406004+62900+027667FM-12+009099999V0209991C000019999999N0000001N9-00391+99999097161ADDGF108991999999999999999999MW1721
0035029170999991910010413004+62900+027667FM-12+009099999V0209991C000019999999N0000001N9-00221+99999096991ADDGF108991999999999999999999MW1721
0035029170999991910010420004+62900+027667FM-12+009099999V0209991C000019999999N0000001N9-00501+99999098781ADDGF108991999999999999999999MW1721
0029029170999991910010506004+62900+027667FM-12+009099999V0200701N004119999999N0000001N9-00721+99999099061ADDGF100991999999999999999999
0029029170999991910010513004+62900+027667FM-12+009099999V0201101N004119999999N0000001N9-00831+99999100071ADDGF108991999999999999999999
0029029170999991910010520004+62900+027667FM-12+009099999V0209991C000019999999N0000001N9-01561+99999100991ADDGF100991999999999999999999
0029029170999991910010606004+62900+027667FM-12+009099999V0209991C000019999999N0000001N9-02391+99999101561ADDGF100991999999999999999999
0029029170999991910010613004+62900+027667FM-12+009099999V0209991C000019999999N0000001N9-02331+99999101701ADDGF108991999999999999999999
0035029170999991910010620004+62900+027667FM-12+009099999V0209991C000019999999N0000001N9-01671+99999101441ADDGF108991999999999999999999MW1721
0029029170999991910010706004+62900+027667FM-12+009099999V0209991C000019999999N0000001N9-00941+99999100621ADDGF108991999999999999999999
0029029170999991910010713004+62900+027667FM-12+009099999V0209991C000019999999N0000001N9-00611+99999100471ADDGF108991999999999999999999
0029029170999991910010720004+62900+027667FM-12+009099999V0209991C000019999999N0000001N9-00171+99999100361ADDGF108991999999999999999999
0029029170999991910010806004+62900+027667FM-12+009099999V0209991C000019999999N0000001N9-00281+99999100341ADDGF100991999999999999999999
0029029170999991910010813004+62900+027667FM-12+009099999V0209991C000019999999N0000001N9-00331+99999100261ADDGF108991999999999999999999
0029029170999991910010820004+62900+027667FM-12+009099999V0202301N004119999999N0000001N9-00221+99999100021ADDGF108991999999999999999999
0029029170999991910010906004+62900+027667FM-12+009099999V0209991C000019999999N0000001N9-00111+99999100401ADDGF100991999999999999999999
0035029170999991910010913004+62900+027667FM-12+009099999V0202301N004119999999N0000001N9+00001+99999100311ADDGF108991999999999999999999MW1721
0029029170999991910010920004+62900+027667FM-12+009099999V0201401N004119999999N0000001N9+00061+99999100191ADDGF108991999999999999999999
0035029170999991910011006004+62900+027667FM-12+009099999V0202001N004119999999N0000001N9+00061+99999098281ADDGF108991999999999999999999MW1721
0029029170999991910011013004+62900+027667FM-12+009099999V0202301N006219999999N0000001N9+00281+99999097641ADDGF107991999999999999999999
0029029170999991910011020004+62900+027667FM-12+009099999V0209991C000019999999N0000001N9+00281+99999097351ADDGF108991999999999999999999
0029029170999991910011106004+62900+027667FM-12+009099999V0202301N004119999999N0000001N9+00171+99999097541ADDGF102991999999999999999999
0029029170999991910011113004+62900+027667FM-12+009099999V0202301N006219999999N0000001N9+00061+99999097681ADDGF108991999999999999999999
0029029170999991910011120004+62900+027667FM-12+009099999V0202301N011819999999N0000001N9+00111+99999097551ADDGF100991999999999999999999
0029029170999991910011206004+62900+027667FM-12+009099999V0209991C000019999999N0000001N9-00111+99999097391ADDGF108991999999999999999999
0035029170999991910011213004+62900+027667FM-12+009099999V0209991C000019999999N0000001N9-00061+99999096781ADDGF108991999999999999999999MW1721
0029029170999991910011220004+62900+027667FM-12+009099999V0209991C000019999999N0000001N9-00171+99999097031ADDGF100991999999999999999999
0029029170999991910011306004+62900+027667FM-12+009099999V0202301N006219999999N0000001N9-00391+99999097501ADDGF108991999999999999999999
0029029170999991910011313004+62900+027667FM-12+009099999V0209991C000019999999N0000001N9-00281+99999097671ADDGF108991999999999999999999
0029029170999991910011320004+62900+027667FM-12+009099999V0209991C000019999999N0000001N9-00441+99999098151ADDGF108991999999999999999999
0029029170999991910011406004+62900+027667FM-12+009099999V0209991C000019999999N0000001N9-00501+99999099121ADDGF108991999999999999999999
0029029170999991910011413004+62900+027667FM-12+009099999V0202701N004119999999N0000001N9-00561+99999099431ADDGF108991999999999999999999
0029029170999991910011420004+62900+027667FM-12+009099999V0209991C000019999999N0000001N9-00611+99999099341ADDGF108991999999999999999999
0029029170999991910011506004+62900+027667FM-12+009099999V0209991C000019999999N0000001N9-00611+99999098841ADDGF108991999999999999999999
0035029170999991910011513004+62900+027667FM-12+009099999V0202301N004119999999N0000001N9-00441+99999098631ADDGF108991999999999999999999MW1721
0035029170999991910011520004+62900+027667FM-12+009099999V0209991C000019999999N0000001N9-00441+99999098641ADDGF108991999999999999999999MW1721
0029029170999991910011606004+62900+027667FM-12+009099999V0209991C000019999999N0000001N9-00671+99999098901ADDGF108991999999999999999999
0029029170999991910011613004+62900+027667FM-12+009099999V0209991C000019999999N0000001N9-00611+99999099111ADDGF108991999999999999999999
0029029170999991910011620004+62900+027667FM-12+009099999V0209991C000019999999N0000001N9-00831+99999099081ADDGF108991999999999999999999
0029029170999991910011706004+62900+027667FM-12+009099999V0201101N004119999999N0000001N9-00671+99999098641ADDGF108991999999999999999999
0035029170999991910011713004+62900+027667FM-12+009099999V0209991C000019999999N0000001N9-00221+99999097641ADDGF108991999999999999999999MW1721
0029029170999991910011720004+62900+027667FM-12+009099999V0202001N004119999999N0000001N9+00061+99999097581ADDGF108991999999999999999999
0029029170999991910011806004+62900+027667FM-12+009099999V0202501N004119999999N0000001N9-00331+99999096901ADDGF105991999999999999999999
0029029170999991910011813004+62900+027667FM-12+009099999V0209991C000019999999N0000001N9-00831+99999097071ADDGF108991999999999999999999
0029029170999991910011820004+62900+027667FM-12+009099999V0209991C000019999999N0000001N9-00941+99999097311ADDGF105991999999999999999999
0029029170999991910011906004+62900+027667FM-12+009099999V0209991C000019999999N0000001N9-01171+99999097241ADDGF100991999999999999999999
0029029170999991910011913004+62900+027667FM-12+009099999V0209991C000019999999N0000001N9-01221+99999097501ADDGF106991999999999999999999
0035029170999991910011920004+62900+027667FM-12+009099999V0209991C000019999999N0000001N9-01111+99999097781ADDGF108991999999999999999999MW1721
0035029170999991910012006004+62900+027667FM-12+009099999V0200901N004119999999N0000001N9-01111+99999098121ADDGF108991999999999999999999MW1721
0029029170999991910012013004+62900+027667FM-12+009099999V0209991C000019999999N0000001N9-00941+99999098361ADDGF108991999999999999999999
0029029170999991910012020004+62900+027667FM-12+009099999V0209991C000019999999N0000001N9-00941+99999098551ADDGF108991999999999999999999
0029029170999991910012106004+62900+027667FM-12+009099999V0209991C000019999999N0000001N9-01111+99999098661ADDGF100991999999999999999999
0029029170999991910012113004+62900+027667FM-12+009099999V0209991C000019999999N0000001N9-01171+99999098781ADDGF100991999999999999999999
0029029170999991910012120004+62900+027667FM-12+009099999V0203201N009819999999N0000001N9-01781+99999098961ADDGF106991999999999999999999
0029029170999991910012206004+62900+027667FM-12+009099999V0209991C000019999999N0000001N9-02111+99999099581ADDGF100991999999999999999999
0029029170999991910012213004+62900+027667FM-12+009099999V0209991C000019999999N0000001N9-01941+99999099871ADDGF100991999999999999999999
0029029170999991910012220004+62900+027667FM-12+009099999V0209991C000019999999N0000001N9-02171+99999100201ADDGF100991999999999999999999
0029029170999991910012306004+62900+027667FM-12+009099999V0209991C000019999999N0000001N9-02061+99999100391ADDGF100991999999999999999999
0029029170999991910012313004+62900+027667FM-12+009099999V0209991C000019999999N0000001N9-02061+99999100751ADDGF100991999999999999999999
0029029170999991910012320004+62900+027667FM-12+009099999V0209991C000019999999N0000001N9-02111+99999100831ADDGF100991999999999999999999
0029029170999991910012406004+62900+027667FM-12+009099999V0200501N004119999999N0000001N9-02331+99999100841ADDGF100991999999999999999999
0029029170999991910012413004+62900+027667FM-12+009099999V0209991C000019999999N0000001N9-02171+99999100541ADDGF100991999999999999999999
0029029170999991910012420004+62900+027667FM-12+009099999V0209991C000019999999N0000001N9-02221+99999099991ADDGF100991999999999999999999
0029029170999991910012506004+62900+027667FM-12+009099999V0200901N004119999999N0000001N9-01561+99999099221ADDGF108991999999999999999999
0035029170999991910012513004+62900+027667FM-12+009099999V0209991C000019999999N0000001N9-01561+99999098751ADDGF108991999999999999999999MW1721
0029029170999991910012520004+62900+027667FM-12+009099999V0209991C000019999999N0000001N9-01721+99999098661ADDGF106991999999999999999999
0029029170999991910012606004+62900+027667FM-12+009099999V0209991C000019999999N0000001N9-01941+99999098921ADDGF100991999999999999999999
0029029170999991910012613004+62900+027667FM-12+009099999V0209991C000019999999N0000001N9-01501+99999099021ADDGF100991999999999999999999
0035029170999991910012620004+62900+027667FM-12+009099999V0201401N011819999999N0000001N9-01061+99999099121ADDGF108991999999999999999999MW1721
0035029170999991910012706004+62900+027667FM-12+009099999V0209991C000019999999N0000001N9-00941+99999098901ADDGF108991999999999999999999MW1721
0029029170999991910012713004+62900+027667FM-12+009099999V0209991C000019999999N0000001N9-00441+99999099041ADDGF100991999999999999999999
0029029170999991910012720004+62900+027667FM-12+009099999V0209991C000019999999N0000001N9-00561+99999099401ADDGF108991999999999999999999
0035029170999991910012806004+62900+027667FM-12+009099999V0209991C000019999999N0000001N9-00221+99999099191ADDGF108991999999999999999999MW1721
0029029170999991910012813004+62900+027667FM-12+009099999V0209991C000019999999N0000001N9-00331+99999099061ADDGF102991999999999999999999
0029029170999991910012820004+62900+027667FM-12+009099999V0202301N004119999999N0000001N9-00391+99999099581ADDGF106991999999999999999999
0029029170999991910012906004+62900+027667FM-12+009099999V0202001N004119999999N0000001N9-00391+99999099821ADDGF108991999999999999999999
0035029170999991910012913004+62900+027667FM-12+009099999V0209991C000019999999N0000001N9-00331+99999100261ADDGF108991999999999999999999MW1721
0029029170999991910012920004+62900+027667FM-12+009099999V0201401N006219999999N0000001N9-00281+99999100511ADDGF108991999999999999999999
0029029170999991910013006004+62900+027667FM-12+009099999V0201401N006219999999N0000001N9-00441+99999099821ADDGF108991999999999999999999
0035029170999991910013013004+62900+027667FM-12+009099999V0209991C000019999999N0000001N9-00331+99999099401ADDGF108991999999999999999999MW1721
0029029170999991910013020004+62900+027667FM-12+009099999V0201401N006219999999N0000001N9-00391+99999098941ADDGF108991999999999999999999
0029029170999991910013106004+62900+027667FM-12+009099999V0202301N020119999999N0000001N9-00061+99999098551ADDGF106991999999999999999999
0035029170999991910013113004+62900+027667FM-12+009099999V0202301N009819999999N0000001N9-00221+99999098551ADDGF108991999999999999999999MW1721
0029029170999991910013120004+62900+027667FM-12+009099999V0209991C000019999999N0000001N9-00281+99999099021ADDGF106991999999999999999999
0029029170999991910020106004+62900+027667FM-12+009099999V0202301N004119999999N0000001N9-00331+99999099311ADDGF102991999999999999999999
0029029170999991910020113004+62900+027667FM-12+009099999V0202301N006219999999N0000001N9-00611+99999100141ADDGF100991999999999999999999
0029029170999991910020120004+62900+027667FM-12+009099999V0201801N004119999999N0000001N9-01061+99999099991ADDGF100991999999999999999999
0035029170999991910020206004+62900+027667FM-12+009099999V0202501N006219999999N0000001N9+00001+99999099781ADDGF108991999999999999999999MW1721
0029029170999991910020213004+62900+027667FM-12+009099999V0202701N006219999999N0000001N9+00171+99999100271ADDGF108991999999999999999999
0029029170999991910020220004+62900+027667FM-12+009099999V0202301N006219999999N0000001N9+00171+99999100631ADDGF108991999999999999999999
0029029170999991910020306004+62900+027667FM-12+009099999V0202001N004119999999N0000001N9-00111+99999100751ADDGF108991999999999999999999
0029029170999991910020313004+62900+027667FM-12+009099999V0202001N004119999999N0000001N9-00561+99999100791ADDGF108991999999999999999999
0029029170999991910020320004+62900+027667FM-12+009099999V0202301N006219999999N0000001N9-00441+99999100701ADDGF108991999999999999999999
0029029170999991910020406004+62900+027667FM-12+009099999V0202001N004119999999N0000001N9-00611+99999100741ADDGF108991999999999999999999
0029029170999991910020413004+62900+027667FM-12+009099999V0209991C000019999999N0000001N9-00831+99999100701ADDGF108991999999999999999999
0029029170999991910020420004+62900+027667FM-12+009099999V0209991C000019999999N0000001N9-00781+99999100681ADDGF108991999999999999999999
0035029170999991910020506004+62900+027667FM-12+009099999V0209991C000019999999N0000001N9-00781+99999100241ADDGF108991999999999999999999MW1721
0035029170999991910020513004+62900+027667FM-12+009099999V0202301N004119999999N0000001N9-00441+99999100021ADDGF108991999999999999999999MW1721
0029029170999991910020520004+62900+027667FM-12+009099999V0209991C000019999999N0000001N9-00611+99999099631ADDGF108991999999999999999999
0035029170999991910020606004+62900+027667FM-12+009099999V0202301N026219999999N0000001N9+00061+99999099031ADDGF108991999999999999999999MW1721
0035029170999991910020613004+62900+027667FM-12+009099999V0201801N004119999999N0000001N9+00001+99999098071ADDGF108991999999999999999999MW1721
0035029170999991910020620004+62900+027667FM-12+009099999V0202001N006219999999N0000001N9-00061+99999097301ADDGF108991999999999999999999MW1721
0029029170999991910020706004+62900+027667FM-12+009099999V0202301N009819999999N0000001N9+00061+99999097201ADDGF107991999999999999999999
0009029170999991910020713004+62900+027667FM-12+009099999V0202001N004119999999N0000001N9+00111+99999096821ADDMW1721
0029029170999991910020720004+62900+027667FM-12+009099999V0209991C000019999999N0000001N9-00171+99999096761ADDGF100991999999999999999999
0029029170999991910020806004+62900+027667FM-12+009099999V0209991C000019999999N0000001N9-00671+99999097301ADDGF100991999999999999999999
0029029170999991910020813004+62900+027667FM-12+009099999V0209991C000019999999N0000001N9-00391+99999097581ADDGF100991999999999999999999
0029029170999991910020820004+62900+027667FM-12+009099999V0209991C000019999999N0000001N9-00391+99999097391ADDGF100991999999999999999999
0035029170999991910020906004+62900+027667FM-12+009099999V0209991C000019999999N0000001N9-00281+99999097101ADDGF108991999999999999999999MW1721
0035029170999991910020913004+62900+027667FM-12+009099999V0209991C000019999999N0000001N9-00111+99999097431ADDGF108991999999999999999999MW1721
0035029170999991910020920004+62900+027667FM-12+009099999V0209991C000019999999N0000001N9-00331+99999097951ADDGF108991999999999999999999MW1721
0029029170999991910021006004+62900+027667FM-12+009099999V0202901N006219999999N0000001N9-00561+99999099071ADDGF108991999999999999999999
0029029170999991910021013004+62900+027667FM-12+009099999V0209991C000019999999N0000001N9-00501+99999999999ADDGF108991999999999999999999
0029029170999991910021020004+62900+027667FM-12+009099999V0209991C000019999999N0000001N9-00721+99999100641ADDGF100991999999999999999999
0029029170999991910021106004+62900+027667FM-12+009099999V0209991C000019999999N0000001N9-00671+99999100641ADDGF108991999999999999999999
0029029170999991910021113004+62900+027667FM-12+009099999V0201801N004119999999N0000001N9-00331+99999100541ADDGF108991999999999999999999
0029029170999991910021120004+62900+027667FM-12+009099999V0202001N006219999999N0000001N9-00171+99999100441ADDGF100991999999999999999999
0029029170999991910021206004+62900+027667FM-12+009099999V0202301N006219999999N0000001N9-00111+99999100391ADDGF108991999999999999999999
0029029170999991910021213004+62900+027667FM-12+009099999V0202301N006219999999N0000001N9-00111+99999100681ADDGF106991999999999999999999
0029029170999991910021220004+62900+027667FM-12+009099999V0202001N004119999999N0000001N9-00331+99999100951ADDGF108991999999999999999999
0029029170999991910021306004+62900+027667FM-12+009099999V0209991C000019999999N0000001N9-00391+99999101081ADDGF108991999999999999999999
0029029170999991910021313004+62900+027667FM-12+009099999V0202001N006219999999N0000001N9-00391+99999100711ADDGF100991999999999999999999
0029029170999991910021320004+62900+027667FM-12+009099999V0202301N004119999999N0000001N9-00221+99999100641ADDGF100991999999999999999999
0029029170999991910021406004+62900+027667FM-12+009099999V0202301N004119999999N0000001N9-00171+99999100871ADDGF108991999999999999999999
0029029170999991910021413004+62900+027667FM-12+009099999V0209991C000019999999N0000001N9+00111+99999100921ADDGF108991999999999999999999
0029029170999991910021420004+62900+027667FM-12+009099999V0202001N006219999999N0000001N9+00001+99999101461ADDGF108991999999999999999999
0029029170999991910021506004+62900+027667FM-12+009099999V0209991C000019999999N0000001N9-00721+99999100941ADDGF108991999999999999999999
0029029170999991910021513004+62900+027667FM-12+009099999V0209991C000019999999N0000001N9-00721+99999100641ADDGF108991999999999999999999
0029029170999991910021520004+62900+027667FM-12+009099999V0201401N003119999999N0000001N9-01111+99999100301ADDGF108991999999999999999999
0029029170999991910021606004+62900+027667FM-12+009099999V0209991C000019999999N0000001N9-01501+99999100431ADDGF108991999999999999999999
0029029170999991910021613004+62900+027667FM-12+009099999V0209991C000019999999N0000001N9-01061+99999100121ADDGF101991999999999999999999
0029029170999991910021620004+62900+027667FM-12+009099999V0209991C000019999999N0000001N9-01001+99999099961ADDGF108991999999999999999999
0029029170999991910021706004+62900+027667FM-12+009099999V0209991C000019999999N0000001N9-00671+99999100201ADDGF108991999999999999999999
0035029170999991910021713004+62900+027667FM-12+009099999V0201401N004119999999N0000001N9-00441+99999100461ADDGF108991999999999999999999MW1721
0029029170999991910021720004+62900+027667FM-12+009099999V0209991C000019999999N0000001N9-00441+99999100151ADDGF108991999999999999999999
0029029170999991910021806004+62900+027667FM-12+009099999V0201401N006219999999N0000001N9-00221+99999099591ADDGF108991999999999999999999
0035029170999991910021813004+62900+027667FM-12+009099999V0201401N004119999999N0000001N9-00111+99999099561ADDGF108991999999999999999999MW1721
0029029170999991910021820004+62900+027667FM-12+009099999V0201401N004119999999N0000001N9-00171+99999099101ADDGF108991999999999999999999
0029029170999991910021906004+62900+027667FM-12+009099999V0201801N011819999999N0000001N9+00281+99999098951ADDGF108991999999999999999999
0029029170999991910021913004+62900+027667FM-12+009099999V0202301N006219999999N0000001N9+00111+99999099191ADDGF108991999999999999999999
0029029170999991910021920004+62900+027667FM-12+009099999V0209991C000019999999N0000001N9+00171+99999099751ADDGF100991999999999999999999
0029029170999991910022006004+62900+027667FM-12+009099999V0202301N006219999999N0000001N9+00061+99999100551ADDGF108991999999999999999999
0029029170999991910022013004+62900+027667FM-12+009099999V0209991C000019999999N0000001N9+00061+99999100871ADDGF108991999999999999999999
0029029170999991910022020004+62900+027667FM-12+009099999V0209991C000019999999N0000001N9-00061+99999100981ADDGF108991999999999999999999
0029029170999991910022106004+62900+027667FM-12+009099999V0201801N004119999999N0000001N9-00111+99999100921ADDGF108991999999999999999999
0029029170999991910022113004+62900+027667FM-12+009099999V0201401N006219999999N0000001N9-00221+99999101181ADDGF108991999999999999999999
0029029170999991910022120004+62900+027667FM-12+009099999V0202001N013919999999N0000001N9-00171+99999100561ADDGF108991999999999999999999
0029029170999991910022206004+62900+027667FM-12+009099999V0209991C000019999999N0000001N9-00281+99999100801ADDGF108991999999999999999999
0029029170999991910022213004+62900+027667FM-12+009099999V0209991C000019999999N0000001N9-00221+99999100821ADDGF108991999999999999999999
0035029170999991910022220004+62900+027667FM-12+009099999V0209991C000019999999N0000001N9-00331+99999100421ADDGF108991999999999999999999MW1721
0035029170999991910022306004+62900+027667FM-12+009099999V0201101N006219999999N0000001N9-00611+99999100271ADDGF108991999999999999999999MW1721
0029029170999991910022313004+62900+027667FM-12+009099999V0209991C000019999999N0000001N9-00391+99999100281ADDGF108991999999999999999999
0029029170999991910022320004+62900+027667FM-12+009099999V0209991C000019999999N0000001N9-00391+99999100151ADDGF100991999999999999999999
0029029170999991910022406004+62900+027667FM-12+009099999V0209991C000019999999N0000001N9-00331+99999099831ADDGF108991999999999999999999
0000029170999991910022413004+62900+027667FM-12+009099999V0209991C000019999999N0000001N9-00331+99999099821
0029029170999991910022420004+62900+027667FM-12+009099999V0209991C000019999999N0000001N9-00441+99999099761ADDGF108991999999999999999999
0035029170999991910022506004+62900+027667FM-12+009099999V0209991C000019999999N0000001N9-00281+99999099301ADDGF108991999999999999999999MW1721
0035029170999991910022513004+62900+027667FM-12+009099999V0209991C000019999999N0000001N9-00441+99999099471ADDGF108991999999999999999999MW1721
0029029170999991910022520004+62900+027667FM-12+009099999V0201401N006219999999N0000001N9-00391+99999099641ADDGF108991999999999999999999
0035029170999991910022606004+62900+027667FM-12+009099999V0201801N004119999999N0000001N9-00281+99999099721ADDGF108991999999999999999999MW1721
0029029170999991910022613004+62900+027667FM-12+009099999V0209991C000019999999N0000001N9-00281+99999099991ADDGF108991999999999999999999
0029029170999991910022620004+62900+027667FM-12+009099999V0201401N004119999999N0000001N9-00171+99999099631ADDGF100991999999999999999999
0029029170999991910022706004+62900+027667FM-12+009099999V0209991C000019999999N0000001N9-00061+99999099321ADDGF108991999999999999999999
0029029170999991910022713004+62900+027667FM-12+009099999V0209991C000019999999N0000001N9-00061+99999099841ADDGF108991999999999999999999
0029029170999991910022720004+62900+027667FM-12+009099999V0209991C000019999999N0000001N9+00111+99999100021ADDGF100991999999999999999999
0035029170999991910022806004+62900+027667FM-12+009099999V0209991C000019999999N0000001N9+00061+99999100441ADDGF108991999999999999999999MW1721
0035029170999991910022813004+62900+027667FM-12+009099999V0201801N001019999999N0000001N9-00111+99999100961ADDGF108991999999999999999999MW1621
0029029170999991910022820004+62900+027667FM-12+009099999V0209991C000019999999N0000001N9+00061+99999100461ADDGF100991999999999999999999
0029029170999991910030106004+62900+027667FM-12+009099999V0201801N004119999999N0000001N9+00111+99999100271ADDGF108991999999999999999999
0035029170999991910030113004+62900+027667FM-12+009099999V0209991C000019999999N0000001N9+00221+99999100511ADDGF108991999999999999999999MW1721
0029029170999991910030120004+62900+027667FM-12+009099999V0209991C000019999999N0000001N9+00111+99999100601ADDGF106991999999999999999999
0035029170999991910030206004+62900+027667FM-12+009099999V0209991C000019999999N0000001N9+00061+99999101101ADDGF108991999999999999999999MW1621
0035029170999991910030213004+62900+027667FM-12+009099999V0209991C000019999999N0000001N9+00281+99999101321ADDGF108991999999999999999999MW1721
0029029170999991910030220004+62900+027667FM-12+009099999V0209991C000019999999N0000001N9+00001+99999101311ADDGF108991999999999999999999
0029029170999991910030306004+62900+027667FM-12+009099999V0209991C000019999999N0000001N9-00221+99999101201ADDGF108991999999999999999999
0029029170999991910030313004+62900+027667FM-12+009099999V0209991C000019999999N0000001N9+00111+99999101111ADDGF108991999999999999999999
0035029170999991910030320004+62900+027667FM-12+009099999V0209991C000019999999N0000001N9+00061+99999101001ADDGF108991999999999999999999MW1721
0029029170999991910030406004+62900+027667FM-12+009099999V0209991C000019999999N0000001N9+00061+99999100791ADDGF108991999999999999999999
0029029170999991910030413004+62900+027667FM-12+009099999V0209991C000019999999N0000001N9+00221+99999100901ADDGF108991999999999999999999
0029029170999991910030420004+62900+027667FM-12+009099999V0209991C000019999999N0000001N9+00061+99999100871ADDGF107991999999999999999999
0029029170999991910030506004+62900+027667FM-12+009099999V0209991C000019999999N0000001N9+00001+99999100641ADDGF100991999999999999999999
0029029170999991910030513004+62900+027667FM-12+009099999V0209991C000019999999N0000001N9+00611+99999100721ADDGF102991999999999999999999
0029029170999991910030520004+62900+027667FM-12+009099999V0209991C000019999999N0000001N9+00171+99999100791ADDGF100991999999999999999999
0029029170999991910030606004+62900+027667FM-12+009099999V0203201N004119999999N0000001N9-00501+99999101591ADDGF100991999999999999999999
0029029170999991910030613004+62900+027667FM-12+009099999V0209991C000019999999N0000001N9-00221+99999101991ADDGF100991999999999999999999
0029029170999991910030620004+62900+027667FM-12+009099999V0209991C000019999999N0000001N9-00721+99999101981ADDGF100991999999999999999999
0029029170999991910030706004+62900+027667FM-12+009099999V0209991C000019999999N0000001N9-01061+99999101551ADDGF100991999999999999999999
0029029170999991910030713004+62900+027667FM-12+009099999V0209991C000019999999N0000001N9+00281+99999101421ADDGF100991999999999999999999
0029029170999991910030720004+62900+027667FM-12+009099999V0209991C000019999999N0000001N9+00061+99999101301ADDGF100991999999999999999999
0029029170999991910030806004+62900+027667FM-12+009099999V0209991C000019999999N0000001N9-00281+99999101321ADDGF108991999999999999999999
0029029170999991910030813004+62900+027667FM-12+009099999V0202301N002119999999N0000001N9+00001+99999101241ADDGF108991999999999999999999
0029029170999991910030820004+62900+027667FM-12+009099999V0202301N002119999999N0000001N9-00171+99999101231ADDGF108991999999999999999999
0029029170999991910030906004+62900+027667FM-12+009099999V0209991C000019999999N0000001N9-00331+99999101041ADDGF108991999999999999999999
0029029170999991910030913004+62900+027667FM-12+009099999V0209991C000019999999N0000001N9-00171+99999101031ADDGF100991999999999999999999
0029029170999991910030920004+62900+027667FM-12+009099999V0209991C000019999999N0000001N9-00171+99999100701ADDGF108991999999999999999999
0035029170999991910031006004+62900+027667FM-12+009099999V0209991C000019999999N0000001N9-00171+99999100681ADDGF108991999999999999999999MW1721
0035029170999991910031013004+62900+027667FM-12+009099999V0202301N004119999999N0000001N9-00111+99999100441ADDGF108991999999999999999999MW1721
0035029170999991910031020004+62900+027667FM-12+009099999V0202301N006219999999N0000001N9-00171+99999100311ADDGF108991999999999999999999MW1721
0029029170999991910031106004+62900+027667FM-12+009099999V0201801N004119999999N0000001N9+00111+99999099481ADDGF108991999999999999999999
0035029170999991910031113004+62900+027667FM-12+009099999V0202301N004119999999N0000001N9-00391+99999099321ADDGF108991999999999999999999MW1721
0029029170999991910031120004+62900+027667FM-12+009099999V0209991C000019999999N0000001N9+00171+99999099311ADDGF108991999999999999999999
0029029170999991910031206004+62900+027667FM-12+009099999V0209991C000019999999N0000001N9+00111+99999099311ADDGF108991999999999999999999
0029029170999991910031213004+62900+027667FM-12+009099999V0209991C000019999999N0000001N9+00281+99999099591ADDGF108991999999999999999999
0029029170999991910031220004+62900+027667FM-12+009099999V0209991C000019999999N0000001N9+00061+99999100191ADDGF108991999999999999999999
0029029170999991910031306004+62900+027667FM-12+009099999V0200901N004119999999N0000001N9-00561+99999100921ADDGF108991999999999999999999
0029029170999991910031313004+62900+027667FM-12+009099999V0200901N006219999999N0000001N9-00441+99999100841ADDGF106991999999999999999999
0029029170999991910031320004+62900+027667FM-12+009099999V0209991C000019999999N0000001N9-00561+99999100871ADDGF108991999999999999999999
0029029170999991910031406004+62900+027667FM-12+009099999V0209991C000019999999N0000001N9-01061+99999100751ADDGF107991999999999999999999
0035029170999991910031413004+62900+027667FM-12+009099999V0201401N004119999999N0000001N9-00611+99999099981ADDGF108991999999999999999999MW1721
0035029170999991910031420004+62900+027667FM-12+009099999V0201401N006219999999N0000001N9-01671+99999099601ADDGF108991999999999999999999MW1721
0035029170999991910031506004+62900+027667FM-12+009099999V0209991C000019999999N0000001N9-00501+99999099201ADDGF108991999999999999999999MW1721
0035029170999991910031513004+62900+027667FM-12+009099999V0209991C000019999999N0000001N9-00061+99999099161ADDGF108991999999999999999999MW1721
0029029170999991910031520004+62900+027667FM-12+009099999V0209991C000019999999N0000001N9-00171+99999099321ADDGF100991999999999999999999
0029029170999991910031606004+62900+027667FM-12+009099999V0209991C000019999999N0000001N9-00331+99999099241ADDGF108991999999999999999999
0029029170999991910031613004+62900+027667FM-12+009099999V0209991C000019999999N0000001N9+00061+99999099161ADDGF102991999999999999999999
0029029170999991910031620004+62900+027667FM-12+009099999V0209991C000019999999N0000001N9-00561+99999098871ADDGF100991999999999999999999
0035029170999991910031706004+62900+027667FM-12+009099999V0209991C000019999999N0000001N9-00171+99999098221ADDGF108991999999999999999999MW1721
0035029170999991910031713004+62900+027667FM-12+009099999V0201401N004119999999N0000001N9+00111+99999098001ADDGF108991999999999999999999MW1721
0029029170999991910031720004+62900+027667FM-12+009099999V0209991C000019999999N0000001N9+00061+99999097681ADDGF108991999999999999999999
0035029170999991910031806004+62900+027667FM-12+009099999V0209991C000019999999N0000001N9+00001+99999097191ADDGF108991999999999999999999MW1721
0029029170999991910031813004+62900+027667FM-12+009099999V0201101N004119999999N0000001N9-00221+99999097721ADDGF108991999999999999999999
0035029170999991910031820004+62900+027667FM-12+009099999V0202301N006219999999N0000001N9+00061+99999097781ADDGF108991999999999999999999MW1721
0035029170999991910031906004+62900+027667FM-12+009099999V0209991C000019999999N0000001N9-00061+99999098541ADDGF108991999999999999999999MW1721
0029029170999991910031913004+62900+027667FM-12+009099999V0209991C000019999999N0000001N9-00391+99999098941ADDGF108991999999999999999999
0029029170999991910031920004+62900+027667FM-12+009099999V0209991C000019999999N0000001N9-00221+99999099341ADDGF100991999999999999999999
0029029170999991910032006004+62900+027667FM-12+009099999V0209991C000019999999N0000001N9-00391+99999099311ADDGF108991999999999999999999
0035029170999991910032013004+62900+027667FM-12+009099999V0209991C000019999999N0000001N9+00061+99999099501ADDGF108991999999999999999999MW1721
0029029170999991910032020004+62900+027667FM-12+009099999V0209991C000019999999N0000001N9-00111+99999099791ADDGF108991999999999999999999
0029029170999991910032106004+62900+027667FM-12+009099999V0209991C000019999999N0000001N9-00221+99999099821ADDGF108991999999999999999999
0029029170999991910032113004+62900+027667FM-12+009099999V0209991C000019999999N0000001N9+00221+99999099541ADDGF108991999999999999999999
0029029170999991910032120004+62900+027667FM-12+009099999V0202301N004119999999N0000001N9+00171+99999098911ADDGF108991999999999999999999
0029029170999991910032206004+62900+027667FM-12+009099999V0209991C000019999999N0000001N9+00171+99999098711ADDGF108991999999999999999999
0029029170999991910032213004+62900+027667FM-12+009099999V0202501N004119999999N0000001N9+00391+99999098831ADDGF102991999999999999999999
0029029170999991910032220004+62900+027667FM-12+009099999V0209991C000019999999N0000001N9+00111+99999098831ADDGF100991999999999999999999
0029029170999991910032306004+62900+027667FM-12+009099999V0202501N004119999999N0000001N9-00171+99999099041ADDGF100991999999999999999999
0029029170999991910032313004+62900+027667FM-12+009099999V0209991C000019999999N0000001N9+00331+99999099401ADDGF100991999999999999999999
0029029170999991910032320004+62900+027667FM-12+009099999V0202301N004119999999N0000001N9-00171+99999099441ADDGF100991999999999999999999
0029029170999991910032406004+62900+027667FM-12+009099999V0209991C000019999999N0000001N9-00721+99999099561ADDGF102991999999999999999999
0029029170999991910032413004+62900+027667FM-12+009099999V0202301N006219999999N0000001N9+00221+99999099481ADDGF108991999999999999999999
0029029170999991910032420004+62900+027667FM-12+009099999V0209991C000019999999N0000001N9+00111+99999099261ADDGF108991999999999999999999
0029029170999991910032506004+62900+027667FM-12+009099999V0209991C000019999999N0000001N9-00331+99999099471ADDGF100991999999999999999999
0029029170999991910032513004+62900+027667FM-12+009099999V0202901N004119999999N0000001N9+00281+99999099631ADDGF103991999999999999999999
0029029170999991910032520004+62900+027667FM-12+009099999V0203201N004119999999N0000001N9-00171+99999099901ADDGF105991999999999999999999
0029029170999991910032606004+62900+027667FM-12+009099999V0209991C000019999999N0000001N9-00561+99999100261ADDGF100991999999999999999999
0029029170999991910032613004+62900+027667FM-12+009099999V0200201N004119999999N0000001N9+00061+99999100481ADDGF107991999999999999999999
0029029170999991910032620004+62900+027667FM-12+009099999V0203601N006219999999N0000001N9-00171+99999100511ADDGF108991999999999999999999
0029029170999991910032706004+62900+027667FM-12+009099999V0209991C000019999999N0000001N9-00441+99999100631ADDGF108991999999999999999999
0029029170999991910032713004+62900+027667FM-12+009099999V0203601N004119999999N0000001N9+00111+99999100661ADDGF108991999999999999999999
0029029170999991910032720004+62900+027667FM-12+009099999V0203201N006219999999N0000001N9-00171+99999100741ADDGF108991999999999999999999
0029029170999991910032806004+62900+027667FM-12+009099999V0200201N004119999999N0000001N9-00501+99999100471ADDGF108991999999999999999999
0029029170999991910032813004+62900+027667FM-12+009099999V0200201N006219999999N0000001N9-00171+99999100341ADDGF108991999999999999999999
0029029170999991910032820004+62900+027667FM-12+009099999V0200201N004119999999N0000001N9-00331+99999100741ADDGF108991999999999999999999
0029029170999991910032906004+62900+027667FM-12+009099999V0209991C000019999999N0000001N9-00441+99999100881ADDGF108991999999999999999999
0029029170999991910032913004+62900+027667FM-12+009099999V0200901N006219999999N0000001N9+00111+99999101351ADDGF108991999999999999999999
0029029170999991910032920004+62900+027667FM-12+009099999V0209991C000019999999N0000001N9-00111+99999101751ADDGF100991999999999999999999
0029029170999991910033006004+62900+027667FM-12+009099999V0209991C000019999999N0000001N9-00561+99999102181ADDGF100991999999999999999999
0029029170999991910033013004+62900+027667FM-12+009099999V0209991C000019999999N0000001N9+00281+99999102151ADDGF100991999999999999999999
0029029170999991910033020004+62900+027667FM-12+009099999V0209991C000019999999N0000001N9-00061+99999102141ADDGF100991999999999999999999
0029029170999991910033106004+62900+027667FM-12+009099999V0209991C000019999999N0000001N9-00781+99999101951ADDGF100991999999999999999999
0029029170999991910033113004+62900+027667FM-12+009099999V0209991C000019999999N0000001N9+00171+99999101581ADDGF100991999999999999999999
0029029170999991910033120004+62900+027667FM-12+009099999V0209991C000019999999N0000001N9-00331+99999101871ADDGF100991999999999999999999
0029029170999991910040106004+62900+027667FM-12+009099999V0203201N006219999999N0000001N9-00061+99999101591ADDGF100991999999999999999999
0029029170999991910040113004+62900+027667FM-12+009099999V0209991C000019999999N0000001N9+00331+99999101801ADDGF100991999999999999999999
0029029170999991910040120004+62900+027667FM-12+009099999V0209991C000019999999N0000001N9-00111+99999101921ADDGF100991999999999999999999
0029029170999991910040206004+62900+027667FM-12+009099999V0209991C000019999999N0000001N9-00671+99999101961ADDGF100991999999999999999999
0029029170999991910040213004+62900+027667FM-12+009099999V0202301N004119999999N0000001N9+00441+99999101641ADDGF101991999999999999999999
0029029170999991910040220004+62900+027667FM-12+009099999V0209991C000019999999N0000001N9+00221+99999101621ADDGF100991999999999999999999
0029029170999991910040306004+62900+027667FM-12+009099999V0209991C000019999999N0000001N9+00111+99999101041ADDGF107991999999999999999999
0029029170999991910040313004+62900+027667FM-12+009099999V0202301N004119999999N0000001N9+00331+99999101031ADDGF100991999999999999999999
0029029170999991910040320004+62900+027667FM-12+009099999V0209991C000019999999N0000001N9+00391+99999100741ADDGF108991999999999999999999
0029029170999991910040406004+62900+027667FM-12+009099999V0209991C000019999999N0000001N9+00061+99999100161ADDGF107991999999999999999999
0029029170999991910040413004+62900+027667FM-12+009099999V0202501N006219999999N0000001N9+00721+99999100231ADDGF107991999999999999999999
0029029170999991910040420004+62900+027667FM-12+009099999V0209991C000019999999N0000001N9+00171+99999100121ADDGF100991999999999999999999
0029029170999991910040506004+62900+027667FM-12+009099999V0209991C000019999999N0000001N9-00501+99999100671ADDGF100991999999999999999999
0029029170999991910040513004+62900+027667FM-12+009099999V0202701N004119999999N0000001N9+00391+99999100541ADDGF101991999999999999999999
0029029170999991910040520004+62900+027667FM-12+009099999V0209991C000019999999N0000001N9-00171+99999100861ADDGF100991999999999999999999
0029029170999991910040606004+62900+027667FM-12+009099999V0202301N006219999999N0000001N9-00061+99999100681ADDGF100991999999999999999999
0029029170999991910040613004+62900+027667FM-12+009099999V0203201N009819999999N0000001N9+00611+99999100441ADDGF101991999999999999999999
0029029170999991910040620004+62900+027667FM-12+009099999V0209991C000019999999N0000001N9+00221+99999100041ADDGF100991999999999999999999
0029029170999991910040706004+62900+027667FM-12+009099999V0209991C000019999999N0000001N9+00001+99999099641ADDGF106991999999999999999999
0029029170999991910040713004+62900+027667FM-12+009099999V0203201N004119999999N0000001N9+00441+99999099721ADDGF102991999999999999999999
0029029170999991910040720004+62900+027667FM-12+009099999V0203201N004119999999N0000001N9-00221+99999100221ADDGF100991999999999999999999
0029029170999991910040806004+62900+027667FM-12+009099999V0209991C000019999999N0000001N9-00501+99999100081ADDGF101991999999999999999999
0029029170999991910040813004+62900+027667FM-12+009099999V0209991C000019999999N0000001N9+00281+99999099821ADDGF108991999999999999999999
0035029170999991910040820004+62900+027667FM-12+009099999V0202301N006219999999N0000001N9+00061+99999099121ADDGF108991999999999999999999MW1721
0035029170999991910040906004+62900+027667FM-12+009099999V0202301N013919999999N0000001N9+00061+99999098401ADDGF108991999999999999999999MW1721
0035029170999991910040913004+62900+027667FM-12+009099999V0202301N004119999999N0000001N9+00501+99999098221ADDGF108991999999999999999999MW1721
0029029170999991910040920004+62900+027667FM-12+009099999V0202301N006219999999N0000001N9-00171+99999098631ADDGF108991999999999999999999
0029029170999991910041006004+62900+027667FM-12+009099999V0209991C000019999999N0000001N9-00331+99999099141ADDGF106991999999999999999999
0029029170999991910041013004+62900+027667FM-12+009099999V0203401N006219999999N0000001N9-00111+99999099721ADDGF108991999999999999999999
0029029170999991910041020004+62900+027667FM-12+009099999V0209991C000019999999N0000001N9-00441+99999100181ADDGF107991999999999999999999
0029029170999991910041106004+62900+027667FM-12+009099999V0209991C000019999999N0000001N9-00891+99999100421ADDGF100991999999999999999999
0029029170999991910041113004+62900+027667FM-12+009099999V0201401N006219999999N0000001N9-00111+99999100021ADDGF100991999999999999999999
0035029170999991910041120004+62900+027667FM-12+009099999V0201401N009819999999N0000001N9-00281+99999099511ADDGF108991999999999999999999MW1721
0035029170999991910041206004+62900+027667FM-12+009099999V0202301N006219999999N0000001N9+00061+99999098601ADDGF108991999999999999999999MW1721
0029029170999991910041213004+62900+027667FM-12+009099999V0202301N009819999999N0000001N9+00561+99999098871ADDGF103991999999999999999999
0029029170999991910041220004+62900+027667FM-12+009099999V0202301N006219999999N0000001N9+00331+99999099071ADDGF100991999999999999999999
0029029170999991910041306004+62900+027667FM-12+009099999V0202301N009819999999N0000001N9+00331+99999099001ADDGF108991999999999999999999
0029029170999991910041313004+62900+027667FM-12+009099999V0202001N006219999999N0000001N9+00831+99999098951ADDGF108991999999999999999999
0029029170999991910041320004+62900+027667FM-12+009099999V0202301N002119999999N0000001N9+00501+99999099301ADDGF107991999999999999999999
0029029170999991910041406004+62900+027667FM-12+009099999V0209991C000019999999N0000001N9+00281+99999099441ADDGF100991999999999999999999
0029029170999991910041413004+62900+027667FM-12+009099999V0201601N004119999999N0000001N9+01061+99999099511ADDGF101991999999999999999999
0029029170999991910041420004+62900+027667FM-12+009099999V0209991C000019999999N0000001N9+00501+99999099721ADDGF100991999999999999999999
0029029170999991910041506004+62900+027667FM-12+009099999V0209991C000019999999N0000001N9+00441+99999099821ADDGF108991999999999999999999
0029029170999991910041513004+62900+027667FM-12+009099999V0201801N004119999999N0000001N9+01171+99999099901ADDGF108991999999999999999999
0029029170999991910041520004+62900+027667FM-12+009099999V0209991C000019999999N0000001N9+00561+99999100041ADDGF107991999999999999999999
0029029170999991910041606004+62900+027667FM-12+009099999V0209991C000019999999N0000001N9+00441+99999100341ADDGF108991999999999999999999
0029029170999991910041613004+62900+027667FM-12+009099999V0209991C000019999999N0000001N9+01391+99999100541ADDGF100991999999999999999999
0029029170999991910041620004+62900+027667FM-12+009099999V0209991C000019999999N0000001N9+00501+99999100551ADDGF100991999999999999999999
0029029170999991910041706004+62900+027667FM-12+009099999V0209991C000019999999N0000001N9+00441+99999100951ADDGF100991999999999999999999
0029029170999991910041713004+62900+027667FM-12+009099999V0201401N004119999999N0000001N9+01171+99999100871ADDGF100991999999999999999999
0029029170999991910041720004+62900+027667FM-12+009099999V0209991C000019999999N0000001N9+00391+99999101041ADDGF100991999999999999999999
0029029170999991910041806004+62900+027667FM-12+009099999V0201401N004119999999N0000001N9+00391+99999101111ADDGF100991999999999999999999
0029029170999991910041813004+62900+027667FM-12+009099999V0201801N004119999999N0000001N9+01391+99999100871ADDGF100991999999999999999999
0029029170999991910041820004+62900+027667FM-12+009099999V0209991C000019999999N0000001N9+00561+99999100621ADDGF100991999999999999999999
0029029170999991910041906004+62900+027667FM-12+009099999V0209991C000019999999N0000001N9+00441+99999099841ADDGF100991999999999999999999
0029029170999991910041913004+62900+027667FM-12+009099999V0201801N004119999999N0000001N9+01281+99999099281ADDGF100991999999999999999999
0029029170999991910041920004+62900+027667FM-12+009099999V0209991C000019999999N0000001N9+00611+99999098511ADDGF108991999999999999999999
0029029170999991910042006004+62900+027667FM-12+009099999V0209991C000019999999N0000001N9+00331+99999098241ADDGF108991999999999999999999
0029029170999991910042013004+62900+027667FM-12+009099999V0209991C000019999999N0000001N9+00561+99999098421ADDGF108991999999999999999999
0029029170999991910042020004+62900+027667FM-12+009099999V0209991C000019999999N0000001N9+00281+99999098431ADDGF108991999999999999999999
0029029170999991910042106004+62900+027667FM-12+009099999V0209991C000019999999N0000001N9+00281+99999098031ADDGF107991999999999999999999
0029029170999991910042113004+62900+027667FM-12+009099999V0202301N009819999999N0000001N9+00721+99999098141ADDGF108991999999999999999999
0035029170999991910042120004+62900+027667FM-12+009099999V0202301N002119999999N0000001N9+00331+99999098311ADDGF108991999999999999999999MW1601
0029029170999991910042206004+62900+027667FM-12+009099999V0209991C000019999999N0000001N9+00221+99999098441ADDGF105991999999999999999999
0029029170999991910042213004+62900+027667FM-12+009099999V0209991C000019999999N0000001N9+00611+99999098391ADDGF108991999999999999999999
0029029170999991910042220004+62900+027667FM-12+009099999V0209991C000019999999N0000001N9+00061+99999098441ADDGF100991999999999999999999
0035029170999991910042306004+62900+027667FM-12+009099999V0200501N004119999999N0000001N9+00111+99999098221ADDGF108991999999999999999999MW1621
0029029170999991910042313004+62900+027667FM-12+009099999V0201101N006219999999N0000001N9+00561+99999098311ADDGF106991999999999999999999
0029029170999991910042320004+62900+027667FM-12+009099999V0201401N006219999999N0000001N9+00171+99999098421ADDGF106991999999999999999999
0029029170999991910042406004+62900+027667FM-12+009099999V0201801N006219999999N0000001N9+00281+99999098721ADDGF108991999999999999999999
0000029170999991910042413004+62900+027667FM-12+009099999V0202301N006219999999N0000001N9+00611+99999099071
0029029170999991910042420004+62900+027667FM-12+009099999V0209991C000019999999N0000001N9+00111+99999099351ADDGF108991999999999999999999
0029029170999991910042506004+62900+027667FM-12+009099999V0209991C000019999999N0000001N9+00281+99999099391ADDGF108991999999999999999999
0009029170999991910042513004+62900+027667FM-12+009099999V0201801N009819999999N0000001N9+00611+99999099241ADDMW1621
0035029170999991910042520004+62900+027667FM-12+009099999V0209991C000019999999N0000001N9+00441+99999099351ADDGF108991999999999999999999MW1621
0029029170999991910042606004+62900+027667FM-12+009099999V0201401N006219999999N0000001N9+00611+99999098951ADDGF107991999999999999999999
0000029170999991910042613004+62900+027667FM-12+009099999V0201601N009819999999N0000001N9+00781+99999099161
0029029170999991910042620004+62900+027667FM-12+009099999V0209991C000019999999N0000001N9+00561+99999099631ADDGF100991999999999999999999
0029029170999991910042706004+62900+027667FM-12+009099999V0209991C000019999999N0000001N9+00391+99999099821ADDGF107991999999999999999999
0029029170999991910042713004+62900+027667FM-12+009099999V0209991C000019999999N0000001N9+01281+99999099951ADDGF103991999999999999999999
0029029170999991910042720004+62900+027667FM-12+009099999V0209991C000019999999N0000001N9+00671+99999099951ADDGF108991999999999999999999
0035029170999991910042806004+62900+027667FM-12+009099999V0209991C000019999999N0000001N9+00501+99999099401ADDGF108991999999999999999999MW1621
0029029170999991910042813004+62900+027667FM-12+009099999V0202001N006219999999N0000001N9+01171+99999099671ADDGF101991999999999999999999
0029029170999991910042820004+62900+027667FM-12+009099999V0209991C000019999999N0000001N9+00611+99999099981ADDGF101991999999999999999999
0029029170999991910042906004+62900+027667FM-12+009099999V0209991C000019999999N0000001N9+00441+99999100281ADDGF101991999999999999999999
0029029170999991910042913004+62900+027667FM-12+009099999V0201801N004119999999N0000001N9+01331+99999100401ADDGF107991999999999999999999
0029029170999991910042920004+62900+027667FM-12+009099999V0209991C000019999999N0000001N9+00561+99999100461ADDGF100991999999999999999999
0029029170999991910043006004+62900+027667FM-12+009099999V0209991C000019999999N0000001N9+00501+99999100501ADDGF108991999999999999999999
0029029170999991910043013004+62900+027667FM-12+009099999V0209991C000019999999N0000001N9+00941+99999100421ADDGF107991999999999999999999
0029029170999991910043020004+62900+027667FM-12+009099999V0209991C000019999999N0000001N9+00501+99999100421ADDGF100991999999999999999999
0029029170999991910050106004+62900+027667FM-12+009099999V0209991C000019999999N0000001N9+00561+99999100641ADDGF108991999999999999999999
0029029170999991910050113004+62900+027667FM-12+009099999V0209991C000019999999N0000001N9+01171+99999100831ADDGF107991999999999999999999
0029029170999991910050120004+62900+027667FM-12+009099999V0209991C000019999999N0000001N9+00611+99999100821ADDGF107991999999999999999999
0029029170999991910050206004+62900+027667FM-12+009099999V0209991C000019999999N0000001N9+00611+99999100791ADDGF102991999999999999999999
0029029170999991910050213004+62900+027667FM-12+009099999V0209991C000019999999N0000001N9+01221+99999100321ADDGF107991999999999999999999
0029029170999991910050220004+62900+027667FM-12+009099999V0209991C000019999999N0000001N9+00671+99999100261ADDGF100991999999999999999999
0029029170999991910050306004+62900+027667FM-12+009099999V0209991C000019999999N0000001N9+00671+99999100161ADDGF100991999999999999999999
0000029170999991910050313004+62900+027667FM-12+009099999V0201801N001019999999N0000001N9+01391+99999099941
0029029170999991910050320004+62900+027667FM-12+009099999V0209991C000019999999N0000001N9+00831+99999099911ADDGF106991999999999999999999
0029029170999991910050406004+62900+027667FM-12+009099999V0209991C000019999999N0000001N9+00781+99999099881ADDGF108991999999999999999999
0029029170999991910050413004+62900+027667FM-12+009099999V0209991C000019999999N0000001N9+01561+99999099751ADDGF108991999999999999999999
0029029170999991910050420004+62900+027667FM-12+009099999V0209991C000019999999N0000001N9+00941+99999099591ADDGF108991999999999999999999
0029029170999991910050506004+62900+027667FM-12+009099999V0209991C000019999999N0000001N9+00831+99999099621ADDGF108991999999999999999999
0029029170999991910050513004+62900+027667FM-12+009099999V0201801N004119999999N0000001N9+01891+99999099401ADDGF102991999999999999999999
0029029170999991910050520004+62900+027667FM-12+009099999V0209991C000019999999N0000001N9+01061+99999099381ADDGF102991999999999999999999
0029029170999991910050606004+62900+027667FM-12+009099999V0209991C000019999999N0000001N9+01061+99999099321ADDGF108991999999999999999999
0029029170999991910050613004+62900+027667FM-12+009099999V0209991C000019999999N0000001N9+02001+99999099231ADDGF101991999999999999999999
0029029170999991910050620004+62900+027667FM-12+009099999V0209991C000019999999N0000001N9+01001+99999099061ADDGF107991999999999999999999
0029029170999991910050706004+62900+027667FM-12+009099999V0209991C000019999999N0000001N9+01001+99999098761ADDGF108991999999999999999999
0029029170999991910050713004+62900+027667FM-12+009099999V0202301N006219999999N0000001N9+01221+99999098831ADDGF108991999999999999999999
0029029170999991910050720004+62900+027667FM-12+009099999V0209991C000019999999N0000001N9+00831+99999098921ADDGF108991999999999999999999
0035029170999991910050806004+62900+027667FM-12+009099999V0209991C000019999999N0000001N9+00611+99999099221ADDGF108991999999999999999999MW1621
0029029170999991910050813004+62900+027667FM-12+009099999V0209991C000019999999N0000001N9+01171+99999099671ADDGF101991999999999999999999
0029029170999991910050820004+62900+027667FM-12+009099999V0209991C000019999999N0000001N9+00671+99999100501ADDGF100991999999999999999999
0029029170999991910050906004+62900+027667FM-12+009099999V0209991C000019999999N0000001N9+00781+99999101281ADDGF100991999999999999999999
0029029170999991910050913004+62900+027667FM-12+009099999V0201401N004119999999N0000001N9+01441+99999100991ADDGF101991999999999999999999
0029029170999991910050920004+62900+027667FM-12+009099999V0201801N006219999999N0000001N9+01331+99999100821ADDGF105991999999999999999999
0029029170999991910051006004+62900+027667FM-12+009099999V0209991C000019999999N0000001N9+01281+99999100821ADDGF107991999999999999999999
0029029170999991910051013004+62900+027667FM-12+009099999V0209991C000019999999N0000001N9+01611+99999101301ADDGF101991999999999999999999
0029029170999991910051020004+62900+027667FM-12+009099999V0209991C000019999999N0000001N9+01171+99999101591ADDGF100991999999999999999999
0029029170999991910051106004+62900+027667FM-12+009099999V0209991C000019999999N0000001N9+01001+99999101801ADDGF108991999999999999999999
0029029170999991910051113004+62900+027667FM-12+009099999V0202901N004119999999N0000001N9+02001+99999101711ADDGF107991999999999999999999
0029029170999991910051120004+62900+027667FM-12+009099999V0209991C000019999999N0000001N9+01171+99999102001ADDGF102991999999999999999999
0029029170999991910051206004+62900+027667FM-12+009099999V0203601N006219999999N0000001N9+00941+99999102561ADDGF100991999999999999999999
0029029170999991910051213004+62900+027667FM-12+009099999V0203201N006219999999N0000001N9+01611+99999102581ADDGF100991999999999999999999
0029029170999991910051220004+62900+027667FM-12+009099999V0209991C000019999999N0000001N9+01171+99999102561ADDGF108991999999999999999999
0029029170999991910051306004+62900+027667FM-12+009099999V0209991C000019999999N0000001N9+00941+99999102621ADDGF101991999999999999999999
0029029170999991910051313004+62900+027667FM-12+009099999V0201401N004119999999N0000001N9+01781+99999102341ADDGF100991999999999999999999
0029029170999991910051320004+62900+027667FM-12+009099999V0209991C000019999999N0000001N9+01281+99999102061ADDGF100991999999999999999999
0029029170999991910051406004+62900+027667FM-12+009099999V0209991C000019999999N0000001N9+01221+99999101641ADDGF100991999999999999999999
0029029170999991910051413004+62900+027667FM-12+009099999V0202701N006219999999N0000001N9+02331+99999101161ADDGF100991999999999999999999
0029029170999991910051420004+62900+027667FM-12+009099999V0209991C000019999999N0000001N9+01891+99999100741ADDGF100991999999999999999999
0029029170999991910051506004+62900+027667FM-12+009099999V0203201N006219999999N0000001N9+01221+99999100281ADDGF105991999999999999999999
0029029170999991910051513004+62900+027667FM-12+009099999V0203601N004119999999N0000001N9+01281+99999100441ADDGF108991999999999999999999
0029029170999991910051520004+62900+027667FM-12+009099999V0202901N004119999999N0000001N9+00941+99999100481ADDGF106991999999999999999999
0029029170999991910051606004+62900+027667FM-12+009099999V0200201N004119999999N0000001N9+00671+99999100821ADDGF107991999999999999999999
0029029170999991910051613004+62900+027667FM-12+009099999V0200501N006219999999N0000001N9+00831+99999100661ADDGF103991999999999999999999
0029029170999991910051620004+62900+027667FM-12+009099999V0200501N004119999999N0000001N9+00501+99999100981ADDGF107991999999999999999999
0029029170999991910051706004+62900+027667FM-12+009099999V0209991C000019999999N0000001N9+00501+99999101241ADDGF107991999999999999999999
0029029170999991910051713004+62900+027667FM-12+009099999V0209991C000019999999N0000001N9+00891+99999101201ADDGF101991999999999999999999
0029029170999991910051720004+62900+027667FM-12+009099999V0209991C000019999999N0000001N9+00561+99999100961ADDGF107991999999999999999999
0029029170999991910051806004+62900+027667FM-12+009099999V0202301N006219999999N0000001N9+00781+99999100711ADDGF101991999999999999999999
0029029170999991910051813004+62900+027667FM-12+009099999V0203201N006219999999N0000001N9+00891+99999100581ADDGF102991999999999999999999
0029029170999991910051820004+62900+027667FM-12+009099999V0209991C000019999999N0000001N9+01001+99999100661ADDGF101991999999999999999999
0029029170999991910051906004+62900+027667FM-12+009099999V0209991C000019999999N0000001N9+00781+99999100711ADDGF108991999999999999999999
0029029170999991910051913004+62900+027667FM-12+009099999V0200201N006219999999N0000001N9+01441+99999100641ADDGF103991999999999999999999
0029029170999991910051920004+62900+027667FM-12+009099999V0203201N004119999999N0000001N9+01001+99999100681ADDGF102991999999999999999999
0029029170999991910052006004+62900+027667FM-12+009099999V0200501N006219999999N0000001N9+00781+99999100921ADDGF108991999999999999999999
0029029170999991910052013004+62900+027667FM-12+009099999V0202701N006219999999N0000001N9+01001+99999101101ADDGF102991999999999999999999
0029029170999991910052020004+62900+027667FM-12+009099999V0200901N004119999999N0000001N9+00501+99999101351ADDGF100991999999999999999999
0029029170999991910052106004+62900+027667FM-12+009099999V0202901N006219999999N0000001N9+00671+99999101511ADDGF100991999999999999999999
0029029170999991910052113004+62900+027667FM-12+009099999V0209991C000019999999N0000001N9+01171+99999101041ADDGF100991999999999999999999
0029029170999991910052120004+62900+027667FM-12+009099999V0209991C000019999999N0000001N9+01001+99999100901ADDGF107991999999999999999999
0029029170999991910052206004+62900+027667FM-12+009099999V0203601N006219999999N0000001N9+01061+99999100821ADDGF100991999999999999999999
0029029170999991910052213004+62900+027667FM-12+009099999V0209991C000019999999N0000001N9+01561+99999100511ADDGF100991999999999999999999
0029029170999991910052220004+62900+027667FM-12+009099999V0209991C000019999999N0000001N9+01391+99999100471ADDGF108991999999999999999999
0029029170999991910052306004+62900+027667FM-12+009099999V0203201N006219999999N0000001N9+01171+99999099621ADDGF101991999999999999999999
0029029170999991910052313004+62900+027667FM-12+009099999V0203201N007219999999N0000001N9+01171+99999099711ADDGF107991999999999999999999
0029029170999991910052320004+62900+027667FM-12+009099999V0203401N006219999999N0000001N9+00721+99999100101ADDGF107991999999999999999999
0029029170999991910052406004+62900+027667FM-12+009099999V0209991C000019999999N0000001N9+00721+99999100221ADDGF101991999999999999999999
0029029170999991910052413004+62900+027667FM-12+009099999V0203601N004119999999N0000001N9+00891+99999099761ADDGF107991999999999999999999
0029029170999991910052420004+62900+027667FM-12+009099999V0203401N006219999999N0000001N9+00391+99999100071ADDGF107991999999999999999999
0029029170999991910052506004+62900+027667FM-12+009099999V0202901N004119999999N0000001N9+00441+99999100221ADDGF105991999999999999999999
0029029170999991910052513004+62900+027667FM-12+009099999V0203201N006219999999N0000001N9+00781+99999099921ADDGF107991999999999999999999
0029029170999991910052520004+62900+027667FM-12+009099999V0209991C000019999999N0000001N9+00441+99999099831ADDGF101991999999999999999999
0029029170999991910052606004+62900+027667FM-12+009099999V0203201N004119999999N0000001N9+00561+99999099681ADDGF101991999999999999999999
0029029170999991910052613004+62900+027667FM-12+009099999V0202901N006219999999N0000001N9+00831+99999099671ADDGF107991999999999999999999
0029029170999991910052620004+62900+027667FM-12+009099999V0209991C000019999999N0000001N9+00391+99999099841ADDGF100991999999999999999999
0029029170999991910052706004+62900+027667FM-12+009099999V0209991C000019999999N0000001N9+00561+99999099821ADDGF100991999999999999999999
0029029170999991910052713004+62900+027667FM-12+009099999V0200701N006219999999N0000001N9+01061+99999099841ADDGF108991999999999999999999
0029029170999991910052720004+62900+027667FM-12+009099999V0201401N006219999999N0000001N9+00561+99999099841ADDGF100991999999999999999999
0029029170999991910052806004+62900+027667FM-12+009099999V0201601N006219999999N0000001N9+00671+99999099951ADDGF100991999999999999999999
0029029170999991910052813004+62900+027667FM-12+009099999V0209991C000019999999N0000001N9+01221+99999099661ADDGF100991999999999999999999
0029029170999991910052820004+62900+027667FM-12+009099999V0209991C000019999999N0000001N9+00781+99999099561ADDGF100991999999999999999999
0029029170999991910052906004+62900+027667FM-12+009099999V0200501N005119999999N0000001N9+00441+99999099681ADDGF104991999999999999999999
0029029170999991910052913004+62900+027667FM-12+009099999V0200201N003119999999N0000001N9+01111+99999099431ADDGF104991999999999999999999
0029029170999991910052920004+62900+027667FM-12+009099999V0200901N004119999999N0000001N9+00781+99999099391ADDGF108991999999999999999999
0029029170999991910053006004+62900+027667FM-12+009099999V0201601N003119999999N0000001N9+00501+99999099341ADDGF102991999999999999999999
0029029170999991910053013004+62900+027667FM-12+009099999V0203401N002119999999N0000001N9+01391+99999099361ADDGF101991999999999999999999
0029029170999991910053020004+62900+027667FM-12+009099999V0209991C000019999999N0000001N9+00721+99999099201ADDGF107991999999999999999999
0029029170999991910053106004+62900+027667FM-12+009099999V0201801N001019999999N0000001N9+00941+99999099101ADDGF106991999999999999999999
0029029170999991910053113004+62900+027667FM-12+009099999V0201601N003119999999N0000001N9+00941+99999098951ADDGF108991999999999999999999
0029029170999991910053120004+62900+027667FM-12+009099999V0202001N003119999999N0000001N9+00831+99999098671ADDGF108991999999999999999999
0029029170999991910060106004+62900+027667FM-12+009099999V0202701N001019999999N0000001N9+00891+99999098941ADDGF108991999999999999999999
0029029170999991910060113004+62900+027667FM-12+009099999V0202301N002119999999N0000001N9+01281+99999098871ADDGF108991999999999999999999
0029029170999991910060120004+62900+027667FM-12+009099999V0201801N001019999999N0000001N9+00941+99999098471ADDGF108991999999999999999999
0029029170999991910060206004+62900+027667FM-12+009099999V0209991C000019999999N0000001N9+00891+99999098391ADDGF108991999999999999999999
0029029170999991910060213004+62900+027667FM-12+009099999V0202301N001019999999N0000001N9+01221+99999099181ADDGF106991999999999999999999
0029029170999991910060220004+62900+027667FM-12+009099999V0209991C000019999999N0000001N9+01111+99999099551ADDGF101991999999999999999999
0029029170999991910060306004+62900+027667FM-12+009099999V0202501N001019999999N0000001N9+01171+99999100041ADDGF106991999999999999999999
0029029170999991910060313004+62900+027667FM-12+009099999V0209991C000019999999N0000001N9+01221+99999100031ADDGF108991999999999999999999
0035029170999991910060320004+62900+027667FM-12+009099999V0209991C000019999999N0000001N9+01061+99999100031ADDGF108991999999999999999999MW1601
0029029170999991910060406004+62900+027667FM-12+009099999V0209991C000019999999N0000001N9+01281+99999099911ADDGF108991999999999999999999
0029029170999991910060413004+62900+027667FM-12+009099999V0209991C000019999999N0000001N9+01891+99999100071ADDGF106991999999999999999999
0029029170999991910060420004+62900+027667FM-12+009099999V0209991C000019999999N0000001N9+01561+99999099951ADDGF105991999999999999999999
0029029170999991910060506004+62900+027667FM-12+009099999V0209991C000019999999N0000001N9+01441+99999099881ADDGF108991999999999999999999
0029029170999991910060513004+62900+027667FM-12+009099999V0209991C000019999999N0000001N9+02061+99999099551ADDGF106991999999999999999999
0029029170999991910060520004+62900+027667FM-12+009099999V0203201N001019999999N0000001N9+01171+99999100221ADDGF101991999999999999999999
0029029170999991910060606004+62900+027667FM-12+009099999V0203201N001019999999N0000001N9+01171+99999100841ADDGF100991999999999999999999
0029029170999991910060613004+62900+027667FM-12+009099999V0202701N001019999999N0000001N9+01671+99999100941ADDGF100991999999999999999999
0029029170999991910060620004+62900+027667FM-12+009099999V0209991C000019999999N0000001N9+01391+99999100841ADDGF100991999999999999999999
0029029170999991910060706004+62900+027667FM-12+009099999V0202701N001019999999N0000001N9+01171+99999101101ADDGF103991999999999999999999
0029029170999991910060713004+62900+027667FM-12+009099999V0202901N001019999999N0000001N9+01671+99999101361ADDGF103991999999999999999999
0029029170999991910060720004+62900+027667FM-12+009099999V0209991C000019999999N0000001N9+01441+99999101041ADDGF102991999999999999999999
0029029170999991910060806004+62900+027667FM-12+009099999V0202301N001019999999N0000001N9+01441+99999100721ADDGF100991999999999999999999
0029029170999991910060813004+62900+027667FM-12+009099999V0202301N005119999999N0000001N9+02281+99999100351ADDGF102991999999999999999999
0029029170999991910060820004+62900+027667FM-12+009099999V0203201N001019999999N0000001N9+01561+99999100481ADDGF102991999999999999999999
0029029170999991910060906004+62900+027667FM-12+009099999V0209991C000019999999N0000001N9+01111+99999101221ADDGF100991999999999999999999
0029029170999991910060913004+62900+027667FM-12+009099999V0209991C000019999999N0000001N9+01561+99999101351ADDGF100991999999999999999999
0029029170999991910060920004+62900+027667FM-12+009099999V0209991C000019999999N0000001N9+01281+99999101221ADDGF100991999999999999999999
0029029170999991910061006004+62900+027667FM-12+009099999V0209991C000019999999N0000001N9+01501+99999101181ADDGF100991999999999999999999
0029029170999991910061013004+62900+027667FM-12+009099999V0201801N001019999999N0000001N9+02391+99999100681ADDGF100991999999999999999999
0029029170999991910061020004+62900+027667FM-12+009099999V0209991C000019999999N0000001N9+01831+99999100761ADDGF101991999999999999999999
0029029170999991910061106004+62900+027667FM-12+009099999V0209991C000019999999N0000001N9+01611+99999100721ADDGF102991999999999999999999
0029029170999991910061113004+62900+027667FM-12+009099999V0201601N001019999999N0000001N9+02441+99999100761ADDGF100991999999999999999999
0029029170999991910061120004+62900+027667FM-12+009099999V0209991C000019999999N0000001N9+01941+99999100741ADDGF102991999999999999999999
0029029170999991910061206004+62900+027667FM-12+009099999V0209991C000019999999N0000001N9+01891+99999101031ADDGF101991999999999999999999
0029029170999991910061213004+62900+027667FM-12+009099999V0201601N001019999999N0000001N9+02781+99999101041ADDGF101991999999999999999999
0029029170999991910061220004+62900+027667FM-12+009099999V0209991C000019999999N0000001N9+02221+99999101081ADDGF100991999999999999999999
0029029170999991910061306004+62900+027667FM-12+009099999V0209991C000019999999N0000001N9+02111+99999101421ADDGF102991999999999999999999
0029029170999991910061313004+62900+027667FM-12+009099999V0201601N001019999999N0000001N9+02941+99999101381ADDGF100991999999999999999999
0029029170999991910061320004+62900+027667FM-12+009099999V0209991C000019999999N0000001N9+02441+99999101261ADDGF101991999999999999999999
0029029170999991910061406004+62900+027667FM-12+009099999V0209991C000019999999N0000001N9+02111+99999101181ADDGF103991999999999999999999
0029029170999991910061413004+62900+027667FM-12+009099999V0209991C000019999999N0000001N9+02331+99999101041ADDGF108991999999999999999999
0029029170999991910061420004+62900+027667FM-12+009099999V0209991C000019999999N0000001N9+01831+99999100551ADDGF107991999999999999999999
0029029170999991910061506004+62900+027667FM-12+009099999V0209991C000019999999N0000001N9+02061+99999100401ADDGF101991999999999999999999
0029029170999991910061513004+62900+027667FM-12+009099999V0201601N001019999999N0000001N9+02001+99999100201ADDGF106991999999999999999999
0029029170999991910061520004+62900+027667FM-12+009099999V0209991C000019999999N0000001N9+01721+99999100061ADDGF108991999999999999999999
0029029170999991910061606004+62900+027667FM-12+009099999V0203201N001019999999N0000001N9+01441+99999100391ADDGF102991999999999999999999
0029029170999991910061613004+62900+027667FM-12+009099999V0203201N003119999999N0000001N9+01721+99999100551ADDGF101991999999999999999999
0029029170999991910061620004+62900+027667FM-12+009099999V0203201N001019999999N0000001N9+01331+99999100681ADDGF100991999999999999999999
0029029170999991910061706004+62900+027667FM-12+009099999V0202701N001019999999N0000001N9+01331+99999100561ADDGF101991999999999999999999
0029029170999991910061713004+62900+027667FM-12+009099999V0202701N002119999999N0000001N9+01561+99999100501ADDGF105991999999999999999999
0029029170999991910061720004+62900+027667FM-12+009099999V0209991C000019999999N0000001N9+01111+99999100281ADDGF103991999999999999999999
0029029170999991910061806004+62900+027667FM-12+009099999V0203201N003119999999N0000001N9+00941+99999100081ADDGF104991999999999999999999
0029029170999991910061813004+62900+027667FM-12+009099999V0203601N002119999999N0000001N9+01111+99999100191ADDGF106991999999999999999999
0029029170999991910061820004+62900+027667FM-12+009099999V0203601N001019999999N0000001N9+00781+99999100181ADDGF106991999999999999999999
0029029170999991910061906004+62900+027667FM-12+009099999V0203601N001019999999N0000001N9+00671+99999100231ADDGF104991999999999999999999
0029029170999991910061913004+62900+027667FM-12+009099999V0203601N003119999999N0000001N9+00721+99999100321ADDGF106991999999999999999999
0029029170999991910061920004+62900+027667FM-12+009099999V0203601N001019999999N0000001N9+00671+99999100391ADDGF108991999999999999999999
0029029170999991910062006004+62900+027667FM-12+009099999V0203601N001019999999N0000001N9+00671+99999100511ADDGF106991999999999999999999
0029029170999991910062013004+62900+027667FM-12+009099999V0203601N002119999999N0000001N9+01061+99999100361ADDGF106991999999999999999999
0029029170999991910062020004+62900+027667FM-12+009099999V0209991C000019999999N0000001N9+00831+99999100321ADDGF107991999999999999999999
0029029170999991910062106004+62900+027667FM-12+009099999V0203601N001019999999N0000001N9+00891+99999100241ADDGF106991999999999999999999
0029029170999991910062113004+62900+027667FM-12+009099999V0200201N002119999999N0000001N9+00831+99999100111ADDGF108991999999999999999999
0029029170999991910062120004+62900+027667FM-12+009099999V0209991C000019999999N0000001N9+00611+99999100271ADDGF102991999999999999999999
0029029170999991910062206004+62900+027667FM-12+009099999V0203601N001019999999N0000001N9+00671+99999100341ADDGF108991999999999999999999
0029029170999991910062213004+62900+027667FM-12+009099999V0200701N002119999999N0000001N9+01171+99999100301ADDGF105991999999999999999999
0029029170999991910062220004+62900+027667FM-12+009099999V0209991C000019999999N0000001N9+01061+99999100221ADDGF103991999999999999999999
0029029170999991910062306004+62900+027667FM-12+009099999V0209991C000019999999N0000001N9+00891+99999100321ADDGF108991999999999999999999
0029029170999991910062313004+62900+027667FM-12+009099999V0203601N001019999999N0000001N9+01221+99999100181ADDGF104991999999999999999999
0029029170999991910062320004+62900+027667FM-12+009099999V0209991C000019999999N0000001N9+01061+99999100111ADDGF100991999999999999999999
0029029170999991910062406004+62900+027667FM-12+009099999V0200901N001019999999N0000001N9+00941+99999099711ADDGF102991999999999999999999
0029029170999991910062413004+62900+027667FM-12+009099999V0200901N001019999999N0000001N9+01331+99999099521ADDGF105991999999999999999999
0029029170999991910062420004+62900+027667FM-12+009099999V0209991C000019999999N0000001N9+01001+99999099271ADDGF106991999999999999999999
0029029170999991910062506004+62900+027667FM-12+009099999V0203601N001019999999N0000001N9+00721+99999098871ADDGF107991999999999999999999
0035029170999991910062513004+62900+027667FM-12+009099999V0203601N003119999999N0000001N9+00831+99999098381ADDGF108991999999999999999999MW1621
0029029170999991910062520004+62900+027667FM-12+009099999V0209991C000019999999N0000001N9+00171+99999098141ADDGF108991999999999999999999
0029029170999991910062606004+62900+027667FM-12+009099999V0201601N001019999999N0000001N9+00561+99999098281ADDGF108991999999999999999999
0035029170999991910062613004+62900+027667FM-12+009099999V0209991C000019999999N0000001N9+00941+99999098861ADDGF108991999999999999999999MW1621
0029029170999991910062620004+62900+027667FM-12+009099999V0209991C000019999999N0000001N9+01221+99999099151ADDGF101991999999999999999999
0029029170999991910062706004+62900+027667FM-12+009099999V0209991C000019999999N0000001N9+01331+99999099391ADDGF100991999999999999999999
0029029170999991910062713004+62900+027667FM-12+009099999V0209991C000019999999N0000001N9+01781+99999099231ADDGF106991999999999999999999
0029029170999991910062720004+62900+027667FM-12+009099999V0209991C000019999999N0000001N9+01391+99999099071ADDGF103991999999999999999999
0029029170999991910062806004+62900+027667FM-12+009099999V0209991C000019999999N0000001N9+01391+99999098871ADDGF108991999999999999999999
0029029170999991910062813004+62900+027667FM-12+009099999V0202501N001019999999N0000001N9+01561+99999098791ADDGF106991999999999999999999
0029029170999991910062820004+62900+027667FM-12+009099999V0209991C000019999999N0000001N9+01331+99999098921ADDGF106991999999999999999999
0029029170999991910062906004+62900+027667FM-12+009099999V0209991C000019999999N0000001N9+01391+99999099301ADDGF103991999999999999999999
0029029170999991910062913004+62900+027667FM-12+009099999V0201801N002119999999N0000001N9+01671+99999099141ADDGF108991999999999999999999
0029029170999991910062920004+62900+027667FM-12+009099999V0209991C000019999999N0000001N9+01501+99999098821ADDGF107991999999999999999999
0029029170999991910063006004+62900+027667FM-12+009099999V0201601N001019999999N0000001N9+01391+99999098641ADDGF108991999999999999999999
0029029170999991910063013004+62900+027667FM-12+009099999V0209991C000019999999N0000001N9+01831+99999098711ADDGF108991999999999999999999
0029029170999991910063020004+62900+027667FM-12+009099999V0209991C000019999999N0000001N9+01331+99999098751ADDGF108991999999999999999999
0029029170999991910070106004+62900+027667FM-12+009099999V0202701N003119999999N0000001N9+01611+99999099021ADDGF103991999999999999999999
0029029170999991910070113004+62900+027667FM-12+009099999V0201801N004119999999N0000001N9+02111+99999099021ADDGF102991999999999999999999
0029029170999991910070120004+62900+027667FM-12+009099999V0201601N003119999999N0000001N9+01671+99999098791ADDGF104991999999999999999999
0029029170999991910070206004+62900+027667FM-12+009099999V0201601N003119999999N0000001N9+01561+99999098831ADDGF104991999999999999999999
0029029170999991910070213004+62900+027667FM-12+009099999V0201801N004119999999N0000001N9+01891+99999098841ADDGF104991999999999999999999
0029029170999991910070220004+62900+027667FM-12+009099999V0201801N003119999999N0000001N9+01441+99999098901ADDGF104991999999999999999999
0029029170999991910070306004+62900+027667FM-12+009099999V0201601N005119999999N0000001N9+01281+99999098921ADDGF108991999999999999999999
0035029170999991910070313004+62900+027667FM-12+009099999V0201801N005119999999N0000001N9+01441+99999098941ADDGF108991999999999999999999MW1621
0029029170999991910070320004+62900+027667FM-12+009099999V0201801N005119999999N0000001N9+01331+99999098881ADDGF108991999999999999999999
0029029170999991910070406004+62900+027667FM-12+009099999V0202701N006219999999N0000001N9+01331+99999099301ADDGF108991999999999999999999
0029029170999991910070413004+62900+027667FM-12+009099999V0202301N004119999999N0000001N9+01831+99999099661ADDGF105991999999999999999999
0029029170999991910070420004+62900+027667FM-12+009099999V0202701N001019999999N0000001N9+01441+99999099791ADDGF105991999999999999999999
0029029170999991910070506004+62900+027667FM-12+009099999V0201801N002119999999N0000001N9+01611+99999100221ADDGF106991999999999999999999
0029029170999991910070513004+62900+027667FM-12+009099999V0201601N003119999999N0000001N9+02331+99999100161ADDGF106991999999999999999999
0029029170999991910070520004+62900+027667FM-12+009099999V0209991C000019999999N0000001N9+01941+99999100191ADDGF104991999999999999999999
0029029170999991910070606004+62900+027667FM-12+009099999V0201401N003119999999N0000001N9+01941+99999100201ADDGF101991999999999999999999
0029029170999991910070613004+62900+027667FM-12+009099999V0201601N004119999999N0000001N9+02721+99999100201ADDGF102991999999999999999999
0029029170999991910070620004+62900+027667FM-12+009099999V0209991C000019999999N0000001N9+02171+99999099981ADDGF100991999999999999999999
0029029170999991910070706004+62900+027667FM-12+009099999V0201601N004119999999N0000001N9+02061+99999100061ADDGF102991999999999999999999
0029029170999991910070713004+62900+027667FM-12+009099999V0201601N003119999999N0000001N9+02611+99999100071ADDGF106991999999999999999999
0029029170999991910070720004+62900+027667FM-12+009099999V0200901N004119999999N0000001N9+02111+99999099981ADDGF106991999999999999999999
0029029170999991910070806004+62900+027667FM-12+009099999V0201601N004119999999N0000001N9+01891+99999099841ADDGF107991999999999999999999
0035029170999991910070813004+62900+027667FM-12+009099999V0200901N005119999999N0000001N9+02171+99999099301ADDGF108991999999999999999999MW1601
0029029170999991910070820004+62900+027667FM-12+009099999V0201601N002119999999N0000001N9+01891+99999099181ADDGF103991999999999999999999
0029029170999991910070906004+62900+027667FM-12+009099999V0201601N004119999999N0000001N9+01941+99999099041ADDGF102991999999999999999999
0035029170999991910070913004+62900+027667FM-12+009099999V0201601N003119999999N0000001N9+01941+99999099121ADDGF108991999999999999999999MW1601
0029029170999991910070920004+62900+027667FM-12+009099999V0201601N003119999999N0000001N9+01721+99999099321ADDGF107991999999999999999999
0029029170999991910071006004+62900+027667FM-12+009099999V0201601N003119999999N0000001N9+01891+99999099591ADDGF106991999999999999999999
0029029170999991910071013004+62900+027667FM-12+009099999V0201401N005119999999N0000001N9+02171+99999099901ADDGF105991999999999999999999
0029029170999991910071020004+62900+027667FM-12+009099999V0200201N003119999999N0000001N9+01561+99999100181ADDGF102991999999999999999999
0029029170999991910071106004+62900+027667FM-12+009099999V0200901N005119999999N0000001N9+01281+99999100361ADDGF108991999999999999999999
0029029170999991910071113004+62900+027667FM-12+009099999V0201401N004119999999N0000001N9+02061+99999100341ADDGF103991999999999999999999
0029029170999991910071120004+62900+027667FM-12+009099999V0209991C000019999999N0000001N9+01671+99999100401ADDGF101991999999999999999999
0029029170999991910071206004+62900+027667FM-12+009099999V0201601N003119999999N0000001N9+01561+99999100311ADDGF103991999999999999999999
0029029170999991910071213004+62900+027667FM-12+009099999V0201601N004119999999N0000001N9+02061+99999100401ADDGF102991999999999999999999
0029029170999991910071220004+62900+027667FM-12+009099999V0209991C000019999999N0000001N9+01831+99999100221ADDGF102991999999999999999999
0029029170999991910071306004+62900+027667FM-12+009099999V0201601N001019999999N0000001N9+01831+99999100321ADDGF106991999999999999999999
0029029170999991910071313004+62900+027667FM-12+009099999V0201401N003119999999N0000001N9+02281+99999100221ADDGF105991999999999999999999
0029029170999991910071320004+62900+027667FM-12+009099999V0203601N003119999999N0000001N9+02001+99999100321ADDGF100991999999999999999999
0029029170999991910071406004+62900+027667FM-12+009099999V0203201N004119999999N0000001N9+01831+99999100241ADDGF100991999999999999999999
0029029170999991910071413004+62900+027667FM-12+009099999V0201801N004119999999N0000001N9+02391+99999099841ADDGF100991999999999999999999
0029029170999991910071420004+62900+027667FM-12+009099999V0202301N001019999999N0000001N9+02001+99999099431ADDGF102991999999999999999999
0029029170999991910071506004+62900+027667FM-12+009099999V0203201N005119999999N0000001N9+01441+99999099141ADDGF106991999999999999999999
0029029170999991910071513004+62900+027667FM-12+009099999V0203201N005119999999N0000001N9+01501+99999099021ADDGF108991999999999999999999
0029029170999991910071520004+62900+027667FM-12+009099999V0202701N003119999999N0000001N9+01221+99999098901ADDGF102991999999999999999999
0029029170999991910071606004+62900+027667FM-12+009099999V0202901N002119999999N0000001N9+01391+99999098741ADDGF108991999999999999999999
0029029170999991910071613004+62900+027667FM-12+009099999V0202501N003119999999N0000001N9+01171+99999098721ADDGF105991999999999999999999
0029029170999991910071620004+62900+027667FM-12+009099999V0203401N003119999999N0000001N9+00891+99999098881ADDGF108991999999999999999999
0035029170999991910071706004+62900+027667FM-12+009099999V0203201N006219999999N0000001N9+00671+99999099141ADDGF108991999999999999999999MW1621
0035029170999991910071713004+62900+027667FM-12+009099999V0203201N004119999999N0000001N9+00941+99999099391ADDGF108991999999999999999999MW1621
0029029170999991910071720004+62900+027667FM-12+009099999V0203401N006219999999N0000001N9+00891+99999099561ADDGF105991999999999999999999
0029029170999991910071806004+62900+027667FM-12+009099999V0203201N004119999999N0000001N9+00941+99999099921ADDGF102991999999999999999999
0029029170999991910071813004+62900+027667FM-12+009099999V0203201N004119999999N0000001N9+01221+99999099921ADDGF100991999999999999999999
0029029170999991910071820004+62900+027667FM-12+009099999V0203401N002119999999N0000001N9+00891+99999100041ADDGF101991999999999999999999
0029029170999991910071906004+62900+027667FM-12+009099999V0202701N004119999999N0000001N9+00781+99999099921ADDGF108991999999999999999999
0029029170999991910071913004+62900+027667FM-12+009099999V0202701N003119999999N0000001N9+01391+99999099681ADDGF107991999999999999999999
0029029170999991910071920004+62900+027667FM-12+009099999V0202701N001019999999N0000001N9+01171+99999099721ADDGF104991999999999999999999
0029029170999991910072006004+62900+027667FM-12+009099999V0202701N002119999999N0000001N9+01441+99999099751ADDGF100991999999999999999999
0029029170999991910072013004+62900+027667FM-12+009099999V0201401N002119999999N0000001N9+01721+99999099781ADDGF102991999999999999999999
0029029170999991910072020004+62900+027667FM-12+009099999V0201401N002119999999N0000001N9+01441+99999099661ADDGF108991999999999999999999
0029029170999991910072106004+62900+027667FM-12+009099999V0201401N003119999999N0000001N9+01441+99999099461ADDGF106991999999999999999999
0029029170999991910072113004+62900+027667FM-12+009099999V0201101N005119999999N0000001N9+01891+99999099271ADDGF106991999999999999999999
0029029170999991910072120004+62900+027667FM-12+009099999V0202301N001019999999N0000001N9+01391+99999099191ADDGF108991999999999999999999
0029029170999991910072206004+62900+027667FM-12+009099999V0201401N004119999999N0000001N9+01501+99999099361ADDGF106991999999999999999999
0029029170999991910072213004+62900+027667FM-12+009099999V0201101N006219999999N0000001N9+01891+99999099381ADDGF105991999999999999999999
0029029170999991910072220004+62900+027667FM-12+009099999V0201101N001019999999N0000001N9+01561+99999099391ADDGF102991999999999999999999
0029029170999991910072306004+62900+027667FM-12+009099999V0201601N001019999999N0000001N9+01611+99999099461ADDGF102991999999999999999999
0029029170999991910072313004+62900+027667FM-12+009099999V0201401N003119999999N0000001N9+02061+99999099431ADDGF104991999999999999999999
0029029170999991910072320004+62900+027667FM-12+009099999V0200901N003119999999N0000001N9+01721+99999099081ADDGF105991999999999999999999
0029029170999991910072406004+62900+027667FM-12+009099999V0200901N006219999999N0000001N9+01331+99999098841ADDGF108991999999999999999999
0029029170999991910072413004+62900+027667FM-12+009099999V0200701N006219999999N0000001N9+01391+99999098721ADDGF108991999999999999999999
0029029170999991910072420004+62900+027667FM-12+009099999V0203201N002119999999N0000001N9+01501+99999098641ADDGF108991999999999999999999
0029029170999991910072506004+62900+027667FM-12+009099999V0202301N005119999999N0000001N9+01441+99999098871ADDGF108991999999999999999999
0029029170999991910072513004+62900+027667FM-12+009099999V0202301N008219999999N0000001N9+01671+99999099001ADDGF108991999999999999999999
0029029170999991910072520004+62900+027667FM-12+009099999V0202301N003119999999N0000001N9+01501+99999099141ADDGF108991999999999999999999
0029029170999991910072606004+62900+027667FM-12+009099999V0202701N006219999999N0000001N9+01501+99999099481ADDGF108991999999999999999999
0029029170999991910072613004+62900+027667FM-12+009099999V0201601N002119999999N0000001N9+01831+99999099861ADDGF100991999999999999999999
0029029170999991910072620004+62900+027667FM-12+009099999V0201801N002119999999N0000001N9+01671+99999100201ADDGF100991999999999999999999
0029029170999991910072706004+62900+027667FM-12+009099999V0201601N001019999999N0000001N9+01781+99999100511ADDGF100991999999999999999999
0029029170999991910072713004+62900+027667FM-12+009099999V0201401N001019999999N0000001N9+02171+99999100751ADDGF105991999999999999999999
0029029170999991910072720004+62900+027667FM-12+009099999V0209991C000019999999N0000001N9+01781+99999100561ADDGF100991999999999999999999
0029029170999991910072806004+62900+027667FM-12+009099999V0200901N002119999999N0000001N9+01721+99999100401ADDGF102991999999999999999999
0035029170999991910072813004+62900+027667FM-12+009099999V0200201N004119999999N0000001N9+01501+99999100111ADDGF108991999999999999999999MW1621
0029029170999991910072820004+62900+027667FM-12+009099999V0203601N008219999999N0000001N9+01501+99999099511ADDGF108991999999999999999999
0035029170999991910072906004+62900+027667FM-12+009099999V0200201N008219999999N0000001N9+01671+99999098821ADDGF108991999999999999999999MW1641
0035029170999991910072913004+62900+027667FM-12+009099999V0202301N006219999999N0000001N9+01611+99999099111ADDGF108991999999999999999999MW1641
0029029170999991910072920004+62900+027667FM-12+009099999V0202301N006219999999N0000001N9+01561+99999099271ADDGF108991999999999999999999
0029029170999991910073006004+62900+027667FM-12+009099999V0202001N005119999999N0000001N9+01441+99999099311ADDGF108991999999999999999999
0035029170999991910073013004+62900+027667FM-12+009099999V0201601N003119999999N0000001N9+01781+99999099641ADDGF108991999999999999999999MW1621
0029029170999991910073020004+62900+027667FM-12+009099999V0202701N004119999999N0000001N9+01391+99999100081ADDGF108991999999999999999999
0029029170999991910073106004+62900+027667FM-12+009099999V0202701N001019999999N0000001N9+01331+99999100461ADDGF108991999999999999999999
0029029170999991910073113004+62900+027667FM-12+009099999V0202901N003119999999N0000001N9+01671+99999100701ADDGF108991999999999999999999
0029029170999991910073120004+62900+027667FM-12+009099999V0209991C000019999999N0000001N9+01331+99999100831ADDGF100991999999999999999999
0029029170999991910080106004+62900+027667FM-12+009099999V0200501N001019999999N0000001N9+01441+99999101311ADDGF100991999999999999999999
0029029170999991910080113004+62900+027667FM-12+009099999V0201101N001019999999N0000001N9+02171+99999101181ADDGF100991999999999999999999
0029029170999991910080120004+62900+027667FM-12+009099999V0209991C000019999999N0000001N9+01671+99999101181ADDGF100991999999999999999999
0029029170999991910080206004+62900+027667FM-12+009099999V0200201N001019999999N0000001N9+01781+99999101261ADDGF100991999999999999999999
0029029170999991910080213004+62900+027667FM-12+009099999V0200901N002119999999N0000001N9+02441+99999101231ADDGF100991999999999999999999
0029029170999991910080220004+62900+027667FM-12+009099999V0200201N004119999999N0000001N9+01941+99999101151ADDGF100991999999999999999999
0029029170999991910080306004+62900+027667FM-12+009099999V0201401N003119999999N0000001N9+01721+99999101181ADDGF100991999999999999999999
0029029170999991910080313004+62900+027667FM-12+009099999V0201401N003119999999N0000001N9+02441+99999101031ADDGF100991999999999999999999
0029029170999991910080320004+62900+027667FM-12+009099999V0209991C000019999999N0000001N9+01831+99999101021ADDGF100991999999999999999999
0029029170999991910080406004+62900+027667FM-12+009099999V0200901N006219999999N0000001N9+01721+99999101041ADDGF100991999999999999999999
0029029170999991910080413004+62900+027667FM-12+009099999V0200901N008219999999N0000001N9+02171+99999100911ADDGF100991999999999999999999
0029029170999991910080420004+62900+027667FM-12+009099999V0201101N009819999999N0000001N9+01561+99999101081ADDGF102991999999999999999999
0029029170999991910080506004+62900+027667FM-12+009099999V0201401N009819999999N0000001N9+01171+99999101201ADDGF108991999999999999999999
0029029170999991910080513004+62900+027667FM-12+009099999V0201401N009819999999N0000001N9+01501+99999101311ADDGF100991999999999999999999
0029029170999991910080520004+62900+027667FM-12+009099999V0200901N008219999999N0000001N9+01281+99999101261ADDGF103991999999999999999999
0029029170999991910080606004+62900+027667FM-12+009099999V0201101N008219999999N0000001N9+01281+99999101221ADDGF100991999999999999999999
0029029170999991910080613004+62900+027667FM-12+009099999V0201401N008219999999N0000001N9+01941+99999101201ADDGF100991999999999999999999
0029029170999991910080620004+62900+027667FM-12+009099999V0200901N001019999999N0000001N9+01501+99999100961ADDGF100991999999999999999999
0029029170999991910080706004+62900+027667FM-12+009099999V0200201N008219999999N0000001N9+01441+99999100951ADDGF100991999999999999999999
0029029170999991910080713004+62900+027667FM-12+009099999V0200901N008219999999N0000001N9+02061+99999100721ADDGF100991999999999999999999
0029029170999991910080720004+62900+027667FM-12+009099999V0200201N004119999999N0000001N9+01561+99999100641ADDGF100991999999999999999999
0029029170999991910080806004+62900+027667FM-12+009099999V0200501N009819999999N0000001N9+01441+99999100351ADDGF100991999999999999999999
0029029170999991910080813004+62900+027667FM-12+009099999V0200901N008219999999N0000001N9+02061+99999100181ADDGF100991999999999999999999
0029029170999991910080820004+62900+027667FM-12+009099999V0209991C000019999999N0000001N9+01441+99999100151ADDGF100991999999999999999999
0029029170999991910080906004+62900+027667FM-12+009099999V0200201N008719999999N0000001N9+01171+99999100161ADDGF100991999999999999999999
0029029170999991910080913004+62900+027667FM-12+009099999V0200201N004119999999N0000001N9+01941+99999099961ADDGF102991999999999999999999
0029029170999991910080920004+62900+027667FM-12+009099999V0200201N009819999999N0000001N9+01061+99999100201ADDGF106991999999999999999999
0029029170999991910081006004+62900+027667FM-12+009099999V0203601N009819999999N0000001N9+00941+99999100031ADDGF108991999999999999999999
0029029170999991910081013004+62900+027667FM-12+009099999V0203601N009819999999N0000001N9+01221+99999099911ADDGF102991999999999999999999
0029029170999991910081020004+62900+027667FM-12+009099999V0203601N002119999999N0000001N9+00891+99999099881ADDGF100991999999999999999999
0029029170999991910081106004+62900+027667FM-12+009099999V0203601N003119999999N0000001N9+00891+99999099761ADDGF102991999999999999999999
0029029170999991910081113004+62900+027667FM-12+009099999V0203201N003119999999N0000001N9+01441+99999099401ADDGF108991999999999999999999
0029029170999991910081120004+62900+027667FM-12+009099999V0203201N002119999999N0000001N9+00941+99999099471ADDGF108991999999999999999999
0035029170999991910081206004+62900+027667FM-12+009099999V0203601N005119999999N0000001N9+00831+99999099501ADDGF108991999999999999999999MW1621
0029029170999991910081213004+62900+027667FM-12+009099999V0200901N005119999999N0000001N9+00941+99999099471ADDGF108991999999999999999999
0029029170999991910081220004+62900+027667FM-12+009099999V0203601N007219999999N0000001N9+00891+99999099631ADDGF106991999999999999999999
0035029170999991910081306004+62900+027667FM-12+009099999V0203401N008219999999N0000001N9+00721+99999099661ADDGF108991999999999999999999MW1621
0029029170999991910081313004+62900+027667FM-12+009099999V0203601N009819999999N0000001N9+01061+99999099601ADDGF108991999999999999999999
0029029170999991910081320004+62900+027667FM-12+009099999V0200201N002119999999N0000001N9+00941+99999099681ADDGF106991999999999999999999
0029029170999991910081406004+62900+027667FM-12+009099999V0203601N009819999999N0000001N9+00831+99999099761ADDGF108991999999999999999999
0029029170999991910081413004+62900+027667FM-12+009099999V0203601N009819999999N0000001N9+01221+99999099761ADDGF100991999999999999999999
0029029170999991910081420004+62900+027667FM-12+009099999V0209991C000019999999N0000001N9+00831+99999099921ADDGF100991999999999999999999
0029029170999991910081506004+62900+027667FM-12+009099999V0203401N001019999999N0000001N9+00941+99999099911ADDGF108991999999999999999999
0029029170999991910081513004+62900+027667FM-12+009099999V0200901N001019999999N0000001N9+01501+99999099991ADDGF103991999999999999999999
0029029170999991910081520004+62900+027667FM-12+009099999V0209991C000019999999N0000001N9+00831+99999099921ADDGF102991999999999999999999
0029029170999991910081606004+62900+027667FM-12+009099999V0201601N002119999999N0000001N9+01171+99999099981ADDGF100991999999999999999999
0029029170999991910081613004+62900+027667FM-12+009099999V0202701N005119999999N0000001N9+01611+99999099781ADDGF100991999999999999999999
0029029170999991910081620004+62900+027667FM-12+009099999V0209991C000019999999N0000001N9+01001+99999099841ADDGF100991999999999999999999
0029029170999991910081706004+62900+027667FM-12+009099999V0203201N004119999999N0000001N9+00941+99999099821ADDGF100991999999999999999999
0029029170999991910081713004+62900+027667FM-12+009099999V0201401N004119999999N0000001N9+01561+99999099591ADDGF102991999999999999999999
0029029170999991910081720004+62900+027667FM-12+009099999V0209991C000019999999N0000001N9+01061+99999099751ADDGF106991999999999999999999
0029029170999991910081806004+62900+027667FM-12+009099999V0203201N001019999999N0000001N9+01111+99999099521ADDGF106991999999999999999999
0029029170999991910081813004+62900+027667FM-12+009099999V0202501N003119999999N0000001N9+01671+99999099311ADDGF105991999999999999999999
0029029170999991910081820004+62900+027667FM-12+009099999V0209991C000019999999N0000001N9+01171+99999099161ADDGF101991999999999999999999
0029029170999991910081906004+62900+027667FM-12+009099999V0202701N003119999999N0000001N9+01221+99999099071ADDGF107991999999999999999999
0029029170999991910081913004+62900+027667FM-12+009099999V0202301N004119999999N0000001N9+01831+99999098871ADDGF102991999999999999999999
0029029170999991910081920004+62900+027667FM-12+009099999V0203601N002119999999N0000001N9+01001+99999098741ADDGF104991999999999999999999
0029029170999991910082006004+62900+027667FM-12+009099999V0203601N004119999999N0000001N9+01061+99999098881ADDGF100991999999999999999999
0029029170999991910082013004+62900+027667FM-12+009099999V0203401N004119999999N0000001N9+01501+99999099031ADDGF105991999999999999999999
0029029170999991910082020004+62900+027667FM-12+009099999V0209991C000019999999N0000001N9+00941+99999099201ADDGF100991999999999999999999
0029029170999991910082106004+62900+027667FM-12+009099999V0202701N004119999999N0000001N9+01111+99999099391ADDGF100991999999999999999999
0029029170999991910082113004+62900+027667FM-12+009099999V0202301N005119999999N0000001N9+01831+99999099221ADDGF106991999999999999999999
0029029170999991910082120004+62900+027667FM-12+009099999V0202301N005119999999N0000001N9+01171+99999099111ADDGF108991999999999999999999
0029029170999991910082206004+62900+027667FM-12+009099999V0202701N003119999999N0000001N9+01171+99999098991ADDGF106991999999999999999999
0035029170999991910082213004+62900+027667FM-12+009099999V0202301N003119999999N0000001N9+01501+99999099021ADDGF108991999999999999999999MW1621
0029029170999991910082220004+62900+027667FM-12+009099999V0209991C000019999999N0000001N9+01171+99999099071ADDGF108991999999999999999999
0029029170999991910082306004+62900+027667FM-12+009099999V0202901N004119999999N0000001N9+00941+99999099181ADDGF100991999999999999999999
0029029170999991910082313004+62900+027667FM-12+009099999V0203201N005119999999N0000001N9+01501+99999099261ADDGF100991999999999999999999
0029029170999991910082320004+62900+027667FM-12+009099999V0203601N004119999999N0000001N9+00891+99999099361ADDGF100991999999999999999999
0029029170999991910082406004+62900+027667FM-12+009099999V0202901N004119999999N0000001N9+00721+99999099671ADDGF100991999999999999999999
0029029170999991910082413004+62900+027667FM-12+009099999V0203201N005119999999N0000001N9+01221+99999100031ADDGF105991999999999999999999
0029029170999991910082420004+62900+027667FM-12+009099999V0209991C000019999999N0000001N9+00781+99999100261ADDGF100991999999999999999999
0029029170999991910082506004+62900+027667FM-12+009099999V0203401N003119999999N0000001N9+00781+99999100681ADDGF100991999999999999999999
0029029170999991910082513004+62900+027667FM-12+009099999V0200901N004119999999N0000001N9+01331+99999100721ADDGF103991999999999999999999
0029029170999991910082520004+62900+027667FM-12+009099999V0201801N001019999999N0000001N9+00891+99999100871ADDGF102991999999999999999999
0029029170999991910082606004+62900+027667FM-12+009099999V0201801N004119999999N0000001N9+01061+99999101381ADDGF100991999999999999999999
0029029170999991910082613004+62900+027667FM-12+009099999V0202001N005119999999N0000001N9+01611+99999101441ADDGF106991999999999999999999
0029029170999991910082620004+62900+027667FM-12+009099999V0209991C000019999999N0000001N9+00941+99999101441ADDGF100991999999999999999999
0029029170999991910082706004+62900+027667FM-12+009099999V0201601N004119999999N0000001N9+01061+99999101321ADDGF100991999999999999999999
0029029170999991910082713004+62900+027667FM-12+009099999V0200501N006219999999N0000001N9+01561+99999100741ADDGF102991999999999999999999
0029029170999991910082720004+62900+027667FM-12+009099999V0200901N002119999999N0000001N9+01331+99999100321ADDGF108991999999999999999999
0029029170999991910082806004+62900+027667FM-12+009099999V0201401N004119999999N0000001N9+00941+99999100141ADDGF108991999999999999999999
0029029170999991910082813004+62900+027667FM-12+009099999V0200501N004119999999N0000001N9+01221+99999099961ADDGF108991999999999999999999
0029029170999991910082820004+62900+027667FM-12+009099999V0200901N004119999999N0000001N9+01171+99999100101ADDGF108991999999999999999999
0029029170999991910082906004+62900+027667FM-12+009099999V0203601N003119999999N0000001N9+01001+99999100261ADDGF108991999999999999999999
0029029170999991910082913004+62900+027667FM-12+009099999V0203201N004119999999N0000001N9+01611+99999100511ADDGF100991999999999999999999
0029029170999991910082920004+62900+027667FM-12+009099999V0209991C000019999999N0000001N9+01061+99999100721ADDGF100991999999999999999999
0029029170999991910083006004+62900+027667FM-12+009099999V0202901N002119999999N0000001N9+01061+99999101261ADDGF108991999999999999999999
0029029170999991910083013004+62900+027667FM-12+009099999V0200501N003119999999N0000001N9+01781+99999101351ADDGF102991999999999999999999
0029029170999991910083020004+62900+027667FM-12+009099999V0209991C000019999999N0000001N9+01061+99999101471ADDGF100991999999999999999999
0029029170999991910083106004+62900+027667FM-12+009099999V0209991C000019999999N0000001N9+01111+99999101581ADDGF107991999999999999999999
0029029170999991910083113004+62900+027667FM-12+009099999V0201801N002119999999N0000001N9+01561+99999101621ADDGF108991999999999999999999
0029029170999991910083120004+62900+027667FM-12+009099999V0209991C000019999999N0000001N9+01281+99999101561ADDGF103991999999999999999999
0029029170999991910090106004+62900+027667FM-12+009099999V0201601N001019999999N0000001N9+01171+99999101671ADDGF108991999999999999999999
0029029170999991910090113004+62900+027667FM-12+009099999V0201401N003119999999N0000001N9+01441+99999101591ADDGF106991999999999999999999
0029029170999991910090120004+62900+027667FM-12+009099999V0209991C000019999999N0000001N9+01171+99999101641ADDGF104991999999999999999999
0029029170999991910090206004+62900+027667FM-12+009099999V0209991C000019999999N0000001N9+01001+99999101641ADDGF108991999999999999999999
0029029170999991910090213004+62900+027667FM-12+009099999V0200901N005119999999N0000001N9+01281+99999101551ADDGF103991999999999999999999
0029029170999991910090220004+62900+027667FM-12+009099999V0209991C000019999999N0000001N9+01001+99999101441ADDGF103991999999999999999999
0029029170999991910090306004+62900+027667FM-12+009099999V0202001N003119999999N0000001N9+01001+99999101231ADDGF102991999999999999999999
0029029170999991910090313004+62900+027667FM-12+009099999V0201601N005119999999N0000001N9+01671+99999100991ADDGF104991999999999999999999
0029029170999991910090320004+62900+027667FM-12+009099999V0201801N005119999999N0000001N9+01391+99999100841ADDGF108991999999999999999999
